:0E007200E582900000F07A007B80900000E0B4
:0C008000FC8A828B83F0900032020D2875
:0E008C00E582900001F0900001E0FAF582128A
:09009A000072908000E0F5822262
:0D00A30075820A12008CAA827B008B8312EA
:0E00B00040BAAA82AB83ACF0FDE4C0E0C0E031
:0E00BE007440C0E0743FC0E08A828B838CF0F7
:0E00CC00ED1238BBAA82AB83ACF0FDE58124B7
:0E00DA00FCF581E4C0E0C0E07420C0E074409A
:0E00E800C0E08A828B838CF0ED12413AAA822E
:0E00F600AB83ACF0FDE58124FCF5818A828BA2
:07010400838CF0ED0240C600
:0E010B0075820812008CAA827B009005EF74AA
:0E01190064F0E4A3F08A828B83123D9BAA82DD
:0E012700AB839005D474FFF0E4A3F08A828BC2
:04013500830238C643
:0E013900AAF0AB83E582900002F0A3EBF0A3E6
:0E014700EAF0900002E0FAA3E0FBA3E0FC74F3
:0E015500032AFDE43BFE8C078D828E838FF023
:0A0163001241FDFD600490083422F3
:0E016D008A828B838CF01241FDFDC364809466
:0E017B00B0403374B78DF063F08095F04028EB
:0E018900ED3395E0FEED24D0FDEE34FF8D0643
:0E0197007D00900005EDF0A3EEF090000274E4
:0C01A500012AF0E43BA3F0A3ECF080047E
:0401B1009008372259
:0E01B500900002E0FAA3E0FBA3E0FC8A828B3C
:0E01C300838CF01241FDFDC3648094B040486F
:0E01D10074B98DF063F08095F0403DED3395EC
:0E01DF00E0FEED24D0FDEE34FFFEC454F0CD62
:0E01ED00C4CD6DCD54F0CD6DFE900005E0FF49
:0E01FB00A3E0F8900005ED2FF0EE38A3F09091
:0E020900000274012AF0E43BA3F0A3ECF00223
:0202170002E4FF
:0E021900900002E0FAA3E0FBA3E0FC8A828BD7
:0E022700838CF01241FDFDC3648094E14048D9
:0E02350074E68DF063F08095F0403DED33955A
:0E024300E0FEED24A9FDEE34FFFEC454F0CD24
:0E025100C4CD6DCD54F0CD6DFE900005E0FFE4
:0E025F00A3E0F8900005ED2FF0EE38A3F0902C
:0E026D00000274012AF0E43BA3F0A3ECF002BF
:02027B0002E49B
:0E027D00900002E0FAA3E0FBA3E0FC8A828B73
:0E028B00838CF01241FDFDC3648094C1404796
:0E02990074C68DF063F08095F0403CED339517
:0E02A700E0FEED24C9FDEE34FFFEC454F0CDA0
:0E02B500C4CD6DCD54F0CD6DFE900005E0FF80
:0E02C300A3E0F8900005ED2FF0EE38A3F090C8
:0E02D100000274012AF0E43BA3F0A3ECF080DD
:0102DF00041A
:0402E000900835222B
:0E02E400900002E0FAA3E0FBA3E0FC8A828B0C
:0E02F200838CF01241FDFAC3648094B0402D5D
:0E03000074B98AF063F08095F04022EA3395DC
:0E030E00E0FBEA24D0FAEB34FFFB900005E0A0
:0E031C00FCA3E0FD900005EA2CF0EB3DA3F001
:03032A000203C10A
:0E032D00900002E0FAA3E0FBA3E0FC8A828BC2
:0E033B00838CF01241FDFAC3648094E1402CE3
:0E03490074E68AF063F08095F04021EA339567
:0E035700E0FBEA24A9FAEB34FFFB900005E07E
:0E036500FCA3E0FD900005EA2CF0EB3DA3F0B8
:02037300804CBC
:0E037500900002E0FAA3E0FBA3E0FC8A828B7A
:0E038300838CF01241FDFAC3648094C1402CBB
:0E03910074C68AF063F08095F04021EA33953F
:0E039F00E0FBEA24C9FAEB34FFFB900005E016
:0E03AD00FCA3E0FD900005EA2CF0EB3DA3F070
:0203BB008004BC
:0403BD00900836224C
:0C03C100900005E0FAA3E08A82F5832298
:0E03CD00AAF0AB83E582900007F0A3EBF0A34B
:0E03DB00EAF0900007E0FAA3E0FBA3E0FC7458
:0E03E900022AFDE43BFE8C078D828E838FF08E
:0A03F7001241FDFD60049001022296
:0E0401008A828B838CF01241FDFDC3648094CF
:0E040F00B0403E74B98DF063F08095F040333C
:0E041D00ED3395E0FEED24D0FDEE34FFFEC47D
:0D042B0054F0CDC4CD6DCD54F0CD6DFE90DC
:0E043800000AEDF0A3EEF090000774012AF028
:0A044600E43BA3F0A3ECF00205066E
:0E045000900007E0FAA3E0FBA3E0FC8A828B99
:0E045E00838CF01241FDFDC3648094E1403DAB
:0E046C0074E68DF063F08095F04032ED33952C
:0E047A00E0FEED24A9FDEE34FFFEC454F0CDEB
:0E048800C4CD6DCD54F0CD6DFE90000AEDF0A8
:0E049600A3EEF090000774012AF0E43BA3F0FF
:0504A400A3ECF0805DF7
:0E04A900900007E0FAA3E0FBA3E0FC8A828B40
:0E04B700838CF01241FDFDC3648094C1403D72
:0E04C50074C68DF063F08095F04032ED3395F3
:0E04D300E0FEED24C9FDEE34FFFEC454F0CD72
:0E04E100C4CD6DCD54F0CD6DFE90000AEDF04F
:0E04EF00A3EEF090000774012AF0E43BA3F0A6
:0504FD00A3ECF08004F7
:040502009001012241
:0E050600900007E0FAA3E0FBA3E0FC8A828BE2
:0E051400838CF01241FDFAC3648094B0402D38
:0E05220074B98AF063F08095F04022EA3395B8
:0E053000E0FBEA24D0FAEB34FFFB90000AE077
:0E053E00FCA3E0FD90000AEA2CF0EB3DA3F0D8
:03054C000205E3C2
:0E054F00900007E0FAA3E0FBA3E0FC8A828B99
:0E055D00838CF01241FDFAC3648094E1402CBF
:0E056B0074E68AF063F08095F04021EA339543
:0E057900E0FBEA24A9FAEB34FFFB90000AE055
:0E058700FCA3E0FD90000AEA2CF0EB3DA3F08F
:02059500804C98
:0E059700900007E0FAA3E0FBA3E0FC8A828B51
:0E05A500838CF01241FDFAC3648094C1402C97
:0E05B30074C68AF063F08095F04021EA33951B
:0E05C100E0FBEA24C9FAEB34FFFB90000AE0ED
:0E05CF00FCA3E0FD90000AEA2CF0EB3DA3F047
:0205DD00800498
:0405DF009001012264
:0C05E30090000AE0FAA3E08A82F583226F
:0E05EF00AA83E58290000CF0A3EAF090000CC5
:0E05FD00E0FAA3E0FBC3EA940AEB648094806A
:0E060B00503890000E7430F08A048B057E305B
:040619007F007800E6
:0E061D00C3EF940AE864809480505CECB5074B
:0D062B000CEDB5000890000EE0F9F58222FC
:0D0638000E90000EEEF00FBF00DB0880D822
:0E064500C3EA9410EB64809480503490000E51
:090653007441F07C417D0A7E0037
:0E065C00C3ED9410EE64809480501DEAB50545
:0D066A000CEBB5060890000EE0FFF58222B3
:0D0677000C90000EECF00DBD00DB0E80D8E5
:010684002253
:0E068500E58290000FF0900010E4F07A087B00
:010693000066
:0C069400900010E025E0FC900010F090B9
:0E06A000000FE0FC74015CFD900010E0FE4DC8
:0E06AE00F0ECC313FC90000FF01ABAFF011B12
:0B06BC00EA4B70D4900010E0F58222A1
:0E06C700438901758C90758A0075B80243A8AE
:0506D500874388152297
:0D06DA00900011E4F0900012F07582000213
:0206E70006E922
:0506E900D310AF01C3B6
:0E06EE00C0D0E582900013F0900012E0FAC236
:0C06FC00D575F00AEA30E704B2D5F4042A
:060708008430D502F40468
:0E070E00FBA2D595E0FC8B828C83C002C00359
:0E071C00C0041205EFAD82D004D003D00290CD
:0E072A000014EDF0EA3395E0FD9005EF740A3F
:0D073800F0E4A3F08B828C83C002C0051298
:0E0745003D9BAB82AC83D005D002EAC39BFA89
:0D075300ED9CFD8A828D831205EFAA829035
:0A0760000015EAF0900016E4F09096
:0C076A00010E740FF0758204121D1E9029
:09077600001475F000121C08903B
:0E077F000011E0FAC2D575F00AEA30E704B2C4
:03078D00D5F4049C
:060790008430D502F404E0
:0E079600FBA2D595E0FC8B828C83C002C003D1
:0E07A400C0041205EFAD82D004D003D0029045
:0E07B2000014EDF0EA3395E0FD9005EF740AB7
:0D07C000F0E4A3F08B828C83C002C0051210
:0E07CD003D9BAB82AC83D005D002EAC39BFA01
:0D07DB00ED9CFD8A828D831205EFAA8290AD
:0B07E8000015EAF0900016743AF09043
:0E07F3000017E4F090010E740CF075820412F1
:090801001D1E90001475F0001298
:0E080A001C08900013E0FAC2D575F00AEA301F
:06081800E704B2D5F40470
:06081E008430D502F40451
:0E082400FBA2D595E0FC8B828C83C002C00342
:0E083200C0041205EFAD82D004D003D00290B6
:0E0840000014EDF0EA3395E0FD9005EF740A28
:0D084E00F0E4A3F08B828C83C002C0051281
:0E085B003D9BAB82AC83D005D002EAC39BFA72
:0D086900ED9CFD8A828D831205EFAA82901E
:0B0876000015EAF0900016743AF090B4
:0E0881000017E4F090010E7409F07582041265
:09088F001D1E90001475F000120A
:070898001C08D0D092AF2232
:05089F00D310AF01C3FE
:0C08A400C0D0758280121B8874C4C0E0B4
:0C08B0007446C0E0123C93158115817A5B
:0508BC00007B007C0040
:0E08C100C3EB9440EC64809480400302095124
:0E08CF009005F97410F0E4A3F08B828C83C0C6
:0E08DD0002C003C004123ECDE5828583F0D038
:0E08EB0004D003D00245F070330AC002C003EF
:0A08F900C00474DFC0E07446C0E0E4
:0E090300123C9315811581D004D003D00290D0
:0E091100010E7401F08A82C002C003C00412FD
:08091F001D1ED004D003D0021C
:0E092700C002C003C004121BA7AD82D004D0D2
:0E09350003D0028D82C002C003C004123683BC
:0B094300D004D003D0020BBB00010C5D
:03094E000208C1DB
:0D09510090010E7401F0758201121D1E74DC
:08095E00E4C0E07446C0E012A1
:0A0966003C93158115817A007B0097
:0E097000C3EA9450EB6480948050759005F9B2
:0E097E007410F0E4A3F08A828B83C002C003E1
:0E098C00123ECDE5828583F0D003D00245F007
:0C099A00701DC002C003C002C00374FD49
:0C09A600C0E07446C0E0123C93E58124E0
:0709B200FCF581D003D00227
:0E09B900C002C003121BA7AC82D003D002EC18
:0D09C7003395E0FDC002C003C004C00574FC
:0809D40005C0E07447C0E01209
:0E09DC003C93E58124FCF581D003D0020ABAD9
:0309EA0000010BFE
:0309ED000209708C
:0509F000D0D092AF22FF
:0509F500D310AF01C3A7
:0E09FA00C0D075820A123683758240121B88A7
:040A08007A007B00F5
:0E0A0C00C3EA9440EB648094804003020A9E8B
:0E0A1A009005F97408F0E4A3F08A828B83C083
:0E0A280002C003123ECDE5828583F0D003D0DC
:0E0A36000245F0701DC002C003C002C0037470
:080A4400FDC0E07446C0E012A1
:0C0A4C003C93E58124FCF581D003D0022E
:0E0A5800C002C003121BA7AC82D003D00275EF
:0E0A66008209C002C003C004123683D004D03F
:0E0A740003D0027D00C002C003C004C00574A0
:080A82000AC0E07447C0E01255
:0E0A8A003C93E58124FCF581D003D0020ABA2A
:030A980000010B4F
:030A9B00020A0C40
:050A9E00D0D092AF2250
:070AA300900036E4F0A3F01F
:090AAA00740DC0E07447C0E012B5
:060AB3003C931581158142
:0E0AB900900034E4F0A3F090001875F00012E5
:090AC7003B6690001875F0001266
:0E0AD0000139AA82AB83900032EAF0A3EBF06A
:0E0ADE008A048B0574F82D400B9000347401CF
:060AEC00F0E4A3F0801706
:0A0AF200C002C003744FC0E0744757
:0D0AFC00C0E0123C9315811581D003D0029B
:0E0B0900900034E0FCA3E0FD4C60A5C002C0EB
:0A0B1700037495C0E07447C0E012BB
:0A0B21003C9315811581D003D0022A
:0E0B2B00900034E4F0A3F090001D75F000C0BF
:0E0B390002C003123B66D003D00290001D756F
:0E0B4700F000C002C003120139AC82AD83D0B1
:0D0B550003D0028C068D0774F82F400B9022
:0A0B620000347401F0E4A3F0801FDA
:0C0B6C00C002C003C004C00574D5C0E086
:0C0B78007447C0E0123C9315811581D039
:070B840005D004D003D002EC
:0E0B8B00900034E0FEA3E0FF4E6095ECC39AAC
:0E0B9900FCED9BFD74012CFEE43DFFC002C08C
:0C0BA70003C004C005C006C0077419C0DC
:0C0BB300E07448C0E0123C93E58124FC93
:0E0BBF00F581D005D004D003D0028C068D073E
:0D0BCD00EF30E71FC002C003C004C0057474
:080BDA002EC0E07448C0E012D7
:0E0BE2003C9315811581D005D004D003D002BC
:0B0BF0008C068D07EF30E703020AAA15
:040BFB007E007F00F9
:080BFF00C3EC9EED9F500122A2
:080C0700EE540F6003020CAF74
:0E0C0F00C004C005C002C003C004C005C0067A
:0B0C1D00C007C002C0037482C0E07476
:0C0C280048C0E0123C93E58124FCF581FB
:0E0C3400D007D006D005D004D003D002741033
:0D0C42002AFAE43BFB900036E4F0A3F090AA
:0A0C4F000032E0F8A3E0F98908750F
:080C59000900880490003DE54C
:0C0C610008F090003E7410F0E4A3F09046
:070C6D0000407422F0A374A3
:0C0C740000F0A3E4F08C82C002C003C0BA
:0E0C800004C005C006C007C000C001120DC4AC
:0E0C8E00D001D000D007D006D005D004D0038E
:0E0C9C00D002900032740128F0E439A3F0D0A9
:050CAA0005D0048013D9
:0E0CAF00900032E0F8A3E0F9900032740128C2
:050CBD00F0E439A3F092
:0E0CC200C004C005900036E0F8A3E0F9E82475
:0A0CD00022F582E93400F583E0FC10
:0E0CDA007D00C002C003C004C005C006C007F4
:0C0CE800C000C001C004C005748AC0E058
:0C0CF4007448C0E0123C93E58124FCF53C
:0E0D000081D001D000D007D006D005D004D09D
:0E0D0E0003D002900036740128F0E439A3F0FF
:050D1C000EBE00010FF6
:070D2100D005D004020BFF16
:0E46C4000A0D0909417363696920526570721D
:0D46D2006573656E746174696F6E0A0D008A
:0546DF000A0D090900AD
:0E46E4000A0D090948657820526570726573E9
:0B46F200656E746174696F6E0A0D0044
:0846FD000A0A0D30782578004F
:054705000920257800E9
:03470A002578000F
:0E470D000A0A0D20456E7465722053746172A5
:0E471B0074204164647265737320696E2048D7
:0E472900657820696E2048484820666F726DE2
:0E4737006174206265747765656E20303030E5
:0A47450020746F203746463A20002A
:0E474F000A0A0D202A2D4552524F522D2A09DA
:0E475D0020506C6561736520456E7465722096
:0E476B0076616C69642073746172742041641D
:0E4779006472657373206265747765656D20E8
:0E47870030303020616E64203746463A200004
:0E4795000A0A0D20456E74657220456E642080
:0E47A3004164647265737320696E2048657806
:0E47B10020696E2048484820666F726D617462
:0E47BF00206265747765656E2030303020749E
:0847CD006F203746463A200038
:0E47D5000A0A0D202A2D4552524F522D2A0954
:0E47E30020506C6561736520456E7465722010
:0E47F10076616C696420656E642041646472B8
:0E47FF00657373206265747765656D203030D8
:0C480D003020616E64203746463A2000DF
:0E4819000A0D09546F74616C20427974657346
:074827003A2025640A0D0090
:0E482E000A0D202D4552524F522D20456E642A
:0E483C00206164647265737320736D616C6C2F
:0E484A006572207468616E2074686520737456
:0E48580061727420616464726573730A0D20CE
:0E486600456E7465722056616C696420616451
:0E48740064726573732072616E67650A0D00D1
:084882000A0A0D25783A09002D
:04488A002578090084
:0E0D2800AA83E582900038F0A3EAF09000382C
:050D3600E0FAA3E0FB60
:080D3B00BA0005BB0002800FA5
:050D43001ABAFF011BBC
:0A0D4800900038EAF0A3EBF080E918
:090D5200900038EAF0A3EBF02256
:0E0D5B00AA83E58290003AF0A3EAF090003AF5
:050D6900E0FAA3E0FB2D
:080D6E00BA0005BB0002801D64
:0E0D7600900070C002C003120D28D003D002FE
:050D84001ABAFF011B7B
:0A0D890090003AEAF0A3EBF080DBE3
:090D930090003AEAF0A3EBF02213
:0B0D9C00E58290003CF090003CE0FA83
:050DA700BA00028012F9
:0E0DAC009003E8C002120D5BD0021A90003CCA
:040DBA00EAF080E9F2
:060DBE0090003CEAF02267
:0A0DC400E582900043F01217C8907A
:0E0DCE00003DE025E0FA74A04AFBF582C00269
:0D0DDC00121800D002C002121877D0029049
:0E0DE9000043E0FBF582C002121800D002C0E9
:0E0DF70002121877D002C0021217C8D00243B1
:0B0E050002A18A8212180012187790D8
:0E0E1000003EE0FAA3E0FB900040E0FCA3E00F
:080E1E00FDA3E0FE7F00780057
:0E0E2600C3EF9AE864808BF063F08095F05083
:0E0E340056C002C003C004C005C006C007C0FF
:0E0E42000012182DA982D000D007D006D005CE
:0E0E5000D004D003D0028C828D838EF0E91284
:0E0E5E003C7AA3AC82AD83C002C003C004C0C6
:0E0E6C0005C006C007C00012188BD000D007CA
:0E0E7A00D006D005D004D003D0020FBF009EDA
:030E880008809B44
:0E0E8B00EA2CFAEB3DFB8E07C002C003C00745
:0E0E990012182DAC82D007D003D0028A828BB3
:0B0EA700838FF0EC123C7A12189302CB
:020EB20017E542
:050EB400D310AF01C3E3
:0C0EB900C0D0E58290004AF01217C890EB
:0E0EC5000044E0FA25E0FB4303A08B82C0024C
:0D0ED300121800D002C002121877D0029051
:0E0EE000004AE0FBF582C002121800D002C0EA
:0B0EEE0002121877D002900048E0F5D7
:060EF9000AA3E0F50B90D6
:0E0EFF000045E0FDA3E0FEA3E0FF78007900CF
:0C0F0D00C00288028903C3EA950AEB9534
:0C0F19000BE433D002604E8D828E838F7B
:0E0F2500F01241FDFBA3AD82AE838B82C002B1
:0E0F3300C005C006C007C000C001121800D0E3
:0E0F410001D000D007D006D005D002C002C0FB
:0E0F4F0005C006C007C000C001121877D0010F
:0E0F5D00D000D007D006D005D00208B800A200
:030F6B0009809F5B
:0E0F6E00C0021217E5D0028A8212146ED0D093
:030F7C0092AF220F
:0A0F7F00E58290004DF01217C890B3
:0E0F8900004CE0FA25E0FB4303A08B82C0027F
:0D0F9700121800D002C002121877D002908C
:0E0FA400004DE0FBF582C002121800D002C022
:0E0FB20002121877D00290004BE0FBF582C0CF
:0E0FC00002121800D002C002121877D002C030
:0B0FCE00021217E5D0028A8202146EA6
:0A0FD900E58290004FF01217C89057
:0E0FE300004EE025E0FA74A04AFBF582C00241
:0D0FF100121800D002C002121877D0029032
:0E0FFE00004FE0FBF582C002121800D002C0C6
:0E100C0002121877D002C0021217C8D0024399
:0B101A0002A18A82121800121877123F
:0E102500182DAA82C002121893D002C0021227
:0E10330017E5D00290000AC002120D28D0026C
:031041008A82227E
:051044001217C87A003C
:03104900BA0900E1
:0E104C00500CD292C0021217B7D0020A80EFE9
:0A105A001217C81217E590000502F6
:021064000D5B22
:09106600748EC0E07448C0E01271
:06106F003C931581158180
:0A10750090005075F000123B6690E9
:0D107F00005075F000120139AA82AB839079
:0E108C000058EAF0A3EBF08A048B05C374FF52
:0C109A009C74079D5017C002C00374D066
:0C10A600C0E07448C0E0123C93158115B6
:0510B20081D003D00213
:0E10B7008A048B05C374FF9C74079D40B1C072
:0A10C50002C0037416C0E07449C0B5
:0C10CF00E0123C9315811581D003D00283
:0E10DB0090005075F000C002C003123B66D0BA
:0E10E90003D00290005075F000C002C0031248
:0E10F7000139AC82AD83D003D0028C068D0788
:0E110500C374FF9E74079F501FC002C003C03A
:0A11130004C0057456C0E07449C022
:0E111D00E0123C9315811581D005D004D0035B
:02112B00D002F0
:0E112D008C068D07C374FF9E74079F40A1ECD3
:0E113B00C39AFEED9BFF74012EF8E43FF9C04D
:0E11490002C003C004C005C006C007C000C03D
:0A11570001749AC0E07449C0E01270
:0E1161003C93E58124FCF581D007D006D00533
:0E116F00D004D003D0028E008F01E930E727B4
:0D117D00C002C003C004C005C006C0077456
:08118A00AFC0E07449C0E0129F
:0E1192003C9315811581D007D006D005D004FE
:0411A000D003D002A6
:0711A400EF30E703021066C3
:0C11AB00C002C003C004C0057403C0E013
:0C11B700744AC0E0123C9315811581D0F1
:0711C30005D004D003D002A7
:0E11CA0090005575F000C002C003C004C005BF
:0E11D800123B66D005D004D003D00290005523
:0E11E60075F000C002C003C004C0051203CDA6
:0E11F400AE82AF83D005D004D003D0028E00AF
:0E1202008F01C374FF98E4995027C002C00307
:0C121000C004C005C006C0077423C0E085
:0C121C00744AC0E0123C9315811581D08B
:0B12280007D006D005D004D003D00290
:0D1233008E008F01C374FF98E499500302F0
:0212400011CAD1
:0E124200C006C007B296740F5AF879007410F7
:0E125000C398F8E499F988068907C3E49E74F0
:0E125E00808FF063F08095F0E433D007D00667
:0E126C006072C006C00788068907C3EE9410A2
:0E127A00EF64809480E433D007D0066059C042
:0812880004C0058A0C8B0D85E2
:031290000C0EAD94
:0C1293000D7C0090005AEDF08E048F05D9
:0E129F0090005BECF090005CE8F0A3E9F085B5
:0C12AD000E82C002C003C004C005C006D1
:0E12B900C007C000C0011213CED001D000D07B
:0E12C70007D006D005D004D003D00290005806
:0B12D500E82AF0E93BA3F0D005D004AC
:0E12E000900058E0FAA3E0FBECC39AF8ED9BF7
:0E12EE00F99006027410F0E4A3F08882898360
:0D12FC00C002C003C004C005C006C0071238
:0E1309004042A882A983D007D006D005D004A8
:0B131700D003D002E84960668E0C8F06
:011322000DBD
:0C132300E8496056C006C0078A0E8B0720
:0B132F007E0090005AEFF090005BE59C
:0C133A000CF090005C7410F0E4A3F0854F
:0C1346000E82C002C003C004C005C00637
:0E135200C007C000C0011213CED001D000D0E1
:0E13600007D006D005D004D003D00274102AA6
:09136E00FAE43BFB18B8FF011979
:06137700D007D00680A69D
:08137D00900058EAF0A3EBF028
:0E138500900058E0FAA3E0FBECC39AFCED9B4D
:0E139300FD8C008D01C3E89410E96480948005
:0E13A10050288C008D01E920E7208A008B0285
:0D13AF007B0090005AEAF090005BEEF09099
:0D13BC00005C74012CF0E43DA3F088821267
:0213C90013CE41
:0313CB00B29622B5
:0A13CE00E58290005EF01217C8904F
:0E13D800005AE0FA25E0FB4303A08B82C0021E
:0D13E600121800D002C002121877D0029039
:0E13F300005EE0FBF582C002121800D002C0BE
:0C14010002121877D00290005BE0FB9014
:0B140D00005CE0FCA3E0FD7E007F001F
:0E1418008E008F01C3E89CE99D503F8B82C07F
:0E14260002C003C004C005C006C007121800B3
:0E143400D007D006D005D004D003D002C002ED
:0E144200C003C004C005C006C007121877D052
:0E14500007D006D005D004D003D0020EBE0097
:04145E00B90F80B68C
:0C146200C0021217E5D0028A8202146E4C
:0E146E00E58290005FF090005FE025E0FA4319
:02147C0002A0CC
:0E147E00C0021217C8D0028A82C002121800E3
:0E148C00D002C002121877E582D00270E5226D
:0E488E000A0A0D20456E746572205374617223
:0E489C0074204164647265737320696E204855
:0E48AA00657820696E2048484820666F726D60
:0E48B8006174206265747765656E2030303063
:0A48C60020746F203746463A2000A8
:0E48D0000A0A0D202A2D4552524F522D2A0958
:0E48DE0020506C6561736520456E7465722014
:0E48EC0076616C69642073746172742041649B
:0E48FA006472657373206265747765656D2066
:0E49080030303020616E64203746463A200081
:0E4916000A0A0D20456E74657220456E6420FD
:0E4924004164647265737320696E2048657883
:0E49320020696E2048484820666F726D6174DF
:0E494000206265747765656E2030303020741B
:08494E006F203746463A2000B5
:0E4956000A0A0D202A2D4552524F522D2A09D1
:0E49640020506C6561736520456E746572208D
:0E49720076616C696420656E64204164647235
:0E498000657373206265747765656D20303055
:0C498E003020616E64203746463A20005D
:0E499A000A0D09546F74616C204279746573C4
:0749A8003A2025640A0D000E
:0E49AF000A0D202D4552524F522D20456E64A8
:0E49BD00206164647265737320736D616C6CAD
:0E49CB006572207468616E20746865207374D4
:0E49D90061727420616464726573730A0D204C
:0E49E700456E7465722056616C6964206164CF
:0E49F50064726573732072616E67650A0D004F
:0E4A03000A0A0D20456E7465722044617461CC
:0E4A110020666F7220426C6F636B2046696CEA
:044A1F006C3A2000CD
:0E4A23000A0A0D202A2D4552524F522D2A0903
:0E4A310020506C6561736520456E74657220BF
:0E4A3F0076616C696420446174612062657464
:0E4A4D007765656E20303020746F2046463A43
:024A5B00200039
:05149A00D310AF01C3F7
:0E149F00C0D09000B07424F09000B17447F0FB
:0D14AD009000B27450F09000B37452F090B3
:0C14BA0000B4744DF09000B57443F09045
:0E14C60000B67401F0C294900064120D5B7ABF
:0314D400007B009A
:0A14D7009000B6E0FCBC0A0280257C
:0E14E100C002C003123695AC82D003D0029038
:0B14EF0000B6ECF0EA2460F582EB345C
:0C14FA0000F583ECF00ABA00D40B80D19E
:0C150600900032120D5BD2949005DD7451
:0A151200B0F0A37400F0A37400F021
:0A151C0090006075F000123A949000
:0A152600006075F000D0D092AF22F3
:0E153000AAF0AB83E5829000B7F0A3EBF0A326
:0E153E00EAF09000B7E0FAA3E0FBA3E0FC7D2A
:03154C00007E001E
:0E154F00C3ED648094815019EE2AFFE43BF84E
:0E155D008C018F82888389F01241FDFFBF2C24
:02156B00010D70
:03156D000E80DF0E
:0D1570009000B7E0FAA3E0FBA3E0FC7D00D3
:0E157D00EE2AFFE43BF88C018F82888389F010
:09158B001241FDFFBF2C0280108B
:0A159400ED24BAF582E43400F5837B
:06159E00EFF00D0E80D9F4
:0715A4009000BA75F000226F
:0E15AB00AAF0AB83E5829000C8F0A3EBF0A39A
:0E15B900EAF09000C8E0FAA3E0FBA3E0FC7D9E
:0315C700007E00A3
:0E15CA00C3ED648094825019EE2AFFE43BF8D2
:0E15D8008C018F82888389F01241FDFFBF2CA9
:0215E600010DF5
:0315E8000E80DF93
:0E15EB009000C8E0FAA3E0FBA3E0FCEE2AFEAD
:0E15F900E43BFD8C078E828D838FF01241FD46
:03160700F5822247
:0E160A00AAF0AB83E5829000CBF0A3EBF0A337
:0E161800EAF09000CBE0FAA3E0FBA3E0FC7D3B
:03162600007E0043
:0E162900C3ED648094835019EE2AFFE43BF871
:0E1637008C018F82888389F01241FDFFBF2C49
:02164500010D95
:031647000E80DF33
:0D164A009000CBE0FAA3E0FBA3E0FC7D00E4
:0E165700EE2AFFE43BF88C018F82888389F035
:091665001241FDFFBF2C028010B0
:0A166E00ED24CEF582E43400F5838C
:06167800EFF00D0E80D919
:0A167E000EED24CEFDE43400FFEE73
:0E1688002AFAE43BFB8A828B838CF01241FD30
:0D169600FA8D828F83F09000CE75F0002257
:0E16A300AAF0AB83E5829000DCF0A3EBF0A38D
:0E16B100EAF09000DCE0FAA3E0FBA3E0FC7D91
:0316BF00007E00AA
:0E16C200C3ED648094855019EE2AFFE43BF8D6
:0E16D0008C018F82888389F01241FDFFBF2CB0
:0216DE00010DFC
:0316E0000E80DF9A
:0D16E3009000DCE0FAA3E0FBA3E0FC7D003A
:0E16F000EE2AFFE43BF88C018F82888389F09C
:0916FE001241FDFFBF2C02801017
:0A170700ED24DFF582E43400F583E1
:06171100EFF00D0E80D97F
:0A1717000EED24DFFDE43400FFEEC8
:0E1721002AFAE43BFB8A828B838CF01241FD96
:0D172F00FA8D828F83F09000DF75F00022AC
:0E173C00AAF0AB83E5829000EDF0A3EBF0A3E2
:0E174A00EAF09000EDE0FAA3E0FBA3E0FC7DE6
:03175800007E0010
:0E175B00C3ED648094895019EE2AFFE43BF838
:0E1769008C018F82888389F01241FDFFBF2C16
:02177700010D62
:031779000E80DF00
:0D177C009000EDE0FAA3E0FBA3E0FC7D008F
:0E178900EE2AFFE43BF88C018F82888389F002
:091797001241FDFFBF2C0280107D
:0A17A000ED24F0F582E43400F58337
:0617AA00EFF00D0E80D9E6
:0717B0009000F075F000222B
:0E17B700900001120D28D2B4900001120D28EE
:0317C500C2B42289
:0D17C800C2B4D292900001120D28D2B4904C
:0E17D5000001120D28C292900001120D28C2D0
:0217E300B4222E
:0E17E500C2B4900001120D28C29290000112B1
:0D17F3000D28D2B4900001120D28D29222D0
:08180000E5829000FEF07A0081
:03180800BA08001B
:0E180B00501D9000FEE0FB339292C002C0031D
:0E1819001217B7D003D002EB2BFB9000FEF0AD
:031827000A80DE56
:03182A00D2922235
:09182D009000FFE4F0D2927A0071
:03183600BA0800ED
:0E1839005035900001C002120D28D002D2B42A
:0E184700900001C002120D28D0029000FFE0B8
:0E18550025E0FB9000FFF09000FFE0FBE4A216
:0D1863009233FC9000FF4BF0C2B40A80C627
:071870009000FFE0F5822269
:0E187700D292D2B4900001120D28E4A2923356
:06188500FAC2B48A8222BF
:08188B00C2921217B7D292229B
:08189300D2921217B7D2B42261
:0D189B00E582900100F01217C875827012EE
:0618A800180012187790F1
:0A18AE000100E0FAF58212180012A2
:0918B80018771217E590000502F3
:0218C1000D5BBD
:0A18C3001217C87582711218001286
:0A18CD00187712182DAA82C002122B
:0E18D700188BD002C0021217E5D00290000A52
:0A18E500C002120D28D0028A8222F0
:0518EF00D310AF01C39E
:0E18F400C0D0AA83E582900101F0A3EAF09033
:0E1902000101E0FAA3E0FB8A828B83C002C0E1
:0E191000031205EFAC82D003D00290010E74DA
:0E191E0007F0758204C002C003C004121D1E33
:0D192C00D004D003D0028C82C002C0031290
:0E1939001B5DD003D002EBC454F0CAC4CA6ACE
:0E194700CA54F0CA6AFB900101EAF0A3EBF06B
:0E195500900101E0FAA3E0FB900101740F4A3B
:0E196300F0A3EBF0900101E0FAA3E0FB8A8212
:0819710012189BD0D092AF22A6
:09197900745DC0E0744AC0E01284
:061982003C931581158164
:0A19880090010375F000123B669019
:0E199200010375F000123961AA82AB838A044A
:0E19A0008B05C374079CE49D5017C002C00362
:0919AE007482C0E0744AC0E0122A
:0A19B7003C9315811581D003D00286
:0E19C1008A048B05C374079CE49D40BBC002E2
:0A19CF00C00374B9C0E0744AC0E020
:0B19D900123C9315811581D003D00251
:0E19E40090010375F000C002C003123B66D0F4
:0E19F20003D00290010375F000C002C0031282
:0E1A00003961AC82AD83D003D0028C068D0715
:0E1A0E00C374019EE49F501FC002C003C004B9
:0A1A1C00C00574ECC0E0744AC0E09D
:0E1A2600123C9315811581D005D004D003D059
:011A340002AF
:0E1A35008C068D07C374019EE49F40A3C0027F
:0C1A4300C003C004C0051218C385820F48
:0E1A4F00D005D004D003D002EC4D70718A0790
:0E1A5D008B008F8288831240BAAF82A883A9C3
:0E1A6B00F0FE9005F1EFF0A3E8F0A3E9F0A380
:0E1A7900EEF0900000E4F5F07440123DBBAEBC
:0E1A870082AF83A8F0F9C006C007C000C001FE
:0E1A950090000075F07F74431238BBAE82AF34
:0E1AA30083A8F0F9E58124FCF5818E828F8303
:0C1AB10088F0E91240C6AE82AF83A80F97
:0E1ABD007900E85206E95207900106EEF0802B
:011ACB0022F8
:0A1ACC008AF005F0AA04AB058006BD
:061AD600EA2AFAEB33FBE3
:0C1ADC00D5F0F7AE0F7C00EE4202EC42A9
:061AE80003900106EAF084
:0E1AEE00900106E0FAF58212189B90000502A6
:021AFC000D28B3
:0E4A5D000A0A0D092053656C656374207069A8
:0E4A6B006E206E756D6265722066726F6D2032
:094A79003020746F20373A200050
:0E4A82000A0A0D202A2D4552524F522D2A0AA3
:0E4A90000D0920456E74657220612076616C00
:0E4A9E006964206E756D6265722062657477C2
:0D4AAC0065656E203020746F20373A2000C1
:0E4AB9000A0A0D092053656C65637420446978
:0E4AC70072656374696F6E206F662070696E91
:0E4AD5003A2020302E4F7574707574202031F9
:094AE3002E20496E707574090063
:0E4AEC000A0A0D202A2D4552524F522D2A0A39
:0E4AFA000D0920456E74657220612076616C96
:0E4B08006964206E756D626572206265747757
:0D4B160065656E2030206F7220313A20005E
:0E1AFE00C293900014120D5B90A0007430F0A3
:0D1B0C00900006120D5B90A0007430F09068
:0E1B19000005120D5B90A0007430F0121BDD71
:0E1B270090A0007438F0121BDD90A00074082E
:0E1B3500F0121BDD90A000740CF0121BDD906E
:0E1B4300A0007406F0121BDD90A0007401F0EB
:0C1B510090010E7401F0758201021D1E4F
:051B5D00D310AF01C32D
:0E1B6200C0D0E582900107F0D29390000112EE
:0E1B70000D5B7A007BA0900107E0FC8A828B5F
:0A1B7E0083F0121BDDD0D092AF22DD
:0E1B8800E582900108F0C293900001120D5BFF
:0E1B96007A007BA0900108E0FC8A828B83F02D
:031BA400021BDD44
:0E1BA700D293900001120D5B90C000E0FAC0D6
:091BB50002121BDDD0028A82221B
:0E1BBE00E582900109F0C293900001120D5BC8
:0E1BCC007A007BA0900109E0FC8A828B83F0F6
:031BDA00021BDD0E
:0E1BDD00C29390C000E0FA90010AF09000015F
:031BEB00120D5B7D
:0E1BEE0090010AE0FA30E70B90C000E0FA9098
:051BFC00010AF080ED7C
:071C010090010AE0F58222C8
:051C0800D310AF01C381
:0E1C0D00C0D0AAF0AB83E58290010BF0A3EBF0
:0E1C1B00F0A3EAF090010BE0FAA3E0FBA3E0D7
:051C2900FC7D007E00BF
:0E1C2E00ED2AFFEE3BF88C018F82888389F04F
:0A1C3C001241FDFFBF0003021D1955
:0D1C46008F82C002C003C004C005C006129A
:0E1C53001B5DD006D005D004D003D0020DBD1D
:031C610000010E71
:0E1C6400C002C003C004C005C006121BDDAFE5
:0E1C720082D006D005D004D003D002BF1022CD
:0E1C800090010E7401F0758202C002C003C014
:0E1C8E0004C005C006121D1ED006D005D004ED
:061C9C00D003D002808C91
:0E1CA200BF502390010E7401F0758203C00242
:0E1CB000C003C004C005C006121D1ED006D021
:0A1CBE0005D004D003D002021C2E52
:0E1CC800BF202390010E7401F0758204C0024B
:0E1CD600C003C004C005C006121D1ED006D0FB
:0A1CE40005D004D003D002021C2E2C
:051CEE00BF600280034D
:031CF300021C2EA2
:0E1CF60090010E7401F0758204C002C003C09C
:0E1D040004C005C006121D1ED006D005D00476
:071D1200D003D002021C2ED9
:051D1900D0D092AF22C2
:051D1E00D310AF01C36A
:0E1D2300C0D0E58290010FF090010FE0FABAF7
:0A1D3100011590010EE0FABA11004E
:0D1D3B00500B747F2AFAF582121BBE8060E7
:0E1D480090010FE0FABA021590010EE0FABA0F
:021D560011007A
:0D1D5800500B74BF2AFAF582121BBE8043A7
:0E1D650090010FE0FABA031590010EE0FABAF1
:021D730011005D
:0D1D7500500B748F2AFAF582121BBE8026D7
:0E1D820090010FE0FABA041590010EE0FABAD3
:021D9000110040
:0D1D9200500B74CF2AFAF582121BBE800997
:091D9F00904B2375F080121C0822
:051DA800D0D092AF2233
:0E1DAD00E582900113F0900113E0FAC4540F88
:0E1DBB00FB7C008B828C83C002C003C004122C
:0E1DC90005EFAD82D004D003D002900119EDD9
:0E1DD700F07D00ECC454F0CBC4CB6BCB54F0C9
:0E1DE500CB6BFCEAC39BFAED9CFD8A828D83DA
:0B1DF3001205EFAA8290011AEAF0909E
:091DFE00011BE4F07429C0E0743B
:0A1E07004BC0E0123C9315811581D9
:0E1E110090011EE4F0A3F090011475F0001291
:091E1F003B6690011475F00012FD
:0E1E28003961AA82AB838A048B05C3EC940453
:0E1E3600ED9400500B90011E7401F0E4A3F037
:021E4400801705
:0A1E4600C002C003744FC0E0744BEB
:0D1E5000C0E0123C9315811581D003D00233
:0D1E5D0090011EE0FCA3E0FD4C60A90A907E
:0B1E6A00010E7401F08A82121D1E9010
:0E1E75000110E0FAA3E0FBA3E0FC8A828B835D
:0C1E83008CF0121C0875823A121B5D9056
:081E8F00011975F000021C08A6
:051E9700D310AF01C3F0
:0E1E9C00C0D0E582900123F0900123E0FAC44B
:0E1EAA000354F8FA900123F0900123E0FA436C
:0E1EB80002408A82121B88900120E0FAA3E00B
:061EC600FBA3E0FC7D001F
:0E1ECC00C3ED64809488502AED2AFEE43BFFAB
:0E1EDA008C008E828F8388F01241FDFEF5820F
:0E1EE800C002C003C004C005121B5DD005D0AF
:081EF60004D003D0020D80CEE0
:051EFE00D0D092AF22DC
:051F0300D310AF01C383
:0E1F0800C0D09001247404F09001257404F000
:0D1F16009001267403F09001277401F090F3
:0C1F230001287401F090012B7402F09072
:0C1F2F00012C7403F090012D7405F0905B
:0E1F3B00012E7404F090012F7405F0758201E0
:0A1F4900121B889001327402F09020
:0C1F530001337401F075820612205D90CD
:0E1F5F0001327403F09001337404F0758200B7
:0A1F6D0012205D9001327403F09021
:0C1F770001337401F075820012205D90AF
:0E1F830001327402F09001337406F075820092
:0A1F910012205D9001327402F090FE
:0C1F9B0001337404F075820612205D9082
:0E1FA70001327404F09001337401F075820170
:071FB50012205D7A007B00A1
:0D1FBC00C3EA9405EB648094805037EA245A
:0A1FC90024F582EB3401F583E0FCFF
:0A1FD300EA242BF582EB3401F583BC
:0E1FDD00E0FD900132ECF0900133EDF07582E2
:0E1FEB0002C002C00312205DD003D0020ABA69
:051FF90000C10B80BED9
:0E1FFE009001327404F09001337404F0758287
:0B200C000312205D9001327403F0907D
:0C20170001337406F075820312205D9006
:0E20230001327401F09001337406F0758204EE
:0A20310012205D9001327403F0905C
:0C203B0001337403F075820512205D90E3
:0E20470001327401F09001337403F0758205CC
:0820550012205DD0D092AF22F1
:05205D00D310AF01C328
:0E206200C0D0E582900134F0900132E0FA9097
:0B2070000133E0FB90010EF08A8212A9
:0A207B001D1E900134E0FAF58212F8
:072085001B5DD0D092AF22D9
:064B23004572726F720082
:0E4B29000A0A0D20456E74657220526F7720C7
:0E4B37006E756D626572206265747765656EDD
:0A4B4500203020746F20333A200066
:0E4B4F000A0A0D20456E7465722076616C694D
:0E4B5D006420726F77206E756D626572206243
:0E4B6B0065747765656D203020616E642033BF
:034B79003A2000DF
:06000000020016022B496C
:03000B00022C685C
:03001300022BD8E5
:03006F0002208CE0
:05208C0012209880FE07
:07209100438E0C90000022B9
:0E2098009003637456F090036CE4F0A3F0C262
:0E20A6009075820112189B90004EE4F0758236
:0C20B40000120FD9AA82900335EAF090C8
:0D20C000004EE4F0758201120FD9AA829043
:0D20CD000336EAF090004EE4F07582021236
:0A20DA000FD9AA82900337EAF01232
:0C20E4001AFE90010E7401F075820212C9
:0920F0001D1E904B7C75F080125E
:0920F9001C08904B8D75F080125B
:092102001C08904B9E75F0801240
:0C210B001C08758201120D9C75820112E7
:062117001B8812369F1226
:0A211D003666122E64AA82C0021278
:0E21270006C7D002EA700975A70375A61E75DB
:02213500A6E121
:0E21370090033A7401F0E4A3F090033C7401AD
:07214500F0E4A3F0121044C6
:0D214C0012010BAA82AB83900342EAF0124D
:0C21590037ABAA82AB83900343EAF0127C
:0C21650000A3AA82AB83900344EAF012AE
:0E2171003735AA82AB83900339E0FC6003028D
:02217F002473C7
:08218100900338E0FCBC0300F0
:05218900400302247375
:0E218E00C002C00312149AAC82AD83AEF0D032
:0E219C0003D0028C828D838EF0C002C003C07F
:0E21AA0004C005C0061215ABAF82D006D005EA
:0E21B800D004D003D002900363EFF090033800
:0E21C600E0F8900338740128F0BF4102800356
:0321D40002244E94
:0E21D700C002C0039003397401F08C828D8326
:0D21E5008EF0C002C003C004C005C0061289
:0E21F200160AAF82A883A9F0D006D005D0044B
:0E220000D003D00290035DEFF0A3E8F0A3E955
:0E220E00F08C828D838EF0C002C003C004C02D
:0E221C0005C0061216A3AF82A883A9F0D00653
:0E222A00D005D004D003D002900360EFF0A3E3
:0E223800E8F0A3E9F08C828D838EF0C002C026
:0E22460003C004C005C00612173CAF82A88377
:0D225400A9F0D006D005D004D003D0029030
:0E2261000364EFF0A3E8F0A3E9F08C828D8314
:0D226F008EF0C002C003C007C000C0011205
:07227C0015308582108583F7
:0A2283001185F012D001D000D00741
:0E228D00D003D0028F82888389F01241FDFABF
:0E229B00900367F074012FFAE438FB89048A7F
:0E22A900828B838CF01241FDFA900368F09056
:0E22B7000369740AF090036775F000C007C059
:0E22C50000C001123961AA82AB83D001D000A3
:0E22D300D007900607EAF074022FFAE438FBF9
:0D22E10089048A828B838CF01241FDFA90F3
:0E22EE000367F074032FFAE438FB89048A8238
:0D22FC008B838CF01241FDFA900368F09086
:0E2309000369740AF090036775F000C007C006
:0E23170000C001123961AA82AB83D001D00050
:0E232500D007900608EAF074042FFAE438FBA3
:0D23330089048A828B838CF01241FDFA90A0
:0E2340000367F074052FFFE438F88F8288835E
:0B234E0089F01241FDFF900368F09041
:0C2359000369740AF090036775F000122D
:0C2365003961AA82AB83900609EAF0857A
:0623710010828511838536
:0723770012F01241FDFA9083
:0A237E000367F074012510FAE4353E
:0A23880011FBAC128A828B838CF0EB
:092392001241FDFA900368F0907D
:0C239B000369740AF090036775F00012EB
:0E23A7003961AA82AB8390033EEAF0740225EE
:0723B50010FAE43511FBAC46
:0C23BC00128A828B838CF01241FDFA9093
:0A23C8000367F074032510FAE435F2
:0A23D20011FBAC128A828B838CF0A1
:0923DC001241FDFA900368F09033
:0C23E5000369740AF090036775F00012A1
:0E23F1003961AA82AB8390033FEAF0740425A1
:0723FF0010FAE43511FBACFC
:0C240600128A828B838CF01241FDFA9048
:0A2412000367F074052510FAE435A5
:0A241C0011FBAC128A828B838CF056
:092426001241FDFA900368F090E8
:0C242F000369740AF090036775F0001256
:0E243B003961AA82AB83900340EAF0D294D0BC
:0524490003D002802514
:0E244E00900338E0FCBC031D9003637456F04D
:0A245C00C002C00374AFC0E0744B6F
:0D246600C0E0123C9315811581D003D00217
:0A247300900607E0FC90034DF09086
:09247D000608E0FC90034EF0900B
:092486000609E0FC90034FF09000
:0B248F000350742CF090033EE0FC9022
:09249A000351F090033FE0FD90B6
:0A24A3000352F0900353742CF090E4
:0924AD000342E0FE900354F0909C
:0B24B6000355742CF0900343E0FE90EF
:0A24C1000356F0900357742CF090BE
:0924CB000344E0FE900358F09078
:0E24D4000359742CF08A068B078F0090035A70
:0E24E200E8F090035BEEF090035C740AF0905B
:0924F0000346E0FE90033AE0F51A
:0A24F90010A3E0F511EE3395E0F9B1
:0A250300EEB51006E9B511028003E1
:03250D0002214C5C
:0C251000900347E0FEBE0131EE2441F5CF
:0C251C0082E43403F583E0F93395E0FF1E
:09252800C001C007C010C011740D
:08253100DEC0E0744BC0E012B3
:0E2539003C93E58124FAF581900346E4F0021C
:0225470026313B
:0A254900BE022DEE2441F582E434B9
:0C25530003F583E0FF3395E0F8C007C0FB
:0A255F00007415C0E0744CC0E012D7
:0E2569003C93E58124FCF581900346E4F002EA
:0225770026310B
:0A257900BE032DEE2441F582E43488
:0C25830003F583E0FF3395E0F8C007C0CB
:0A258F00007437C0E0744CC0E01285
:0E2599003C93E58124FCF581900346E4F002BA
:0225A7002631DB
:0525A900BE04028003E6
:0325AE00022631D1
:0E25B100900340E0FE3395E0FFED3395E0F837
:0E25BF00EC3395E0F9C006C007C005C000C0AF
:0C25CD0004C001C002C003744AC0E074E6
:0C25D9004CC0E0123C93E58124F6F58133
:0E25E500900363E0FABA413B900364E0C0E06B
:0E25F300A3E0C0E0A3E0C0E0900360E0C0E021
:0E260100A3E0C0E0A3E0C0E090035DE0C0E015
:0C260F00A3E0C0E0A3E0C0E07474C0E0F1
:0C261B00744CC0E0123C93E58124F5F5FE
:012627008131
:09262800900347E4F0900346F032
:0C26310090036CE0FAA3E0FB7C007D004D
:0D263D00C3EC9410ED64809480502DEA24CD
:08264A0035FEEB3401FFEC2426
:0A2652004DF582ED3403F583E0F846
:0A265C008E828F83F00ABA00010B92
:0E26660090036CEAF0A3EBF00CBC00CB0D80EF
:01267400C89D
:0E26750090036CEAF0A3EBF0BA4005BB000244
:022683008003D2
:03268500022757D2
:0E268800900335E0FA20E02D7B00900336E051
:0E269600FC7D00900337E0FE7F00C002C00311
:0C26A400C004C005C006C00774A0C0E060
:0C26B000744CC0E0123C93E58124F8F566
:0126BC00819C
:0B26BD0090036CE4F0A3F09005B774EC
:0A26C80035F0A37401F0A37400F0D4
:0A26D20090033575F0001232CC9031
:0D26DC000335E004FA900335F0BAFE0F90CC
:0B26E9000335E4F0900336E004FA90A3
:0326F4000336F0BA
:0E26F700900336E0FABAFF0F900336E4F0903D
:092705000337E004FA900337F0F9
:0D270E00900337E0FABAFF05900336E4F0BF
:0A271B00900335E0FA90004BF090B7
:0B272500004CE4F0758200120F7F9062
:092730000336E0FA90004BF09032
:0B273900004CE4F0758201120F7F904D
:092744000337E0FA90004BF0901D
:0A274D00004CE4F0758202120F7FC9
:0E27570090033CE0FAA3E0FBBA0105BB0002D0
:022765008003EF
:0327670002281530
:0E276A00900342E0FAC2D575F00AEA30E704A7
:04277800B2D5F404DE
:06277C008430D502F404D4
:0E278200FAA2D595E0FB90036AEAF0A3EBF013
:0E2790008A828B831205EFAA82900348EAF03A
:0E279E00900342E0FA3395E0FB90036AE0FC02
:0E27AC00A3E0FD9005EF740AF0E4A3F08C8228
:0E27BA008D83C002C003123D9BAC82AD83D064
:0E27C80003D00290036AEAC39CF0EB9DA3F0DD
:0D27D60090036AE0FAA3E0FB8A828B831275
:0A27E30005EFAA82900349EAF09086
:0E27ED00034AE4F090010E7403F075820212AC
:0927FB001D1E904CFF75F08012C8
:092804001C0890034875F0001255
:08280D001C08758225121B5DF9
:0E28150090033CE0FAA3E0FBBA0205BB000210
:02282300800330
:032825000228D9AD
:0E282800900343E0FAC2D575F00AEA30E704E7
:04283600B2D5F4041F
:06283A008430D502F40415
:0E284000FAA2D595E0FB90036AEAF0A3EBF054
:0E284E008A828B831205EFAA82900348EAF07B
:0E285C00900343E0FA3395E0FB90036AE0FC42
:0E286A00A3E0FD9005EF740AF0E4A3F08C8269
:0E2878008D83C002C003123D9BAC82AD83D0A5
:0E28860003D00290036AEAC39CF0EB9DA3F01E
:0D28940090036AE0FAA3E0FB8A828B8312B6
:0A28A10005EFAA82900349EAF090C7
:0E28AB00034AE4F090010E7403F075820212ED
:0928B9001D1E904D0775F0801200
:0928C2001C0890034875F0001297
:0C28CB001C0875828D121B5D7582431283
:0228D7001B5D87
:0E28D90090033CE0FAA3E0FBBA0305BB00024B
:0228E70080036C
:0328E90002299A27
:0E28EC00900344E0FAC2D575F00AEA30E70422
:0428FA00B2D5F4045B
:0628FE008430D502F40451
:0E290400FAA2D595E0FB90036AEAF0A3EBF08F
:0E2912008A828B831205EFAA82900348EAF0B6
:0E292000900344E0FA3395E0FB90036AE0FC7C
:0E292E00A3E0FD9005EF740AF0E4A3F08C82A4
:0E293C008D83C002C003123D9BAC82AD83D0E0
:0E294A0003D00290036AEAC39CF0EB9DA3F059
:0D29580090036AE0FAA3E0FB8A828B8312F1
:0A29650005EFAA82900349EAF09002
:0E296F00034AE4F090010E7402F07582021229
:09297D001D1E904D0E75F0801234
:092986001C0890034875F00012D2
:09298F001C08904D1975F080122E
:022998001C0819
:0E299A0090033CE0FAA3E0FBBA0405BB000288
:0229A8008003AA
:0329AA00022A8F6F
:0E29AD00123735AA82AB839005D47464F0E42F
:0E29BB00A3F08A828B831238C6AA82AB83C037
:0D29C90002C0031205EFAC82D003D00290D3
:0E29D6000348ECF0C002C003123735AC82ADEE
:0E29E40083D003D0029005EF7464F0E4A3F0FA
:0E29F2008A828B83C004C005123D9BAA82AB73
:0D2A000083D005D004ECC39AFCED9BFD9043
:0D2A0D0005D4740AF0E4A3F08C828D8312CE
:0C2A1A0038C6AA82AB831205EFAA829096
:0C2A26000349EAF0123735AA82AB839016
:0D2A320005FD7464F0E4A3F08A828B83122A
:0E2A3F003F3BAA82AB839005FD740AF0E4A32E
:0D2A4D00F08A828B83123F3BAA82AB83127A
:0A2A5A0005EFAA8290034AEAF0900B
:0E2A6400034BE4F090010E7401F07582021233
:092A72001D1E904D1D75F080122F
:092A7B001C0890034875F00012DC
:092A84001C08904D2475F080122D
:022A8D001C0823
:0E2A8F0090033CE0FAA3E0FBBA0505BB000291
:022A9D008003B4
:032A9F0002214CC5
:0E2AA200900363E0FABA562D90010E7401F015
:0D2AB000758202121D1E904D2975F08012D6
:0C2ABD001C0890010E7401F075820312D9
:092AC9001D1E904D3575F08012C0
:052AD2001C0802214C6C
:052AD700BA410280037A
:032ADC0002214C88
:0D2ADF0090010E7401F0758201121D1E9011
:092AEC004D4175F080121C0890A8
:0C2AF500010E7401F0758202121D1E908B
:092B01004D4E75F080121C089085
:0E2B0A00035DE0FAA3E0FBA3E0FC8A828B836C
:0E2B18008CF0121C0890010E7401F0758203FF
:0A2B2600121D1E904D5375F0801231
:0E2B30001C08900360E0FAA3E0FBA3E0FC8A1F
:0B2B3E00828B838CF0121C0802214CDB
:0E2B4900C0E0C0F0C082C083C002C003C00460
:0E2B5700C005C006C007C000C001C0D075D0C8
:0E2B65000090033AE0FAA3E0FB90033A7401FB
:0E2B73002AF0E43BA3F090033AE0FAA3E0FB63
:0E2B8100C374089AE49B500990033A7401F063
:032B8F00E4A3F0CC
:0E2B9200B29090010E7401F0758204121D1EA7
:0A2BA000904D5875F080121C08904B
:0E2BAA00033AE0FAA3E0FB8A828B831205EF68
:0E2BB800AA82121B5DD0D0D001D000D007D071
:0E2BC60006D005D004D003D002D083D082D038
:042BD400F0D0E0322B
:0E2BD800C0E0C0F0C082C083C002C003C004D1
:0E2BE600C005C006C007C000C001C0D075D039
:0E2BF4000090033CE0FAA3E0FB1ABAFF011BBD
:0E2C020090033CEAF0A3EBF0758201121B88F0
:0D2C100090010E7401F0758204121D1E90DB
:092C1D004D5875F080121C08905E
:0E2C2600033AE0FAA3E0FB8A828B831205EFEB
:0E2C3400AA82121B5D90033CE0FAA3E0FB4A6B
:0B2C4200700990033C7405F0E4A3F05F
:0E2C4D00D0D0D001D000D007D006D005D004E2
:0D2C5B00D003D002D083D082D0F0D0E03280
:0E2C6800C0E0C0F0C082C083C002C003C00440
:0E2C7600C005C006C007C000C001C0D075D0A8
:0E2C840000900606E0FA90060674012AF0752C
:0E2C92008C98758A00900606E0FABA1402804B
:012CA0000330
:032CA100022D4CB5
:0D2CA400900346E0FA90034674012AF09078
:0E2CB1000346E0FA90033AE0FBA3E0FCEA33AE
:0E2CBF0095E0FDEAB50310EDB5040C90034757
:092CCD00E0FA90034774012AF0BB
:0D2CD600900340E0FA90034074012AF09052
:0D2CE3000340E0FABA3C11900340E4F09089
:0B2CF000033FE0FA90033F74012AF05C
:0E2CFB0090033FE0FABA3C1190033FE4F090E2
:0B2D0900033EE0FA90033E74012AF044
:0E2D140090033EE0FABA180D90033EE4F090F2
:072D22000339F0900338F0C3
:0B2D290090033EE0FA90033FE0FB90B7
:0A2D34000340E0FC900011EBF0906A
:0A2D3E000012ECF08A821206E99000
:042D48000606E4F0A7
:0E2D4C00D0D0D001D000D007D006D005D004E2
:0D2D5A00D003D002D083D082D0F0D0E03280
:0E4B7C0020202057656220426173656420206E
:034B8A00202000E8
:0E4B8D0020202020205765617468657220206A
:034B9B00202000D7
:0E4B9E00204D6F6E69746F72696E67205379D7
:034BAC0073200073
:0E4BAF000A0A0D4750532054696D656F7574E6
:0E4BBD003B204661696C656420746F2067655B
:0E4BCB007420666978206F6E20736174656CCB
:054BD9006C6974650029
:0E4BDE000A0A0A0A0D204C6F67206672657184
:0E4BEC0075656E63792D202564736563202046
:0E4BFA0020202020204C69676874203A202576
:0D4C0800642070657263656E7420202000CA
:0E4C1500092054656D706172617475726520BE
:0E4C23003A202564206465677265652043654C
:064C31006C63697573005D
:0E4C3700092048756D6964697479203A20255A
:054C450064205248004C
:0E4C4A00092050726573737572652025642011
:0E4C58006D6D4867200A0D20202054696D659F
:0E4C66003A25643A25643A25642055544300EB
:0E4C74000A0D204C6174697475646520257307
:0E4C820020204C6F6E6769747564653A2025BA
:0E4C900073202020446174653A202573202093
:024C9E002000F4
:0E4CA0000A0A0A0D09092A2A2A2A2A2A2A2A79
:0E4CAE002A2A2A2A2A2A2A2A2A204C4F474735
:0E4CBC00454420544F2053442043415244208D
:0E4CCA004020616464726573732D202578208C
:0E4CD80025782025782030302A2A2A2A2A2AF8
:0E4CE6002A2A2A2A2A2A2A2A2A2A2A2A2A2A74
:0B4CF4002A2A2A2A2A2A200A0A0D0078
:084CFF004C494748543A2000DB
:074D070054454D503A200015
:0B4D0E0048554D49444954593A2000D3
:044D190025524800D7
:074D1D00505245533A2000FB
:054D24006D6D48670001
:0C4D2900202047505320444154412000FA
:0C4D35002020496E76616C69642020002B
:0D4D410020202047505320444154412000C1
:054D4E004C613A200059
:054D53004C6F3A200046
:074D58006C6F675F663A0013
:014EF60000BB
:034EF7000C051097
:0D2D670090036E7441F090036F7442F09081
:0C2D740003707443F09003717444F090FD
:0C2D800003727445F09003737446F090E9
:0C2D8C0003747447F09003757448F090D5
:0C2D980003767449F0900377744AF090C1
:0C2DA4000378744BF0900379744CF090AD
:0C2DB000037A744DF090037B744EF09099
:0C2DBC00037C744FF090037D7450F074A1
:082DC8005FC0E0744DC0E01291
:0B2DD0003C931581158174B0C0E074C5
:0B2DDB004DC0E0123C93158115819063
:092DE600037E75F000123B6690BB
:0E2DEF00037E75F000120139AA82AB83B29404
:0E2DFD008A04900602E4F0A37401F08A828B2F
:0D2E0B0083C004124042AA82AB83D0049021
:0E2E1800004B74AAF090004CEAF08C82C002CD
:0E2E2600C004120F7FD004D002B294900005B9
:0E2E3400C002C004120D5BD004D002B2959013
:082E42000044EAF09000457421
:0A2E4A006EF0A37403F0A3E4F0900F
:0E2E540000487410F0E4A3F08C82120EB4B2A9
:022E62009522B7
:0E4D5F000A0A0D54696D696E672070726F66E6
:0E4D6D00696C696E67206F662074686520456A
:0E4D7B004550524F4D2C200A0D50315F342010
:0E4D8900666F722062797465207772697465B6
:0E4D97000A0D50315F3520666F722070616723
:0B4DA500652077726974650A0A0D0032
:0E4DB0000A0A0D09456E746572205374617213
:0E4DBE0074206164647265737320666F7220E6
:0E4DCC00746865207061676520777269746590
:034DDA003A20007C
:0D2E640090058874FFF09005897414F090BB
:0C2E7100058AE4F090058BF09003E81255
:082E7D000D5BD2B57A0A7B005F
:0E2E85007582FFC002C00312366DD003D0026A
:052E93001ABAFF011B4B
:0A2E9800EA4B70E9C2B57A0A7B002C
:0A2EA200900588E0FCBC01028023CB
:0E2EAC00C3EA94F4EB648094815018C002C015
:0E2EBA0003122F5EE582D003D002900588F04F
:072EC8000ABA00D60B80D30B
:0B2ECF00BAF416BB011374DDC0E07400
:0C2EDA004DC0E0123C93158115817582FB
:022EE6000022C8
:072EE800122FFB1230809055
:092EEF00058874FFF07A007B00F5
:0E2EF800900588E0FC602EC3EA94F4EB648041
:0E2F060094815023C002C003123106E582D030
:0E2F140003D002900588F0C002C00312319C69
:0B2F2200D003D0020ABA00CE0B80CB17
:0C2F2D00900588E0FA701174FEC0E0749A
:0C2F39004DC0E0123C93158115818013FF
:092F45007423C0E0744EC0E012D8
:0A2F4E003C93158115817582002265
:062F5800B2907582012217
:0C2F5E0090058C7440F090058DE4F0901C
:082F6A00058EF090058FF09038
:0A2F72000590F09005917495F09021
:0E2F7C00059274FFF0900593E4F0C2B57A0060
:022F8A007B00CA
:0D2F8C00C3EA9407EB648094805020EA248F
:0A2F99008CF582EB3405F583E0FCB3
:0E2FA300F582C002C00312366DD003D0020AC0
:062FB100BA00D80B80D528
:042FB7007A007B0021
:0A2FBB00900593E0FCE4BC01010462
:042FC500FDB4010056
:0E2FC900E433FDC3EA9402EB64809480E433A9
:0E2FD700FE5D601B7582FFC002C00312366DE6
:0E2FE500E582D003D002900593F00ABA00C82E
:032FF3000B80C58B
:052FF600D2B58C82221F
:0C2FFB009005947448F0900595E4F09067
:0A3007000596F09005977401F09013
:0E301100059874AAF09005997487F0C2B57AFC
:03301F00007B0033
:0D302200C3EA9406EB648094805020EA24F9
:0A302F0094F582EB3405F583E0FC14
:0E303900F582C002C00312366DD003D0020A29
:06304700BA00D80B80D591
:04304D007A007B008A
:0E305100C3EA9406EB64809480501B7582FFE6
:0E305F00C002C00312366DE582D003D002908D
:0A306D00059AF00ABA00DD0B80DAC4
:09307700D2B590059AE0F5822221
:0C30800090059B747AF090059CE4F090A1
:08308C00059DF090059EF090F7
:0A309400059FF09005A07475F09000
:0A309E0005A1E4F0C2B57A007B0042
:0D30A800C3EA9406EB648094805020EA2473
:0A30B5009BF582EB3405F583E0FC87
:0E30BF00F582C002C00312366DD003D0020AA3
:0630CD00BA00D80B80D50B
:0430D3007A007B0004
:0E30D700C3EA940BEB64809480501B7582FF5B
:0E30E500C002C00312366DE582D003D0029007
:0A30F30005A1F00ABA00DD0B80DA37
:0930FD00D2B59005A1E0F5822294
:0C3106009005A27477F09005A3E4F0900F
:0831120005A4F09005A5F09062
:0A311A0005A6F09005A77495F0904B
:0B31240005A87401F0C2B57A007B0022
:0D312F00C3EA9406EB648094805020EA24EB
:0A313C00A2F582EB3405F583E0FCF8
:0E314600F582C002C00312366DD003D0020A1B
:06315400BA00D80B80D583
:04315A007A007B007C
:0A315E009005A8E0FCE4BC000104A9
:04316800FDB40100B1
:0E316C00E433FDC3EA9403EB64809480E43303
:0E317A00FE5D601B7582FFC002C00312366D41
:0E318800E582D003D0029005A8F00ABA00C874
:033196000B80C5E6
:033199008C822203
:0C319C009005A97469F09005AAE4F09079
:0831A80005ABF09005ACF090BE
:0A31B00005ADF09005AE745FF090DD
:0B31BA0005AF7401F0C2B57A007B0085
:0D31C500C3EA9406EB648094805020EA2455
:0A31D200A9F582EB3405F583E0FC5B
:0E31DC00F582C002C00312366DD003D0020A85
:0631EA00BA00D80B80D5ED
:0431F0007A007B00E6
:0A31F4009005AFE0FCE4BC0001040C
:0431FE00FDB401001B
:0E320200E433FDC3EA9404EB64809480E4336B
:0E321000FE5D601B7582FFC002C00312366DAA
:0E321E00E582D003D0029005AFF00ABA00C8D6
:03322C000B80C54F
:05322F00D2B58C8222E3
:0C3234009005B07441F09005B1E4F090FA
:0832400005B2F09005B3F09017
:0A32480005B4F09005B574FFF09096
:0B32520005B67401F0C2B57A007B00E5
:0D325D00C3EA9406EB648094805020EA24BC
:0A326A00B0F582EB3405F583E0FCBB
:0E327400F582C002C00312366DD003D0020AEC
:06328200BA00D80B80D554
:043288007A007B004D
:0A328C009005B6E0FCE4BC0001046C
:04329600FDB4010082
:0E329A00E433FDC3EA9404EB64809480E433D3
:0E32A800FE5D601B7582FFC002C00312366D12
:0E32B600E582D003D0029005B6F00ABA00C837
:0332C4000B80C5B7
:0532C700D2B58C82224B
:0532CC00D310AF01C3A7
:0E32D100C0D0AAF0AB83E5829005BAF0A3EB63
:0E32DF00F0A3EAF09005BD7458F09005BEE42F
:0A32ED00F09005BFF09005C0F090CE
:0A32F70005C1F09005C274FFF090CD
:0E33010005C37401F0C2B575825812366D9086
:0E330F0005BAE0FAA3E0FBA3E0FC74022AFD7D
:0E331D00E43BFE8C078D828E838FF01241FD03
:0E332B00FDF582C002C003C00412366DD0044E
:0E333900D003D00274012AFDE43BFE8C078D08
:0E334700828E838FF01241FDFDF582C002C020
:0E33550003C00412366DD004D003D0028A8269
:0E3363008B838CF01241FDFAF58212366D75E7
:0E337100820012366D7582FF12366D7A007B77
:01337F00004D
:0A3380009005C3E0FCE4BC0001046A
:04338A00FCB401008E
:0E338E00E433FCC3EA9405EB64809480E433DE
:0E339C00FD5C601B7582FFC002C00312366D1F
:0E33AA00E582D003D0029005C3F00ABA00C835
:0333B8000B80C5C2
:0E33BB007582FE12366D9005B7E0FAA3E0FBB6
:0733C900A3E0FC7D007E0083
:0E33D000C3EE648094825032ED2AFFEE3BF88B
:0E33DE008C018F82888389F01241FDFFF582F9
:0E33EC00C002C003C004C005C00612366DD07A
:0E33FA0006D005D004D003D0020DBD00C90ED0
:0234080080C67C
:0E340A0075821D12366D7582AA12366D7A001B
:023418007B0037
:0E341A00C3EA940AEB64809480501B7582FF15
:0E342800C002C00312366DE582D003D00290C0
:0A34360005C3F00ABA00DD0B80DACE
:0C3440009005C3E0FAF582D0D092AF22D4
:0E344C00AAF0AB83E5829005C4F0A3EBF0A3D9
:0E345A00EAF0C2B575825112366D9005C4E0DD
:0E346800FAA3E0FBA3E0FC74022AFDE43BFEA5
:0E3476008C078D828E838FF01241FDFDF58252
:0E348400C002C003C00412366DD004D003D0C5
:0E3492000274012AFDE43BFE8C078D828E83BE
:0E34A0008FF01241FDFDF582C002C003C00492
:0E34AE0012366DD004D003D0028A828B838C3C
:0E34BC00F01241FDFAF58212366D7582001293
:0C34CA00366D7582FF12366D7A007B00B3
:0E34D600C3EA9406EB6480948050157582FF63
:0E34E400C002C00312366DD003D0020ABA0037
:0434F200E30B80E088
:0B34F6007582FE12366D7444C0E07455
:0C3501004EC0E0123C93158115817A0049
:02350D007B0041
:0E350F00C3EA9406EB6480948240030235C543
:0A351D00EA2482FCEB3403FD758202
:0E352700FFC002C003C004C00512366DAE82A4
:0E353500D005D004D003D0028C828D83EEF03E
:0E354300C374039A74808BF063F08095F0508F
:0A3551006BEA2482F582EB3403F5E7
:0E355B0083E0FC7D00C002C003C004C0057404
:083569004CC0E0744EC0E012FA
:0E3571003C93E58124FCF581D003D002EA24CE
:0E357F00FCFCEB34FFFD9005F97410F0E4A3A2
:0E358D00F08C828D83C002C003123ECDE58219
:0E359B008583F0D003D00245F07017C002C047
:0A35A900037444C0E0744EC0E01249
:0A35B3003C9315811581D003D0026E
:0535BD000ABA00010B39
:0335C20002350FC0
:0735C50090038275F0002263
:0C35CC009005C77450F09005C8E4F09022
:0A35D80005C9F09005CA7402F090D6
:0B35E20005CBE4F09005CC74FFF090E6
:0A35ED0005CEE4F0C2B57A007B00C1
:0D35F700C3EA9406EB648094805020EA241F
:0A360400C7F582EB3405F583E0FC06
:0E360E00F582C002C00312366DD003D0020A4E
:06361C00BA00D80B80D5B6
:043622007A007B00AF
:0A3626009005CEE0FCE4BC010104B5
:04363000FDB40100E4
:0E363400E433FDC3EA9402EB64809480E43337
:0E364200FE5D601B7582FFC002C00312366D74
:0E365000E582D003D0029005CEF00ABA00C881
:03365E000B80C519
:05366100D2B58C8222AD
:0E4DDD000A0D205344204361726420496E6920
:0E4DEB007469616C697A6174696F6E2066612B
:054DF900696C65640017
:0E4DFE000A0D205344204361726420496E69FF
:0E4E0C007469616C697A6174696F6E20537508
:094E1A00636365737366756C0037
:0E4E23000A0D205344204361726420496E69D9
:0E4E31007469616C697A6174696F6E20466104
:054E3F00696C656400D0
:084E44000A0D205265616400B3
:054E4C0009202578009B
:0736660075C33343C340228A
:0C366D00E5829005CFF09005CFE0F5C598
:0A367900E5C430E7FBAAC58A8222EF
:06368300E5829005D0F085
:0C3689003099FD9005D0E0F599C299221F
:0536950010980280FB0B
:05369A00AA998A8222BA
:0E369F0075C800759B00758DFD758B00438806
:0836AD00404398527589202268
:0D36B500E5829005D2F01217C87582C01290
:0636C200180012187790B9
:0A36C80005D2E0FAF5821218001294
:0A36D20018779005D1E0FAF5821296
:0636DC001800121877121D
:0836E20017E5900005020D5BE5
:0D36EA00E5829005D3F01217C87582C0125A
:0636F70018001218779084
:0A36FD0005D3E0FAF582121800125E
:0937070018771217C87582C1126F
:06371000180012187712E8
:0E371600182DAA82C002121893D002C002120F
:0E37240017E5D00290000AC002120D28D00254
:033732008A822266
:05373500D310AF01C339
:0E373A00C0D09005D17402F07582261236B50B
:0E3748007582011236EAAA827B00758202C0E9
:0E37560002C0031236EAAC82D003D0027D001E
:0E3764009005EF7407F0E4A3F08A828B83C017
:0E37720004C005123D9BAA82AB83D005D00493
:0E3780009005D47485F0E4A3F08C828D83C094
:0E378E0002C0031238C6AC82AD83D003D00255
:0E379C00EC2AFAED3BFB8A828B83D0D092AFF1
:0137AA0022FC
:0E37AB009005D17402F07582261236B5758233
:0B37B900041236EAAA827B008B8322F8
:0537C400D310AF01C3AA
:0E37C900C0D09005D17482F07582261236B5FC
:0E37D7007582011236EAAA827B00C002C0038E
:0A37E500C002C0037451C0E0744E2E
:0E37EF00C0E0123C93E58124FCF581D003D0AC
:0E37FD0002758202C002C0031236EAAC82D00E
:0E380B0003D0027D00C002C003C004C005C08F
:0A38190004C0057460C0E0744EC0E6
:0E382300E0123C93E58124FCF581D005D00431
:0E383100D003D002758203C002C003C004C0E1
:0E383F00051236EAAE82D005D004D003D002C6
:0E384D007F00C002C003C004C005C006C00753
:09385B00746FC0E0744EC0E0126D
:0E3864003C93E58124FCF581D005D004D0030F
:0E387200D0029005EF7407F0E4A3F08A828B79
:0E38800083C004C005123D9BAA82AB83D00515
:0E388E00D0049005D47485F0E4A3F08C828DF4
:0E389C0083C002C0031238C6AC82AD83D003D5
:0E38AA00D002EC2AFAED3BFB8A828B83D0D051
:0338B80092AF22AA
:0E4E51000A0D20616C74206D73623A20256496
:014E5F000052
:0E4E60000A0D20616C74206373623A20256491
:014E6E000043
:0E4E6F000A0D20616C74206C73623A20256479
:014E7D000034
:0B38BB00A8811818C6B2E7C6023FE95A
:0E38C600AA83E5829005D6F0A3EAF09005D81B
:0E38D400E4F0A3F09005D4E0FAA3E0FB7C1032
:0C38E2009005D6E0FDA3E0FE339200EE5E
:0E38EE00CD25E0CD33FE9005D6EDF0A3EEF033
:0E38FC009005D8E0FDA3E0FECD25E0CD33FE23
:0C390A009005D8EDF0A3EEF03000129014
:0E39160005D8E0FDA3E0FE9005D874014DF049
:03392400A3EEF01F
:0E3927009005D8E0FDA3E0FEC3ED9AEE9B40B4
:0D3935001D9005D8EDC39AF0EE9BA3F09015
:0E39420005D6E0FDA3E0FE9005D674014DF021
:03395000A3EEF0F3
:0E395300DC8D9005D6E0FAA3E08A82F583228F
:06004500E478FFF6D8FD8F
:080023007904E94400601B7A36
:05002B0001904EF67883
:030030000675A0B2
:0A00330006E493F2A308B8000205EA
:08003D00A0D9F4DAF275A0FF6E
:0E396100AAF0AB83E5829005DAF0A3EBF0A3A9
:0E396F00EAF07A007B009005DAE0FCA3E0FDB0
:03397D00A3E0FEC6
:0E3980008C828D838EF01241FDFF6039C3747E
:0E398E00B98FF063F08095F04007EF648094ED
:03399C00B0502602
:0E399F008C828D838EF01241FDFFBF2D0280C1
:0139AD001702
:0539AE00BF2B02801296
:0539B3000CBC00010D39
:0D39B8009005DAECF0A3EDF0A3EEF080BB7B
:0E39C5009005DAECF0A3EDF0A3EEF08C828D0D
:0C39D300838EF01241FDFFE4BF2D0104C3
:0839DF00F888017003BF2B0EF4
:0E39E7009005DA74012CF0E43DA3F0A3EEF09D
:0B39F5009005DAE0FCA3E0FDA3E0FE7B
:0E3A00008C828D838EF01241FDFF6068C3EF53
:0E3A0E00648094B0406074B98FF063F08095CE
:0E3A1C00F04055C0019005EF740AF0E4A3F0ED
:0E3A2A008A828B83C004C005C006C007C0019D
:083A3800123D9B85821385837A
:0C3A400014D001D007D006D005D004EF50
:0E3A4C003395E0F8EF24D0FFE834FFF8EF25C3
:0A3A5A0013FAE83514FB0CBC000160
:013A64000D54
:0E3A65009005DAECF0A3EDF0A3EEF0D00180B6
:013A73008CC6
:0E3A74009005DAECF0A3EDF0A3EEF0E96009A6
:093A8200C3E49AFCE49BFD8004FE
:043A8B008A048B0519
:053A8F008C828D8322F2
:0E3A9400AAF0AB83E5829005E0F0A3EBF0A36F
:0E3AA200EAF09005E0E0FAA3E0FBA3E0FC9060
:0E3AB00005E3EAF0A3EBF0A3ECF09005DDE0F7
:0E3ABE00FDA3E0FEA3E0FF8D828E838FF01249
:0B3ACC0041FD70078A828B838CF02282
:0E3AD7008A828B838CF01241FD7003023B5FEC
:053AE5008A268B278CEE
:043AEA00288D298E6C
:033AEE002A8F2BF1
:073AF10085268285278385ED
:093AF80028F01241FDF86026855A
:063B01002982852A83855C
:0C3B07002BF01241FDF96017E8C3997023
:083B1300120526E4B5260205A7
:013B1B002782
:073B1C000529E4B529CF05DE
:033B23002A80CB2A
:073B2600852982852A8385B1
:083B2D002BF01241FD7018900D
:083B350005E3E0F529A3E0F52A
:063B3D002AA3E0F52B8530
:063B43002982852A83851A
:033B49002BF0223C
:053B4C000ABA00010BA4
:0E3B51009005E3EAF0A3EBF0A3ECF0023AD704
:073B5F0090000075F0002248
:0E3B6600AAF0AB83E5829005E6F0A3EBF0A396
:0E3B7400EAF09005E6E0FAA3E0FBA3E0FC9087
:0E3B820005E9EAF0A3EBF0A3ECF09005ECE40B
:033B9000F0A3F0AF
:0A3B9300123695AA82BA0802800DCE
:053B9D00BA0A02806776
:053BA200BA0D02806273
:033BA700023C3CA1
:0E3BAA009005ECE0FBA3E0FC4B60DE758208AA
:0E3BB800C003C004123683D004D003758220EF
:0E3BC600C003C004123683D004D003758208F9
:0E3BD400C003C004123683D004D0039005E96C
:0D3BE200E0FDA3E0FEA3E0FF1DBDFF011EFE
:0E3BEF009005E9EDF0A3EEF0A3EFF01BBBFF95
:023BFD00011CA9
:0A3BFF009005ECEBF0A3ECF0808AD7
:0D3C090075820D12368375820A1236839083
:0E3C160005E9E0FBA3E0FCA3E0FD8B828C83BC
:0E3C24008DF0E4123C7A9005E6E0FBA3E0FC94
:0A3C3200A3E0FD8B828C838DF0224D
:0E3C3C009005E9E0FBA3E0FCA3E0FD8B828C89
:0E3C4A00838DF0EA123C7A9005E974012BF0AC
:0E3C5800E43CA3F0A3EDF09005ECE0FBA3E04C
:0E3C6600FC9005EC74012BF0E43CA3F08A8284
:063C7400123683023B93AF
:0E3C7A0020F71030F6118883A88220F507F697
:053C8800A88375830014
:013C8D002214
:033C8E00F280F7CA
:023C9100F0221F
:053C9300C01985811934
:0B3C9800E51924FDF8868318868218C9
:0E3CA300E493A324DB600C24256005123D8011
:023CB10080F0A1
:033CB300023D9837
:093CB600D2D5E493A3C083C082BF
:033CBF00B47314C7
:093CC20086F0188683188682182A
:0B3CCB001241FD6053A3123D8080F504
:0A3CD600B46307E618123D80804336
:0E3CE000B46417E630E74618E6F42401F6084F
:0C3CEE00E6F43400F6742D123D808033A3
:0A3CFA00B4782D868318868218E442
:0B3D0400123D71E583123D70E5831253
:0A3D0F003D71E582123D70E582125D
:0A3D19003D7130D5057430123D8075
:073D2300D082D083023CA313
:033D2A00B475F677
:063D2D00E6FA18E6F918A1
:0D3D33007C107D27123D5BFF7CE87D0312B4
:0E3D40003D5BC4F5837C647D00123D5B4283D5
:0D3D4E00E975F00A84C445F0F582EF80A904
:023D5B007B00EB
:0E3D5D000BC3E99CF9EA9DFA50F61BE92CF91C
:053D6B00EA3DFAEB2225
:013D7000C48E
:073D7100540F700320D51F61
:083D7800C2D52490D43440D4DC
:0E3D8000C083C082C0F0F582E8C0E012368336
:093D8E00D0E0F8D0F0D082D0831F
:013D97002209
:033D9800D019221D
:0E3D9B00AA83AB828BF09005EFE0A4F8A9F0AC
:0E3DA9008AF0E0A429F98BF0A3E0A429F583A9
:043DB70088822222BA
:0E3DBB00AA82AB83ACF0FD9005F5EAF0A3EB15
:0E3DC900F0A3ECF0A3EDF09005F1E0FAA3E01A
:0E3DD700FBA3E0FCA3E0FDEA4B4C4D7009900D
:083DE500000075F080743F221C
:0E3DED00C002C003C004C005E4C0E0C0E07422
:0E3DFB0080C0E0743FC0E08A828B838CF0EDC4
:0E3E090012446BAE82E58124FCF581D005D019
:0E3E170004D003D002EE60159005F5E0FEA386
:0E3E2500E0FFA3E0F8A3E0F98E828F8388F01F
:013E3300226C
:093E34009005F5E0F515A3E0F599
:083E3D0016A3E0F517A3E0F560
:0C3E450018C002C003C004C005E4C0E0C7
:0A3E5100C0E0C0E0C0E085158285E6
:063E5B0016838517F0E557
:0C3E61001812447CAE82E58124FCF5813F
:0E3E6D00D005D004D003D002EE700790000004
:043E7B00E4F5F02258
:073E7F00851582851683857D
:0A3E860017F0E518C002C003C004E5
:0E3E9000C0051242FDAE82AF83A8F0F9D00546
:0E3E9E00D004D003D002C002C003C004C0058F
:0E3EAC008E828F8388F0E912422CAA82AB83AB
:0E3EBA00ACF0FDE58124FCF5818A828B838CBF
:053EC800F0ED0244AC26
:0E3ECD00AA83E5829005FBF0A3EAF09005FBC6
:0E3EDB00E0FAA3E0FB30E709C3E49AFCE49BA5
:033EE900FD800455
:043EEC008A048B05B4
:0E3EF0008C028D039005F9E0FCA3E0FD30E7A5
:0A3EFE0009C3E49CFEE49DFF80046C
:043F08008C068D078F
:0D3F0C009005FDEEF0A3EFF08A828B83128A
:0E3F19003F3BAA82AB839005FBE0FCA3E0FDDA
:0E3F270030E70CC3E49AFCE49BFD8C828D8392
:013F35002269
:053F36008A828B83224A
:0E3F3B00AA83E5829005FFF0A3EAF09006014C
:0C3F4900E4F09005FFE0FAA3E0FB7C0030
:0E3F55009005FDE0FDA3E0FE235401FF703750
:0E3F6300EECD25E0CD33FE9005FDEDF0A3EE92
:0E3F7100F09005FDE0FDA3E0FEC3EA9DEB9E8F
:0E3F7F005011EEC313CD13CDFE9005FDEDF0F5
:053F8D00A3EEF0800826
:083F92000C900601ECF080BB6D
:053F9A00900601E0FAB1
:0E3F9F009005FFE0FBA3E0FC9005FDE0FDA314
:0E3FAD00E0FEC3EB9DEC9E400B9005FFEBC3C6
:063FBB009DF0EC9EA3F056
:0E3FC1009005FDE0FBA3E0FCC313CB13CBFC8B
:0E3FCF009005FDEBF0A3ECF08A031AEB70C234
:0C3FDD009005FFE0FAA3E08A82F5832241
:033FE9001242CFB2
:093FEC007900E583B58202800D25
:053FF500500312412001
:083FFA00E583C395821243FF29
:08400200E5D0C465D020E117F0
:0E400A00EA2DFAEB3EFBEC3FFC50097401126C
:0640180043FFEC4480FCB4
:03401E000240D18C
:0E402100C3EA9DFAEB9EFBEC9FFC500FC3E43C
:0D402F0099F9E49AFAE49BFBE49CFCB2D101
:06403C001244420240D1D3
:08004B007800E84400600A7926
:030053000075A095
:0600560000E4F309D8FCF0
:08005C007806E84406600C7907
:0B00640007900000E4F0A3D8FCD9FADC
:0E404200AA83E582900604F0A3EAF09006043B
:0E405000E0FAA3E0FB30E709C3E49AFCE49B2E
:03405E00FD8004DE
:044061008A048B053D
:0E4065008C028D03900602E0FCA3E0FD33E424
:0D40730033FE6009C3E49CFFE49DF8800467
:044080008C078D001C
:0E4084009005D4EFF0A3E8F08A828B83C0068B
:0E4092001238C6AA82AB83D006900604E0FC6A
:0E40A000A3E0FD33E4336E600CC3E49AFCE44D
:0740AE009BFD8C828D832233
:0540B5008A828B8322CA
:0C40BA00E4AC83AB82FAF9748E0242225F
:0B40C6007F8E124643F58385F08222B6
:0640D100B98003EA13B3FD
:0E40D7004010EA2401FAE43BFBE43CFC5004F8
:0440E5007C80058254
:0940E900BC000EBB000BBA00087C
:0840F200E4F5F0F583F58222EC
:0E40FA00A2D1E582138CF092F78B838A82228A
:0D410800E4F583F58275F080F4A2D1132256
:0B411500E4F583F58275F0C0747F2292
:0E412000E582C583F582A2D133A2D592D113D8
:0C412E0092D5ECCFFCEBCEFBEACDFA22E0
:08413A001242CF30D502B2D1D0
:09414200BF0009BC000302411595
:03414B0002410826
:06414E00BC00030240F278
:0D415400E583B4FF0BE582B4FF03024115C3
:034161000240F227
:08416400E582B4FF03024108EB
:0C416C00C395835007247F400B0240F2F3
:084178002480145003024108E9
:0E418000F582C3ED9AEE9BEF9C40111582C3B1
:0E418E00EA33F9EB33FAEC33FBE433FC800543
:05419C00E4CCCBCAF9E0
:0541A100C08275F01959
:0E41A600C3E99DEA9EEB9FEC9400D5F00280E9
:0141B4002DDD
:0E41B500400EE99DF9EA9EFAEB9FFBEC9400A8
:0241C300FCC33B
:0E41C500B3E833F8E58233F582E58333F58302
:0E41D300C3E933F9EA33FAEB33FBEC33FC803B
:0141E100C419
:0E41E200B3E4F938FAE43582FBE43583FCD00F
:0741F00082500405827C806F
:0641F7001244420240E9FF
:0300160075812BC6
:0A001900122091E582600302208CA2
:0E41FD0020F71430F6148883A88220F507E618
:06420B00A8837583002268
:03421100E280F751
:03421400E493220E
:02421700E022A3
:09421900FCABF0AA83A982749E9B
:02422200C2D107
:08422400F5821244420240D170
:06422C001242CFBC0003AA
:034232000240F255
:08423500EF60FA30D502B2D1AE
:08423D00E583B4FF0302410810
:08424500E582B4FF0302410809
:0B424D00258340072482400B0240F252
:08425800248314500302410805
:0E426000F582EA8DF0A4A8F0EA8EF0A428F80A
:0E426E00E435F0F9EB8DF0A428E935F0F9E421
:0E427C0033CA8FF0A429F9EA35F0FAEBF88E78
:0E428A00F0A429F9EA35F0FAE433FBEC8DF0EC
:0E429800A429F9EA35F0FAE43BFBE88FF0A424
:0E42A6002AFAEB35F0FBE433CCFD8EF0A42AAF
:0E42B400FAEB35F0FBE43CFCED8FF0A42BFBA5
:0A42C200EC35F0FC20E70312444243
:0342CC000240D1DC
:0D42CF00AA82AB83A2F73392D16002D2F72E
:0E42DC00F582ACF0E58124F9F8E6FD08E6FE77
:0E42EA000886F008E6A2F73392D56002D2F7FC
:0542F800F583AFF02288
:0342FD0012462F37
:0643000030D1030241155B
:08430600BC0005D2D102410800
:0C430E00C082740379001243FFE4F51A2A
:05431A00F51BF51CF588
:05431F001D904E7EF828
:0E4324008C078B068A0589F0E81243BEE92556
:0E433200F0EA3DEB3EEC3F54E07028E925F048
:0D434000F9EA3DFAEB3EFBEC3FFCE493256F
:07434D001AF51A7401933503
:074354001BF51B74029335F9
:07435B001CF51C74039335EF
:034362001DF51D29
:0B436500A3A3A3A308B81EB7AC1DABB8
:044370001CAA1BA9BF
:0C4374001A758281D2D1124442D0E0B40C
:054380007E030240E98C
:024385004006F0
:064387002482C2D580056E
:05438D00F4247FD2D5ED
:0E439200F8124120741888F0A4F9AAF074B152
:0E43A00088F0A4FBACF0747288F0A42AFAE551
:0D43AE00F03BFBE43CFC75828612444202A9
:0343BB003FEC22B2
:0E43BE0024F850228DF0AD06AE077F0024F8E3
:0E43CC0050168DF0AD067E0024F8500C8DF0DA
:0A43DA007D0024F8500475F0002265
:0743E40024086016C000F878
:0E43EB00C3EF13FFEE13FEED13FDE5F013F527
:0543F900F0D8EFD00038
:0143FE00229C
:0E4E7E00FF422E16F691F90CF2FD2307EEE02E
:0E4E8C00C4030CA3F001D814FC00A3027F00A5
:0E4E9A0055C03F000BF01F0001FC0F0000FF91
:0E4EA8000700C0FF0300F0FF0100FCFF000048
:0E4EB600FF7F00000040000000200000001000
:0E4EC4000000000800000004000000020000D2
:0E4ED2000001000080000000400000002000F1
:0E4EE0000000100000000800000004000000A8
:084EEE000200000001000000B9
:0943FF006040F82582500274FFB1
:0E440800F582E824F8501ECCCBCAF9E4CC248F
:0E441600F85014CBCAF9E4CB24F8500BCAF9C5
:09442400E4CA24F85003790022D7
:05442D0024086010F8F6
:0E443200C3EC13FCEB13FBEA13FAE913F9D801
:01444000F18A
:014441002258
:024442007804FC
:0E444400EC700DC9CACBFCE58224F8F582D8D5
:02445200F12255
:024454007820CE
:0E44560020E7111582C3E933F9EA33FAEB339C
:06446400FBEC33FCD8EC78
:01446A00222F
:0E446B00FFA8811818124686124668E96401FF
:03447900F58222A7
:0E447C00FFA8811818124686D2D133E64007F9
:07448A0030E70B75820122EF
:0744910020E70675820022FE
:02449800C2D18F
:09449A00124668E97003F5822264
:0444A30030D101B360
:0544A700E433F5822260
:0C44AC00A2E79201C2E7F8A2F7332499BE
:0B44B800400990000075F080743F2266
:0C44C300752500E58224E8E583348DE5D2
:0944CF00F034CEE834C0E8505589
:0844D80085822185832285F015
:0A44E00023F524783BC00078AAC041
:0E44EA000078B8C000783FC00012422C158147
:0C44F8001581158115811246B1E582F591
:08450400252480500302410848
:0D450C00780079807A317BBF1245E085820E
:064519002185832285F0DC
:0A451F0023F524788379807A5E7B0F
:04452900391245E01E
:0E452D00A2F733D2F7A982AA83ABF07C00B4C8
:04453B007902800F72
:09453F004007248712461880068B
:06454800F4247A1243FF87
:06454E00E4F521F522F561
:054554002375242090F6
:034559004E7EF89B
:0E455C00E493F5F0A3E493FDA3E493FEA3E43F
:0E456A0093FFA3C3E995F0EA9DEB9EEC9F4002
:0E45780030C3E995F0F9EA9DFAEB9EFBEC9F4B
:07458600FC8521F0AD22AE1F
:05458D0023AF24E81239
:0745920043BEE52125F0F511
:0545990021E5223DF5C3
:05459E0022E5233EF5BB
:0545A30023E5243FF5B3
:0145A80024EE
:0945A90008B81BAFAC24AB23AA37
:0445B20022A9211207
:0945B6004442747F2525F58212B0
:0C45BF0040D130011BC082C083C0F0C09E
:0E45CB00E090000075F080743F12413A1581B7
:0645D9001581158115811A
:0145DF0022B9
:0C45E000C000C001C002C003852582128B
:0E45EC0046B912422C1581158115811581C02A
:0B45FA0082C083C0F0C0E085218285F4
:0646050022838523F0E58D
:0C460B0024123FE91581158115811581ED
:014617002280
:054618006014C000F871
:0E461D00C3E933F9EA33FAEB33FBEC33FCD894
:03462B00F1D000CB
:01462E002269
:0D462F00AA82AB83A2F73392D16002D2F7CA
:05463C00F582ACF02244
:024641007F9E5A
:0946430012462F30D1030240F2AF
:0E464C00C3EF9582500974FFF5F0F583F582F7
:01465A00223D
:05465B0079001243FF8D
:0846600089828A838BF0EC22B1
:0E4668007901AA82E68F82B5821318E6B5F0BA
:0E4676000E18E6B5830918E68A82B58202792D
:014684000035
:014685002212
:0E468600B4800FE5F0700AE5837006E58270DF
:03469400027F00A2
:01469700EF33
:0E469800B6801518B6001018B6000B18B60044
:0746A6000608080876002257
:0146AD000804
:0146AE000803
:0146AF000802
:0146B00022E7
:0846B1007F86124643F58222C8
:0B46B900E4AC82FBFAF9748602422296
:00000001FF
