:0E006A00E582900000F07A007B80900000E0BC
:07007800FC8A828B83F02259
:0E007F00E582900001F0900001E0FAF5821297
:09008D00006A908000E0F5822277
:0D00960075820912007FAA827B008B831205
:0E00A3002C89AA82AB83ACF0FDE4C0E0C0E083
:0E00B100C0E0743FC0E08A828B838CF0ED12B9
:0E00BF00248AAA82AB83ACF0FDE58124FCF517
:0E00CD0081E4C0E0C0E074C0C0E0743FC0E059
:0E00DB008A828B838CF0ED122D09AA82AB83F2
:0E00E900ACF0FDE58124FCF5818A828B838CCE
:0500F700F0ED022C9564
:0D00FC0075820A12007FAA827B008B83129E
:0E0109002C89AA82AB83ACF0FDE4C0E0C0E01C
:0E0117007440C0E0743FC0E08A828B838CF09D
:0E012500ED12248AAA82AB83ACF0FDE58124A2
:0E013300FCF581E4C0E0C0E07420C0E0744040
:0E014100C0E08A828B838CF0ED122D09AA8219
:0E014F00AB83ACF0FDE58124FCF5818A828B48
:07015D00838CF0ED022C95EC
:0E01640075820812007FAA827B0090016E74E3
:0E01720064F0E4A3F08A828B8312296AAA82C9
:0E018000AB8390015374FFF0E4A3F08A828BEE
:04018E00830224952F
:0E019200AAF0AB83E582900002F0A3EBF0A38D
:0E01A000EAF0900002E0FAA3E0FBA3E0FC749A
:0E01AE00032AFDE43BFE8C078D828E838FF0CA
:0A01BC00122DCCFD600490083422DF
:0E01C6008A828B838CF0122DCCFDC364809452
:0E01D400B0403374B78DF063F08095F0402892
:0E01E200ED3395E0FEED24D0FDEE34FF8D06EA
:0E01F0007D00900005EDF0A3EEF0900002748B
:0C01FE00012AF0E43BA3F0A3ECF0800425
:04020A0090083722FF
:0E020E00900002E0FAA3E0FBA3E0FC8A828BE2
:0E021C00838CF0122DCCFDC3648094B040485A
:0E022A0074B98DF063F08095F0403DED339592
:0E023800E0FEED24D0FDEE34FFFEC454F0CD08
:0E024600C4CD6DCD54F0CD6DFE900005E0FFEF
:0E025400A3E0F8900005ED2FF0EE38A3F09037
:0E026200000274012AF0E43BA3F0A3ECF002CA
:02027000033D4C
:0E027200900002E0FAA3E0FBA3E0FC8A828B7E
:0E028000838CF0122DCCFDC3648094E14048C5
:0E028E0074E68DF063F08095F0403DED339501
:0E029C00E0FEED24A9FDEE34FFFEC454F0CDCB
:0E02AA00C4CD6DCD54F0CD6DFE900005E0FF8B
:0E02B800A3E0F8900005ED2FF0EE38A3F090D3
:0E02C600000274012AF0E43BA3F0A3ECF00266
:0202D400033DE8
:0E02D600900002E0FAA3E0FBA3E0FC8A828B1A
:0E02E400838CF0122DCCFDC3648094C1404782
:0E02F20074C68DF063F08095F0403CED3395BE
:0E030000E0FEED24C9FDEE34FFFEC454F0CD46
:0E030E00C4CD6DCD54F0CD6DFE900005E0FF26
:0E031C00A3E0F8900005ED2FF0EE38A3F0906E
:0E032A00000274012AF0E43BA3F0A3ECF08083
:0103380004C0
:0403390090083522D1
:0E033D00900002E0FAA3E0FBA3E0FC8A828BB2
:0E034B00838CF0122DCCFAC3648094B0402D48
:0E03590074B98AF063F08095F04022EA339583
:0E036700E0FBEA24D0FAEB34FFFB900005E047
:0E037500FCA3E0FD900005EA2CF0EB3DA3F0A8
:0303830002041A57
:0E038600900002E0FAA3E0FBA3E0FC8A828B69
:0E039400838CF0122DCCFAC3648094E1402CCF
:0E03A20074E68AF063F08095F04021EA33950E
:0E03B000E0FBEA24A9FAEB34FFFB900005E025
:0E03BE00FCA3E0FD900005EA2CF0EB3DA3F05F
:0203CC00804C63
:0E03CE00900002E0FAA3E0FBA3E0FC8A828B21
:0E03DC00838CF0122DCCFAC3648094C1402CA7
:0E03EA0074C68AF063F08095F04021EA3395E6
:0E03F800E0FBEA24C9FAEB34FFFB900005E0BD
:0E040600FCA3E0FD900005EA2CF0EB3DA3F016
:02041400800462
:0404160090083622F2
:0C041A00900005E0FAA3E08A82F583223E
:0E042600AAF0AB83E582900007F0A3EBF0A3F1
:0E043400EAF0900007E0FAA3E0FBA3E0FC74FE
:0E044200022AFDE43BFE8C078D828E838FF034
:0A045000122DCCFD60049001022281
:0E045A008A828B838CF0122DCCFDC3648094BB
:0E046800B0403E74B98DF063F08095F04033E3
:0E047600ED3395E0FEED24D0FDEE34FFFEC424
:0D04840054F0CDC4CD6DCD54F0CD6DFE9083
:0E049100000AEDF0A3EEF090000774012AF0CF
:0A049F00E43BA3F0A3ECF002055FBC
:0E04A900900007E0FAA3E0FBA3E0FC8A828B40
:0E04B700838CF0122DCCFDC3648094E1403D97
:0E04C50074E68DF063F08095F04032ED3395D3
:0E04D300E0FEED24A9FDEE34FFFEC454F0CD92
:0E04E100C4CD6DCD54F0CD6DFE90000AEDF04F
:0E04EF00A3EEF090000774012AF0E43BA3F0A6
:0504FD00A3ECF0805D9E
:0E050200900007E0FAA3E0FBA3E0FC8A828BE6
:0E051000838CF0122DCCFDC3648094C1403D5D
:0E051E0074C68DF063F08095F04032ED339599
:0E052C00E0FEED24C9FDEE34FFFEC454F0CD18
:0E053A00C4CD6DCD54F0CD6DFE90000AEDF0F5
:0E054800A3EEF090000774012AF0E43BA3F04C
:05055600A3ECF080049D
:04055B0090010122E8
:0E055F00900007E0FAA3E0FBA3E0FC8A828B89
:0E056D00838CF0122DCCFAC3648094B0402D24
:0E057B0074B98AF063F08095F04022EA33955F
:0E058900E0FBEA24D0FAEB34FFFB90000AE01E
:0E059700FCA3E0FD90000AEA2CF0EB3DA3F07F
:0305A50002063C0F
:0E05A800900007E0FAA3E0FBA3E0FC8A828B40
:0E05B600838CF0122DCCFAC3648094E1402CAB
:0E05C40074E68AF063F08095F04021EA3395EA
:0E05D200E0FBEA24A9FAEB34FFFB90000AE0FC
:0E05E000FCA3E0FD90000AEA2CF0EB3DA3F036
:0205EE00804C3F
:0E05F000900007E0FAA3E0FBA3E0FC8A828BF8
:0E05FE00838CF0122DCCFAC3648094C1402C83
:0E060C0074C68AF063F08095F04021EA3395C1
:0E061A00E0FBEA24C9FAEB34FFFB90000AE093
:0E062800FCA3E0FD90000AEA2CF0EB3DA3F0ED
:0206360080043E
:04063800900101220A
:0C063C0090000AE0FAA3E08A82F5832215
:0E064800AA83E58290000CF0A3EAF090000C6B
:0E065600E0FAA3E0FBC3EA940AEB6480948010
:0E066400503890000E7430F08A048B057E3002
:040672007F0078008D
:0E067600C3EF940AE864809480505CECB507F2
:0D0684000CEDB5000890000EE0F9F58222A3
:0D0691000E90000EEEF00FBF00DB0880D8C9
:0E069E00C3EA9410EB64809480503490000EF8
:0906AC007441F07C417D0A7E00DE
:0E06B500C3ED9410EE64809480501DEAB505EC
:0D06C3000CEBB5060890000EE0FFF582225A
:0D06D0000C90000EECF00DBD00DB0E80D88C
:0106DD0022FA
:0E06DE00E58290000FF0900010E4F07A087BA7
:0106EC00000D
:0C06ED00900010E025E0FC900010F09060
:0E06F900000FE0FC74015CFD900010E0FE4D6F
:0E070700F0ECC313FC90000FF01ABAFF011BB8
:0B071500EA4B70D4900010E0F5822247
:0E072000438901758C90758A0075B80243A854
:05072E00834388112245
:0D073300900011E4F0900012F075820002B9
:0207400007426E
:05074200D310AF01C35C
:0E074700C0D0E582900013F0900012E0FAC2DC
:0C075500D575F00AEA30E704B2D5F404D0
:060761008430D502F4040F
:0E076700FBA2D595E0FC8B828C83C002C00300
:0E077500C004120648AD82D004D003D002901A
:0E0783000014EDF0EA3395E0FD90016E740A6B
:0D079100F0E4A3F08B828C83C002C005123F
:0E079E00296AAB82AC83D005D002EAC39BFA75
:0D07AC00ED9CFD8A828D83120648AA829082
:0A07B9000015EAF0900016E4F0903D
:0C07C30000F5740FF0758204121CED901C
:0907CF00001475F000121BFA90F1
:0E07D8000011E0FAC2D575F00AEA30E704B26B
:0307E600D5F40443
:0607E9008430D502F40487
:0E07EF00FBA2D595E0FC8B828C83C002C00378
:0E07FD00C004120648AD82D004D003D0029092
:0E080B000014EDF0EA3395E0FD90016E740AE2
:0D081900F0E4A3F08B828C83C002C00512B6
:0E082600296AAB82AC83D005D002EAC39BFAEC
:0D083400ED9CFD8A828D83120648AA8290F9
:0B0841000015EAF0900016743AF090E9
:0E084C000017E4F09000F5740CF075820412B1
:09085A001CED90001475F0001271
:0E0863001BFA900013E0FAC2D575F00AEA30D5
:06087100E704B2D5F40417
:060877008430D502F404F8
:0E087D00FBA2D595E0FC8B828C83C002C003E9
:0E088B00C004120648AD82D004D003D0029003
:0E0899000014EDF0EA3395E0FD90016E740A54
:0D08A700F0E4A3F08B828C83C002C0051228
:0E08B400296AAB82AC83D005D002EAC39BFA5E
:0D08C200ED9CFD8A828D83120648AA82906B
:0B08CF000015EAF0900016743AF0905B
:0E08DA000017E4F09000F57409F07582041226
:0908E8001CED90001475F00012E3
:0708F1001BFAD0D092AF22E8
:0508F800D310AF01C3A5
:0C08FD00C0D0758280121B7A7493C0E09A
:0C0909007432C0E0122862158115817A5A
:05091500007B007C00E6
:0E091A00C3EB9440EC6480948040030209AA71
:0E0928009001787410F0E4A3F08B828C83C0F1
:0E09360002C003C004122A9CE5828583F0D023
:0E09440004D003D00245F070330AC002C00395
:0A095200C00474AEC0E07432C0E0CF
:0E095C0012286215811581D004D003D00290BC
:0E096A0000F57401F08A82C002C003C00412BE
:080978001CEDD004D003D002F5
:0E098000C002C003C004121B99AD82D004D087
:0E098E0003D0028D82C002C003C0041223D821
:0B099C00D004D003D0020BBB00010C04
:0309A70002091A28
:0D09AA009000F57401F0758201121CED74CF
:0809B700B3C0E07432C0E0128D
:0A09BF002862158115817A007B0083
:0E09C900C3EA9450EB648094805075900178DE
:0E09D7007410F0E4A3F08A828B83C002C00388
:0E09E500122A9CE5828583F0D003D00245F0F3
:0C09F300701DC002C003C002C00374CC21
:0C09FF00C0E07432C0E0122862E58124E0
:070A0B00FCF581D003D002CD
:0E0A1200C002C003121B99AC82D003D002ECCC
:0D0A20003395E0FDC002C003C004C00574A2
:080A2D00D4C0E07432C0E012F5
:0E0A35002862E58124FCF581D003D0020ABAC4
:030A430000010BA4
:030A46000209C9D9
:050A4900D0D092AF22A5
:050A4E00D310AF01C34D
:0E0A5300C0D075820A1223D8758240121B7A19
:040A61007A007B009C
:0E0A6500C3EA9440EB648094804003020AF7D9
:0E0A73009001787408F0E4A3F08A828B83C0AF
:0E0A810002C003122A9CE5828583F0D003D0C8
:0E0A8F000245F0701DC002C003C002C0037417
:080A9D00CCC0E07432C0E0128D
:0C0AA5002862E58124FCF581D003D0021A
:0E0AB100C002C003121B99AC82D003D00275A4
:0E0ABF008209C002C003C0041223D8D004D0A4
:0E0ACD0003D0027D00C002C003C004C0057447
:080ADB00D9C0E07432C0E01242
:0E0AE3002862E58124FCF581D003D0020ABA16
:030AF10000010BF6
:030AF400020A658E
:050AF700D0D092AF22F7
:070AFC00900036E4F0A3F0C6
:090B030074DCC0E07432C0E012A1
:060B0C002862158115812D
:0E0B1200900034E4F0A3F090001875F000128B
:090B2000273590001875F0001251
:0E0B29000192AA82AB83900032EAF0A3EBF0B7
:0E0B37008A048B0574F82D400B900034740175
:060B4500F0E4A3F08017AC
:0A0B4B00C002C003741EC0E0743342
:0D0B5500C0E012286215811581D003D00286
:0E0B6200900034E0FCA3E0FD4C60A5C002C092
:0A0B7000037464C0E07433C0E012A7
:0A0B7A00286215811581D003D00216
:0E0B8400900034E4F0A3F090001D75F000C066
:0E0B920002C003122735D003D00290001D755B
:0E0BA000F000C002C003120192AC82AD83D0FF
:0D0BAE0003D0028C068D0774F82F400B90C9
:0A0BBB0000347401F0E4A3F0801F81
:0C0BC500C002C003C004C00574A4C0E05E
:0C0BD1007433C0E012286215811581D039
:070BDD0005D004D003D00293
:0E0BE400900034E0FEA3E0FF4E6095ECC39A53
:0E0BF200FCED9BFD74012CFEE43DFFC002C033
:0C0C000003C004C005C006C00774E8C0B3
:0C0C0C00E07433C0E0122862E58124FC93
:0E0C1800F581D005D004D003D0028C068D07E4
:0D0C2600EF30E71FC002C003C004C005741A
:080C3300FDC0E07433C0E012C3
:0E0C3B00286215811581D005D004D003D002A7
:0B0C49008C068D07EF30E703020B0361
:040C54007E007F009F
:080C5800C3EC9EED9F50012248
:080C6000EE540F6003020D08C1
:0E0C6800C004C005C002C003C004C005C00621
:0B0C7600C007C002C0037451C0E0744E
:0C0C810034C0E0122862E58124FCF581FB
:0E0C8D00D007D006D005D004D003D0027410DA
:0D0C9B002AFAE43BFB900036E4F0A3F09051
:0A0CA8000032E0F8A3E0F9890875B6
:080CB2000900880490003DE5F3
:0C0CBA0008F090003E7410F0E4A3F090ED
:070CC60000407422F0A3744A
:0C0CCD0000F0A3E4F08C82C002C003C061
:0E0CD90004C005C006C007C000C001120E1DF9
:0E0CE700D001D000D007D006D005D004D00335
:0E0CF500D002900032740128F0E439A3F0D050
:050D030005D00480137F
:0E0D0800900032E0F8A3E0F990003274012868
:050D1600F0E439A3F038
:0E0D1B00C004C005900036E0F8A3E0F9E8241B
:0A0D290022F582E93400F583E0FCB6
:0E0D33007D00C002C003C004C005C006C0079A
:0C0D4100C000C001C004C0057459C0E02F
:0C0D4D007434C0E0122862E58124FCF53B
:0E0D590081D001D000D007D006D005D004D044
:0E0D670003D002900036740128F0E439A3F0A6
:050D75000EBE00010F9D
:070D7A00D005D004020C5863
:0E3293000A0D09094173636969205265707262
:0D32A1006573656E746174696F6E0A0D00CF
:0532AE000A0D090900F2
:0E32B3000A0D0909486578205265707265732E
:0B32C100656E746174696F6E0A0D0089
:0832CC000A0A0D307825780094
:0532D40009202578002F
:0332D90025780055
:0E32DC000A0A0D20456E7465722053746172EB
:0E32EA0074204164647265737320696E20481D
:0E32F800657820696E2048484820666F726D28
:0E3306006174206265747765656E203030302A
:0A33140020746F203746463A20006F
:0E331E000A0A0D202A2D4552524F522D2A091F
:0E332C0020506C6561736520456E74657220DB
:0E333A0076616C696420737461727420416462
:0E3348006472657373206265747765656D202D
:0E33560030303020616E64203746463A200049
:0E3364000A0A0D20456E74657220456E6420C5
:0E3372004164647265737320696E204865784B
:0E33800020696E2048484820666F726D6174A7
:0E338E00206265747765656E203030302074E3
:08339C006F203746463A20007D
:0E33A4000A0A0D202A2D4552524F522D2A0999
:0E33B20020506C6561736520456E7465722055
:0E33C00076616C696420656E642041646472FD
:0E33CE00657373206265747765656D2030301D
:0C33DC003020616E64203746463A200025
:0E33E8000A0D09546F74616C2042797465738C
:0733F6003A2025640A0D00D6
:0E33FD000A0D202D4552524F522D20456E6470
:0E340B00206164647265737320736D616C6C74
:0E3419006572207468616E207468652073749B
:0E34270061727420616464726573730A0D2013
:0E343500456E7465722056616C696420616496
:0E34430064726573732072616E67650A0D0016
:083451000A0A0D25783A090072
:0434590025780900C9
:0E0D8100AA83E582900038F0A3EAF0900038D3
:050D8F00E0FAA3E0FB07
:080D9400BA0005BB0002800F4C
:050D9C001ABAFF011B63
:0A0DA100900038EAF0A3EBF080E9BF
:090DAB00900038EAF0A3EBF022FD
:0E0DB400AA83E58290003AF0A3EAF090003A9C
:050DC200E0FAA3E0FBD4
:080DC700BA0005BB0002801D0B
:0E0DCF00900070C002C003120D81D003D0024C
:050DDD001ABAFF011B22
:0A0DE20090003AEAF0A3EBF080DB8A
:090DEC0090003AEAF0A3EBF022BA
:0B0DF500E58290003CF090003CE0FA2A
:050E0000BA000280129F
:0E0E05009003E8C002120DB4D0021A90003C17
:040E1300EAF080E998
:060E170090003CEAF0220D
:0A0E1D00E582900043F01217C69022
:0E0E2700003DE025E0FA74A04AFBF582C0020F
:0D0E35001217FED002C002121875D00290F4
:0E0E42000043E0FBF582C0021217FED002C092
:0E0E500002121875D002C0021217C6D002435B
:0B0E5E0002A18A821217FE1218759084
:0E0E6900003EE0FAA3E0FB900040E0FCA3E0B6
:080E7700FDA3E0FE7F007800FE
:0E0E7F00C3EF9AE864808BF063F08095F0502A
:0E0E8D0056C002C003C004C005C006C007C0A6
:0E0E9B000012182BA982D000D007D006D00577
:0E0EA900D004D003D0028C828D838EF0E9122B
:0E0EB7002849A3AC82AD83C002C003C004C0B2
:0E0EC50005C006C007C000121889D000D00773
:0E0ED300D006D005D004D003D0020FBF009E81
:030EE10008809BEB
:0E0EE400EA2CFAEB3DFB8E07C002C003C007EC
:0E0EF20012182BAC82D007D003D0028A828B5C
:0B0F0000838FF0EC12284912189102B8
:020F0B0017E3EA
:050F0D00D310AF01C389
:0C0F1200C0D0E58290004AF01217C69093
:0E0F1E000044E0FA25E0FB4303A08B82C002F2
:0D0F2C001217FED002C002121875D00290FC
:0E0F3900004AE0FBF582C0021217FED002C093
:0B0F470002121875D002900048E0F57F
:060F52000AA3E0F50B907C
:0E0F58000045E0FDA3E0FEA3E0FF7800790075
:0C0F6600C00288028903C3EA950AEB95DB
:0C0F72000BE433D002604E8D828E838F22
:0E0F7E00F0122DCCFBA3AD82AE838B82C0029D
:0E0F8C00C005C006C007C000C0011217FED08D
:0E0F9A0001D000D007D006D005D002C002C0A2
:0E0FA80005C006C007C000C001121875D001B8
:0E0FB600D000D007D006D005D00208B800A2A7
:030FC40009809F02
:0E0FC700C0021217E3D0028A821214C7D0D0E3
:030FD50092AF22B6
:0A0FD800E58290004DF01217C6905C
:0E0FE200004CE0FA25E0FB4303A08B82C00226
:0D0FF0001217FED002C002121875D0029038
:0E0FFD00004DE0FBF582C0021217FED002C0CC
:0E100B0002121875D00290004BE0FBF582C077
:0E101900021217FED002C002121875D002C0DB
:0B102700021217E3D0028A820214C7F5
:0A103200E58290004FF01217C690FF
:0E103C00004EE025E0FA74A04AFBF582C002E7
:0D104A001217FED002C002121875D00290DD
:0E105700004FE0FBF582C0021217FED002C06F
:0E10650002121875D002C0021217C6D0024344
:0B10730002A18A821217FE12187512EB
:0E107E00182BAA82C002121891D002C00212D2
:0E108C0017E3D00290000AC002120D81D002BC
:03109A008A822225
:05109D001217C67A00E5
:0310A200BA090088
:0E10A500500CD292C0021217B5D0020A80EF92
:0A10B3001217C61217E390000502A1
:0210BD000DB470
:0910BF00745DC0E07434C0E0125D
:0610C8002862158115816C
:0A10CE0090005075F00012273590D5
:0D10D800005075F000120192AA82AB8390C7
:0E10E5000058EAF0A3EBF08A048B05C374FFF9
:0C10F3009C74079D5017C002C003749F3E
:0C10FF00C0E07434C0E0122862158115B6
:05110B0081D003D002B9
:0E1110008A048B05C374FF9C74079D40B1C018
:0A111E0002C00374E5C0E07434C0A1
:0C112800E012286215811581D003D0026E
:0E11340090005075F000C002C003122735D0A5
:0E11420003D00290005075F000C002C00312EE
:0E1150000192AC82AD83D003D0028C068D07D5
:0E115E00C374FF9E74079F501FC002C003C0E1
:0A116C0004C0057425C0E07435C00E
:0E117600E012286215811581D005D004D00347
:02118400D00297
:0E1186008C068D07C374FF9E74079F40A1EC7A
:0E119400C39AFEED9BFF74012EF8E43FF9C0F4
:0E11A20002C003C004C005C006C007C000C0E4
:0A11B000017469C0E07435C0E0125C
:0E11BA002862E58124FCF581D007D006D0051F
:0E11C800D004D003D0028E008F01E930E7275B
:0D11D600C002C003C004C005C006C00774FD
:0811E3007EC0E07435C0E0128B
:0E11EB00286215811581D007D006D005D004EA
:0411F900D003D0024D
:0711FD00EF30E7030210BF11
:0C120400C002C003C004C00574D2C0E0EA
:0C1210007435C0E012286215811581D0F1
:07121C0005D004D003D0024D
:0E12230090005575F000C002C003C004C00565
:0E123100122735D005D004D003D0029000550E
:0E123F0075F000C002C003C004C005120426F2
:0E124D00AE82AF83D005D004D003D0028E0055
:0E125B008F01C374FF98E4995027C002C003AE
:0C126900C004C005C006C00774F2C0E05D
:0C1275007435C0E012286215811581D08C
:0B12810007D006D005D004D003D00237
:0D128C008E008F01C374FF98E49950030297
:0212990012231E
:0E129B00C006C007B296740F5AF8790074109E
:0E12A900C398F8E499F988068907C3E49E7497
:0E12B700808FF063F08095F0E433D007D0060E
:0E12C5006072C006C00788068907C3EE941049
:0E12D300EF64809480E433D007D0066059C0E9
:0812E10004C0058A0C8B0D8589
:0312E9000C0EAD3B
:0C12EC000D7C0090005AEDF08E048F0580
:0E12F80090005BECF090005CE8F0A3E9F0855C
:0C1306000E82C002C003C004C005C00677
:0E131200C007C000C001121427D001D000D0C7
:0E13200007D006D005D004D003D002900058AC
:0B132E00E82AF0E93BA3F0D005D00452
:0E133900900058E0FAA3E0FBECC39AF8ED9B9D
:0E134700F99001817410F0E4A3F0888289838C
:0D135500C002C003C004C005C006C00712DE
:0E1362002C11A882A983D007D006D005D00494
:0B137000D003D002E84960668E0C8FAD
:01137B000D64
:0C137C00E8496056C006C0078A0E8B07C7
:0B1388007E0090005AEFF090005BE543
:0C1393000CF090005C7410F0E4A3F085F6
:0C139F000E82C002C003C004C005C006DE
:0E13AB00C007C000C001121427D001D000D02E
:0E13B90007D006D005D004D003D00274102A4D
:0913C700FAE43BFB18B8FF011920
:0613D000D007D00680A644
:0813D600900058EAF0A3EBF0CF
:0E13DE00900058E0FAA3E0FBECC39AFCED9BF4
:0E13EC00FD8C008D01C3E89410E964809480AC
:0E13FA0050288C008D01E920E7208A008B022C
:0D1408007B0090005AEAF090005BEEF0903F
:0D141500005C74012CF0E43DA3F08882120D
:0214220014278D
:03142400B296225B
:0A142700E58290005EF01217C690F7
:0E143100005AE0FA25E0FB4303A08B82C002C4
:0D143F001217FED002C002121875D00290E4
:0E144C00005EE0FBF582C0021217FED002C067
:0C145A0002121875D00290005BE0FB90BD
:0B146600005CE0FCA3E0FD7E007F00C6
:0E1471008E008F01C3E89CE99D503F8B82C026
:0E147F0002C003C004C005C006C0071217FE5D
:0E148D00D007D006D005D004D003D002C00294
:0E149B00C003C004C005C006C007121875D0FB
:0E14A90007D006D005D004D003D0020EBE003E
:0414B700B90F80B633
:0C14BB00C0021217E3D0028A820214C79C
:0E14C700E58290005FF090005FE025E0FA43C0
:0214D50002A073
:0E14D700C0021217C6D0028A82C0021217FE8F
:0E14E500D002C002121875E582D00270E52216
:0E345D000A0A0D20456E746572205374617268
:0E346B0074204164647265737320696E20489A
:0E347900657820696E2048484820666F726DA5
:0E3487006174206265747765656E20303030A8
:0A34950020746F203746463A2000ED
:0E349F000A0A0D202A2D4552524F522D2A099D
:0E34AD0020506C6561736520456E7465722059
:0E34BB0076616C6964207374617274204164E0
:0E34C9006472657373206265747765656D20AB
:0E34D70030303020616E64203746463A2000C7
:0E34E5000A0A0D20456E74657220456E642043
:0E34F3004164647265737320696E20486578C9
:0E35010020696E2048484820666F726D617424
:0E350F00206265747765656E20303030207460
:08351D006F203746463A2000FA
:0E3525000A0A0D202A2D4552524F522D2A0916
:0E35330020506C6561736520456E74657220D2
:0E35410076616C696420656E6420416464727A
:0E354F00657373206265747765656D2030309A
:0C355D003020616E64203746463A2000A2
:0E3569000A0D09546F74616C20427974657309
:073577003A2025640A0D0053
:0E357E000A0D202D4552524F522D20456E64ED
:0E358C00206164647265737320736D616C6CF2
:0E359A006572207468616E2074686520737419
:0E35A80061727420616464726573730A0D2091
:0E35B600456E7465722056616C696420616414
:0E35C40064726573732072616E67650A0D0094
:0E35D2000A0A0D20456E746572204461746112
:0E35E00020666F7220426C6F636B2046696C30
:0435EE006C3A200013
:0E35F2000A0A0D202A2D4552524F522D2A0949
:0E36000020506C6561736520456E7465722004
:0E360E0076616C6964204461746120626574A9
:0E361C007765656E20303020746F2046463A88
:02362A0020007E
:0514F300D310AF01C39E
:0E14F800C0D09000A07424F09000A17447F0C2
:0D1506009000A27450F09000A37452F09079
:0C15130000A4744DF09000A57443F0900B
:09151F00006075F0001227359000
:07152800015C74A0F0A37444
:0C152F0000F0A37400F090006075F00064
:0E153B00122663AA82AB83ACF0EA4B4C600828
:081549008A828B838CF080067E
:061551008A828B838CF0FE
:05155700D0D092AF228C
:0E155C00AAF0AB83E5829000A6F0A3EBF0A30B
:0E156A00EAF09000A6E0FAA3E0FBA3E0FC7D0F
:03157800007E07EB
:0E157B00EE2AFFE43BF88C018F82888389F012
:09158900122DCCFFBF2C028010D2
:0A159200ED24A9F582E43400F5838E
:06159C00EFF00D0E80D9F6
:0715A2009000A975F0002282
:0E15A900AAF0AB83E5829000AFF0A3EBF0A3B5
:0E15B700EAF09000AFE0FAA3E0FBA3E0FC7DB9
:0315C500007E00A5
:0E15C800C3ED648094825019EE2AFFE43BF8D4
:0E15D6008C018F82888389F0122DCCFFBF2CF0
:0215E400010DF7
:0315E6000E80DF95
:0E15E9009000AFE0FAA3E0FBA3E0FCEE2AFEC8
:0E15F700E43BFD8C078E828D838FF0122DCC8D
:03160500F5822249
:0E160800AAF0AB83E5829000B2F0A3EBF0A352
:0E161600EAF09000B2E0FAA3E0FBA3E0FC7D56
:03162400007E0045
:0E162700C3ED648094835019EE2AFFE43BF873
:0E1635008C018F82888389F0122DCCFFBF2C90
:02164300010D97
:031645000E80DF35
:0D1648009000B2E0FAA3E0FBA3E0FC7D00FF
:0E165500EE2AFFE43BF88C018F82888389F037
:09166300122DCCFFBF2C028010F7
:0A166C00ED24B5F582E43400F583A7
:06167600EFF00D0E80D91B
:0A167C000EED24B5FDE43400FFEE8E
:0E1686002AFAE43BFB8A828B838CF0122DCC77
:0D169400FA8D828F83F09000B575F0002272
:0E16A100AAF0AB83E5829000C3F0A3EBF0A3A8
:0E16AF00EAF09000C3E0FAA3E0FBA3E0FC7DAC
:0316BD00007E00AC
:0E16C000C3ED648094855019EE2AFFE43BF8D8
:0E16CE008C018F82888389F0122DCCFFBF2CF7
:0216DC00010DFE
:0316DE000E80DF9C
:0D16E1009000C3E0FAA3E0FBA3E0FC7D0055
:0E16EE00EE2AFFE43BF88C018F82888389F09E
:0916FC00122DCCFFBF2C0280105E
:0A170500ED24C6F582E43400F583FC
:06170F00EFF00D0E80D981
:0A1715000EED24C6FDE43400FFEEE3
:0E171F002AFAE43BFB8A828B838CF0122DCCDD
:0D172D00FA8D828F83F09000C675F00022C7
:0E173A00AAF0AB83E5829000D4F0A3EBF0A3FD
:0E174800EAF09000D4E0FAA3E0FBA3E0FC7D01
:03175600007E0012
:0E175900C3ED648094895019EE2AFFE43BF83A
:0E1767008C018F82888389F0122DCCFFBF2C5D
:02177500010D64
:031777000E80DF02
:0D177A009000D4E0FAA3E0FBA3E0FC7D00AA
:0E178700EE2AFFE43BF88C018F82888389F004
:09179500122DCCFFBF2C028010C4
:0A179E00ED24D7F582E43400F58352
:0617A800EFF00D0E80D9E8
:0717AE009000D775F0002246
:0E17B500900001120D81D2B4900001120D813E
:0317C300C2B4228B
:0D17C600C2B4D292900001120D81D2B490F5
:0E17D3000001120D81C292900001120D81C220
:0217E100B42230
:0E17E300C2B4900001120D81C292900001125A
:0D17F1000D81D2B4900001120D81D2922220
:0817FE00E5829000E5F07A009D
:03180600BA08001D
:0E180900501D9000E5E0FB339292C002C00338
:0E1817001217B5D003D002EB2BFB9000E5F0CA
:031825000A80DE58
:03182800D2922237
:09182B009000E6E4F0D2927A008C
:03183400BA0800EF
:0E1837005035900001C002120D81D002D2B4D3
:0E184500900001C002120D81D0029000E6E07A
:0E18530025E0FB9000E6F09000E6E0FBE4A24A
:0D1861009233FC9000E64BF0C2B40A80C642
:07186E009000E6E0F5822284
:0E187500D292D2B4900001120D81E4A29233FF
:06188300FAC2B48A8222C1
:08188900C2921217B5D292229F
:08189100D2921217B5D2B42265
:0D189900E5829000E7F01217C6758270120C
:0618A60017FE12187590F8
:0A18AC0000E7E0FAF5821217FE12C1
:0918B60018751217E390000502F9
:0218BF000DB466
:0A18C1001217C67582711217FE128D
:0A18CB00187512182BAA82C0021231
:0E18D5001889D002C0021217E3D00290000A58
:0A18E300C002120D81D0028A822299
:0518ED00D310AF01C3A0
:0E18F200C0D0AA83E5829000E8F0A3EAF0904F
:0E19000000E8E0FAA3E0FB8A828B83C002C0FD
:0E190E0003120648AC82D003D0029000F5749C
:0E191C0007F0758204C002C003C004121CED67
:0D192A00D004D003D0028C82C002C0031292
:0E1937001B5BD003D002EBC454F0CAC4CA6AD2
:0E194500CA54F0CA6AFB9000E8EAF0A3EBF087
:0E1953009000E8E0FAA3E0FB9000E8740F4A71
:0E196100F0A3EBF09000E8E0FAA3E0FB8A822E
:08196F00121899D0D092AF22AA
:09197700742CC0E07436C0E012CB
:06198000286215811581AB
:0A1986009000EA75F000122735907A
:0E19900000EA75F000122530AA82AB838A04AB
:0E199E008B05C374079CE49D5017C002C00364
:0919AC007451C0E07436C0E01271
:0A19B500286215811581D003D002CD
:0E19BF008A048B05C374079CE49D40BBC002E4
:0A19CD00C0037488C0E07436C0E067
:0B19D70012286215811581D003D00298
:0E19E2009000EA75F000C002C003122735D055
:0E19F00003D0029000EA75F000C002C003129E
:0E19FE002530AC82AD83D003D0028C068D075D
:0E1A0C00C374019EE49F501FC002C003C004BB
:0A1A1A00C00574BBC0E07436C0E0E4
:0E1A240012286215811581D005D004D003D0A0
:011A320002B1
:0E1A33008C068D07C374019EE49F40A3C00281
:0C1A4100C003C004C0051218C185820F4C
:0E1A4D00D005D004D003D002EC4D70718A0792
:0E1A5B008B008F828883122C89AF82A883A90A
:0E1A6900F0FE900170EFF0A3E8F0A3E9F0A307
:0E1A7700EEF0900000E4F5F0744012298AAE03
:0E1A850082AF83A8F0F9C006C007C000C00100
:0E1A930090000075F07F744312248AAE82AF7B
:0E1AA10083A8F0F9E58124FCF5818E828F8305
:0C1AAF0088F0E9122C95AE82AF83A80FDE
:0E1ABB007900E85206E952079000EDEEF08047
:011AC90022FA
:0A1ACA008AF005F0AA04AB058006BF
:061AD400EA2AFAEB33FBE5
:0C1ADA00D5F0F7AE0F7C00EE4202EC42AB
:061AE600039000EDEAF0A0
:0E1AEC009000EDE0FAF58212189990000502C4
:021AFA000D815C
:0E362C000A0A0D092053656C656374207069ED
:0E363A006E206E756D6265722066726F6D2077
:093648003020746F20373A200095
:0E3651000A0A0D202A2D4552524F522D2A0AE8
:0E365F000D0920456E74657220612076616C45
:0E366D006964206E756D626572206265747707
:0D367B0065656E203020746F20373A200006
:0E3688000A0A0D092053656C656374204469BD
:0E36960072656374696F6E206F662070696ED6
:0E36A4003A2020302E4F75747075742020313E
:0936B2002E20496E7075740900A8
:0E36BB000A0A0D202A2D4552524F522D2A0A7E
:0E36C9000D0920456E74657220612076616CDB
:0E36D7006964206E756D62657220626574779D
:0D36E50065656E2030206F7220313A2000A4
:0E1AFC00C293900014120DB490A0007430F04C
:0D1B0A00900006120DB490A0007430F09011
:0E1B17000005120DB490A0007430F0121BCF28
:0E1B250090A0007438F0121BCF90A00074083E
:0E1B3300F0121BCF90A000740CF0121BCF908C
:0E1B4100A0007406F0121BCF90A0007401F0FB
:0C1B4F009000F57401F0758201021CED9D
:0E1B5B00E5829000EEF0D293900001120DB4DE
:0E1B69007A007BA09000EEE0FC8A828B83F075
:031B7700021BCF7F
:0E1B7A00E5829000EFF0C293900001120DB4CE
:0E1B88007A007BA09000EFE0FC8A828B83F055
:031B9600021BCF60
:0E1B9900D293900001120DB490C000E0FAC08B
:091BA70002121BCFD0028A822237
:0E1BB000E5829000F0F0C293900001120DB497
:0E1BBE007A007BA09000F0E0FC8A828B83F01E
:031BCC00021BCF2A
:0E1BCF00C29390C000E0FA9000F1F090000187
:031BDD00120DB432
:0E1BE0009000F1E0FA30E70B90C000E0FA90C0
:051BEE0000F1F080EDA4
:071BF3009000F1E0F58222F1
:051BFA00D310AF01C390
:0E1BFF00C0D0AAF0AB83E5829000F2F0A3EB19
:0E1C0D00F0A3EAF09000F2E0FAA3E0FBA3E0FF
:051C1B00FC7D007E00CD
:0E1C2000ED2AFFEE3BF88C018F82888389F05D
:0A1C2E00122DCCFFBF0003021CE8DA
:0D1C38008F82C002C003C004C005C00612A8
:0E1C45001B5BD006D005D004D003D0020DBD2D
:031C530000010E7F
:0E1C5600C002C003C004C005C006121BCFAF01
:0E1C640082D006D005D004D003D002BF1024D9
:0E1C72009000F57401F0758202C002C003C03C
:0E1C800004C005C006C007121CEDD007D00638
:081C8E00D005D004D003D00200
:0E1C9600BF50249000F57401F0758203C00267
:0E1CA400C003C004C005C006C007121CEDD06E
:0B1CB20007D006D005D004D003D002FC
:051CBD00BF400280039E
:031CC200021C20E1
:0E1CC5009000F57401F0758204C002C003C0E7
:0E1CD30004C005C006121CEDD006D005D004DA
:071CE100D003D002021C2019
:051CE800D0D092AF22F4
:051CED00D310AF01C39C
:0E1CF200C0D0E5829000F6F09000F6E0FABA5D
:0A1D000001159000F5E0FABA110099
:0D1D0A00500B747F2AFAF582121BB0806026
:0E1D17009000F6E0FABA02159000F5E0FABA74
:021D25001100AB
:0D1D2700500B74BF2AFAF582121BB08043E6
:0E1D34009000F6E0FABA03159000F5E0FABA56
:021D420011008E
:0D1D4400500B748F2AFAF582121BB0802616
:0E1D51009000F6E0FABA04159000F5E0FABA38
:021D5F00110071
:0D1D6100500B74CF2AFAF582121BB08009D6
:091D6E009036F275F080121BFAA8
:051D7700D0D092AF2264
:0E1D7C00E5829000FAF09000FAE0FAC4540FED
:0E1D8A00FB7C008B828C83C002C003C004125D
:0E1D98000648AD82D004D003D002900100EDC9
:0E1DA600F07D00ECC454F0CBC4CB6BCB54F0FA
:0E1DB400CB6BFCEAC39BFAED9CFD8A828D830B
:0B1DC200120648AA82900101EAF0908E
:091DCD000102E4F074F8C0E074B6
:0A1DD60036C0E01228621581158165
:0E1DE000900105E4F0A3F09000FB75F00012F6
:091DEE0027359000FB75F000128E
:0E1DF7002530AA82AB838A048B05C3EC9404CA
:0E1E0500ED9400500B9001057401F0E4A3F081
:021E1300801736
:0A1E1500C002C003741EC0E0743761
:0D1E1F00C0E012286215811581D003D002A9
:0D1E2C00900105E0FCA3E0FD4C60A90A90C8
:0B1E390000F57401F08A82121CED908D
:0E1E440000F7E0FAA3E0FBA3E0FC8A828B83A8
:0C1E52008CF0121BFA75823A121B5B9098
:081E5E00010075F000021BFAFF
:051E6600D310AF01C321
:0E1E6B00C0D0E58290010AF090010AE0FAC4AE
:0E1E79000354F8FA90010AF090010AE0FA43CF
:0E1E870002408A82121B7A900107E0FAA3E063
:061E9500FBA3E0FC7D0050
:0E1E9B00C3ED64809488502AED2AFEE43BFFDC
:0E1EA9008C008E828F8388F0122DCCFEF58285
:0E1EB700C002C003C004C005121B5BD005D0E2
:081EC50004D003D0020D80CE11
:051ECD00D0D092AF220D
:051ED200D310AF01C3B5
:0E1ED700C0D090010B7404F090010C7404F064
:0D1EE50090010D7403F090010E7401F09057
:0C1EF200010F7401F09001127402F090D6
:0C1EFE0001137403F09001147405F090BF
:0E1F0A0001157404F09001167405F075820143
:0A1F1800121B7A9001197402F09078
:0C1F2200011A7401F075820612202C9048
:0E1F2E0001197403F090011A7404F07582001A
:0A1F3C0012202C9001197403F0909C
:0C1F4600011A7401F075820012202C902A
:0E1F520001197402F090011A7406F0758200F5
:0A1F600012202C9001197402F09079
:0C1F6A00011A7404F075820612202C90FD
:0E1F760001197404F090011A7401F0758201D3
:071F840012202C7A007B0003
:0D1F8B00C3EA9405EB648094805037EA248B
:0A1F98000BF582EB3401F583E0FC49
:0A1FA200EA2412F582EB3401F58306
:0E1FAC00E0FD900119ECF090011AEDF0758245
:0E1FBA0002C002C00312202CD003D0020ABACB
:051FC80000C10B80BE0A
:0E1FCD009001197404F090011A7404F07582EA
:0B1FDB000312202C9001197403F090F9
:0C1FE600011A7406F075820312202C9082
:0E1FF20001197401F090011A7406F075820452
:0A20000012202C9001197403F090D7
:0C200A00011A7403F075820512202C905E
:0E20160001197401F090011A7403F07582052F
:0820240012202CD0D092AF2253
:05202C00D310AF01C359
:0E203100C0D0E58290011BF0900119E0FA90FA
:0B203F00011AE0FB9000F5F08A82120D
:0A204A001CED90011BE0FAF5821274
:072054001B5BD0D092AF220C
:0636F2004572726F7200C8
:0E36F8000A0A0D20456E74657220526F77200D
:0E3706006E756D626572206265747765656E22
:0A371400203020746F20333A2000AB
:0E371E000A0A0D20456E7465722076616C6992
:0E372C006420726F77206E756D626572206288
:0E373A0065747765656D203020616E64203304
:033748003A200024
:0600000002000E0220DAEE
:03000B000221547B
:0300670002205B19
:05205B0012206780FE69
:07206000438E0C90000022EA
:09206700121AFC1223F4C29012BB
:02207000109DC1
:0E207200900064120DB4120096AA82AB83C0D7
:0A20800002C003744BC0E07437C0C7
:0E208A00E0122862E58124FCF58190006412CA
:0E2098000DB41200FCAA82AB83C002C0037418
:0820A6005EC0E07437C0E012D7
:0E20AE002862E58124FCF581900064120DB4D7
:0C20BC00120164AA82AB83C002C003744E
:0820C8006FC0E07437C0E012A4
:0A20D0002862E58124FCF581809868
:0E20DA00C0E0C0F0C082C083C002C003C004DA
:0E20E800C005C006C007C000C001C0D075D042
:0E20F60000900131E0FAA3E0FB90013174018B
:0E2104002AF0E43BA3F0900131E0FAA3E0FBE7
:0D211200BA200ABB0007900131E4F0A3F0F1
:0E211F00900131E0FAA3E0FBEA20E00EEBC3F2
:0C212D0013CA13CAFB8A828B831218EDC0
:0E213900D0D0D001D000D007D006D005D00401
:0D214700D003D002D083D082D0F0D0E0329F
:0E215400C0E0C0F0C082C083C002C003C0045F
:0E216200C005C006C007C000C001C0D075D0C7
:0E21700000900185E0FA90018574012AF07557
:0E217E008C58758A00900185E0FABA14028030
:01218C00034F
:03218D000222C06B
:0D219000900137E0FA90013774012AF090B9
:0E219D000133E0FAA3E0FB90013374012AF055
:0D21AB00E43BA3F0900137E0FABA3C11903C
:0A21B8000137E4F0900136E0FA90E0
:0621C200013674012AF051
:0E21C800900136E0FABA3C11900136E4F09036
:0B21D6000135E0FA90013574012AF099
:0D21E100900135E0FABA1805900135E4F0E0
:0B21EE00900135E0FA900136E0FB9014
:0A21F9000137E0FC900011EBF090BC
:0A2203000012ECF08A8212074290EC
:0E220D000133E0FAA3E0FBBA0805BB00028033
:01221B0003BF
:03221C000222BBE0
:0E221F00758C80758A00C2941214F3AA82ABEB
:0E222D0083ACF0D2949000F57401F07582013C
:0E223B00C002C003C004121CEDD004D003D0BA
:0E224900028A828B838CF0C002C003C0041294
:0E22570015A9AD82D004D003D0028D82C00242
:0E226500C003C004121B5BD004D003D0028A59
:0E227300828B838CF0C002C003C004121608D8
:0E228100AD82AE83AFF0D004D003D0028D82C8
:0E228F008E838FF0C002C003C004121BFAD071
:0E229D0004D003D0028A828B838CF01216A12B
:0E22AB00AA82AB83ACF0121BFA900133E4F070
:0222B900A3F090
:0522BB00900185E4F034
:0E22C000D0D0D001D000D007D006D005D00479
:0D22CE00D003D002D083D082D0F0D0E03217
:0E374B000A0D54656D703A2025642043656CAC
:053759006369757300B7
:0E375E000948554D49444954593A20256420E4
:03376C00524800C0
:0C376F004C49474854203A2025642000B3
:013871000056
:02387200000054
:0D22DB0090013B7441F090013C7442F09082
:0C22E800013D7443F090013E7444F090FE
:0C22F400013F7445F09001407446F090EA
:0C23000001417447F09001427448F090D5
:0C230C0001437449F0900144744AF090C1
:0C2318000145744BF0900146744CF090AD
:0C2324000147744DF0900148744EF09099
:0C2330000149744FF090014A7450F074A1
:08233C007BC0E07437C0E01221
:0B23440028621581158174CCC0E07484
:0B234F0037C0E0122862158115819054
:09235A00014B75F00012273590CB
:0E236300014B75F000120192AA82AB83B29476
:0E2371008A04900181E4F0A37401F08A828B4B
:0D237F0083C004122C11AA82AB83D00490FD
:0E238C00004B74AAF090004CEAF08C82C00264
:0E239A00C004120FD8D004D002B294900005F7
:0E23A800C002C004120DB4D004D002B2959051
:0823B6000044EAF090004574B8
:0A23BE003BF0A37401F0A3E4F090DB
:0E23C80000487410F0E4A3F08C82120F0DB2E6
:0223D60095224E
:0E377B000A0A0D54696D696E672070726F66E0
:0E378900696C696E67206F6620746865204564
:0E3797004550524F4D2C200A0D50315F34200A
:0E37A500666F722062797465207772697465B0
:0E37B3000A0D50315F3520666F72207061671D
:0B37C100652077726974650A0A0D002C
:0E37CC000A0A0D09456E74657220537461720D
:0E37DA0074206164647265737320666F7220E0
:0E37E80074686520706167652077726974658A
:0337F6003A200076
:0623D800E58290014FF0C8
:0C23DE003099FD90014FE0F599C2992262
:0523EA0010980280FBC9
:0523EF00AA998A822278
:0E23F40075C800759B00758DFD758B004388C4
:08240200404398527589202225
:0D240A00E582900151F01217C67582C012D4
:0624170017FE121875907B
:0A241D000151E0FAF5821217FE12D9
:0A2427001875900150E0FAF58212DA
:0624310017FE12187512DF
:0824370017E3900005020DB44B
:0D243F00E582900152F01217C67582C0129E
:06244C0017FE1218759046
:0A2452000152E0FAF5821217FE12A3
:09245C0018751217C67582C11231
:0624650017FE12187512AB
:0E246B00182BAA82C002121891D002C00212D1
:0E24790017E3D00290000AC002120D81D002BB
:032487008A822224
:0B248A00A8811818C6B2E7C6022BB8E4
:0E249500AA83E582900155F0A3EAF09001576A
:0E24A300E4F0A3F0900153E0FAA3E0FB7C10FC
:0C24B100900155E0FDA3E0FE339200EE28
:0E24BD00CD25E0CD33FE900155EDF0A3EEF0FD
:0E24CB00900157E0FDA3E0FECD25E0CD33FEED
:0C24D900900157EDF0A3EEF030001290DF
:0E24E5000157E0FDA3E0FE90015774014DF099
:0324F300A3EEF065
:0E24F600900157E0FDA3E0FEC3ED9AEE9B407F
:0D2504001D900157EDC39AF0EE9BA3F090DF
:0E2511000155E0FDA3E0FE90015574014DF070
:03251F00A3EEF038
:0E252200DC8D900155E0FAA3E08A82F5832259
:06003D00E478FFF6D8FD97
:08001B007903E94400601B7A3F
:05002300019038717826
:030028008575A03B
:0A002B0001E493F2A308B8000205F7
:08003500A0D9F4DAF275A0FF76
:0E253000AAF0AB83E582900159F0A3EBF0A373
:0E253E00EAF07A007B00900159E0FCA3E0FD7A
:03254C00A3E0FE0B
:0E254F008C828D838EF0122DCCFF6039C37408
:0E255D00B98FF063F08095F04007EF64809432
:03256B00B0502647
:0E256E008C828D838EF0122DCCFFBF2D02804B
:01257C001747
:05257D00BF2B028012DB
:052582000CBC00010D7E
:0D258700900159ECF0A3EDF0A3EEF080BB45
:0E259400900159ECF0A3EDF0A3EEF08C828DD7
:0C25A200838EF0122DCCFFE4BF2D01044D
:0825AE00F888017003BF2B0E39
:0E25B60090015974012CF0E43DA3F0A3EEF067
:0B25C400900159E0FCA3E0FDA3E0FE45
:0E25CF008C828D838EF0122DCCFF6068C3EFDE
:0E25DD00648094B0406074B98FF063F0809514
:0E25EB00F04055C00190016E740AF0E4A3F0B8
:0E25F9008A828B83C004C005C006C007C001E3
:0826070012296A858210858307
:0C260F0011D001D007D006D005D004EF98
:0E261B003395E0F8EF24D0FFE834FFF8EF2508
:0A26290010FAE83511FB0CBC0001AB
:012633000D99
:0E263400900159ECF0A3EDF0A3EEF0D0018080
:012642008C0B
:0E264300900159ECF0A3EDF0A3EEF0E9600970
:09265100C3E49AFCE49BFD800443
:04265A008A048B055E
:05265E008C828D832237
:0E266300AAF0AB83E58290015FF0A3EBF0A339
:0E267100EAF090015FE0FAA3E0FBA3E0FC902A
:0E267F000162EAF0A3EBF0A3ECF090015CE046
:0E268D00FDA3E0FEA3E0FF8D828E838FF0128E
:0B269B002DCC70078A828B838CF0220C
:0E26A6008A828B838CF0122DCC700302272EBB
:0526B4008A218B228C3D
:0426B900238D248EBB
:0326BD00258F2640
:0726C000852182852283853C
:0926C70023F0122DCCF8602685E9
:0626D000248285258385AC
:0C26D60026F0122DCCF96017E8C39970B3
:0826E200120521E4B5210205F7
:0126EA0022CD
:0726EB000524E4B524CF052E
:0326F2002580CB75
:0726F5008524828525838501
:0826FC0026F0122DCC7018909D
:082704000162E0F524A3E0F5F9
:06270C0025A3E0F526857F
:0627120024828525838569
:0327180026F02286
:05271B000ABA00010BE9
:0E272000900162EAF0A3EBF0A3ECF00226A613
:07272E0090000075F000228D
:0E273500AAF0AB83E582900165F0A3EBF0A360
:0E274300EAF0900165E0FAA3E0FBA3E0FC9051
:0E2751000168EAF0A3EBF0A3ECF090016BE45A
:03275F00F0A3F0F4
:0A2762001223EAAA82BA0802800DD1
:05276C00BA0A028067BB
:05277100BA0D028062B8
:0327760002280B2B
:0E27790090016BE0FBA3E0FC4B60DE75820874
:0E278700C003C0041223D8D004D003758220F2
:0E279500C003C0041223D8D004D003758208FC
:0E27A300C003C0041223D8D004D003900168F4
:0D27B100E0FDA3E0FEA3E0FF1DBDFF011E43
:0E27BE00900168EDF0A3EEF0A3EFF01BBBFF5F
:0227CC00011CEE
:0A27CE0090016BEBF0A3ECF0808AA1
:0D27D80075820D1223D875820A1223D89045
:0E27E5000168E0FBA3E0FCA3E0FD8B828C8387
:0E27F3008DF0E4122849900165E0FBA3E0FCA4
:0A280100A3E0FD8B828C838DF02292
:0E280B00900168E0FBA3E0FCA3E0FD8B828C53
:0E281900838DF0EA12284990016874012BF0BB
:0E282700E43CA3F0A3EDF090016BE0FBA3E016
:0E283500FC90016B74012BF0E43CA3F08A824E
:062843001223D8022762F7
:0E28490020F71030F6118883A88220F507F6DC
:05285700A88375830059
:01285C002259
:03285D00F280F70F
:02286000F02264
:05286200C0168581167F
:0B286700E51624FDF886831886821811
:0E287200E493A324DB600C2425600512294F9B
:0228800080F0E6
:03288200022967C1
:09288500D2D5E493A3C083C08204
:03288E00B473140C
:0928910086F0188683188682186F
:0B289A00122DCC6053A312294F80F5D3
:0A28A500B46307E61812294F8043C0
:0E28AF00B46417E630E74618E6F42401F60894
:0C28BD00E6F43400F6742D12294F80332D
:0A28C900B4782D868318868218E487
:0B28D300122940E58312293FE5831223
:0A28DE002940E58212293FE582122D
:0A28E800294030D505743012294F45
:0728F200D082D0830228729E
:0328F900B475F6BD
:0628FC00E6FA18E6F918E7
:0D2902007C107D2712292AFF7CE87D03123E
:0E290F00292AC4F5837C647D0012292A4283A4
:0D291D00E975F00A84C445F0F582EF80A949
:02292A007B0030
:0E292C000BC3E99CF9EA9DFA50F61BE92CF961
:05293A00EA3DFAEB226A
:01293F00C4D3
:07294000540F700320D51FA6
:08294700C2D52490D43440D421
:0E294F00C083C082C0F0F582E8C0E01223D839
:09295D00D0E0F8D0F0D082D08364
:01296600224E
:03296700D0162265
:0E296A00AA83AB828BF090016EE0A4F8A9F076
:0E2978008AF0E0A429F98BF0A3E0A429F583EE
:0429860088822222FF
:0E298A00AA82AB83ACF0FD900174EAF0A3EBDF
:0E299800F0A3ECF0A3EDF0900170E0FAA3E0E4
:0E29A600FBA3E0FCA3E0FDEA4B4C4D70099052
:0829B400000075F080743F2261
:0E29BC00C002C003C004C005E4C0E0C0E07467
:0E29CA0080C0E0743FC0E08A828B838CF0ED09
:0E29D80012303AAE82E58124FCF581D005D0A4
:0E29E60004D003D002EE6015900174E0FEA351
:0E29F400E0FFA3E0F8A3E0F98E828F8388F065
:012A020022B1
:092A0300900174E0F512A3E0F566
:082A0C0013A3E0F514A3E0F5AB
:0C2A140015C002C003C004C005E4C0E00F
:0A2A2000C0E0C0E0C0E0851282852E
:062A2A0013838514F0E5A2
:0C2A30001512304BAE82E58124FCF581CC
:0E2A3C00D005D004D003D002EE700790000049
:042A4A00E4F5F0229D
:072A4E0085128285138385C8
:0A2A550014F0E515C002C003C00430
:0E2A5F00C005122ECCAE82AF83A8F0F9D005D0
:0E2A6D00D004D003D002C002C003C004C005D4
:0E2A7B008E828F8388F0E9122DFBAA82AB8336
:0E2A8900ACF0FDE58124FCF5818A828B838C04
:052A9700F0ED02307BB0
:0E2A9C00AA83E58290017AF0A3EAF090017A15
:0E2AAA00E0FAA3E0FB30E709C3E49AFCE49BEA
:032AB800FD80049A
:042ABB008A048B05F9
:0E2ABF008C028D03900178E0FCA3E0FD30E76F
:0A2ACD0009C3E49CFEE49DFF8004B1
:042AD7008C068D07D5
:0D2ADB0090017CEEF0A3EFF08A828B831255
:0E2AE8002B0AAA82AB8390017AE0FCA3E0FDEA
:0E2AF60030E70CC3E49AFCE49BFD8C828D83D8
:012B040022AE
:052B05008A828B83228F
:0E2B0A00AA83E58290017EF0A3EAF09001809C
:0C2B1800E4F090017EE0FAA3E0FB7C00FA
:0E2B240090017CE0FDA3E0FE235401FF70371A
:0E2B3200EECD25E0CD33FE90017CEDF0A3EE5C
:0E2B4000F090017CE0FDA3E0FEC3EA9DEB9E59
:0E2B4E005011EEC313CD13CDFE90017CEDF0BF
:052B5C00A3EEF080086B
:082B61000C900180ECF080BB38
:052B6900900180E0FA7C
:0E2B6E0090017EE0FBA3E0FC90017CE0FDA363
:0E2B7C00E0FEC3EB9DEC9E400B90017EEBC390
:062B8A009DF0EC9EA3F09B
:0E2B900090017CE0FBA3E0FCC313CB13CBFC55
:0E2B9E0090017CEBF0A3ECF08A031AEB70C2FE
:0C2BAC0090017EE0FAA3E08A82F583220B
:032BB800122E9E3C
:092BBB007900E583B58202800D6A
:052BC4005003122CEF8C
:082BC900E583C39582122FCEB3
:082BD100E5D0C465D020E11736
:0E2BD900EA2DFAEB3EFBEC3FFC5009740112B2
:062BE7002FCEEC4480FC3F
:032BED00022CA017
:0E2BF000C3EA9DFAEB9EFBEC9FFC500FC3E482
:0D2BFE0099F9E49AFAE49BFBE49CFCB2D147
:062C0B00123011022CA0A2
:080043007800E84400600A792E
:03004B000075A09D
:06004E0000E4F309D8FCF8
:080054007885E84401600C7995
:0B005C0002900000E4F0A3D8FCD9FAE9
:0E2C1100AA83E582900183F0A3EAF09001838C
:0E2C1F00E0FAA3E0FB30E709C3E49AFCE49B73
:032C2D00FD800423
:042C30008A048B0582
:0E2C34008C028D03900181E0FCA3E0FD33E4EF
:0D2C420033FE6009C3E49CFFE49DF88004AC
:042C4F008C078D0061
:0E2C5300900153EFF0A3E8F08A828B83C00655
:0E2C6100122495AA82AB83D006900183E0FC7A
:0E2C6F00A3E0FD33E4336E600CC3E49AFCE492
:072C7D009BFD8C828D832278
:052C84008A828B83220F
:0C2C8900E4AC83AB82FAF9748E022DF1EA
:0B2C95007F8E123212F58385F0822240
:062CA000B98003EA13B342
:0E2CA6004010EA2401FAE43BFBE43CFC50043D
:042CB4007C80058299
:092CB800BC000EBB000BBA0008C1
:082CC100E4F5F0F583F5822231
:0E2CC900A2D1E582138CF092F78B838A8222CF
:0D2CD700E4F583F58275F080F4A2D113229C
:0B2CE400E4F583F58275F0C0747F22D8
:0E2CEF00E582C583F582A2D133A2D592D1131E
:0C2CFD0092D5ECCFFCEBCEFBEACDFA2226
:082D0900122E9E30D502B2D15A
:092D1100BF0009BC0003022CE420
:032D1A00022CD7B1
:062D1D00BC0003022CC102
:0D2D2300E583B4FF0BE582B4FF03022CE44E
:032D3000022CC1B1
:082D3300E582B4FF03022CD776
:0C2D3B00C395835007247F400B022CC17D
:082D47002480145003022CD774
:0E2D4F00F582C3ED9AEE9BEF9C40111582C3F6
:0E2D5D00EA33F9EB33FAEC33FBE433FC800588
:052D6B00E4CCCBCAF925
:052D7000C08275F0199E
:0E2D7500C3E99DEA9EEB9FEC9400D5F002802E
:012D83002D22
:0E2D8400400EE99DF9EA9EFAEB9FFBEC9400ED
:022D9200FCC380
:0E2D9400B3E833F8E58233F582E58333F58347
:0E2DA200C3E933F9EA33FAEB33FBEC33FC8080
:012DB000C45E
:0E2DB100B3E4F938FAE43582FBE43583FCD054
:072DBF0082500405827C80B4
:062DC600123011022CB8CE
:03000E00758126D3
:0A001100122060E582600302205B0C
:0E2DCC0020F71430F6148883A88220F507E65D
:062DDA00A88375830022AE
:032DE000E280F797
:032DE300E4932254
:022DE600E022E9
:092DE800FCABF0AA83A982749EE1
:022DF100C2D14D
:082DF300F582123011022CA040
:062DFB00122E9EBC000335
:032E0100022CC1DF
:082E0400EF60FA30D502B2D1F3
:082E0C00E583B4FF03022CD79B
:082E1400E582B4FF03022CD794
:0B2E1C00258340072482400B022CC1DC
:082E27002483145003022CD790
:0E2E2F00F582EA8DF0A4A8F0EA8EF0A428F84F
:0E2E3D00E435F0F9EB8DF0A428E935F0F9E466
:0E2E4B0033CA8FF0A429F9EA35F0FAEBF88EBD
:0E2E5900F0A429F9EA35F0FAE433FBEC8DF031
:0E2E6700A429F9EA35F0FAE43BFBE88FF0A469
:0E2E75002AFAEB35F0FBE433CCFD8EF0A42AF4
:0E2E8300FAEB35F0FBE43CFCED8FF0A42BFBEA
:0A2E9100EC35F0FC20E703123011CD
:032E9B00022CA066
:0D2E9E00AA82AB83A2F73392D16002D2F773
:0E2EAB00F582ACF0E58124F9F8E6FD08E6FEBC
:0E2EB9000886F008E6A2F73392D56002D2F741
:052EC700F583AFF022CD
:032ECC001231FEC2
:062ECF0030D103022CE4E7
:082ED500BC0005D2D1022CD78C
:0C2EDD00C08274037900122FCEE4F517B8
:052EE900F518F519F5D4
:052EEE001A9037F9F80D
:0E2EF3008C078B068A0589F0E8122F8DE925E1
:0E2F0100F0EA3DEB3EEC3F54E07028E925F08D
:0D2F0F00F9EA3DFAEB3EFBEC3FFCE49325B4
:072F1C0017F517740193354E
:072F230018F5187402933544
:072F2A0019F519740393353A
:032F31001AF51A74
:0B2F3400A3A3A3A308B81EB7AC1AAB00
:042F3F0019AA18A90A
:0C2F430017758281D2D1123011D0E0B499
:052F4F007E03022CB816
:022F5400400635
:062F56002482C2D58005B3
:052F5C00F4247FD2D532
:0E2F6100F8122CEF741888F0A4F9AAF074B1DD
:0E2F6F0088F0A4FBACF0747288F0A42AFAE596
:0D2F7D00F03BFBE43CFC7582861230110233
:032F8A002BBB223C
:0E2F8D0024F850228DF0AD06AE077F0024F828
:0E2F9B0050168DF0AD067E0024F8500C8DF01F
:0A2FA9007D0024F8500475F00022AA
:072FB30024086016C000F8BD
:0E2FBA00C3EF13FFEE13FEED13FDE5F013F56C
:052FC800F0D8EFD0007D
:012FCD0022E1
:0E37F900FF422E16F691F90CF2FD2307EEE0CA
:0E380700C4030CA3F001D814FC00A3027F0040
:0E38150055C03F000BF01F0001FC0F0000FF2C
:0E3823000700C0FF0300F0FF0100FCFF0000E3
:0E383100FF7F0000004000000020000000109B
:0E383F0000000008000000040000000200006D
:0E384D0000010000800000004000000020008C
:0E385B00000010000000080000000400000043
:08386900020000000100000054
:092FCE006040F82582500274FFF6
:0E2FD700F582E824F8501ECCCBCAF9E4CC24D5
:0E2FE500F85014CBCAF9E4CB24F8500BCAF90B
:092FF300E4CA24F850037900221D
:052FFC0024086010F83C
:0E300100C3EC13FCEB13FBEA13FAE913F9D846
:01300F00F1CF
:01301000229D
:02301100780441
:0E301300EC700DC9CACBFCE58224F8F582D81A
:02302100F1229A
:02302300782013
:0E30250020E7111582C3E933F9EA33FAEB33E1
:06303300FBEC33FCD8ECBD
:013039002274
:0E303A00FFA8811818123255123237E96401CE
:03304800F58222EC
:0E304B00FFA8811818123255D2D133E6400783
:0730590030E70B7582012234
:0730600020E7067582002243
:02306700C2D1D4
:09306900123237E97003F58222EE
:0430720030D101B3A5
:05307600E433F58222A5
:0C307B00A2E79201C2E7F8A2F733249903
:0B308700400990000075F080743F22AB
:0C309200751F00E58224E8E583348DE51D
:09309E00F034CEE834C0E85055CE
:0830A70085821B85831C85F066
:0A30AF001DF51E783BC00078AAC092
:0E30B9000078B8C000783FC000122DFB1581D2
:0C30C700158115811581123280E582F51B
:0830D3001F24805003022CD7DA
:0D30DB00780079807A317BBF1231AF858299
:0630E8001B85831C85F02E
:0A30EE001DF51E788379807A5E7B61
:0430F800391231AFA9
:0E30FC00A2F733D2F7A982AA83ABF07C00B40E
:04310A007902800FB7
:09310E00400724871231E7800616
:06311700F4247A122FCE11
:06311D00E4F51BF51CF5B2
:053123001D751E209047
:0331280037F9F87C
:0E312B00E493F5F0A3E493FDA3E493FEA3E484
:0E31390093FFA3C3E995F0EA9DEB9EEC9F4047
:0E31470030C3E995F0F9EA9DFAEB9EFBEC9F90
:07315500FC851BF0AD1CAE70
:05315C001DAF1EE8128A
:073161002F8DE51B25F0F5A1
:053168001BE51C3DF514
:05316D001CE51D3EF50C
:053172001DE51E3FF504
:013177001E39
:0931780008B81BAFAC1EAB1DAA88
:043181001CA91B1258
:093185003011747F251FF5821240
:0C318E002CA030011BC082C083C0F0C028
:0E319A00E090000075F080743F122D09158141
:0631A8001581158115815F
:0131AE0022FE
:0C31AF00C000C001C002C003851F8212D6
:0E31BB003288122DFB1581158115811581C0FA
:0B31C90082C083C0F0C0E0851B82853F
:0631D4001C83851DF0E5DF
:0C31DA001E122BB815811581158115817E
:0131E60022C6
:0531E7006014C000F8B7
:0E31EC00C3E933F9EA33FAEB33FBEC33FCD8DA
:0331FA00F1D00011
:0131FD0022AF
:0D31FE00AA82AB83A2F73392D16002D2F710
:05320B00F582ACF02289
:023210007F9E9F
:093212001231FE30D103022CC17F
:0E321B00C3EF9582500974FFF5F0F583F5823C
:013229002282
:05322A007900122FCE17
:08322F0089828A838BF0EC22F6
:0E3237007901AA82E68F82B5821318E6B5F0FF
:0E3245000E18E6B5830918E68A82B582027972
:01325300007A
:013254002257
:0E325500B4800FE5F0700AE5837006E5827024
:03326300027F00E7
:01326600EF78
:0E326700B6801518B6001018B6000B18B60089
:07327500060808087600229C
:01327C000849
:01327D000848
:01327E000847
:01327F00222C
:083280007F86123212F5822252
:0B328800E4AC82FBFAF97486022DF121
:00000001FF
