:0E007200E582900000F07A007B80900000E0B4
:0C008000FC8A828B83F0900032020D8E0F
:0E008C00E582900001F0900001E0FAF582128A
:09009A000072908000E0F5822262
:0D00A30075820912008CAA827B008B8312EB
:0E00B000320CAA82AB83ACF0FDE4C0E0C0E0ED
:0E00BE00C0E0743FC0E08A828B838CF0ED12AC
:0E00CC002A0DAA82AB83ACF0FDE58124FCF581
:0E00DA0081E4C0E0C0E074C0C0E0743FC0E04C
:0E00E8008A828B838CF0ED12328CAA82AB835D
:0E00F600ACF0FDE58124FCF5818A828B838CC1
:05010400F0ED023218CD
:0D01090075820A12008CAA827B008B831283
:0E011600320CAA82AB83ACF0FDE4C0E0C0E086
:0E0124007440C0E0743FC0E08A828B838CF090
:0E013200ED122A0DAA82AB83ACF0FDE581240C
:0E014000FCF581E4C0E0C0E07420C0E0744033
:0E014E00C0E08A828B838CF0ED12328CAA8284
:0E015C00AB83ACF0FDE58124FCF5818A828B3B
:07016A00838CF0ED02321856
:0E01710075820812008CAA827B0090017474C3
:0E017F0064F0E4A3F08A828B83122EEDAA8234
:0E018D00AB8390015974FFF0E4A3F08A828BDB
:04019B0083022A1899
:0E019F00AAF0AB83E582900002F0A3EBF0A380
:0E01AD00EAF0900002E0FAA3E0FBA3E0FC748D
:0E01BB00032AFDE43BFE8C078D828E838FF0BD
:0A01C90012334FFD60049008342249
:0E01D3008A828B838CF012334FFDC3648094BC
:0E01E100B0403374B78DF063F08095F0402885
:0E01EF00ED3395E0FEED24D0FDEE34FF8D06DD
:0E01FD007D00900005EDF0A3EEF0900002747E
:0C020B00012AF0E43BA3F0A3ECF0800417
:0402170090083722F2
:0E021B00900002E0FAA3E0FBA3E0FC8A828BD5
:0E022900838CF012334FFDC3648094B04048C4
:0E02370074B98DF063F08095F0403DED339585
:0E024500E0FEED24D0FDEE34FFFEC454F0CDFB
:0E025300C4CD6DCD54F0CD6DFE900005E0FFE2
:0E026100A3E0F8900005ED2FF0EE38A3F0902A
:0E026F00000274012AF0E43BA3F0A3ECF002BD
:02027D00034A32
:0E027F00900002E0FAA3E0FBA3E0FC8A828B71
:0E028D00838CF012334FFDC3648094E140482F
:0E029B0074E68DF063F08095F0403DED3395F4
:0E02A900E0FEED24A9FDEE34FFFEC454F0CDBE
:0E02B700C4CD6DCD54F0CD6DFE900005E0FF7E
:0E02C500A3E0F8900005ED2FF0EE38A3F090C6
:0E02D300000274012AF0E43BA3F0A3ECF00259
:0202E100034ACE
:0E02E300900002E0FAA3E0FBA3E0FC8A828B0D
:0E02F100838CF012334FFDC3648094C14047EC
:0E02FF0074C68DF063F08095F0403CED3395B1
:0E030D00E0FEED24C9FDEE34FFFEC454F0CD39
:0E031B00C4CD6DCD54F0CD6DFE900005E0FF19
:0E032900A3E0F8900005ED2FF0EE38A3F09061
:0E033700000274012AF0E43BA3F0A3ECF08076
:0103450004B3
:0403460090083522C4
:0E034A00900002E0FAA3E0FBA3E0FC8A828BA5
:0E035800838CF012334FFAC3648094B0402DB2
:0E03660074B98AF063F08095F04022EA339576
:0E037400E0FBEA24D0FAEB34FFFB900005E03A
:0E038200FCA3E0FD900005EA2CF0EB3DA3F09B
:030390000204273D
:0E039300900002E0FAA3E0FBA3E0FC8A828B5C
:0E03A100838CF012334FFAC3648094E1402C39
:0E03AF0074E68AF063F08095F04021EA339501
:0E03BD00E0FBEA24A9FAEB34FFFB900005E018
:0E03CB00FCA3E0FD900005EA2CF0EB3DA3F052
:0203D900804C56
:0E03DB00900002E0FAA3E0FBA3E0FC8A828B14
:0E03E900838CF012334FFAC3648094C1402C11
:0E03F70074C68AF063F08095F04021EA3395D9
:0E040500E0FBEA24C9FAEB34FFFB900005E0AF
:0E041300FCA3E0FD900005EA2CF0EB3DA3F009
:02042100800455
:0404230090083622E5
:0C042700900005E0FAA3E08A82F5832231
:0E043300AAF0AB83E582900007F0A3EBF0A3E4
:0E044100EAF0900007E0FAA3E0FBA3E0FC74F1
:0E044F00022AFDE43BFE8C078D828E838FF027
:0A045D0012334FFD600490010222EB
:0E0467008A828B838CF012334FFDC364809425
:0E047500B0403E74B98DF063F08095F04033D6
:0E048300ED3395E0FEED24D0FDEE34FFFEC417
:0D04910054F0CDC4CD6DCD54F0CD6DFE9076
:0E049E00000AEDF0A3EEF090000774012AF0C2
:0A04AC00E43BA3F0A3ECF002056CA2
:0E04B600900007E0FAA3E0FBA3E0FC8A828B33
:0E04C400838CF012334FFDC3648094E1403D01
:0E04D20074E68DF063F08095F04032ED3395C6
:0E04E000E0FEED24A9FDEE34FFFEC454F0CD85
:0E04EE00C4CD6DCD54F0CD6DFE90000AEDF042
:0E04FC00A3EEF090000774012AF0E43BA3F099
:05050A00A3ECF0805D90
:0E050F00900007E0FAA3E0FBA3E0FC8A828BD9
:0E051D00838CF012334FFDC3648094C1403DC7
:0E052B0074C68DF063F08095F04032ED33958C
:0E053900E0FEED24C9FDEE34FFFEC454F0CD0B
:0E054700C4CD6DCD54F0CD6DFE90000AEDF0E8
:0E055500A3EEF090000774012AF0E43BA3F03F
:05056300A3ECF0800490
:0405680090010122DB
:0E056C00900007E0FAA3E0FBA3E0FC8A828B7C
:0E057A00838CF012334FFAC3648094B0402D8E
:0E05880074B98AF063F08095F04022EA339552
:0E059600E0FBEA24D0FAEB34FFFB90000AE011
:0E05A400FCA3E0FD90000AEA2CF0EB3DA3F072
:0305B200020649F5
:0E05B500900007E0FAA3E0FBA3E0FC8A828B33
:0E05C300838CF012334FFAC3648094E1402C15
:0E05D10074E68AF063F08095F04021EA3395DD
:0E05DF00E0FBEA24A9FAEB34FFFB90000AE0EF
:0E05ED00FCA3E0FD90000AEA2CF0EB3DA3F029
:0205FB00804C32
:0E05FD00900007E0FAA3E0FBA3E0FC8A828BEB
:0E060B00838CF012334FFAC3648094C1402CEC
:0E06190074C68AF063F08095F04021EA3395B4
:0E062700E0FBEA24C9FAEB34FFFB90000AE086
:0E063500FCA3E0FD90000AEA2CF0EB3DA3F0E0
:02064300800431
:0406450090010122FD
:0C06490090000AE0FAA3E08A82F5832208
:0E065500AA83E58290000CF0A3EAF090000C5E
:0E066300E0FAA3E0FBC3EA940AEB6480948003
:0E067100503890000E7430F08A048B057E30F5
:04067F007F00780080
:0E068300C3EF940AE864809480505CECB507E5
:0D0691000CEDB5000890000EE0F9F5822296
:0D069E000E90000EEEF00FBF00DB0880D8BC
:0E06AB00C3EA9410EB64809480503490000EEB
:0906B9007441F07C417D0A7E00D1
:0E06C200C3ED9410EE64809480501DEAB505DF
:0D06D0000CEBB5060890000EE0FFF582224D
:0D06DD000C90000EECF00DBD00DB0E80D87F
:0106EA0022ED
:0E06EB00E58290000FF0900010E4F07A087B9A
:0106F9000000
:0C06FA00900010E025E0FC900010F09053
:0E070600000FE0FC74015CFD900010E0FE4D61
:0E071400F0ECC313FC90000FF01ABAFF011BAB
:0B072200EA4B70D4900010E0F582223A
:0E072D00438901758C90758A0075B80243A847
:05073B00874388152230
:0D074000900011E4F0900012F075820002AC
:02074D00074F54
:05074F00D310AF01C34F
:0E075400C0D0E582900013F0900012E0FAC2CF
:0C076200D575F00AEA30E704B2D5F404C3
:06076E008430D502F40402
:0E077400FBA2D595E0FC8B828C83C002C003F3
:0E078200C004120655AD82D004D003D0029000
:0E0790000014EDF0EA3395E0FD900174740A58
:0D079E00F0E4A3F08B828C83C002C0051232
:0E07AB002EEDAB82AC83D005D002EAC39BFAE0
:0D07B900ED9CFD8A828D83120655AA829068
:0A07C6000015EAF0900016E4F09030
:0C07D0000105740FF0758204121D0390E7
:0907DC00001475F000121C1090CD
:0E07E5000011E0FAC2D575F00AEA30E704B25E
:0307F300D5F40436
:0607F6008430D502F4047A
:0E07FC00FBA2D595E0FC8B828C83C002C0036B
:0E080A00C004120655AD82D004D003D0029077
:0E0818000014EDF0EA3395E0FD900174740ACF
:0D082600F0E4A3F08B828C83C002C00512A9
:0E0833002EEDAB82AC83D005D002EAC39BFA57
:0D084100ED9CFD8A828D83120655AA8290DF
:0B084E000015EAF0900016743AF090DC
:0E0859000017E4F0900105740CF07582041293
:090867001D0390001475F000124D
:0E0870001C10900013E0FAC2D575F00AEA30B1
:06087E00E704B2D5F4040A
:060884008430D502F404EB
:0E088A00FBA2D595E0FC8B828C83C002C003DC
:0E089800C004120655AD82D004D003D00290E9
:0E08A6000014EDF0EA3395E0FD900174740A41
:0D08B400F0E4A3F08B828C83C002C005121B
:0E08C1002EEDAB82AC83D005D002EAC39BFAC9
:0D08CF00ED9CFD8A828D83120655AA829051
:0B08DC000015EAF0900016743AF0904E
:0E08E7000017E4F09001057409F07582041208
:0908F5001D0390001475F00012BF
:0708FE001C10D0D092AF22C4
:05090500D310AF01C397
:0C090A00C0D0758280121B907416C0E0F3
:0C0916007438C0E0122DE5158115817ABF
:05092200007B007C00D9
:0E092700C3EB9440EC6480948040030209B757
:0E09350090017E7410F0E4A3F08B828C83C0DE
:0E09430002C003C00412301FE5828583F0D08D
:0E09510004D003D00245F070330AC002C00388
:0A095F00C0047431C0E07438C0E039
:0E096900122DE515811581D004D003D0029027
:0E09770001057401F08A82C002C003C00412A0
:080985001D03D004D003D002D1
:0E098D00C002C003C004121BAFAD82D004D064
:0E099B0003D0028D82C002C003C0041228E502
:0B09A900D004D003D0020BBB00010CF7
:0309B4000209270E
:0D09B7009001057401F0758201121D03749A
:0809C40036C0E07438C0E012F7
:0A09CC002DE5158115817A007B00EE
:0E09D600C3EA9450EB64809480507590017ECB
:0E09E4007410F0E4A3F08A828B83C002C0037B
:0E09F20012301FE5828583F0D003D00245F05D
:0C0A0000701DC002C003C002C003744F90
:0C0A0C00C0E07438C0E0122DE5E5812444
:070A1800FCF581D003D002C0
:0E0A1F00C002C003121BAFAC82D003D002ECA9
:0D0A2D003395E0FDC002C003C004C0057495
:080A3A0057C0E07438C0E0125F
:0E0A42002DE5E58124FCF581D003D0020ABA2F
:030A500000010B97
:030A53000209D6BF
:050A5600D0D092AF2298
:050A5B00D310AF01C340
:0E0A6000C0D075820A1228E5758240121B90E4
:040A6E007A007B008F
:0E0A7200C3EA9440EB648094804003020B04BE
:0E0A800090017E7408F0E4A3F08A828B83C09C
:0E0A8E0002C00312301FE5828583F0D003D032
:0E0A9C000245F0701DC002C003C002C003740A
:080AAA004FC0E07438C0E012F7
:0C0AB2002DE5E58124FCF581D003D00285
:0E0ABE00C002C003121BAFAC82D003D0027581
:0E0ACC008209C002C003C0041228E5D004D085
:0E0ADA0003D0027D00C002C003C004C005743A
:080AE8005CC0E07438C0E012AC
:0E0AF0002DE5E58124FCF581D003D0020ABA81
:030AFE0000010BE9
:030B0100020A7273
:050B0400D0D092AF22E9
:070B0900900036E4F0A3F0B8
:090B1000745FC0E07438C0E0120B
:060B19002DE51581158198
:0E0B1F00900034E4F0A3F090001875F000127E
:090B2D002CB890001875F00012BC
:0E0B3600019FAA82AB83900032EAF0A3EBF09D
:0E0B44008A048B0574F82D400B900034740168
:060B5200F0E4A3F080179F
:0A0B5800C002C00374A1C0E07438AD
:0D0B6200C0E0122DE515811581D003D002F1
:0E0B6F00900034E0FCA3E0FD4C60A5C002C085
:0A0B7D000374E7C0E07438C0E01212
:0A0B87002DE515811581D003D00281
:0E0B9100900034E4F0A3F090001D75F000C059
:0E0B9F0002C003122CB8D003D00290001D75C6
:0E0BAD00F000C002C00312019FAC82AD83D0E5
:0D0BBB0003D0028C068D0774F82F400B90BC
:0A0BC80000347401F0E4A3F0801F74
:0C0BD200C002C003C004C0057427C0E0CE
:0C0BDE007439C0E0122DE515811581D09E
:070BEA0005D004D003D00286
:0E0BF100900034E0FEA3E0FF4E6095ECC39A46
:0E0BFF00FCED9BFD74012CFEE43DFFC002C026
:0C0C0D0003C004C005C006C007746BC023
:0C0C1900E07439C0E0122DE5E58124FCF8
:0E0C2500F581D005D004D003D0028C068D07D7
:0D0C3300EF30E71FC002C003C004C005740D
:080C400080C0E07439C0E0122D
:0E0C48002DE515811581D005D004D003D00212
:0B0C56008C068D07EF30E703020B1047
:040C61007E007F0092
:080C6500C3EC9EED9F5001223B
:080C6D00EE540F6003020D15A7
:0E0C7500C004C005C002C003C004C005C00614
:0B0C8300C007C002C00374D4C0E074BE
:0C0C8E0039C0E0122DE5E58124FCF58161
:0E0C9A00D007D006D005D004D003D0027410CD
:0D0CA8002AFAE43BFB900036E4F0A3F09044
:0A0CB5000032E0F8A3E0F9890875A9
:080CBF000900880490003DE5E6
:0C0CC70008F090003E7410F0E4A3F090E0
:070CD30000407422F0A3743D
:0C0CDA0000F0A3E4F08C82C002C003C054
:0E0CE60004C005C006C007C000C001120E2ADF
:0E0CF400D001D000D007D006D005D004D00328
:0E0D0200D002900032740128F0E439A3F0D042
:050D100005D004801372
:0E0D1500900032E0F8A3E0F99000327401285B
:050D2300F0E439A3F02B
:0E0D2800C004C005900036E0F8A3E0F9E8240E
:0A0D360022F582E93400F583E0FCA9
:0E0D40007D00C002C003C004C005C006C0078D
:0C0D4E00C000C001C004C00574DCC0E09F
:0C0D5A007439C0E0122DE5E58124FCF5A1
:0E0D660081D001D000D007D006D005D004D037
:0E0D740003D002900036740128F0E439A3F099
:050D82000EBE00010F90
:070D8700D005D004020C6549
:0E3816000A0D090941736369692052657072D9
:0D3824006573656E746174696F6E0A0D0046
:053831000A0D09090069
:0E3836000A0D090948657820526570726573A5
:0B384400656E746174696F6E0A0D0000
:08384F000A0A0D30782578000B
:053857000920257800A6
:03385C00257800CC
:0E385F000A0A0D20456E746572205374617262
:0E386D0074204164647265737320696E204894
:0E387B00657820696E2048484820666F726D9F
:0E3889006174206265747765656E20303030A2
:0A38970020746F203746463A2000E7
:0E38A1000A0A0D202A2D4552524F522D2A0997
:0E38AF0020506C6561736520456E7465722053
:0E38BD0076616C6964207374617274204164DA
:0E38CB006472657373206265747765656D20A5
:0E38D90030303020616E64203746463A2000C1
:0E38E7000A0A0D20456E74657220456E64203D
:0E38F5004164647265737320696E20486578C3
:0E39030020696E2048484820666F726D61741E
:0E391100206265747765656E2030303020745A
:08391F006F203746463A2000F4
:0E3927000A0A0D202A2D4552524F522D2A0910
:0E39350020506C6561736520456E74657220CC
:0E39430076616C696420656E64204164647274
:0E395100657373206265747765656D20303094
:0C395F003020616E64203746463A20009C
:0E396B000A0D09546F74616C20427974657303
:073979003A2025640A0D004D
:0E3980000A0D202D4552524F522D20456E64E7
:0E398E00206164647265737320736D616C6CEC
:0E399C006572207468616E2074686520737413
:0E39AA0061727420616464726573730A0D208B
:0E39B800456E7465722056616C69642061640E
:0E39C60064726573732072616E67650A0D008E
:0839D4000A0A0D25783A0900EA
:0439DC002578090041
:0E0D8E00AA83E582900038F0A3EAF0900038C6
:050D9C00E0FAA3E0FBFA
:080DA100BA0005BB0002800F3F
:050DA9001ABAFF011B56
:0A0DAE00900038EAF0A3EBF080E9B2
:090DB800900038EAF0A3EBF022F0
:0E0DC100AA83E58290003AF0A3EAF090003A8F
:050DCF00E0FAA3E0FBC7
:080DD400BA0005BB0002801DFE
:0E0DDC00900070C002C003120D8ED003D00232
:050DEA001ABAFF011B15
:0A0DEF0090003AEAF0A3EBF080DB7D
:090DF90090003AEAF0A3EBF022AD
:0B0E0200E58290003CF090003CE0FA1C
:050E0D00BA0002801292
:0E0E12009003E8C002120DC1D0021A90003CFD
:040E2000EAF080E98B
:060E240090003CEAF02200
:0A0E2A00E582900043F01217D0900B
:0E0E3400003DE025E0FA74A04AFBF582C00202
:0D0E4200121808D002C00212187FD00290D2
:0E0E4F000043E0FBF582C002121808D002C07A
:0E0E5D000212187FD002C0021217D0D002433A
:0B0E6B0002A18A8212180812187F9062
:0E0E7600003EE0FAA3E0FB900040E0FCA3E0A9
:080E8400FDA3E0FE7F007800F1
:0E0E8C00C3EF9AE864808BF063F08095F0501D
:0E0E9A0056C002C003C004C005C006C007C099
:0E0EA80000121835A982D000D007D006D00560
:0E0EB600D004D003D0028C828D838EF0E9121E
:0E0EC4002DCCA3AC82AD83C002C003C004C01D
:0E0ED20005C006C007C000121893D000D0075C
:0E0EE000D006D005D004D003D0020FBF009E74
:030EEE0008809BDE
:0E0EF100EA2CFAEB3DFB8E07C002C003C007DF
:0E0EFF00121835AC82D007D003D0028A828B45
:0B0F0D00838FF0EC122DCC12189B0219
:020F180017EDD3
:050F1A00D310AF01C37C
:0C0F1F00C0D0E58290004AF01217D0907C
:0E0F2B000044E0FA25E0FB4303A08B82C002E5
:0D0F3900121808D002C00212187FD00290DA
:0E0F4600004AE0FBF582C002121808D002C07B
:0B0F54000212187FD002900048E0F568
:060F5F000AA3E0F50B906F
:0E0F65000045E0FDA3E0FEA3E0FF7800790068
:0C0F7300C00288028903C3EA950AEB95CE
:0C0F7F000BE433D002604E8D828E838F15
:0E0F8B00F012334FFBA3AD82AE838B82C00207
:0E0F9900C005C006C007C000C001121808D075
:0E0FA70001D000D007D006D005D002C002C095
:0E0FB50005C006C007C000C00112187FD001A1
:0E0FC300D000D007D006D005D00208B800A29A
:030FD10009809FF5
:0E0FD400C0021217EDD0028A821214D4D0D0BF
:030FE20092AF22A9
:0A0FE500E58290004DF01217D09045
:0E0FEF00004CE0FA25E0FB4303A08B82C00219
:0D0FFD00121808D002C00212187FD0029016
:0E100A00004DE0FBF582C002121808D002C0B3
:0E1018000212187FD00290004BE0FBF582C060
:0E10260002121808D002C00212187FD002C0B9
:0B103400021217EDD0028A820214D4D1
:0A103F00E58290004FF01217D090E8
:0E104900004EE025E0FA74A04AFBF582C002DA
:0D105700121808D002C00212187FD00290BB
:0E106400004FE0FBF582C002121808D002C057
:0E1072000212187FD002C0021217D0D0024323
:0B10800002A18A8212180812187F12C9
:0E108B001835AA82C00212189BD002C00212B1
:0E10990017EDD00290000AC002120D8ED00298
:0310A7008A822218
:0510AA001217D07A00CE
:0310AF00BA09007B
:0E10B200500CD292C0021217BFD0020A80EF7B
:0A10C0001217D01217ED9000050280
:0210CA000DC156
:0910CC0074E0C0E07439C0E012C8
:0610D5002DE515811581D7
:0A10DB0090005075F000122CB89040
:0D10E500005075F00012019FAA82AB8390AD
:0E10F2000058EAF0A3EBF08A048B05C374FFEC
:0C1100009C74079D5017C002C0037422AD
:0C110C00C0E0743AC0E0122DE51581151A
:0511180081D003D002AC
:0E111D008A048B05C374FF9C74079D40B1C00B
:0A112B0002C0037468C0E0743AC00B
:0C113500E0122DE515811581D003D002D9
:0E11410090005075F000C002C003122CB8D010
:0E114F0003D00290005075F000C002C00312E1
:0E115D00019FAC82AD83D003D0028C068D07BB
:0E116B00C374FF9E74079F501FC002C003C0D4
:0A11790004C00574A8C0E0743AC079
:0E118300E0122DE515811581D005D004D003B2
:02119100D0028A
:0E1193008C068D07C374FF9E74079F40A1EC6D
:0E11A100C39AFEED9BFF74012EF8E43FF9C0E7
:0E11AF0002C003C004C005C006C007C000C0D7
:0A11BD000174ECC0E0743AC0E012C7
:0E11C7002DE5E58124FCF581D007D006D0058A
:0E11D500D004D003D0028E008F01E930E7274E
:0D11E300C002C003C004C005C006C00774F0
:0811F00001C0E0743BC0E012F5
:0E11F8002DE515811581D007D006D005D00455
:04120600D003D0023F
:07120A00EF30E7030210CCF6
:0C121100C002C003C004C0057455C0E05A
:0C121D00743BC0E0122DE515811581D056
:0712290005D004D003D00240
:0E12300090005575F000C002C003C004C00558
:0E123E00122CB8D005D004D003D00290005579
:0E124C0075F000C002C003C004C005120433D8
:0E125A00AE82AF83D005D004D003D0028E0048
:0E1268008F01C374FF98E4995027C002C003A1
:0C127600C004C005C006C0077475C0E0CD
:0C128200743BC0E0122DE515811581D0F1
:0B128E0007D006D005D004D003D0022A
:0D1299008E008F01C374FF98E4995003028A
:0212A600123004
:0E12A800C006C007B296740F5AF87900741091
:0E12B600C398F8E499F988068907C3E49E748A
:0E12C400808FF063F08095F0E433D007D00601
:0E12D2006072C006C00788068907C3EE94103C
:0E12E000EF64809480E433D007D0066059C0DC
:0812EE0004C0058A0C8B0D857C
:0312F6000C0EAD2E
:0C12F9000D7C0090005AEDF08E048F0573
:0E13050090005BECF090005CE8F0A3E9F0854E
:0C1313000E82C002C003C004C005C0066A
:0E131F00C007C000C001121434D001D000D0AD
:0E132D0007D006D005D004D003D0029000589F
:0B133B00E82AF0E93BA3F0D005D00445
:0E134600900058E0FAA3E0FBECC39AF8ED9B90
:0E135400F99001877410F0E4A3F08882898379
:0D136200C002C003C004C005C006C00712D1
:0E136F003194A882A983D007D006D005D004FF
:0B137D00D003D002E84960668E0C8FA0
:011388000D57
:0C138900E8496056C006C0078A0E8B07BA
:0B1395007E0090005AEFF090005BE536
:0C13A0000CF090005C7410F0E4A3F085E9
:0C13AC000E82C002C003C004C005C006D1
:0E13B800C007C000C001121434D001D000D014
:0E13C60007D006D005D004D003D00274102A40
:0913D400FAE43BFB18B8FF011913
:0613DD00D007D00680A637
:0813E300900058EAF0A3EBF0C2
:0E13EB00900058E0FAA3E0FBECC39AFCED9BE7
:0E13F900FD8C008D01C3E89410E9648094809F
:0E14070050288C008D01E920E7208A008B021E
:0D1415007B0090005AEAF090005BEEF09032
:0D142200005C74012CF0E43DA3F088821200
:02142F00143473
:03143100B296224E
:0A143400E58290005EF01217D090E0
:0E143E00005AE0FA25E0FB4303A08B82C002B7
:0D144C00121808D002C00212187FD00290C2
:0E145900005EE0FBF582C002121808D002C04F
:0C1467000212187FD00290005BE0FB90A6
:0B147300005CE0FCA3E0FD7E007F00B9
:0E147E008E008F01C3E89CE99D503F8B82C019
:0E148C0002C003C004C005C006C00712180845
:0E149A00D007D006D005D004D003D002C00287
:0E14A800C003C004C005C006C00712187FD0E4
:0E14B60007D006D005D004D003D0020EBE0031
:0414C400B90F80B626
:0C14C800C0021217EDD0028A820214D478
:0E14D400E58290005FF090005FE025E0FA43B3
:0214E20002A066
:0E14E400C0021217D0D0028A82C0021218086D
:0E14F200D002C00212187FE582D00270E522FF
:0E39E0000A0A0D20456E7465722053746172E0
:0E39EE0074204164647265737320696E204812
:0E39FC00657820696E2048484820666F726D1D
:0E3A0A006174206265747765656E203030301F
:0A3A180020746F203746463A200064
:0E3A22000A0A0D202A2D4552524F522D2A0914
:0E3A300020506C6561736520456E74657220D0
:0E3A3E0076616C696420737461727420416457
:0E3A4C006472657373206265747765656D2022
:0E3A5A0030303020616E64203746463A20003E
:0E3A68000A0A0D20456E74657220456E6420BA
:0E3A76004164647265737320696E2048657840
:0E3A840020696E2048484820666F726D61749C
:0E3A9200206265747765656E203030302074D8
:083AA0006F203746463A200072
:0E3AA8000A0A0D202A2D4552524F522D2A098E
:0E3AB60020506C6561736520456E746572204A
:0E3AC40076616C696420656E642041646472F2
:0E3AD200657373206265747765656D20303012
:0C3AE0003020616E64203746463A20001A
:0E3AEC000A0D09546F74616C20427974657381
:073AFA003A2025640A0D00CB
:0E3B01000A0D202D4552524F522D20456E6464
:0E3B0F00206164647265737320736D616C6C69
:0E3B1D006572207468616E2074686520737490
:0E3B2B0061727420616464726573730A0D2008
:0E3B3900456E7465722056616C69642061648B
:0E3B470064726573732072616E67650A0D000B
:0E3B55000A0A0D20456E746572204461746189
:0E3B630020666F7220426C6F636B2046696CA7
:043B71006C3A20008A
:0E3B75000A0A0D202A2D4552524F522D2A09C0
:0E3B830020506C6561736520456E746572207C
:0E3B910076616C696420446174612062657421
:0E3B9F007765656E20303020746F2046463A00
:023BAD002000F6
:05150000D310AF01C390
:0E150500C0D09000B07424F09000B17447F094
:0D1513009000B27450F09000B37452F0904C
:0E15200000B4744DF09000B57443F0C2949086
:0C152E000064120DC190006075F0001206
:0B153A002CB8900032120DC1D294902A
:07154500016274B0F0A37411
:0C154C0000F0A37400F090006075F00047
:0E155800122BE6AA82AB83ACF0D0D092AF2269
:0E156600AAF0AB83E5829000B6F0A3EBF0A3F1
:0E157400EAF09000B6E0FAA3E0FBA3E0FC7DF5
:03158200007E07E1
:0E158500EE2AFFE43BF88C018F82888389F008
:0915930012334FFFBF2C0280103F
:0A159C00ED24B9F582E43400F58374
:0615A600EFF00D0E80D9EC
:0715AC009000B975F0002268
:0E15B300AAF0AB83E5829000BFF0A3EBF0A39B
:0E15C100EAF09000BFE0FAA3E0FBA3E0FC7D9F
:0315CF00007E009B
:0E15D200C3ED648094825019EE2AFFE43BF8CA
:0E15E0008C018F82888389F012334FFFBF2C5D
:0215EE00010DED
:0315F0000E80DF8B
:0E15F3009000BFE0FAA3E0FBA3E0FCEE2AFEAE
:0E160100E43BFD8C078E828D838FF012334FF9
:03160F00F582223F
:0E161200AAF0AB83E5829000C2F0A3EBF0A338
:0E162000EAF09000C2E0FAA3E0FBA3E0FC7D3C
:03162E00007E003B
:0E163100C3ED648094835019EE2AFFE43BF869
:0E163F008C018F82888389F012334FFFBF2CFD
:02164D00010D8D
:03164F000E80DF2B
:0D1652009000C2E0FAA3E0FBA3E0FC7D00E5
:0E165F00EE2AFFE43BF88C018F82888389F02D
:09166D0012334FFFBF2C02801064
:0A167600ED24C5F582E43400F5838D
:06168000EFF00D0E80D911
:0A1686000EED24C5FDE43400FFEE74
:0E1690002AFAE43BFB8A828B838CF012334FE4
:0D169E00FA8D828F83F09000C575F0002258
:0E16AB00AAF0AB83E5829000D3F0A3EBF0A38E
:0E16B900EAF09000D3E0FAA3E0FBA3E0FC7D92
:0316C700007E00A2
:0E16CA00C3ED648094855019EE2AFFE43BF8CE
:0E16D8008C018F82888389F012334FFFBF2C64
:0216E600010DF4
:0316E8000E80DF92
:0D16EB009000D3E0FAA3E0FBA3E0FC7D003B
:0E16F800EE2AFFE43BF88C018F82888389F094
:0917060012334FFFBF2C028010CA
:0A170F00ED24D6F582E43400F583E2
:06171900EFF00D0E80D977
:0A171F000EED24D6FDE43400FFEEC9
:0E1729002AFAE43BFB8A828B838CF012334F4A
:0D173700FA8D828F83F09000D675F00022AD
:0E174400AAF0AB83E5829000E4F0A3EBF0A3E3
:0E175200EAF09000E4E0FAA3E0FBA3E0FC7DE7
:03176000007E0008
:0E176300C3ED648094895019EE2AFFE43BF830
:0E1771008C018F82888389F012334FFFBF2CCA
:02177F00010D5A
:031781000E80DFF8
:0D1784009000E4E0FAA3E0FBA3E0FC7D0090
:0E179100EE2AFFE43BF88C018F82888389F0FA
:09179F0012334FFFBF2C02801031
:0A17A800ED24E7F582E43400F58338
:0617B200EFF00D0E80D9DE
:0717B8009000E775F000222C
:0E17BF00900001120D8ED2B4900001120D8E1A
:0317CD00C2B42281
:0D17D000C2B4D292900001120D8ED2B490DE
:0E17DD000001120D8EC292900001120D8EC2FC
:0217EB00B42226
:0E17ED00C2B4900001120D8EC2929000011243
:0D17FB000D8ED2B4900001120D8ED29222FC
:08180800E5829000F5F07A0082
:03181000BA080013
:0E181300501D9000F5E0FB339292C002C0031E
:0E1821001217BFD003D002EB2BFB9000F5F0A6
:03182F000A80DE4E
:03183200D292222D
:091835009000F6E4F0D2927A0072
:03183E00BA0800E5
:0E1841005035900001C002120D8ED002D2B4BC
:0E184F00900001C002120D8ED0029000F6E053
:0E185D0025E0FB9000F6F09000F6E0FBE4A220
:0D186B009233FC9000F64BF0C2B40A80C628
:071878009000F6E0F582226A
:0E187F00D292D2B4900001120D8EE4A29233E8
:06188D00FAC2B48A8222B7
:08189300C2921217BFD292228B
:08189B00D2921217BFD2B42251
:0D18A300E5829000F7F01217D075827012E8
:0618B000180812187F90D9
:0A18B60000F7E0FAF582121808129C
:0918C000187F1217ED90000502DB
:0218C9000DC14F
:0A18CB001217D0758271121808126E
:0A18D500187F121835AA82C0021213
:0E18DF001893D002C0021217EDD00290000A3A
:0A18ED00C002120D8ED0028A822282
:0518F700D310AF01C396
:0E18FC00C0D0AA83E5829000F8F0A3EAF09035
:0E190A0000F8E0FAA3E0FB8A828B83C002C0E3
:0E19180003120655AC82D003D0029001057474
:0E19260007F0758204C002C003C004121D0346
:0D193400D004D003D0028C82C002C0031288
:0E1941001B65D003D002EBC454F0CAC4CA6ABE
:0E194F00CA54F0CA6AFB9000F8EAF0A3EBF06D
:0E195D009000F8E0FAA3E0FB9000F8740F4A47
:0E196B00F0A3EBF09000F8E0FAA3E0FB8A8214
:081979001218A3D0D092AF2296
:0919810074AFC0E0743BC0E01239
:06198A002DE51581158119
:0A1990009000FA75F000122CB890D8
:0E199A0000FA75F000122AB3AA82AB838A0409
:0E19A8008B05C374079CE49D5017C002C0035A
:0919B60074D4C0E0743BC0E012DF
:0A19BF002DE515811581D003D0023B
:0E19C9008A048B05C374079CE49D40BBC002DA
:0A19D700C003740BC0E0743CC0E0D4
:0B19E100122DE515811581D003D00206
:0E19EC009000FA75F000C002C003122CB8D0B3
:0E19FA0003D0029000FA75F000C002C0031284
:0E1A08002AB3AC82AD83D003D0028C068D07CA
:0E1A1600C374019EE49F501FC002C003C004B1
:0A1A2400C005743EC0E0743CC0E051
:0E1A2E00122DE515811581D005D004D003D00E
:011A3C0002A7
:0E1A3D008C068D07C374019EE49F40A3C00277
:0C1A4B00C003C004C0051218CB85820F38
:0E1A5700D005D004D003D002EC4D70718A0788
:0E1A65008B008F82888312320CAF82A883A977
:0E1A7300F0FE900176EFF0A3E8F0A3E9F0A3F7
:0E1A8100EEF0900000E4F5F07440122F0DAE70
:0E1A8F0082AF83A8F0F9C006C007C000C001F6
:0E1A9D0090000075F07F7443122A0DAE82AFE8
:0E1AAB0083A8F0F9E58124FCF5818E828F83FB
:0C1AB90088F0E9123218AE82AF83A80F4B
:0E1AC5007900E85206E952079000FDEEF0802D
:011AD30022F0
:0A1AD4008AF005F0AA04AB058006B5
:061ADE00EA2AFAEB33FBDB
:0C1AE400D5F0F7AE0F7C00EE4202EC42A1
:061AF000039000FDEAF086
:0E1AF6009000FDE0FAF5821218A390000502A0
:021B04000D8E44
:0E3BAF000A0A0D092053656C65637420706965
:0E3BBD006E206E756D6265722066726F6D20EF
:093BCB003020746F20373A20000D
:0E3BD4000A0A0D202A2D4552524F522D2A0A60
:0E3BE2000D0920456E74657220612076616CBD
:0E3BF0006964206E756D62657220626574777F
:0D3BFE0065656E203020746F20373A20007E
:0E3C0B000A0A0D092053656C65637420446934
:0E3C190072656374696F6E206F662070696E4D
:0E3C27003A2020302E4F7574707574202031B5
:093C35002E20496E70757409001F
:0E3C3E000A0A0D202A2D4552524F522D2A0AF5
:0E3C4C000D0920456E74657220612076616C52
:0E3C5A006964206E756D626572206265747714
:0D3C680065656E2030206F7220313A20001B
:0E1B0600C293900014120DC190A0007430F034
:0D1B1400900006120DC190A0007430F090FA
:0E1B21000005120DC190A0007430F0121BE5FB
:0E1B2F0090A0007438F0121BE590A00074081E
:0E1B3D00F0121BE590A000740CF0121BE59056
:0E1B4B00A0007406F0121BE590A0007401F0DB
:0C1B59009001057401F0758201021D036B
:051B6500D310AF01C325
:0E1B6A00C0D0E5829000FEF0D29390000112F0
:0E1B78000DC17A007BA09000FEE0FC8A828BFB
:0A1B860083F0121BE5D0D092AF22CD
:0E1B9000E5829000FFF0C293900001120DC19B
:0E1B9E007A007BA09000FFE0FC8A828B83F02F
:031BAC00021BE534
:0E1BAF00D293900001120DC190C000E0FAC068
:091BBD0002121BE5D0028A82220B
:0E1BC600E582900100F0C293900001120DC163
:0E1BD4007A007BA0900100E0FC8A828B83F0F7
:031BE200021BE5FE
:0E1BE500C29390C000E0FA900101F090000160
:031BF300120DC10F
:0E1BF600900101E0FA30E70B90C000E0FA9099
:051C04000101F080ED7C
:071C0900900101E0F58222C9
:051C1000D310AF01C379
:0E1C1500C0D0AAF0AB83E582900102F0A3EBF1
:0E1C2300F0A3EAF0900102E0FAA3E0FBA3E0D8
:051C3100FC7D007E00B7
:0E1C3600ED2AFFEE3BF88C018F82888389F047
:0A1C440012334FFFBF0003021CFE25
:0D1C4E008F82C002C003C004C005C0061292
:0E1C5B001B65D006D005D004D003D0020DBD0D
:031C690000010E69
:0E1C6C00C002C003C004C005C006121BE5AFD5
:0E1C7A0082D006D005D004D003D002BF1024C3
:0E1C88009001057401F0758202C002C003C015
:0E1C960004C005C006C007121D03D007D0060B
:081CA400D005D004D003D002EA
:0E1CAC00BF50249001057401F0758203C00240
:0E1CBA00C003C004C005C006C007121D03D041
:0B1CC80007D006D005D004D003D002E6
:051CD300BF4002800388
:031CD800021C36B5
:0E1CDB009001057401F0758204C002C003C0C0
:0E1CE90004C005C006121D03D006D005D004AD
:071CF700D003D002021C36ED
:051CFE00D0D092AF22DE
:051D0300D310AF01C385
:0E1D0800C0D0E582900106F0900106E0FABA24
:0A1D16000115900105E0FABA110072
:0D1D2000500B747F2AFAF582121BC68060FA
:0E1D2D00900106E0FABA0215900105E0FABA3C
:021D3B00110095
:0D1D3D00500B74BF2AFAF582121BC68043BA
:0E1D4A00900106E0FABA0315900105E0FABA1E
:021D5800110078
:0D1D5A00500B748F2AFAF582121BC68026EA
:0E1D6700900106E0FABA0415900105E0FABA00
:021D750011005B
:0D1D7700500B74CF2AFAF582121BC68009AA
:091D8400903C7575F080121C10F2
:051D8D00D0D092AF224E
:0E1D9200E58290010AF090010AE0FAC4540FB5
:0E1DA000FB7C008B828C83C002C003C0041247
:0E1DAE000655AD82D004D003D002900110ED96
:0E1DBC00F07D00ECC454F0CBC4CB6BCB54F0E4
:0E1DCA00CB6BFCEAC39BFAED9CFD8A828D83F5
:0B1DD800120655AA82900111EAF0905B
:091DE3000112E4F0747BC0E0740D
:0A1DEC003CC0E0122DE515811581C1
:0E1DF600900115E4F0A3F090010B75F00012BF
:091E04002CB890010B75F00012DE
:0E1E0D002AB3AA82AB838A048B05C3EC94042B
:0E1E1B00ED9400500B9001157401F0E4A3F05B
:021E2900801720
:0A1E2B00C002C00374A1C0E0743CC3
:0D1E3500C0E0122DE515811581D003D0020B
:0D1E4200900115E0FCA3E0FD4C60A90A90A2
:0B1E4F0001057401F08A82121D03904F
:0E1E5A000107E0FAA3E0FBA3E0FC8A828B8381
:0C1E68008CF0121C1075823A121B659061
:081E7400011075F000021C10C2
:051E7C00D310AF01C30B
:0E1E8100C0D0E58290011AF090011AE0FAC478
:0E1E8F000354F8FA90011AF090011AE0FA4399
:0E1E9D0002408A82121B90900117E0FAA3E027
:061EAB00FBA3E0FC7D003A
:0E1EB100C3ED64809488502AED2AFEE43BFFC6
:0E1EBF008C008E828F8388F012334FFEF582E6
:0E1ECD00C002C003C004C005121B65D005D0C2
:081EDB0004D003D0020D80CEFB
:051EE300D0D092AF22F7
:051EE800D310AF01C39F
:0E1EED00C0D090011B7404F090011C7404F02E
:0D1EFB0090011D7403F090011E7401F09021
:0C1F0800011F7401F09001227402F0909F
:0C1F140001237403F09001247405F09088
:0E1F200001257404F09001267405F07582010D
:0A1F2E00121B909001297402F0903C
:0C1F3800012A7401F0758206122042900C
:0E1F440001297403F090012A7404F0758200E4
:0A1F52001220429001297403F09060
:0C1F5C00012A7401F075820012204290EE
:0E1F680001297402F090012A7406F0758200BF
:0A1F76001220429001297402F0903D
:0C1F8000012A7404F075820612204290C1
:0E1F8C0001297404F090012A7401F07582019D
:071F9A001220427A007B00D7
:0D1FA100C3EA9405EB648094805037EA2475
:0A1FAE001BF582EB3401F583E0FC23
:0A1FB800EA2422F582EB3401F583E0
:0E1FC200E0FD900129ECF090012AEDF075820F
:0E1FD00002C002C003122042D003D0020ABA9F
:051FDE0000C10B80BEF4
:0E1FE3009001297404F090012A7404F07582B4
:0B1FF100031220429001297403F090BD
:0C1FFC00012A7406F07582031220429046
:0E20080001297401F090012A7406F07582041B
:0A2016001220429001297403F0909B
:0C202000012A7403F07582051220429022
:0E202C0001297401F090012A7403F0758205F9
:08203A00122042D0D092AF2227
:05204200D310AF01C343
:0E204700C0D0E58290012BF0900129E0FA90C4
:0B205500012AE0FB900105F08A8212D6
:0A2060001D0390012BE0FAF5821237
:07206A001B65D0D092AF22EC
:063C75004572726F72003F
:0E3C7B000A0A0D20456E74657220526F772084
:0E3C89006E756D626572206265747765656E9A
:0A3C9700203020746F20333A200023
:0E3CA1000A0A0D20456E7465722076616C690A
:0E3CAF006420726F77206E756D626572206200
:0E3CBD0065747765656D203020616E6420337C
:033CCB003A20009C
:060000000200160225BCFF
:03000B000226DBEF
:0300130002264B77
:03006F00022071FB
:0520710012207D80FE3D
:07207600438E0C90000022D4
:0A207D007582011218A3121B06124F
:08208700290112072DC29090FF
:0E208F00012C7401F0E4A3F090012E7401F016
:06209D00E4A3F01210AAFA
:0D20A300120171AA82AB83900134EAF012A1
:0C20B00000A3AA82AB83900135EAF01275
:0C20BC000109AA82AB83900136EAF01201
:0C20C8002997AA82AB83900137EAF090C0
:0E20D4000138E0FA90012CE0FBA3E0FCEA33B7
:0E20E20095E0FDEAB503BAEDB504B6900139FC
:0C20F000E0FABA0131EA2433F582E4344E
:0C20FC0001F583E0FD3395E0FEC003C059
:0A21080004C005C00674CEC0E074E8
:0C2112003CC0E0122DE5E58124FAF581C7
:08211E00900138E4F00221AC4D
:0A212600BA022CEA2433F582E434F7
:0C21300001F583E0FB3395E0FCC003C028
:0A213C000474EFC0E0743CC0E01230
:0E2146002DE5E58124FCF581900138E4F08060
:012154005733
:0A215500BA032CEA2433F582E434C7
:0C215F0001F583E0FB3395E0FCC003C0F9
:0A216B00047411C0E0743DC0E012DE
:0E2175002DE5E58124FCF581900138E4F08031
:012183002833
:0E218400BA0425122997AA82AB83C002C003B9
:092192007424C0E0743DC0E012A9
:0E219B002DE5E58124FCF581900139E4F090FA
:0321A9000138F00A
:0E21AC0090012EE0FAA3E0FBBA0105BB000291
:0221BA008003A0
:0321BC0002226498
:0E21BF00900134E0FAC2D575F00AEA30E70468
:0421CD00B2D5F4048F
:0621D1008430D502F40485
:0E21D700FAA2D595E0FB90013FEAF0A3EBF0F1
:0E21E5008A828B83120655AA8290013AEAF094
:0E21F300900134E0FA3395E0FB90013FE0FCF0
:0E220100A3E0FD900174740AF0E4A3F08C8257
:0E220F008D83C002C003122EEDAC82AD83D0D1
:0E221D0003D00290013FEAC39CF0EB9DA3F0BA
:0D222B0090013FE0FAA3E0FB8A828B831252
:0A2238000655AA8290013BEAF090DF
:0E224200013CE4F09001057403F07582021275
:092250001D03903D3775F080126A
:092259001C1090013A75F000120E
:022262001C104E
:0E22640090012EE0FAA3E0FBBA0205BB0002D7
:022272008003E7
:0322740002231C26
:0E227700900135E0FAC2D575F00AEA30E704AE
:04228500B2D5F404D6
:062289008430D502F404CC
:0E228F00FAA2D595E0FB90013FEAF0A3EBF038
:0E229D008A828B83120655AA8290013AEAF0DB
:0E22AB00900135E0FA3395E0FB90013FE0FC36
:0E22B900A3E0FD900174740AF0E4A3F08C829F
:0E22C7008D83C002C003122EEDAC82AD83D019
:0E22D50003D00290013FEAC39CF0EB9DA3F002
:0D22E30090013FE0FAA3E0FB8A828B83129A
:0A22F0000655AA8290013BEAF09027
:0E22FA00013CE4F09001057403F075820212BD
:092308001D03903D3F75F08012A9
:092311001C1090013A75F0001255
:02231A001C1095
:0E231C0090012EE0FAA3E0FBBA0305BB00021D
:02232A0080032E
:03232C000223D4B5
:0E232F00900136E0FAC2D575F00AEA30E704F4
:04233D00B2D5F4041D
:062341008430D502F40413
:0E234700FAA2D595E0FB90013FEAF0A3EBF07F
:0E2355008A828B83120655AA8290013AEAF022
:0E236300900136E0FA3395E0FB90013FE0FC7C
:0E237100A3E0FD900174740AF0E4A3F08C82E6
:0E237F008D83C002C003122EEDAC82AD83D060
:0E238D0003D00290013FEAC39CF0EB9DA3F049
:0D239B0090013FE0FAA3E0FB8A828B8312E1
:0A23A8000655AA8290013BEAF0906E
:0E23B200013CE4F09001057403F07582021204
:0923C0001D03903D4675F08012EA
:0923C9001C1090013A75F000129D
:0223D2001C10DD
:0E23D40090012EE0FAA3E0FBBA0405BB000264
:0223E200800376
:0323E4000224C010
:0E23E700122997AA82AB839001597464F0E426
:0E23F500A3F08A828B83122A18AA82AB83C0BF
:0D24030002C003120655AC82D003D0029037
:0E241000013AECF0C002C003122997AC82AD75
:0E241E0083D003D0029001747464F0E4A3F044
:0E242C008A828B83C004C005122EEDAA82ABFB
:0D243A0083D005D004ECC39AFCED9BFD900F
:0D2447000159740AF0E4A3F08C828D831219
:0C2454002A18AA82AB83120655AA8290B7
:0C246000013BEAF0122997AA82AB83909E
:0D246C0001827464F0E4A3F08A828B831275
:0E247900308DAA82AB83900182740AF0E4A336
:0D248700F08A828B8312308DAA82AB831203
:0A2494000655AA8290013CEAF09080
:0E249E00013DE4F09001057403F07582021216
:0924AC001D03903D5175F08012F2
:0924B5001C1090013A75F00012B0
:0224BE001C10F0
:0E24C00090012EE0FAA3E0FBBA0505BB000276
:0224CE00800389
:0324D0000220A344
:0E24D300121500AA82AB83ACF0C002C003C099
:0E24E100041215B3AD82D004D003D002BD5654
:0E24EF002D9001057401F0758202121D0390FC
:0924FD003D5C75F080121C10908A
:0C25060001057401F0758203121D0390A2
:092512003D6875F080121C1002F6
:02251B0020A3FB
:0E251D009001057401F0758202C002C003C077
:0E252B0004121D03D004D003D002903D74753D
:0E253900F080C002C003C004121C10D004D0F9
:0E25470003D0028A828B838CF0C002C003C0D6
:0E25550004121612AD82AE83AFF0D004D00394
:0E256300D0028D828E838FF0C002C003C004B0
:0E257100121C10D004D003D00290010574019A
:0E257F00F0758203C002C003C004121D03D019
:0E258D0004D003D002903D7975F080C002C0EA
:0E259B0003C004121C10D004D003D0028A82A8
:0E25A9008B838CF01216ABAA82AB83ACF012BF
:0525B7001C100220A32E
:0E25BC00C0E0C0F0C082C083C002C003C004F3
:0E25CA00C005C006C007C000C001C0D075D05B
:0E25D8000090012CE0FAA3E0FB90012C7401AE
:0E25E6002AF0E43BA3F090012CE0FAA3E0FB06
:0E25F400C374089AE49B500990012C7401F006
:03260200E4A3F05E
:0E260500B2909001057401F0758204121D035D
:0A261300903D7E75F080121C1090BF
:0E261D00012CE0FAA3E0FB8A828B83120655A3
:0E262B00AA82121B65D0D0D001D000D007D0FB
:0E26390006D005D004D003D002D083D082D0CA
:04264700F0D0E032BD
:0E264B00C0E0C0F0C082C083C002C003C00463
:0E265900C005C006C007C000C001C0D075D0CB
:0E2667000090012EE0FAA3E0FB1ABAFF011B5F
:0E26750090012EEAF0A3EBF0758201121B908B
:0D2683009001057401F0758204121D039092
:092690003D7E75F080121C1090D3
:0E269900012CE0FAA3E0FB8A828B8312065527
:0E26A700AA82121B6590012EE0FAA3E0FB4A06
:0B26B500700990012E7405F0E4A3F002
:0E26C000D0D0D001D000D007D006D005D00475
:0D26CE00D003D002D083D082D0F0D0E03213
:0E26DB00C0E0C0F0C082C083C002C003C004D3
:0E26E900C005C006C007C000C001C0D075D03B
:0E26F7000090018BE0FA90018B74012AF090A4
:0E270500012EE0FAA3E0FBBA050BBB0008753D
:072713008CB0758A008006FE
:06271A00758C80758A0039
:0A27200090018BE0FABA1402800366
:03272A000227CDB6
:0D272D00900138E0FA90013874012AF09014
:0E273A000138E0FA90012CE0FBA3E0FCEA334A
:0E27480095E0FDEAB50310EDB5040C900139E3
:09275600E0FA90013974012AF047
:0D275F00900132E0FA90013274012AF090EE
:0D276C000132E0FABA3C11900132E4F09025
:0B2779000131E0FA90013174012AF0F8
:0E278400900131E0FABA3C11900131E4F0907E
:0B2792000130E0FA90013074012AF0E1
:0D279D00900130E0FABA1805900130E4F028
:0B27AA00900130E0FA900131E0FB905C
:0A27B5000132E0FC900011EBF090FF
:0A27BF000012ECF08A8212074F901E
:0427C900018BE4F0AC
:0E27CD00D0D0D001D000D007D006D005D00467
:0D27DB00D003D002D083D082D0F0D0E03205
:0E3CCE000A0D204C69676874203A2025642096
:0E3CDC0070657263656E7420202066726571DB
:053CEA002D20256400FF
:0E3CEF00092054656D706172617475726520F4
:0E3CFD003A2025642064656772656520436582
:063D0B006C636975730092
:0E3D1100092048756D6964697479203A20258F
:053D1F00642052480081
:0E3D2400092050726573737572652025642046
:053D32006D6D48670003
:083D37004C494748543A2000B2
:073D3F0054454D503A2000ED
:0B3D460048554D49444954593A2000AB
:0B3D510050524553535552453A200094
:0C3D5C00202047505320444154412000D7
:0C3D68002020496E76616C696420200008
:053D74004C613A200043
:053D79004C6F3A200030
:073D7E006C6F675F663A00FD
:013E7B000046
:0D27E8009001417441F09001427442F09064
:0C27F50001437443F09001447444F090E0
:0C28010001457445F09001467446F090CB
:0C280D0001477447F09001487448F090B7
:0C28190001497449F090014A744AF090A3
:0C282500014B744BF090014C744CF0908F
:0C283100014D744DF090014E744EF0907B
:0C283D00014F744FF09001507450F07483
:0828490085C0E0743DC0E012FF
:0B2851002DE51581158174D6C0E074E0
:0B285C003DC0E0122DE51581158190B4
:09286700015175F000122CB8902B
:0E287000015175F00012019FAA82AB83B29451
:0E287E008A04900187E4F0A37401F08A828B33
:0D288C0083C004123194AA82AB83D0049063
:0E289900004B74AAF090004CEAF08C82C00252
:0E28A700C004120FE5D004D002B294900005D8
:0E28B500C002C004120DC1D004D002B2959032
:0828C3000044EAF090004574A6
:0A28CB0041F0A37401F0A3E4F090C3
:0E28D50000487410F0E4A3F08C82120F1AB2C7
:0228E30095223C
:0E3D85000A0A0D54696D696E672070726F66D0
:0E3D9300696C696E67206F6620746865204554
:0E3DA1004550524F4D2C200A0D50315F3420FA
:0E3DAF00666F722062797465207772697465A0
:0E3DBD000A0D50315F3520666F72207061670D
:0B3DCB00652077726974650A0A0D001C
:0E3DD6000A0A0D09456E7465722053746172FD
:0E3DE40074206164647265737320666F7220D0
:0E3DF20074686520706167652077726974657A
:033E00003A200065
:0628E500E582900155F0B0
:0C28EB003099FD900155E0F599C299224A
:0528F70010980280FBB7
:0528FC00AA998A822266
:0E29010075C800759B00758DFD758B004388B1
:08290F00404398527589202213
:0D291700E582900157F01217D07582C012B2
:06292400180812187F9054
:0A292A000157E0FAF58212180812B6
:0A293400187F900156E0FAF58212B8
:06293E00180812187F12B8
:0829440017ED900005020DC122
:0D294C00E582900158F01217D07582C0127C
:06295900180812187F901F
:0A295F000158E0FAF5821218081280
:09296900187F1217D07582C1120B
:06297200180812187F1284
:0E2978001835AA82C00212189BD002C00212AB
:0E29860017EDD00290000AC002120D8ED00292
:032994008A822212
:05299700D310AF01C3E5
:0E299C00C0D09001567402F0758226122917E1
:0E29AA0075820112294CAA827B00758202C040
:0E29B80002C00312294CAC82D003D0027D0075
:0E29C6009001747407F0E4A3F08A828B83C042
:0E29D40004C005122EEDAA82AB83D005D004FC
:0E29E2009001597485F0E4A3F08C828D83C0BF
:0E29F00002C003122A18AC82AD83D003D002BD
:0E29FE00EC2AFAED3BFB8A828B83D0D092AF9D
:012A0C0022A7
:0B2A0D00A8811818C6B2E7C602313BD2
:0E2A1800AA83E58290015BF0A3EAF090015DD5
:0E2A2600E4F0A3F0900159E0FAA3E0FB7C106D
:0C2A340090015BE0FDA3E0FE339200EE99
:0E2A4000CD25E0CD33FE90015BEDF0A3EEF06E
:0E2A4E0090015DE0FDA3E0FECD25E0CD33FE5E
:0C2A5C0090015DEDF0A3EEF03000129050
:0E2A6800015DE0FDA3E0FE90015D74014DF004
:032A7600A3EEF0DC
:0E2A790090015DE0FDA3E0FEC3ED9AEE9B40F0
:0D2A87001D90015DEDC39AF0EE9BA3F09051
:0E2A9400015BE0FDA3E0FE90015B74014DF0DC
:032AA200A3EEF0B0
:0E2AA500DC8D90015BE0FAA3E08A82F58322CB
:06004500E478FFF6D8FD8F
:080023007901E94400601B7A39
:05002B0001903E7B780E
:030030008B75A02D
:0A00330001E493F2A308B8000205EF
:08003D00A0D9F4DAF275A0FF6E
:0E2AB300AAF0AB83E58290015FF0A3EBF0A3E5
:0E2AC100EAF07A007B0090015FE0FCA3E0FDEC
:032ACF00A3E0FE83
:0E2AD2008C828D838EF012334FFF6039C374F7
:0E2AE000B98FF063F08095F04007EF648094AA
:032AEE00B05026BF
:0E2AF1008C828D838EF012334FFFBF2D02803A
:012AFF0017BF
:052B0000BF2B02801252
:052B05000CBC00010DF5
:0D2B0A0090015FECF0A3EDF0A3EEF080BBB6
:0E2B170090015FECF0A3EDF0A3EEF08C828D48
:0C2B2500838EF012334FFFE4BF2D01043B
:082B3100F888017003BF2B0EB0
:0E2B390090015F74012CF0E43DA3F0A3EEF0D8
:0B2B470090015FE0FCA3E0FDA3E0FEB6
:0E2B52008C828D838EF012334FFF6068C3EFCC
:0E2B6000648094B0406074B98FF063F080958B
:0E2B6E00F04055C001900174740AF0E4A3F029
:0E2B7C008A828B83C004C005C006C007C0015A
:082B8A00122EED8582108583F7
:0C2B920011D001D007D006D005D004EF10
:0E2B9E003395E0F8EF24D0FFE834FFF8EF2580
:0A2BAC0010FAE83511FB0CBC000123
:012BB6000D11
:0E2BB70090015FECF0A3EDF0A3EEF0D00180F2
:012BC5008C83
:0E2BC60090015FECF0A3EDF0A3EEF0E96009E2
:092BD400C3E49AFCE49BFD8004BB
:042BDD008A048B05D6
:052BE1008C828D8322AF
:0E2BE600AAF0AB83E582900165F0A3EBF0A3AB
:0E2BF400EAF0900165E0FAA3E0FBA3E0FC909C
:0E2C02000168EAF0A3EBF0A3ECF0900162E0B1
:0E2C1000FDA3E0FEA3E0FF8D828E838FF01205
:0B2C1E00334F70078A828B838CF022FA
:0E2C29008A828B838CF012334F7003022CB121
:052C37008A218B228CB4
:042C3C00238D248E32
:032C4000258F26B7
:072C430085218285228385B3
:092C4A0023F012334FF8602685D7
:062C530024828525838523
:0C2C590026F012334FF96017E8C39970A1
:082C6500120521E4B52102056E
:012C6D002244
:072C6E000524E4B524CF05A5
:032C75002580CBEC
:072C78008524828525838578
:082C7F0026F012334F7018908B
:082C87000168E0F524A3E0F56B
:062C8F0025A3E0F52685F7
:062C9500248285258385E1
:032C9B0026F022FE
:052C9E000ABA00010B61
:0E2CA300900168EAF0A3EBF0A3ECF0022C29FC
:072CB10090000075F0002205
:0E2CB800AAF0AB83E58290016BF0A3EBF0A3D2
:0E2CC600EAF090016BE0FAA3E0FBA3E0FC90C3
:0E2CD400016EEAF0A3EBF0A3ECF0900171E4C6
:032CE200F0A3F06C
:0A2CE5001228F7AA82BA0802800D37
:052CEF00BA0A02806733
:052CF400BA0D02806230
:032CF900022D8E1B
:0E2CFC00900171E0FBA3E0FC4B60DE758208E6
:0E2D0A00C003C0041228E5D004D00375822057
:0E2D1800C003C0041228E5D004D00375820861
:0E2D2600C003C0041228E5D004D00390016E53
:0D2D3400E0FDA3E0FEA3E0FF1DBDFF011EBA
:0E2D410090016EEDF0A3EEF0A3EFF01BBBFFD0
:022D4F00011C65
:0A2D5100900171EBF0A3ECF0808A12
:0D2D5B0075820D1228E575820A1228E59098
:0E2D6800016EE0FBA3E0FCA3E0FD8B828C83F8
:0E2D76008DF0E4122DCC90016BE0FBA3E0FC8D
:0A2D8400A3E0FD8B828C838DF0220A
:0E2D8E0090016EE0FBA3E0FCA3E0FD8B828CC5
:0E2D9C00838DF0EA122DCC90016E74012BF0A5
:0E2DAA00E43CA3F0A3EDF0900171E0FBA3E088
:0E2DB800FC90017174012BF0E43CA3F08A82C0
:062DC6001228E5022CE5D5
:0E2DCC0020F71030F6118883A88220F507F654
:052DDA00A883758300D1
:012DDF0022D1
:032DE000F280F787
:022DE300F022DC
:052DE500C016858116F7
:0B2DEA00E51624FDF886831886821889
:0E2DF500E493A324DB600C24256005122ED28B
:022E030080F05D
:032E0500022EEAB0
:092E0800D2D5E493A3C083C0827B
:032E1100B4731483
:092E140086F018868318868218E6
:0B2E1D0012334F6053A3122ED280F539
:0A2E2800B46307E618122ED28043AF
:0E2E3200B46417E630E74618E6F42401F6080B
:0C2E4000E6F43400F6742D122ED280331C
:0A2E4C00B4782D868318868218E4FE
:0B2E5600122EC3E583122EC2E583128A
:0A2E61002EC3E582122EC2E5821294
:0A2E6B002EC330D5057430122ED2AC
:072E7500D082D083022DF58D
:032E7C00B475F634
:062E7F00E6FA18E6F9185E
:0D2E85007C107D27122EADFF7CE87D03122E
:0E2E92002EADC4F5837C647D00122EAD42830C
:0D2EA000E975F00A84C445F0F582EF80A9C1
:022EAD007B00A8
:0E2EAF000BC3E99CF9EA9DFA50F61BE92CF9D9
:052EBD00EA3DFAEB22E2
:012EC200C44B
:072EC300540F700320D51F1E
:082ECA00C2D52490D43440D499
:0E2ED200C083C082C0F0F582E8C0E01228E59F
:092EE000D0E0F8D0F0D082D083DC
:012EE90022C6
:032EEA00D01622DD
:0E2EED00AA83AB828BF0900174E0A4F8A9F0E8
:0E2EFB008AF0E0A429F98BF0A3E0A429F58366
:042F09008882222276
:0E2F0D00AA82AB83ACF0FD90017AEAF0A3EB50
:0E2F1B00F0A3ECF0A3EDF0900176E0FAA3E055
:0E2F2900FBA3E0FCA3E0FDEA4B4C4D700990C9
:082F3700000075F080743F22D8
:0E2F3F00C002C003C004C005E4C0E0C0E074DE
:0E2F4D0080C0E0743FC0E08A828B838CF0ED80
:0E2F5B001235BDAE82E58124FCF581D005D093
:0E2F690004D003D002EE601590017AE0FEA3C2
:0E2F7700E0FFA3E0F8A3E0F98E828F8388F0DC
:012F85002229
:092F860090017AE0F512A3E0F5D8
:082F8F0013A3E0F514A3E0F523
:0C2F970015C002C003C004C005E4C0E087
:0A2FA300C0E0C0E0C0E085128285A6
:062FAD0013838514F0E51A
:0C2FB300151235CEAE82E58124FCF581BC
:0E2FBF00D005D004D003D002EE7007900000C1
:042FCD00E4F5F02215
:072FD1008512828513838540
:0A2FD80014F0E515C002C003C004A8
:0E2FE200C00512344FAE82AF83A8F0F9D005BF
:0E2FF000D004D003D002C002C003C004C0054C
:0E2FFE008E828F8388F0E912337EAA82AB8325
:0E300C00ACF0FDE58124FCF5818A828B838C7B
:05301A00F0ED0235FE9F
:0E301F00AA83E582900180F0A3EAF090018080
:0E302D00E0FAA3E0FB30E709C3E49AFCE49B61
:03303B00FD800411
:04303E008A048B0570
:0E3042008C028D0390017EE0FCA3E0FD30E7E0
:0A30500009C3E49CFEE49DFF800428
:04305A008C068D074C
:0D305E00900182EEF0A3EFF08A828B8312C6
:0E306B00308DAA82AB83900180E0FCA3E0FDD3
:0E30790030E70CC3E49AFCE49BFD8C828D834F
:013087002226
:053088008A828B832207
:0E308D00AA83E582900184F0A3EAF090018608
:0C309B00E4F0900184E0FAA3E0FB7C006C
:0E30A700900182E0FDA3E0FE235401FF70378C
:0E30B500EECD25E0CD33FE900182EDF0A3EECE
:0E30C300F0900182E0FDA3E0FEC3EA9DEB9ECB
:0E30D1005011EEC313CD13CDFE900182EDF031
:0530DF00A3EEF08008E3
:0830E4000C900186ECF080BBAA
:0530EC00900186E0FAEE
:0E30F100900184E0FBA3E0FC900182E0FDA3CF
:0E30FF00E0FEC3EB9DEC9E400B900184EBC302
:06310D009DF0EC9EA3F012
:0E311300900182E0FBA3E0FCC313CB13CBFCC6
:0E312100900182EBF0A3ECF08A031AEB70C26F
:0C312F00900184E0FAA3E08A82F583227C
:03313B001234212A
:09313E007900E583B58202800DE1
:0531470050031232727A
:08314C00E583C39582123551A1
:08315400E5D0C465D020E117AD
:0E315C00EA2DFAEB3EFBEC3FFC500974011229
:06316A003551EC4480FC2D
:0331700002322305
:0E317300C3EA9DFAEB9EFBEC9FFC500FC3E4F9
:0D31810099F9E49AFAE49BFBE49CFCB2D1BE
:06318E0012359402322309
:08004B007800E84400600A7926
:030053000075A095
:0600560000E4F309D8FCF0
:08005C00788BE84401600C7987
:0B00640002900000E4F0A3D8FCD9FAE1
:0E319400AA83E582900189F0A3EAF0900189F8
:0E31A200E0FAA3E0FB30E709C3E49AFCE49BEB
:0331B000FD80049B
:0431B3008A048B05FA
:0E31B7008C028D03900187E0FCA3E0FD33E461
:0D31C50033FE6009C3E49CFFE49DF8800424
:0431D2008C078D00D9
:0E31D600900159EFF0A3E8F08A828B83C006C7
:0E31E400122A18AA82AB83D006900189E0FC63
:0E31F200A3E0FD33E4336E600CC3E49AFCE40A
:073200009BFD8C828D8322EF
:053207008A828B832286
:0C320C00E4AC83AB82FAF9748E023374D8
:0B3218007F8E123795F58385F082222F
:06322300B98003EA13B3B9
:0E3229004010EA2401FAE43BFBE43CFC5004B4
:043237007C80058210
:09323B00BC000EBB000BBA000838
:08324400E4F5F0F583F58222A8
:0E324C00A2D1E582138CF092F78B838A822246
:0D325A00E4F583F58275F080F4A2D1132213
:0B326700E4F583F58275F0C0747F224F
:0E327200E582C583F582A2D133A2D592D11395
:0C32800092D5ECCFFCEBCEFBEACDFA229D
:08328C0012342130D502B2D149
:09329400BF0009BC00030232670F
:03329D0002325AA0
:0632A000BC0003023244F1
:0D32A600E583B4FF0BE582B4FF030232673D
:0332B300023244A0
:0832B600E582B4FF0302325A65
:0C32BE00C395835007247F400B0232446C
:0832CA00248014500302325A63
:0E32D200F582C3ED9AEE9BEF9C40111582C36E
:0E32E000EA33F9EB33FAEC33FBE433FC800500
:0532EE00E4CCCBCAF99D
:0532F300C08275F01916
:0E32F800C3E99DEA9EEB9FEC9400D5F00280A6
:013306002D99
:0E330700400EE99DF9EA9EFAEB9FFBEC940064
:02331500FCC3F7
:0E331700B3E833F8E58233F582E58333F583BE
:0E332500C3E933F9EA33FAEB33FBEC33FC80F7
:01333300C4D5
:0E333400B3E4F938FAE43582FBE43583FCD0CB
:0733420082500405827C802B
:0633490012359402323B34
:03001600758126CB
:0A001900122076E5826003022071D8
:0E334F0020F71430F6148883A88220F507E6D4
:06335D00A8837583002225
:03336300E280F70E
:03336600E49322CB
:02336900E02260
:09336B00FCABF0AA83A982749E58
:02337400C2D1C4
:08337600F582123594023223A6
:06337E00123421BC000323
:03338400023244CE
:08338700EF60FA30D502B2D16B
:08338F00E583B4FF0302325A8A
:08339700E582B4FF0302325A83
:0B339F00258340072482400B023244CB
:0833AA00248314500302325A7F
:0E33B200F582EA8DF0A4A8F0EA8EF0A428F8C7
:0E33C000E435F0F9EB8DF0A428E935F0F9E4DE
:0E33CE0033CA8FF0A429F9EA35F0FAEBF88E35
:0E33DC00F0A429F9EA35F0FAE433FBEC8DF0A9
:0E33EA00A429F9EA35F0FAE43BFBE88FF0A4E1
:0E33F8002AFAEB35F0FBE433CCFD8EF0A42A6C
:0E340600FAEB35F0FBE43CFCED8FF0A42BFB61
:0A341400EC35F0FC20E703123594BC
:03341E0002322354
:0D342100AA82AB83A2F73392D16002D2F7EA
:0E342E00F582ACF0E58124F9F8E6FD08E6FE33
:0E343C000886F008E6A2F73392D56002D2F7B8
:05344A00F583AFF02244
:03344F00123781B0
:0634520030D103023267D5
:08345800BC0005D2D102325A7A
:0C346000C08274037900123551E4F517A6
:05346C00F518F519F54B
:053471001A903E03F873
:0E3476008C078B068A0589F0E8123510E925CF
:0E348400F0EA3DEB3EEC3F54E07028E925F005
:0D349200F9EA3DFAEB3EFBEC3FFCE493252C
:07349F0017F51774019335C6
:0734A60018F51874029335BC
:0734AD0019F51974039335B2
:0334B4001AF51AEC
:0B34B700A3A3A3A308B81EB7AC1AAB78
:0434C20019AA18A982
:0C34C60017758281D2D1123594D0E0B489
:0534D2007E0302323B05
:0234D7004006AD
:0634D9002482C2D580052B
:0534DF00F4247FD2D5AA
:0E34E400F8123272741888F0A4F9AAF074B1CC
:0E34F20088F0A4FBACF0747288F0A42AFAE50E
:0D350000F03BFBE43CFC7582861235940222
:03350D00313E222A
:0E35100024F850228DF0AD06AE077F0024F89F
:0E351E0050168DF0AD067E0024F8500C8DF096
:0A352C007D0024F8500475F0002221
:0735360024086016C000F834
:0E353D00C3EF13FFEE13FEED13FDE5F013F5E3
:05354B00F0D8EFD000F4
:013550002258
:0E3E0300FF422E16F691F90CF2FD2307EEE0B9
:0E3E1100C4030CA3F001D814FC00A3027F0030
:0E3E1F0055C03F000BF01F0001FC0F0000FF1C
:0E3E2D000700C0FF0300F0FF0100FCFF0000D3
:0E3E3B00FF7F0000004000000020000000108B
:0E3E490000000008000000040000000200005D
:0E3E570000010000800000004000000020007C
:0E3E6500000010000000080000000400000033
:083E7300020000000100000044
:093551006040F82582500274FF6D
:0E355A00F582E824F8501ECCCBCAF9E4CC244C
:0E356800F85014CBCAF9E4CB24F8500BCAF982
:09357600E4CA24F8500379002294
:05357F0024086010F8B3
:0E358400C3EC13FCEB13FBEA13FAE913F9D8BE
:01359200F147
:013593002215
:023594007804B9
:0E359600EC700DC9CACBFCE58224F8F582D892
:0235A400F12212
:0235A60078208B
:0E35A80020E7111582C3E933F9EA33FAEB3359
:0635B600FBEC33FCD8EC35
:0135BC0022EC
:0E35BD00FFA88118181237D81237BAE9640136
:0335CB00F5822264
:0E35CE00FFA88118181237D8D2D133E6400773
:0735DC0030E70B75820122AC
:0735E30020E70675820022BB
:0235EA00C2D14C
:0935EC001237BAE97003F58222DE
:0435F50030D101B31D
:0535F900E433F582221D
:0C35FE00A2E79201C2E7F8A2F73324997B
:0B360A00400990000075F080743F2222
:0C361500751F00E58224E8E583348DE594
:09362100F034CEE834C0E8505545
:08362A0085821B85831C85F0DD
:0A3632001DF51E783BC00078AAC009
:0E363C000078B8C000783FC00012337E1581C0
:0C364A00158115811581123803E582F509
:083656001F2480500302325AC8
:0D365E00780079807A317BBF123732858287
:06366B001B85831C85F0A5
:0A3671001DF51E788379807A5E7BD8
:04367B003912373297
:0E367F00A2F733D2F7A982AA83ABF07C00B485
:04368D007902800F2F
:093691004007248712376A800605
:06369A00F4247A12355100
:0636A000E4F51BF51CF52A
:0536A6001D751E2090BF
:0336AB003E03F8E3
:0E36AE00E493F5F0A3E493FDA3E493FEA3E4FC
:0E36BC0093FFA3C3E995F0EA9DEB9EEC9F40BF
:0E36CA0030C3E995F0F9EA9DFAEB9EFBEC9F08
:0736D800FC851BF0AD1CAEE8
:0536DF001DAF1EE81202
:0736E4003510E51B25F0F590
:0536EB001BE51C3DF58C
:0536F0001CE51D3EF584
:0536F5001DE51E3FF57C
:0136FA001EB1
:0936FB0008B81BAFAC1EAB1DAA00
:043704001CA91B12CF
:093708003594747F251FF582122F
:0C371100322330011BC082C083C0F0C016
:0E371D00E090000075F080743F12328C158130
:06372B00158115811581D6
:013731002275
:0C373200C000C001C002C003851F82124D
:0E373E00380B12337E1581158115811581C05F
:0B374C0082C083C0F0C0E0851B8285B6
:063757001C83851DF0E556
:0C375D001E12313B15811581158115816C
:01376900223D
:05376A006014C000F82E
:0E376F00C3E933F9EA33FAEB33FBEC33FCD851
:03377D00F1D00088
:013780002226
:0D378100AA82AB83A2F73392D16002D2F787
:05378E00F582ACF02201
:023793007F9E17
:0937950012378130D103023244E5
:0E379E00C3EF9582500974FFF5F0F583F582B4
:0137AC0022FA
:0537AD00790012355106
:0837B20089828A838BF0EC226E
:0E37BA007901AA82E68F82B5821318E6B5F077
:0E37C8000E18E6B5830918E68A82B5820279EA
:0137D60000F2
:0137D70022CF
:0E37D800B4800FE5F0700AE5837006E582709C
:0337E600027F005F
:0137E900EFF0
:0E37EA00B6801518B6001018B6000B18B60001
:0737F8000608080876002214
:0137FF0008C1
:0138000008BF
:0138010008BE
:0138020022A3
:083803007F86123795F5822241
:0B380B00E4AC82FBFAF974860233740F
:00000001FF
