:0E005F00AAF0AB83E582900000F0A3EBF0A3C3
:0E006D00EAF0900000E0FAA3E0FBA3E0FC74D0
:0E007B00032AFDE43BFE8C078D828E838FF0FE
:0A00890012171AFD600490083422DB
:0E0093008A828B838CF012171AFDC36480944E
:0E00A100B0403374B78DF063F08095F04028C6
:0E00AF00ED3395E0FEED24D0FDEE34FF8D061E
:0E00BD007D00900003EDF0A3EEF090000074C3
:0C00CB00012AF0E43BA3F0A3ECF0800459
:0400D7009008372234
:0E00DB00900000E0FAA3E0FBA3E0FC8A828B19
:0E00E900838CF012171AFDC3648094B0404857
:0E00F70074B98DF063F08095F0403DED3395C7
:0E010500E0FEED24D0FDEE34FFFEC454F0CD3C
:0E011300C4CD6DCD54F0CD6DFE900003E0FF25
:0E012100A3E0F8900003ED2FF0EE38A3F0906D
:0E012F00000074012AF0E43BA3F0A3ECF00200
:02013D00020AB4
:0E013F00900000E0FAA3E0FBA3E0FC8A828BB4
:0E014D00838CF012171AFDC3648094E14048C1
:0E015B0074E68DF063F08095F0403DED339535
:0E016900E0FEED24A9FDEE34FFFEC454F0CDFF
:0E017700C4CD6DCD54F0CD6DFE900003E0FFC1
:0E018500A3E0F8900003ED2FF0EE38A3F09009
:0E019300000074012AF0E43BA3F0A3ECF0029C
:0201A100020A50
:0E01A300900000E0FAA3E0FBA3E0FC8A828B50
:0E01B100838CF012171AFDC3648094C140477E
:0E01BF0074C68DF063F08095F0403CED3395F2
:0E01CD00E0FEED24C9FDEE34FFFEC454F0CD7B
:0E01DB00C4CD6DCD54F0CD6DFE900003E0FF5D
:0E01E900A3E0F8900003ED2FF0EE38A3F090A5
:0E01F700000074012AF0E43BA3F0A3ECF080BA
:0102050004F4
:040206009008352205
:0E020A00900000E0FAA3E0FBA3E0FC8A828BE8
:0E021800838CF012171AFAC3648094B0402D44
:0E02260074B98AF063F08095F04022EA3395B7
:0E023400E0FBEA24D0FAEB34FFFB900003E07D
:0E024200FCA3E0FD900003EA2CF0EB3DA3F0DE
:030250000202E7C0
:0E025300900000E0FAA3E0FBA3E0FC8A828B9F
:0E026100838CF012171AFAC3648094E1402CCB
:0E026F0074E68AF063F08095F04021EA339542
:0E027D00E0FBEA24A9FAEB34FFFB900003E05B
:0E028B00FCA3E0FD900003EA2CF0EB3DA3F095
:02029900804C97
:0E029B00900000E0FAA3E0FBA3E0FC8A828B57
:0E02A900838CF012171AFAC3648094C1402CA3
:0E02B70074C68AF063F08095F04021EA33951A
:0E02C500E0FBEA24C9FAEB34FFFB900003E0F3
:0E02D300FCA3E0FD900003EA2CF0EB3DA3F04D
:0202E100800497
:0402E3009008362227
:0C02E700900003E0FAA3E08A82F5832275
:0E02F300AAF0AB83E582900005F0A3EBF0A328
:0E030100EAF0900005E0FAA3E0FBA3E0FC7434
:0E030F00022AFDE43BFE8C078D828E838FF068
:0A031D0012171AFD6004900102227D
:0E0327008A828B838CF012171AFDC3648094B7
:0E033500B0403E74B98DF063F08095F0403317
:0E034300ED3395E0FEED24D0FDEE34FFFEC458
:0D03510054F0CDC4CD6DCD54F0CD6DFE90B7
:0E035E000008EDF0A3EEF090000574012AF007
:0A036C00E43BA3F0A3ECF002042C24
:0E037600900005E0FAA3E0FBA3E0FC8A828B76
:0E038400838CF012171AFDC3648094E1403D93
:0E03920074E68DF063F08095F04032ED339507
:0E03A000E0FEED24A9FDEE34FFFEC454F0CDC6
:0E03AE00C4CD6DCD54F0CD6DFE900008EDF085
:0E03BC00A3EEF090000574012AF0E43BA3F0DC
:0503CA00A3ECF0805DD2
:0E03CF00900005E0FAA3E0FBA3E0FC8A828B1D
:0E03DD00838CF012171AFDC3648094C1403D5A
:0E03EB0074C68DF063F08095F04032ED3395CE
:0E03F900E0FEED24C9FDEE34FFFEC454F0CD4D
:0E040700C4CD6DCD54F0CD6DFE900008EDF02B
:0E041500A3EEF090000574012AF0E43BA3F082
:05042300A3ECF08004D1
:04042800900101221C
:0E042C00900005E0FAA3E0FBA3E0FC8A828BBF
:0E043A00838CF012171AFAC3648094B0402D20
:0E04480074B98AF063F08095F04022EA339593
:0E045600E0FBEA24D0FAEB34FFFB900008E054
:0E046400FCA3E0FD900008EA2CF0EB3DA3F0B5
:0304720002050977
:0E047500900005E0FAA3E0FBA3E0FC8A828B76
:0E048300838CF012171AFAC3648094E1402CA7
:0E04910074E68AF063F08095F04021EA33951E
:0E049F00E0FBEA24A9FAEB34FFFB900008E032
:0E04AD00FCA3E0FD900008EA2CF0EB3DA3F06C
:0204BB00804C73
:0E04BD00900005E0FAA3E0FBA3E0FC8A828B2E
:0E04CB00838CF012171AFAC3648094C1402C7F
:0E04D90074C68AF063F08095F04021EA3395F6
:0E04E700E0FBEA24C9FAEB34FFFB900008E0CA
:0E04F500FCA3E0FD900008EA2CF0EB3DA3F024
:02050300800472
:04050500900101223E
:0C050900900008E0FAA3E08A82F583224B
:021BC70000A07C
:021BC90000C05A
:0E051500AA83E58290000AF0A3EAF090000AA3
:05052300E0FAA3E0FB7B
:08052800BA0005BB0002800FC0
:050530001ABAFF011BD7
:0A05350090000AEAF0A3EBF080E961
:09053F0090000AEAF0A3EBF0229F
:0E054800AA83E58290000CF0A3EAF090000C6C
:05055600E0FAA3E0FB48
:08055B00BA0005BB0002801D7F
:0E056300900070C002C003120515D003D00234
:050571001ABAFF011B96
:0A05760090000CEAF0A3EBF080DB2C
:0905800090000CEAF0A3EBF0225C
:0B058900E58290000EF090000EE0FAFA
:05059400BA0002801214
:0E0599009003E8C002120548D0021A90000E2E
:0405A700EAF080E90D
:0605AB0090000EEAF022B0
:0A05B100E582900011F01207C590DA
:0E05BB000010E025E0FA4302A08A821207FD3C
:0B05C900120874900011E0FAF5821295
:0605D40007FD12087490FF
:0A05DA00000FE0FAF5821207FD128F
:0905E40008741207E29000050200
:0205ED000548BF
:0A05EF00E582900013F01207C5909A
:0E05F9000012E025E0FA74A04AFBF582C00271
:0D0607001207FDD002C002120874D002904C
:0E0614000013E0FBF582C0021207FDD002C009
:0E06220002120874D002C0021207C5D00243B3
:0B06300002A18A821207FD120874125A
:0E063B00082AAA82C0021208A0D002C0021231
:0E06490007E2D00290000AC002120515D0028E
:030657008A822272
:0C065A00E582900019F0900018E0FA9082
:0E0666000019E0FB900014E0FCA3E0FDA3E00F
:06067400FE900017E0FFFC
:05067A00BF0002803FFB
:0E067F008C828D838EF012171AF8A3AC82AD18
:0E068D008390000FE8F0900010EAF08B82C01E
:0E069B0002C003C004C005C006C0071205B1AE
:0E06A900D007D006D005D004D003D0020B90AD
:0706B7000019EBF01F80BCED
:0606BE00900019EBF02290
:0A06C400E582900020F01207C590B7
:0E06CE00001AE025E0FA74A04AFBF582C00293
:0D06DC001207FDD002C002120874D0029077
:0E06E9000020E0FBF582C0021207FDD002C027
:0E06F70002120874D002C0021207C5D00243DE
:0B07050002A18A821207FD1208749006
:0E071000001BE0FAA3E0FB90001DE0FCA3E05C
:08071E00FDA3E0FE7F0078005E
:0E072600C3EF9AE864808BF063F08095F0508A
:0E07340056C002C003C004C005C006C007C006
:0E0742000012082AA982D000D007D006D005E8
:0E075000D004D003D0028C828D838EF0E9128B
:0E075E0014BDA3AC82AD83C002C003C004C0B2
:0E076C0005C006C007C000120898D000D007D4
:0E077A00D006D005D004D003D0020FBF009EE1
:0307880008809B4B
:0E078B00EA2CFAEB3DFB8E07C002C003C0074C
:0E07990012082AAC82D007D003D0028A828BCD
:0B07A700838FF0EC1214BD1208A002BA
:0207B20007E25C
:0E07B400900001120515D2919000011205155A
:0307C200C29122BF
:0D07C500C291D292900001120515D29190C0
:0E07D2000001120515C292900001120515C219
:0207E000912264
:0E07E200C291900001120515C2929000011202
:0D07F0000515D291900001120515D292223C
:0807FD00E582900021F07A0072
:03080500BA08002E
:0E080800501D900021E0FB339292C002C0030D
:0E0816001207B4D003D002EB2BFB900021F0B0
:030824000A80DE69
:03082700D2922248
:09082A00900022E4F0D2927A0061
:03083300BA080000
:0E0836005035900001C002120515D002D2917B
:0E084400900001C002120515D002900022E0C3
:0E08520025E0FB900022F0900022E0FBE4A2E3
:0D0860009233FC9000224BF0C2910A80C63A
:07086D00900022E0F5822259
:080874009000237401F0D29200
:0D087C00900023E0FA6014D2919000011268
:0E0889000515900023E4A29233F0C29180E5A1
:01089700223E
:08089800C2921207B4D29222B1
:0808A000D2921207B4D291229A
:0E08A800C2939000C8120AE6900098E0FAA3EE
:0D08B600E0FB8A828B837430F090003C12CE
:0E08C3000AE6900098E0FAA3E0FB8A828B839D
:0E08D1007430F0900005120AE6900098E0FAEC
:0E08DF00A3E0FB8A828B837430F01209DE9056
:0E08ED000098E0FAA3E0FB8A828B837438F057
:0A08FB00900001120AE61209DE90D7
:0E0905000098E0FAA3E0FB8A828B837408F06E
:0E0913001209DE900098E0FAA3E0FB8A828BC6
:0E09210083740CF01209DE900098E0FAA3E057
:0E092F00FB8A828B837406F01209DE9000981A
:0D093D00E0FAA3E0FB8A828B837401F09046
:05094A000001020AE6B5
:0E094F00E582900024F0D293900001120AE697
:0E095D00900098E0FAA3E0FB900024E0FC8AF2
:07096B00828B83F00209DE1C
:0E097200E582900025F0C293900001120AE683
:0E098000900098E0FAA3E0FB900025E0FC8ACE
:09098E00828B83F0D2900209DE95
:0E099700D293900001120AE690009AE0FAA3B3
:0D09A500E0FB8A828B83E0FA900026F012BE
:0909B20009DE900026E0F5822226
:0E09BB00E582900027F0C293900001120AE638
:0E09C900900098E0FAA3E0FB900027E0FC8A83
:0709D700828B83F00209DEB0
:0E09DE00C29390009AE0FAA3E0FB8A828B831A
:0C09EC00E0FA900028F0900001120AE6EA
:0E09F800900028E0FA30E71490009AE0FAA38D
:0E0A0600E0FB8A828B83E0FA900028F080E407
:030A1400C290226B
:0E0A1700AAF0AB83E582900029F0A3EBF0A3D8
:0E0A2500EAF0900029E0FAA3E0FBA3E0FC7DDC
:030A3300007E0042
:0E0A3600ED2AFFEE3BF88C018F82888389F059
:0E0A440012171AFF60208F82C002C003C00488
:0E0A5200C005C00612094FD006D005D004D052
:0A0A600003D0020DBD00CF0E80CCC4
:010A6A002269
:0E0A6B00E58290002DF090002DE0FABA011304
:080A790090002CE0FABA110014
:0B0A81005009747F2AFAF5820209BBBD
:0E0A8C0090002DE0FABA021390002CE0FABAA6
:020A9A00110049
:0B0A9C00500974BF2AFAF5820209BB62
:0E0AA70090002DE0FABA031390002CE0FABA8A
:020AB50011002E
:0B0AB7005009748F2AFAF5820209BB77
:0E0AC20090002DE0FABA041390002CE0FABA6E
:020AD000110013
:0B0AD200500974CF2AFAF5820209BB1C
:090ADD0090173A75F080020A1727
:0E0AE600AA83E58290002EF0A3EAF090002E85
:090AF400E0FAA3E0FB7C007D00A8
:0E0AFD00C3EC9AED64808BF063F08095F050AE
:050B0B00147E647F0070
:050B10001EBEFF011FE5
:0B0B1500EE4F70F70CBC00E00D80DD1F
:010B200022B2
:0B0B2100E582900033F07440C0E074E7
:0A0B2C0017C0E01214D615811581E0
:0E0B3600900039E4F0A3F090003475F0001246
:090B440013A990003475F00012B1
:0E0B4D001276AA82AB838A048B05C3EC940453
:0E0B5B00ED9400500B9000397401F0E4A3F00B
:020B69008017F3
:0A0B6B00C002C0037466C0E07417F6
:0D0B7500C0E01214D615811581D003D00206
:0D0B8200900039E0FCA3E0FD4C60A90A9052
:0B0B8F00002C7401F08A82120A6B90A7
:0E0B9A000030E0FAA3E0FBA3E0FC8A828B832C
:0C0BA8008CF0120A1775823A12094F9067
:090BB4000033E0FAF58202094F5A
:06173A004572726F72009F
:0E1740000A0A0D20456E74657220526F7720E4
:0E174E006E756D626572206265747765656EFA
:0A175C00203020746F20333A200083
:0E1766000A0A0D20456E7465722076616C696A
:0E1774006420726F77206E756D626572206260
:0E17820065747765656D203020616E642033DC
:031790003A2000FC
:021BCB0000A078
:021BCD0000C056
:03000000020003F8
:03005C00020BBDD7
:050BBD00120BC980FECF
:070BC200438EC090000022E9
:0C0BC900D2901208A812125D7582001272
:090BD50009BB7582861209BB9070
:090BDE00179375F080120A1790BC
:0C0BE700002C7406F0758202120A6B905C
:090BF300179675F080120A1790A4
:0C0BFC00002C7406F0758203120A6B9046
:090C0800179C75F080120A1774A4
:080C1100A2C0E07417C0E0125C
:060C190014D615811581BF
:0E0C1F003098FD121253AA82C002121241D068
:060C2D0002E4BA310104EB
:0C0C3300FB601AC002C003743CC0E074F7
:0C0C3F0018C0E01214D615811581D003F6
:050C4B00D002020CF8CC
:0C0C5000BA321AC002C003745FC0E07426
:0C0C5C0018C0E01214D615811581D003D9
:050C6800D002020CF8AF
:0C0C6D00BA331AC002C0037482C0E074E5
:0C0C790018C0E01214D615811581D003BC
:050C8500D002020CF892
:0C0C8A00BA3419C002C00374A4C0E074A6
:0C0C960018C0E01214D615811581D0039F
:040CA200D0028052AA
:0C0CA600BA3519C002C00374C4C0E07469
:0C0CB20018C0E01214D615811581D00383
:040CBE00D0028036AA
:0C0CC200BA3619C002C00374EBC0E07425
:0C0CCE0018C0E01214D615811581D00367
:040CDA00D002801AAA
:0C0CDE00BA3717C002C0037417C0E074DE
:0C0CEA0019C0E01214D615811581D0034A
:020CF600D0022A
:080CF800EB700DBA3202800816
:050D0000BA330280037C
:030D0500020E8F4C
:0A0D0800C002C0037443C0E0741978
:0D0D1200C0E01214D615811581D003D00267
:0E0D1F0090004FE4F0A3F090003B75F000C090
:0E0D2D0002C0031213A9D003D00290003B7540
:0E0D3B00F000C002C00312005FAC82AD83D096
:0D0D490003D0028C068D0774F82F400B902C
:0A0D5600004F7401F0E4A3F0801FC9
:0C0D6000C002C003C004C005747FC0E0E6
:0C0D6C007419C0E01214D615811581D056
:070D780005D004D003D002F6
:0E0D7F0090004FE0FEA3E0FF4E60958C068DC5
:0A0D8D00078F08750900EB700302E0
:020D97000E311B
:0A0D9900C004C00574B4C0E0741972
:0D0DA300C0E01214D615811581D005D004D2
:0E0DB00090004FE4F0A3F090004575F000C0F5
:0E0DBE0004C0051213A9D005D004900045759D
:0E0DCC00F000C004C0051202F3AB82A883D071
:0D0DDA0005D0048B01880674FF2E400B909D
:0A0DE700004F7401F0E4A3F0801F38
:0C0DF100C003C004C005C00074EAC0E0EC
:0C0DFD007419C0E01214D615811581D0C5
:070E090000D005D004D00366
:0E0E100090004FE0F9A3E0FE4960958C06AF1C
:070E1E000890000FEBF090BB
:0A0E25000010EFF08E821205B102FA
:020E2F000EB003
:0C0E3100BA32368C038D06900012E508E2
:0E0E3D00F08B82C004C0051205EFAB82D00519
:0D0E4B00D0047E00C003C006C004C00574C2
:080E580026C0E0741AC0E0128C
:0A0E600014D6E58124FAF5818046DE
:0C0E6A00BA3343900012E508F08C8212AD
:080E760005EFAB82900030741F
:0A0E7E003BF0A37400F0A37400F031
:070E88008B82120B21802177
:0B0E8F00BA3408758201120972801647
:080E9A00BA3505120EC2800EEC
:080EA200BA360512114A800660
:060EAA00BA37031211F635
:090EB0007431C0E0741AC0E012B4
:090EB90014D615811581020C1FED
:070EC20090007AE4F0A3F0B8
:090EC90074C6C0E0741AC0E01206
:060ED20014D61581158104
:0E0ED800900078E4F0A3F090005175F0001245
:090EE60013A990005175F00012EF
:0E0EEF00005FAA82AB83900076EAF0A3EBF0DE
:0E0EFD008A048B0574F82D400B900078740168
:060F0B00F0E4A3F08017E2
:0A0F1100C002C0037408C0E0741BA6
:0D0F1B00C0E01214D615811581D003D0025C
:0E0F2800900078E0FCA3E0FD4C60A5C002C084
:0A0F360003743CC0E0741BC0E0121D
:0A0F400014D615811581D003D002EC
:0E0F4A00900078E4F0A3F090005B75F000C01A
:0E0F580002C0031213A9D003D00290005B75F3
:0E0F6600F000C002C00312005FAC82AD83D069
:0D0F740003D0028C068D0774F82F400B90FF
:0A0F810000787401F0E4A3F0801F73
:0C0F8B00C002C003C004C0057408C0E030
:0C0F9700741BC0E01214D615811581D027
:070FA30005D004D003D002C9
:0E0FAA00900078E0FEA3E0FF4E6095ECC39A45
:0E0FB800FCED9BFDC002C003C004C005C004D8
:0A0FC600C005747CC0E0741BC0E09D
:0E0FD0001214D6E58124FCF581D005D004D0A2
:0E0FDE0003D0028C068D07EF30E71FC002C063
:0A0FEC0003C004C0057491C0E07456
:0C0FF6001BC0E01214D615811581D00537
:06100200D004D003D0026F
:0E1008008C068D07C3E49E74808FF063F08029
:0710160095F04003020EC932
:04101D007E007F00D2
:08102100C3EC9EED9F5001227B
:08102900EE540F60030210D128
:0E103100C004C005C002C003C004C005C00654
:0B103F00C007C002C00374B8C0E0741A
:0C104A001BC0E01214D6E58124FCF581E7
:0E105600D007D006D005D004D003D00274100D
:0D1064002AFAE43BFB90007AE4F0A3F09040
:0A1071000076E0F8A3E0F9890A75A3
:08107B000B00880490001AE547
:0C1083000AF090001B7410F0E4A3F09041
:07108F00001D7465F0A3745D
:0C10960000F0A3E4F08C82C002C003C094
:0E10A20004C005C006C007C000C0011206C48D
:0E10B000D001D000D007D006D005D004D00368
:0E10BE00D002900076740128F0E439A3F0D03F
:0510CC0005D0048013B3
:0E10D100900076E0F8A3E0F990007674012814
:0510DF00F0E439A3F06C
:0E10E400C004C00590007AE0F8A3E0F9E8240B
:0A10F20065F582E93400F583E0FCA7
:0E10FC007D00C002C003C004C005C006C007CE
:0C110A00C000C001C004C00574C0C0E0FB
:0C111600741BC0E01214D6E58124FCF527
:0E11220081D001D000D007D006D005D004D077
:0E11300003D00290007A740128F0E439A3F095
:05113E000EBE00010FD0
:07114300D005D004021021C9
:0C114A007582801209727A007B007C0024
:0C115600C3EB9440EC64809480400122C4
:0E11620090008B7410F0E4A3F08B828C83C09D
:0E11700002C003C0041215FEE5828583F0D094
:0E117E0004D003D00245F070330AC002C00353
:0A118C00C00474C4C0E0741BC0E08E
:0E1196001214D615811581D004D003D002901A
:0E11A400002C7401F08A82C002C003C0041245
:0811B2000A6BD004D003D00247
:0E11BA00C002C003C004120997AD82D004D059
:0E11C80003D0028D82C002C003C00412124187
:0E11D600D004D003D00290000AC002C003C0B3
:0E11E40004120548D004D003D0020BBB00015A
:0111F2000CF0
:0311F30002115690
:0E11F60075820A1212417582401209727A4007
:021204007B006D
:0E120600C002C003120997AC82D003D002755B
:0E1214008209C002C003C004121241D004D0EF
:0E12220003D0028C82C002C003121241D0031E
:07123000D0021ABAFF011BF6
:0A123700EA4B70CB90000A02054854
:03179300486900A2
:0617960048656C6C6F0059
:06179C00576F726C64003F
:0E17A2000A0D09090909092A2A2A2A2A2A2ACF
:0E17B0002A20436F6E74726F6C20436F6D6D54
:0E17BE00616E6473202A2A2A2A2A2A2A2A0AFD
:0E17CC000D09312E2057726974652042797420
:0E17DA0065200A0D09322E20526561642042FE
:0E17E800797465200A0D09332E204C434420ED
:0E17F600446973706C61790A0D09342E20432A
:0E1804006C656172204C43440A0D09352E209C
:0E1812004865782044756D700A0D09362E2049
:0E182000444452414D2044756D700A0D093745
:0E182E002E20434752414D2044756D70090035
:0E183C000A0A0D0909202A2A2A2A2A2A20200F
:0E184A00577269746520436F6D6D616E642086
:07185800202A2A2A2A2A0097
:0E185F000A0A0D0909202A2A2A2A2A2A2020EC
:0E186D005265616420436F6D6D616E642020D2
:07187B002A2A2A2A2A2A006A
:0E1882000A0A0D0909202A2A2A2A2A2A2020C9
:0E1890004C434420444953504C415920202AD7
:06189E002A2A2A2A2A0072
:0E18A4000A0A0D0909202A2A2A2A2A2A2020A7
:0E18B200436C656172204C434420202A2A2A90
:0418C0002A2A2A00A6
:0E18C4000A0A0D0909202A2A2A2A2A2A202087
:0E18D2004865782044756D7020436F6D6D6120
:0B18E0006E6420202A2A2A2A2A2A00EF
:0E18EB000A0A0D0909202A2A2A2A2A2A202060
:0E18F900444452414D2044756D7020436F6D84
:0E1907006D616E6420202A2A2A2A2A2A0A0AE2
:021915000D00C3
:0E1917000A0A0D0909202A2A2A2A2A2A202033
:0E192500434752414D2044756D7020436F6D55
:0E1933006D616E6420202A2A2A2A2A2A0A0AB6
:021941000D0097
:0E1943000A0A0D20456E7465722041646472BC
:0E19510065737320696E2048657820696E20EA
:0E195F0048484820666F726D6174206265749E
:0E196D007765656E2030303020746F2037466D
:04197B00463A2000C8
:0E197F000A0A0D20456E7465722076616C694F
:0E198D0064206E756D6265722041646472653F
:0E199B007373206265747765656D203030309F
:0B19A90020616E64203746463A2000A3
:0E19B4000A0A0D20456E74657220446174614C
:0E19C20020696E2048657820696E2048482014
:0E19D000666F726D6174206265747765656E76
:0C19DE0020303020746F2046463A200074
:0E19EA000A0A0D20456E7465722076616C69E4
:0E19F80064206461746120696E204865782067
:0E1A0600696E20484820666F726D6174206220
:0E1A140065747765656E20303020746F204653
:041A2200463A200020
:0B1A26000A0A0D25783A2578200A00F6
:0E1A31000A0A0A0D09090909092A2A2A2A2A7D
:0E1A3F002A2A2A20436F6E74726F6C20436F48
:0E1A4D006D6D616E6473202A2A2A2A2A2A2AC5
:0E1A5B002A0A0D312E205772697465204279D7
:0E1A69007465200A0D322E2052656164204201
:0E1A7700797465200A0D332E204C4344204420
:0E1A85006973706C61790A0D342E20436C6514
:0E1A93006172204C43440A0D352E20486578C0
:0E1AA1002044756D700A0D362E2044445241CB
:0E1AAF004D2044756D700A0D372E20434752AE
:091ABD00414D2044756D700900D3
:0E1AC6000A0A0D20456E746572205374617219
:0E1AD40074204164647265737320696E20484B
:0E1AE200657820696E2048484820666F726D56
:0E1AF0006174206265747765656E2030303059
:0A1AFE0020746F203746463A20009E
:0E1B08000A0A0D456E7465722076616C696480
:0E1B1600206E756D62657220416464726573A5
:0E1B240073206265747765656D203030302067
:0A1B3200616E64203746463A200039
:0E1B3C000A0A0D20456E74657220456E642005
:0E1B4A004164647265737320696E204865788B
:0E1B580020696E2048484820666F726D6174E7
:0E1B6600206265747765656E20303030207423
:081B74006F203746463A2000BD
:0E1B7C000A0D09546F74616C20427974657310
:071B8A003A2025640A0D005A
:0E1B9100456E64206164647265737320736D29
:0E1B9F00616C6C6572207468616E20737461F5
:0B1BAD00727420616464726573730041
:081BB8000A0A0D25783A090024
:041BC000257809007B
:031BC4000A0D0007
:021BCF0000A074
:021BD10000C052
:06124100E58290007CF044
:0C1247003099FD90007CE0F599C29922DE
:0512530010980280FB71
:05125800AA998A822220
:0E125D0075C800759B00858787758DFD758BA4
:0B126B00004388404398527589202200
:06003200E478FFF6D8FDA2
:08001000790CE94400601B7A41
:0500180001901BC778F8
:03001D009475A037
:0A00200000E493F2A308B800020503
:08002A00A0D9F4DAF275A0FF81
:0E127600AAF0AB83E58290007DF0A3EBF0A31D
:0E128400EAF07A007B0090007DE0FCA3E0FD24
:03129200A3E0FED8
:0E1295008C828D838EF012171AFF6039C3749D
:0E12A300B98FF063F08095F04007EF648094FF
:0312B100B0502614
:0E12B4008C828D838EF012171AFFBF2D0280E0
:0112C2001714
:0512C300BF2B028012A8
:0512C8000CBC00010D4B
:0D12CD0090007DECF0A3EDF0A3EEF080BBEF
:0E12DA0090007DECF0A3EDF0A3EEF08C828D81
:0C12E800838EF012171AFFE4BF2D0104E2
:0812F400F888017003BF2B0E06
:0E12FC0090007D74012CF0E43DA3F0A3EEF011
:0B130A0090007DE0FCA3E0FDA3E0FEEE
:0E1315008C828D838EF012171AFF6068C3EF72
:0E132300648094B0406074B98FF063F08095E0
:0E133100F04055C001900089740AF0E4A3F06A
:0E133F008A828B83C004C005C006C007C001AF
:08134D001215DE85820C858378
:0C1355000DD001D007D006D005D004EF69
:0E1361003395E0F8EF24D0FFE834FFF8EF25D5
:0A136F000CFAE8350DFB0CBC000180
:011379000D66
:0E137A0090007DECF0A3EDF0A3EEF0D001802A
:011388008CD8
:0E13890090007DECF0A3EDF0A3EEF0E960091A
:09139700C3E49AFCE49BFD800410
:0413A0008A048B052B
:0513A4008C828D832204
:0E13A900AAF0AB83E582900080F0A3EBF0A3E6
:0E13B700EAF0900080E0FAA3E0FBA3E0FC90D7
:0E13C5000083EAF0A3EBF0A3ECF0900086E4C6
:0313D300F0A3F094
:0A13D600121253AA82BA0802800D19
:0513E000BA0A0280675B
:0513E500BA0D02806258
:0313EA0002147F6B
:0E13ED00900086E0FBA3E0FC4B60DE758208FA
:0E13FB00C003C004121241D004D0037582203A
:0E140900C003C004121241D004D00375820843
:0E141700C003C004121241D004D00390008321
:0D142500E0FDA3E0FEA3E0FF1DBDFF011EE2
:0E143200900083EDF0A3EEF0A3EFF01BBBFFE4
:02144000011C8D
:0A144200900086EBF0A3ECF0808A26
:0D144C0075820D12124175820A1212419034
:0E1459000083E0FBA3E0FCA3E0FD8B828C830C
:0E1467008DF0E41214BD900080E0FBA3E0FCC9
:0A147500A3E0FD8B828C838DF02232
:0E147F00900083E0FBA3E0FCA3E0FD8B828CD9
:0E148D00838DF0EA1214BD90008374012BF0E1
:0E149B00E43CA3F0A3EDF0900086E0FBA3E09C
:0E14A900FC90008674012BF0E43CA3F08A82D4
:0614B7001212410213D6DF
:0E14BD0020F71030F6118883A88220F507F67C
:0514CB00A883758300F9
:0114D00022F9
:0314D100F280F7AF
:0214D400F02204
:0514D600C00E85810E2F
:0B14DB00E50E24FDF8868318868218B9
:0E14E600E493A324DB600C242560051215C3DB
:0214F40080F086
:0314F6000215DB01
:0914F900D2D5E493A3C083C082A4
:03150200B47314AB
:0915050086F0188683188682180E
:0B150E0012171A6053A31215C380F5DA
:0A151900B46307E6181215C38043FF
:0E152300B46417E630E74618E6F42401F60833
:0C153100E6F43400F6742D1215C380336C
:0A153D00B4782D868318868218E426
:0B1547001215B4E5831215B3E5831202
:0A15520015B4E5821215B3E582120C
:0A155C0015B430D50574301215C324
:07156600D082D0830214E6DD
:03156D00B475F65C
:06157000E6FA18E6F91886
:0D1576007C107D2712159EFF7CE87D03127E
:0E158300159EC4F5837C647D0012159E428384
:0D159100E975F00A84C445F0F582EF80A9E9
:02159E007B00D0
:0E15A0000BC3E99CF9EA9DFA50F61BE92CF901
:0515AE00EA3DFAEB220A
:0115B300C473
:0715B400540F700320D51F46
:0815BB00C2D52490D43440D4C1
:0E15C300C083C082C0F0F582E8C0E012124181
:0915D100D0E0F8D0F0D082D08304
:0115DA0022EE
:0315DB00D00E220D
:0E15DE00AA83AB828BF0900089E0A4F8A9F0FC
:0E15EC008AF0E0A429F98BF0A3E0A429F5838E
:0415FA00888222229F
:0E15FE00AA83E58290008DF0A3EAF090008DA4
:0E160C00E0FAA3E0FB30E709C3E49AFCE49B9C
:03161A00FD80044C
:04161D008A048B05AB
:0E1621008C028D0390008BE0FCA3E0FD30E70F
:0A162F0009C3E49CFEE49DFF800463
:041639008C068D0787
:0D163D0090008FEEF0A3EFF08A828B8312F5
:0E164A00166CAA82AB8390008DE0FCA3E0FD3D
:0E16580030E70CC3E49AFCE49BFD8C828D838A
:011666002261
:051667008A828B832242
:0E166C00AA83E582900091F0A3EAF09000932B
:0C167A00E4F0900091E0FAA3E0FB7C009B
:0E16860090008FE0FDA3E0FE235401FF7037BB
:0E169400EECD25E0CD33FE90008FEDF0A3EEFD
:0E16A200F090008FE0FDA3E0FEC3EA9DEB9EFA
:0E16B0005011EEC313CD13CDFE90008FEDF060
:0516BE00A3EEF080081E
:0816C3000C900093ECF080BBD9
:0516CB00900093E0FA1D
:0E16D000900091E0FBA3E0FC90008FE0FDA3F2
:0E16DE00E0FEC3EB9DEC9E400B900091EBC331
:0616EC009DF0EC9EA3F04E
:0E16F20090008FE0FBA3E0FCC313CB13CBFCF6
:0E17000090008FEBF0A3ECF08A031AEB70C29E
:0C170E00900091E0FAA3E08A82F58322AB
:080038007800E84400600A7939
:030040000075A0A8
:0600430000E4F309D8FC03
:080049007894E84400600C7992
:0B00510001900000E4F0A3D8FCD9FAF5
:0300030075810EF6
:0A000600121736E5826003020BBDFD
:0E171A0020F71430F6148883A88220F507E625
:06172800A8837583002276
:03172E00E280F75F
:03173100E493221C
:02173400E022B1
:041736007582002296
:00000001FF
