:10005F00AA83E582900000F0A3EAF0900000E0FA96
:10006F00A3E0FBBA0005BB0002800F1ABAFF011B09
:10007F00900000EAF0A3EBF080E9900000EAF0A313
:10008F00EBF022AA83E582900002F0A3EAF0900041
:10009F0002E0FAA3E0FBBA0005BB0002801D90004E
:1000AF0070C002C00312005FD003D0021ABAFF0162
:1000BF001B900002EAF0A3EBF080DB900002EAF065
:1000CF00A3EBF022E582900004F0900004E0FABA6E
:1000DF00000280129003E8C002120092D0021A9020
:1000EF000004EAF080E9900004EAF022E582900033
:1000FF0039F0120423900038E025E0FA4302A08A79
:10010F008212045B1204D2900039E0FAF5821204D5
:10011F005B1204D2900037E0FAF58212045B1204EE
:10012F00D2120440900005020092E58290003BF04D
:10013F0012042390003AE025E0FA74A04AFBF582FE
:10014F00C00212045BD002C0021204D2D00290008F
:10015F003BE0FBF582C00212045BD002C002120426
:10016F00D2D002C002120423D0024302A18A82120B
:10017F00045B1204D2120488AA82C0021204DAD0DD
:10018F0002C002120440D00290000AC00212005FA7
:10019F00D0028A8222E582900041F0900040E0FA7E
:1001AF00900041E0FB90003CE0FCA3E0FDA3E0FEEB
:1001BF0090003FE0FFBF0002803F8C828D838EF066
:1001CF00121729F8A3AC82AD83900037E8F09000A6
:1001DF0038EAF08B82C002C003C004C005C006C05D
:1001EF00071200FBD007D006D005D004D003D002F1
:1001FF000B900041EBF01F80BC900041EBF022E52B
:10020F0082900047F0900046E0FA900047E0FB90A4
:10021F000042E0FCA3E0FDA3E0FE900045E0FFBF3D
:10022F000002803C90003AEAF08B82C002C003C00B
:10023F0004C005C006C007120139A882D007D00636
:10024F00D005D004D003D0028C828D838EF0E812BB
:10025F0014CCA3AC82AD830B900047EBF01F80BF93
:10026F00900047EBF022E58290004CF090004BE0BD
:10027F00FA900048E0FBA3E0FCA3E0FD90004CE007
:10028F00FE8B828C838DF0121729FFA3AB82AC8378
:10029F00900037EFF0900038EAF08E82C002C00372
:1002AF00C004C005C0061200FBD006D005D004D094
:1002BF0003D0020E90004CEEF0EB24FFFFEC34FF66
:1002CF00F88D018F82888389F0121729FF600280D1
:1002DF00B090004CEEF022E582900051F09000506B
:1002EF00E0FA90004DE0FBA3E0FCA3E0FD9000518D
:1002FF00E0FE90003AEAF08E82C002C003C004C054
:10030F0005C006120139AF82D006D005D004D00344
:10031F00D0028B828C838DF0EF1214CCA3AB82AC06
:10032F00830E900051EEF0BF00C8900051EEF02206
:10033F00E582900055F0120423900052E025E0FA78
:10034F0074A04AFBF582C00212045BD002C00212F5
:10035F0004D2D002900055E0FBF582C00212045B7C
:10036F00D002C0021204D2D002C002120423D00263
:10037F004302A18A8212045B1204D2900053E0FA66
:10038F00A3E0FB7C007D00C3EC9AED64808BF063EF
:10039F00F08095F05045EC2405FEED3400FFC002CF
:1003AF00C003C004C005C006C007120488A882D0CD
:1003BF0007D006D005D004D003D0028E828F83E8F9
:1003CF00F0C002C003C004C0051204D2D005D0048F
:1003DF00D003D0020CBC00AF0D80ACEA2405FAEBC1
:1003EF003400FBC002C003120488AC82D003D002D9
:1003FF008A828B83ECF01204DA12044090000575A8
:10040F00F0002290000112005FD2919000011200C3
:10041F005FC29122C291D29290000112005FD291DD
:10042F0090000112005FC29290000112005FC29112
:10043F0022C29190000112005FC29290000112003F
:10044F005FD29190000112005FD29222E58290005C
:10045F0056F07A00BA0800501D900056E0FB339218
:10046F0092C002C003120412D003D002EB2BFB90F8
:10047F000056F00A80DED29222900057E4F0D2921A
:10048F007A00BA08005035900001C00212005FD008
:10049F0002D291900001C00212005FD0029000576B
:1004AF00E025E0FB900057F0900057E0FBE4A292AC
:1004BF0033FC9000574BF0C2910A80C6900057E072
:1004CF00F58222C292120412D29222D292120412F6
:1004DF00D29122C2939000C81207209000EDE0FA4B
:1004EF00A3E0FB8A828B837430F090003C120720CC
:1004FF009000EDE0FAA3E0FB8A828B837430F090DA
:10050F0000051207209000EDE0FAA3E0FB8A828B32
:10051F00837430F01206189000EDE0FAA3E0FB8A26
:10052F00828B837438F09000011207201206189006
:10053F0000EDE0FAA3E0FB8A828B837408F01206C9
:10054F00189000EDE0FAA3E0FB8A828B83740CF025
:10055F001206189000EDE0FAA3E0FB8A828B8374F9
:10056F0006F01206189000EDE0FAA3E0FB8A828BEA
:10057F00837401F0900001020720E582900058F08B
:10058F00D2939000011207209000EDE0FAA3E0FB58
:10059F00900058E0FC8A828B83F0020618E5829067
:1005AF000059F0C2939000011207209000EDE0FA7D
:1005BF00A3E0FB900059E0FC8A828B83F0D290027B
:1005CF000618D2939000011207209000EFE0FAA3D3
:1005DF00E0FB8A828B83E0FA90005AF012061890A3
:1005EF00005AE0F58222E58290005BF0C293900002
:1005FF00011207209000EDE0FAA3E0FB90005BE012
:10060F00FC8A828B83F0020618C2939000EFE0FA07
:10061F00A3E0FB8A828B83E0FA90005CF0900001EC
:10062F0012072090005CE0FA30E7149000EFE0FA38
:10063F00A3E0FB8A828B83E0FA90005CF080E4C237
:10064F009022AAF0AB83E58290005DF0A3EBF0A3BC
:10065F00EAF090005DE0FAA3E0FBA3E0FC7D007EF2
:10066F0000ED2AFFEE3BF88C018F82888389F01210
:10067F001729FF60208F82C002C003C004C005C0CD
:10068F0006120589D006D005D004D003D0020DBDC7
:10069F0000CF0E80CC22E582900061F0900061E0E7
:1006AF00FABA0113900060E0FABA11005009747F92
:1006BF002AFAF5820205F5900061E0FABA0213906A
:1006CF000060E0FABA1100500974BF2AFAF58202ED
:1006DF0005F5900061E0FABA0313900060E0FABAF2
:1006EF0011005009748F2AFAF5820205F590006106
:1006FF00E0FABA0413900060E0FABA1100500974DE
:10070F00CF2AFAF5820205F590174575F08002069B
:10071F0051AA83E582900062F0A3EAF0900062E0B4
:10072F00FAA3E0FB7C007D00C3EC9AED64808BF0B4
:10073F0063F08095F050147E647F001EBEFF011F92
:0C074F00EE4F70F70CBC00E00D80DD22C6
:061745004572726F720094
:041ACC0000A000C0B6
:03000000020003F8
:03005C0002075B3D
:10075B0012076780FE438EC090000022D2901204D5
:10076B00E2120B1F7582001205F57582851205F5D5
:10077B0090174B75F0801206519000607403F07562
:10078B0082021206A590174E75F080120651745A0C
:10079B00C0E07417C0E01214E5158115813098FD87
:1007AB00120B15AA82C002120B03D002E4BA31015C
:1007BB0004FB601AC002C00374D8C0E07417C0E019
:1007CB001214E515811581D003D002020847BA3205
:1007DB0019C002C00374ECC0E07417C0E01214E53A
:1007EB0015811581D003D0028052BA3319C002C0D3
:1007FB000374FFC0E07417C0E01214E51581158176
:10080B00D003D0028036BA3419C002C0037411C0B1
:10081B00E07418C0E01214E515811581D003D002E5
:10082B00801ABA3517C002C0037421C0E07418C017
:10083B00E01214E515811581D003D002EB700DBACF
:10084B0032028008BA33028003020AD0C002C0030E
:10085B007438C0E07418C0E01214E515811581D00E
:10086B0003D00290009675F000C002C0031213B8BB
:10087B00D003D00290009675F000C002C003121294
:10088B0085AC82AD83D003D0028C068D07C3EE946A
:10089B0009EF9400500FEC4D600B9000AA7401F01F
:1008AB00E4A3F08026C002C003C004C0057465C079
:1008BB00E07418C0E01214E515811581D005D00441
:1008CB00D003D0029000AAE4F0A3F09000AAE0FEBF
:1008DB00A3E0FF4E608DC002C003C004C005747F4F
:1008EB00C0E07418C0E01214E515811581D005D055
:1008FB0004D003D0029000AAE4F0A3F09000A075FE
:10090B00F000C002C003C004C0051213B8D005D05C
:10091B0004D003D0029000A075F000C002C003C049
:10092B0004C005120FC6AE82AF83D005D004D0032E
:10093B00D0028E008F0174FF29400B9000AA740126
:10094B00F0E4A3F08027C002C003C004C005C006BA
:10095B00C00774B8C0E07418C0E01214E515811517
:10096B0081D007D006D005D004D003D0029000AAC6
:10097B00E0F8A3E0F9487003020900EB7003020AE8
:10098B0059C004C005C006C00774EAC0E07418C0A3
:10099B00E01214E515811581D007D006D005D004DF
:1009AB008E038F00C3E89401E433FB9000AAE4F0BC
:1009BB00A3F09000A075F000C003C004C005C006F2
:1009CB00C0071213B8D007D006D005D004D00390BF
:1009DB0000A075F000C003C004C005C006C007121C
:1009EB000FC6858208858309D007D006D005D004B1
:1009FB00D003EB600B9000AA7401F0E4A3F080230A
:100A0B00C003C004C005C006C0077420C0E0741941
:100A1B00C0E01214E515811581D007D006D005D0A2
:100A2B0004D0039000AAE0F8A3E0F9487003020990
:100A3B00B68E03A808A909900037E8F08C008D0149
:100A4B0018900038E8F08B821200FB020AF1BA32E0
:100A5B00478C028D00EC24FFF9ED34FF89037C00F9
:100A6B008E058F01EE2CF50AEF3BF50B8A001890E3
:100A7B00003AE8F08D82120139A8827B00C000C0D9
:100A8B0003C00AC00B745BC0E07419C0E01214E51C
:100A9B00E58124FAF581804EBA334B1C90003AEC79
:100AAB00F08E82120139AB82900096E0FC9000AD83
:100ABB00F09000AE74A0F0A37400F0A3E4F08B826E
:100ACB00120B388021BA34087582011205AC8016DE
:100ADB00BA3505120BDF800EBA36051211E8800607
:100AEB00BA3703121257745AC0E07417C0E01214CD
:100AFB00E5158115810207A8E5829000ACF03099CD
:100B0B00FD9000ACE0F599C2992210980280FBAAE7
:100B1B00998A822275C800759B00858787758DFD24
:100B2B00758B0043884043985275892022E582904B
:100B3B0000B1F07464C0E07419C0E01214E51581C3
:100B4B0015819000B7E4F0A3F09000B275F000129D
:100B5B0013B89000B275F000121285AA82AB838A8B
:100B6B00048B05C3EC9404ED9400500B9000B77408
:100B7B0001F0E4A3F08017C002C003748AC0E074D4
:100B8B0019C0E01214E515811581D003D002900035
:100B9B00B7E0FCA3E0FD4C60A90A9000607401F083
:100BAB008A821206A59000ADE0FA1A8A8212058994
:100BBB009000AEE0FAA3E0FBA3E0FC8A828B838C6F
:100BCB00F012065175823A1205899000B1E0FAF5E0
:100BDB008202058974B7C0E07419C0E01214E515E0
:100BEB008115819000B975F0001213B89000B9759A
:100BFB00F000121285AA82AB838A048B05C3EC9496
:100C0B0009ED9400500FEA4B600B9000CF7401F08C
:100C1B00E4A3F0801EC002C0037465C0E07418C06A
:100C2B00E01214E515811581D003D0029000CFE4BA
:100C3B00F0A3F09000CFE0FCA3E0FD4C60A5C00258
:100C4B00C00374EAC0E07419C0E01214E5158115F5
:100C5B0081D003D0029000CFE4F0A3F09000C375D5
:100C6B00F000C002C0031213B8D003D0029000C32F
:100C7B0075F000C002C003120FC6AC82AD83D00367
:100C8B00D0029000CDECF0A3EDF08C068D0774FF35
:100C9B002F400B9000CF7401F0E4A3F0801FC00233
:100CAB00C003C004C00574B8C0E07418C0E01214CF
:100CBB00E515811581D005D004D003D0029000CF6B
:100CCB00E0FEA3E0FF4E608DC002C003C004C00570
:100CDB007429C0E0741AC0E01214E515811581D097
:100CEB0005D004D003D0029000B975F000C002C04B
:100CFB0003C004C0051213B8D005D004D003D00232
:100D0B009000B975F000C002C003C004C0051212F8
:100D1B0085AE82AF83D005D004D003D0028E008F76
:100D2B0001C3E89409E99400500FEE4F600B90005B
:100D3B00CF7401F0E4A3F0802EC002C003C004C046
:100D4B0005C006C0077465C0E07418C0E01214E556
:100D5B0015811581D007D006D005D004D003D00261
:100D6B009000CFE4F0A3F09000CFE0F8A3E0F948B7
:100D7B007003020CF2C002C003C004C005C006C061
:100D8B0007745AC0E0741AC0E01214E5158115817E
:100D9B00D007D006D005D004D003D002C006C007C0
:100DAB009000CFE4F0A3F09000C375F000C002C038
:100DBB0003C004C005C006C0071213B8D007D00685
:100DCB00D005D004D003D0029000C375F000C00250
:100DDB00C003C004C005C006C007120FC685820C35
:100DEB0085830DD007D006D005D004D003D002AE3A
:100DFB000CAF0DC3EF9401E433D007D006600B901A
:100E0B0000CF7401F0E4A3F08027C002C003C0043C
:100E1B00C005C006C00774B8C0E07418C0E0121457
:100E2B00E515811581D007D006D005D004D003D0AD
:100E3B00029000CFE0F8A3E0F9487003020DA78EF3
:100E4B00077E00E50C2EFEE50D3FFFEEC39CFEEF8B
:100E5B009DFF8A017800EEC398FEEF99FF8E008FFD
:100E6B0001E930E727C002C003C004C005C006C0BB
:100E7B00077497C0E0741AC0E01214E51581158150
:100E8B00D007D006D005D004D003D0028E008F013E
:100E9B00C3E498748089F063F08095F04003020BF3
:100EAB00DF8A058B001D900052EDF0900053EEF0A1
:100EBB00A3EFF08C82C002C003C006C00712033F31
:100ECB00AC82AD83A8F0D007D006D003D0028E1031
:100EDB008F11E4F50CF50DC3E510950CE511950D8F
:100EEB00500122E50C540F60028073EA24FFF9EBEA
:100EFB0034FF890679009000CDE0F50EA3E0F50FE5
:100F0B00E50E29F9E50F3EFEC002C003C004C00583
:100F1B00C000C001C00674BEC0E0741AC0E0121459
:100F2B00E5E58124FCF581D000D005D004D003D0B9
:100F3B0002E50EB4FF08E50F700474018001E46054
:100F4B000E9000CDE4F0A3F00ABA00250B8022909E
:100F5B0000CD7401250EF0E4350FA3F08013900043
:100F6B00CDE0F9A3E0FE9000CD740129F0E43EA39F
:100F7B00F0E50C2CFEE50D3DFF88018E828F8389F9
:100F8B00F0121729FE7F00C002C003C004C005C0C9
:100F9B0000C006C00774C5C0E0741AC0E01214E5A7
:100FAB00E58124FCF581D000D005D004D003D0021C
:100FBB00050CE4B50C02050D020EE2AAF0AB83E5BD
:100FCB00829000D1F0A3EBF0A3EAF09000D1E0FA0D
:100FDB00A3E0FBA3E0FC74022AFDE43BFE8C078D2F
:100FEB00828E838FF0121729FD6004900102228AF2
:100FFB00828B838CF0121729FDC3648094B0403E22
:10100B0074B98DF063F08095F04033ED3395E0FECD
:10101B00ED24D0FDEE34FFFEC454F0CDC4CD6DCD28
:10102B0054F0CD6DFE9000D4EDF0A3EEF09000D116
:10103B0074012AF0E43BA3F0A3ECF00210FF900044
:10104B00D1E0FAA3E0FBA3E0FC8A828B838CF01245
:10105B001729FDC3648094E1403D74E68DF063F085
:10106B008095F04032ED3395E0FEED24A9FDEE3492
:10107B00FFFEC454F0CDC4CD6DCD54F0CD6DFE90BC
:10108B0000D4EDF0A3EEF09000D174012AF0E43B14
:10109B00A3F0A3ECF0805D9000D1E0FAA3E0FBA3FA
:1010AB00E0FC8A828B838CF0121729FDC364809439
:1010BB00C1403D74C68DF063F08095F04032ED3346
:1010CB0095E0FEED24C9FDEE34FFFEC454F0CDC413
:1010DB00CD6DCD54F0CD6DFE9000D4EDF0A3EEF0C0
:1010EB009000D174012AF0E43BA3F0A3ECF0800450
:1010FB00900101229000D1E0FAA3E0FBA3E0FC8A6F
:10110B00828B838CF0121729FAC3648094B0402D24
:10111B0074B98AF063F08095F04022EA3395E0FBD6
:10112B00EA24D0FAEB34FFFB9000D4E0FCA3E0FD03
:10113B009000D4EA2CF0EB3DA3F00211DC9000D12F
:10114B00E0FAA3E0FBA3E0FC8A828B838CF01217FE
:10115B0029FAC3648094E1402C74E68AF063F08032
:10116B0095F04021EA3395E0FBEA24A9FAEB34FF32
:10117B00FB9000D4E0FCA3E0FD9000D4EA2CF0EB54
:10118B003DA3F0804C9000D1E0FAA3E0FBA3E0FC80
:10119B008A828B838CF0121729FAC3648094C14026
:1011AB002C74C68AF063F08095F04021EA3395E009
:1011BB00FBEA24C9FAEB34FFFB9000D4E0FCA3E07C
:1011CB00FD9000D4EA2CF0EB3DA3F08004900101DC
:1011DB00229000D4E0FAA3E08A82F5832275828004
:1011EB001205AC7A007B00C3EA9440EB64809480D8
:1011FB0050599000E47410F0E4A3F08A828B83C002
:10120B0002C00312160DE5828583F0D003D0024590
:10121B00F07017C002C00374C9C0E0741AC0E012AA
:10122B0014E515811581D003D002C002C00312054D
:10123B00D1AC82D003D0028C82C002C003120B034C
:10124B00D003D0020ABA009F0B809C2275824012F9
:10125B0005AC7A207B00C002C0031205D1AC82D052
:10126B0003D0028C82C002C003120B03D003D00246
:0A127B001ABAFF011BEA4B70DD22D6
:10174B0048690048656C6C6F20576F726C64000AB7
:10175B000D436F6E74726F6C20436F6D6D616E64B1
:10176B00733A200A0D312E20577269746520427925
:10177B007465200A0D322E20526561642042797403
:10178B0065200A0D332E204C434420446973706C42
:10179B0061790A0D342E20436C656172204C4344F1
:1017AB000A0D352E204865782044756D700A0D366C
:1017BB002E20444452414D2044756D700A0D372E36
:1017CB0020434752414D2044756D7009000A0A0DA4
:1017DB00090920577269746520436F6D6D616E64E2
:1017EB00000A0A0D0909205265616420436F6D6D73
:1017FB00616E64000A0A0D0909204C4344204449D8
:10180B0053504C4159000A0A0D090920436C65617C
:10181B0072204C4344000A0A0D09092048657820C0
:10182B0044756D7020436F6D6D616E64000A0A0D17
:10183B0020456E746572205061676520626C6F6322
:10184B006B206E756D626572206265747765656E6F
:10185B00203120746F20383A20000A0A0D456E742F
:10186B00657220612076616C6964206E756D6265AE
:10187B00723A20000A0A0D20456E7465722041648D
:10188B00647265737320696E2048657820696E20D9
:10189B00484820666F726D61742062657477656568
:1018AB006E20303020746F2046463A20000A0A0D15
:1018BB00456E7465722076616C6964206E756D621D
:1018CB006572204164647265737320626574776519
:1018DB00656D20303020616E642046463A20000A48
:1018EB000A0D20456E746572204461746120696E27
:1018FB002048657820696E20484820666F726D61BC
:10190B0074206265747765656E20303020746F20AB
:10191B0046463A20000A0A0D456E746572207661C0
:10192B006C6964206461746120696E20486578205D
:10193B00696E20484820666F726D61742062657411
:10194B007765656E20303020746F2046463A200054
:10195B000A0A0D25783A2578000A0A0D20456E747F
:10196B00657220526F77206E756D626572206265AD
:10197B00747765656E203020746F20333A20000A2F
:10198B000A0D20456E7465722076616C6964207255
:10199B006F77206E756D6265722062657477656511
:1019AB006D203020616E6420333A20000A0A0D202E
:1019BB00456E746572205374617274205061676553
:1019CB0020626C6F636B206E756D62657220626551
:1019DB00747765656E203120746F20383A20000AC9
:1019EB000A0D20456E746572205374617274204128
:1019FB0064647265737320696E2048657820696E24
:101A0B0020484820666F726D61742062657477653B
:101A1B00656E20303020746F2046463A20000A0A4B
:101A2B000D20456E74657220456E642050616765AC
:101A3B0020626C6F636B206E756D626572206265E0
:101A4B00747765656E203120746F20383A20000A58
:101A5B000A0D20456E74657220456E6420416464E6
:101A6B007265737320696E2048657820696E204813
:101A7B004820666F726D6174206265747765656E60
:101A8B0020303020746F2046463A2000456E64208B
:101A9B006164647265737320736D616C6C65722025
:101AAB007468616E20737461727420616464726512
:101ABB007373000A0D25783A0900257809000A0D81
:011ACB00001A
:041AD00000A000C0B2
:06003200E478FFF6D8FDA2
:100010007908E94400601B7A01901ACC78ED75A04C
:1000200000E493F2A308B8000205A0D9F4DAF2754F
:02003000A0FF2F
:10128500AAF0AB83E5829000D6F0A3EBF0A3EAF0D9
:101295007A007B009000D6E0FCA3E0FDA3E0FE8C85
:1012A500828D838EF0121729FF6039C374B98FF0D0
:1012B50063F08095F04007EF648094B050268C82EF
:1012C5008D838EF0121729FFBF2D028017BF2B02C9
:1012D50080120CBC00010D9000D6ECF0A3EDF0A33C
:1012E500EEF080BB9000D6ECF0A3EDF0A3EEF08C11
:1012F500828D838EF0121729FFE4BF2D0104F88833
:10130500017003BF2B0E9000D674012CF0E43DA3B1
:10131500F0A3EEF09000D6E0FCA3E0FDA3E0FE8C88
:10132500828D838EF0121729FF6068C3EF64809465
:10133500B0406074B98FF063F08095F04055C001FE
:101345009000E2740AF0E4A3F08A828B83C004C0A3
:1013550005C006C007C0011215ED858212858313ED
:10136500D001D007D006D005D004EF3395E0F8EFD3
:1013750024D0FFE834FFF8EF2512FAE83513FB0C0B
:10138500BC00010D9000D6ECF0A3EDF0A3EEF0D07B
:1013950001808C9000D6ECF0A3EDF0A3EEF0E960AF
:1013A50009C3E49AFCE49BFD80048A048B058C82C6
:1013B5008D8322AAF0AB83E5829000D9F0A3EBF0F0
:1013C500A3EAF09000D9E0FAA3E0FBA3E0FC9000CB
:1013D500DCEAF0A3EBF0A3ECF09000DFE4F0A3F07F
:1013E500120B15AA82BA0802800DBA0A028067BAE2
:1013F5000D02806202148E9000DFE0FBA3E0FC4B3F
:1014050060DE758208C003C004120B03D004D0034C
:10141500758220C003C004120B03D004D00375826B
:1014250008C003C004120B03D004D0039000DCE015
:10143500FDA3E0FEA3E0FF1DBDFF011E9000DCED56
:10144500F0A3EEF0A3EFF01BBBFF011C9000DFEB58
:10145500F0A3ECF0808A75820D120B0375820A12D7
:101465000B039000DCE0FBA3E0FCA3E0FD8B828C8A
:10147500838DF0E41214CC9000D9E0FBA3E0FCA32B
:10148500E0FD8B828C838DF0229000DCE0FBA3E0F5
:10149500FCA3E0FD8B828C838DF0EA1214CC9000C6
:1014A500DC74012BF0E43CA3F0A3EDF09000DFE049
:1014B500FBA3E0FC9000DF74012BF0E43CA3F08A71
:1014C50082120B030213E520F71030F6118883A86A
:1014D5008220F507F6A88375830022F280F7F022B3
:1014E500C014858114E51424FDF8868318868218B6
:1014F500E493A324DB600C242560051215D280F04B
:101505000215EAD2D5E493A3C083C082B4731486CE
:10151500F0188683188682181217296053A31215AE
:10152500D280F5B46307E6181215D28043B4641768
:10153500E630E74618E6F42401F608E6F43400F64A
:10154500742D1215D28033B4782D868318868218AF
:10155500E41215C3E5831215C2E5831215C3E582AE
:101565001215C2E5821215C330D50574301215D295
:10157500D082D0830214F5B475F6E6FA18E6F918A8
:101585007C107D271215ADFF7CE87D031215ADC4D7
:10159500F5837C647D001215AD4283E975F00A84FC
:1015A500C445F0F582EF80A97B000BC3E99CF9EAFD
:1015B5009DFA50F61BE92CF9EA3DFAEB22C4540FCB
:1015C500700320D51FC2D52490D43440D4C083C025
:1015D50082C0F0F582E8C0E0120B03D0E0F8D0F04D
:1015E500D082D08322D01422AA83AB828BF09000C4
:1015F500E2E0A4F8A9F08AF0E0A429F98BF0A3E0D1
:10160500A429F58388822222AA83E5829000E6F048
:10161500A3EAF09000E6E0FAA3E0FB30E709C3E4B3
:101625009AFCE49BFD80048A048B058C028D039053
:1016350000E4E0FCA3E0FD30E709C3E49CFEE49D83
:10164500FF80048C068D079000E8EEF0A3EFF08A8A
:10165500828B8312167BAA82AB839000E6E0FCA303
:10166500E0FD30E70CC3E49AFCE49BFD8C828D839E
:10167500228A828B8322AA83E5829000EAF0A3EA7C
:10168500F09000ECE4F09000EAE0FAA3E0FB7C00C7
:101695009000E8E0FDA3E0FE235401FF7037EECD96
:1016A50025E0CD33FE9000E8EDF0A3EEF09000E8E4
:1016B500E0FDA3E0FEC3EA9DEB9E5011EEC313CD02
:1016C50013CDFE9000E8EDF0A3EEF080080C90003D
:1016D500ECECF080BB9000ECE0FA9000EAE0FBA3B4
:1016E500E0FC9000E8E0FDA3E0FEC3EB9DEC9E402E
:1016F5000B9000EAEBC39DF0EC9EA3F09000E8E0B0
:10170500FBA3E0FCC313CB13CBFC9000E8EBF0A3E9
:10171500ECF08A031AEB70C29000EAE0FAA3E08AC3
:0417250082F58322A4
:100038007800E84400600A790075A000E4F309D864
:10004800FC78EDE84400600C7901900000E4F0A32E
:04005800D8FCD9FAFD
:0D000300758114120760E582600302075B3F
:1017290020F71430F6148883A88220F507E6A883E9
:0C17390075830022E280F7E49322E02296
:00000001FF
