:0E005F00AAF0AB83E582900000F0A3EBF0A3C3
:0E006D00EAF0900000E0FAA3E0FBA3E0FC74D0
:0E007B00032AFDE43BFE8C078D828E838FF0FE
:0A00890012181EFD600490083422D6
:0E0093008A828B838CF012181EFDC364809449
:0E00A100B0403374B78DF063F08095F04028C6
:0E00AF00ED3395E0FEED24D0FDEE34FF8D061E
:0E00BD007D00900003EDF0A3EEF090000074C3
:0C00CB00012AF0E43BA3F0A3ECF0800459
:0400D7009008372234
:0E00DB00900000E0FAA3E0FBA3E0FC8A828B19
:0E00E900838CF012181EFDC3648094B0404852
:0E00F70074B98DF063F08095F0403DED3395C7
:0E010500E0FEED24D0FDEE34FFFEC454F0CD3C
:0E011300C4CD6DCD54F0CD6DFE900003E0FF25
:0E012100A3E0F8900003ED2FF0EE38A3F0906D
:0E012F00000074012AF0E43BA3F0A3ECF00200
:02013D00020AB4
:0E013F00900000E0FAA3E0FBA3E0FC8A828BB4
:0E014D00838CF012181EFDC3648094E14048BC
:0E015B0074E68DF063F08095F0403DED339535
:0E016900E0FEED24A9FDEE34FFFEC454F0CDFF
:0E017700C4CD6DCD54F0CD6DFE900003E0FFC1
:0E018500A3E0F8900003ED2FF0EE38A3F09009
:0E019300000074012AF0E43BA3F0A3ECF0029C
:0201A100020A50
:0E01A300900000E0FAA3E0FBA3E0FC8A828B50
:0E01B100838CF012181EFDC3648094C1404779
:0E01BF0074C68DF063F08095F0403CED3395F2
:0E01CD00E0FEED24C9FDEE34FFFEC454F0CD7B
:0E01DB00C4CD6DCD54F0CD6DFE900003E0FF5D
:0E01E900A3E0F8900003ED2FF0EE38A3F090A5
:0E01F700000074012AF0E43BA3F0A3ECF080BA
:0102050004F4
:040206009008352205
:0E020A00900000E0FAA3E0FBA3E0FC8A828BE8
:0E021800838CF012181EFAC3648094B0402D3F
:0E02260074B98AF063F08095F04022EA3395B7
:0E023400E0FBEA24D0FAEB34FFFB900003E07D
:0E024200FCA3E0FD900003EA2CF0EB3DA3F0DE
:030250000202E7C0
:0E025300900000E0FAA3E0FBA3E0FC8A828B9F
:0E026100838CF012181EFAC3648094E1402CC6
:0E026F0074E68AF063F08095F04021EA339542
:0E027D00E0FBEA24A9FAEB34FFFB900003E05B
:0E028B00FCA3E0FD900003EA2CF0EB3DA3F095
:02029900804C97
:0E029B00900000E0FAA3E0FBA3E0FC8A828B57
:0E02A900838CF012181EFAC3648094C1402C9E
:0E02B70074C68AF063F08095F04021EA33951A
:0E02C500E0FBEA24C9FAEB34FFFB900003E0F3
:0E02D300FCA3E0FD900003EA2CF0EB3DA3F04D
:0202E100800497
:0402E3009008362227
:0C02E700900003E0FAA3E08A82F5832275
:0E02F300AAF0AB83E582900005F0A3EBF0A328
:0E030100EAF0900005E0FAA3E0FBA3E0FC7434
:0E030F00022AFDE43BFE8C078D828E838FF068
:0A031D0012181EFD60049001022278
:0E0327008A828B838CF012181EFDC3648094B2
:0E033500B0403E74B98DF063F08095F0403317
:0E034300ED3395E0FEED24D0FDEE34FFFEC458
:0D03510054F0CDC4CD6DCD54F0CD6DFE90B7
:0E035E000008EDF0A3EEF090000574012AF007
:0A036C00E43BA3F0A3ECF002042C24
:0E037600900005E0FAA3E0FBA3E0FC8A828B76
:0E038400838CF012181EFDC3648094E1403D8E
:0E03920074E68DF063F08095F04032ED339507
:0E03A000E0FEED24A9FDEE34FFFEC454F0CDC6
:0E03AE00C4CD6DCD54F0CD6DFE900008EDF085
:0E03BC00A3EEF090000574012AF0E43BA3F0DC
:0503CA00A3ECF0805DD2
:0E03CF00900005E0FAA3E0FBA3E0FC8A828B1D
:0E03DD00838CF012181EFDC3648094C1403D55
:0E03EB0074C68DF063F08095F04032ED3395CE
:0E03F900E0FEED24C9FDEE34FFFEC454F0CD4D
:0E040700C4CD6DCD54F0CD6DFE900008EDF02B
:0E041500A3EEF090000574012AF0E43BA3F082
:05042300A3ECF08004D1
:04042800900101221C
:0E042C00900005E0FAA3E0FBA3E0FC8A828BBF
:0E043A00838CF012181EFAC3648094B0402D1B
:0E04480074B98AF063F08095F04022EA339593
:0E045600E0FBEA24D0FAEB34FFFB900008E054
:0E046400FCA3E0FD900008EA2CF0EB3DA3F0B5
:0304720002050977
:0E047500900005E0FAA3E0FBA3E0FC8A828B76
:0E048300838CF012181EFAC3648094E1402CA2
:0E04910074E68AF063F08095F04021EA33951E
:0E049F00E0FBEA24A9FAEB34FFFB900008E032
:0E04AD00FCA3E0FD900008EA2CF0EB3DA3F06C
:0204BB00804C73
:0E04BD00900005E0FAA3E0FBA3E0FC8A828B2E
:0E04CB00838CF012181EFAC3648094C1402C7A
:0E04D90074C68AF063F08095F04021EA3395F6
:0E04E700E0FBEA24C9FAEB34FFFB900008E0CA
:0E04F500FCA3E0FD900008EA2CF0EB3DA3F024
:02050300800472
:04050500900101223E
:0C050900900008E0FAA3E08A82F583224B
:0E051500AA83E58290000AF0A3EAF090000CA1
:0E0523007430F090000AE0FAA3E0FB7C307D1B
:03053100007E0049
:0E053400C3ED9410EE64809480501DEAB5056E
:0D0542000CEBB5060890000CE0FFF58222DE
:0D054F000C90000CECF00DBD00DB0E80D810
:01055C00227C
:021DBD0000A084
:021DBF0000C062
:0E055D00AA83E58290000DF0A3EAF090000D55
:05056B00E0FAA3E0FB33
:08057000BA0005BB0002800F78
:050578001ABAFF011B8F
:0A057D0090000DEAF0A3EBF080E916
:0905870090000DEAF0A3EBF02254
:0E059000AA83E58290000FF0A3EAF090000F1E
:05059E00E0FAA3E0FB00
:0805A300BA0005BB0002801D37
:0E05AB00900070C002C00312055DD003D002A4
:0505B9001ABAFF011B4E
:0A05BE0090000FEAF0A3EBF080DBE1
:0905C80090000FEAF0A3EBF02211
:0B05D100E582900011F0900011E0FAAC
:0505DC00BA00028012CC
:0E05E1009003E8C002120590D0021A9000119B
:0405EF00EAF080E9C5
:0605F300900011EAF02265
:0A05F900E582900018F01207A390AD
:0E0603000012E025E0FA74A04AFBF582C00266
:0D0611001207DBD002C002120852D0029086
:0E061E000018E0FBF582C0021207DBD002C01C
:0E062C0002120852D002C0021207A3D00243ED
:0B063A0002A18A821207DB1208529016
:0E0645000013E0FAA3E0FB900015E0FCA3E038
:08065300FDA3E0FE7F0078002A
:0E065B00C3EF9AE864808BF063F08095F05056
:0E06690056C002C003C004C005C006C007C0D2
:0E06770000120808A982D000D007D006D005D6
:0E068500D004D003D0028C828D838EF0E91257
:0E06930015C1A3AC82AD83C002C003C004C079
:0E06A10005C006C007C000120861D000D007D7
:0E06AF00D006D005D004D003D0020FBF009EAD
:0306BD0008809B17
:0E06C000EA2CFAEB3DFB8E07C002C003C00718
:0E06CE00120808AC82D007D003D0028A828BBB
:0B06DC00838FF0EC1215C112086902B8
:0206E70007C04A
:0A06E900E58290001BF01207A390B9
:0E06F300001AE025E0FA4302A08A821207DB1B
:0B07010012085290001BE0FAF5821273
:06070C0007DB1208529009
:0A0712000019E0FAF5821207DB126D
:09071C0008521207C0900005020A
:0207250005903D
:0A072700E58290001DF01207A39078
:0E073100001CE025E0FA74A04AFBF582C0022D
:0D073F001207DBD002C002120852D0029057
:0E074C00001DE0FBF582C0021207DBD002C0E8
:0E075A0002120852D002C0021207A3D00243BE
:0B07680002A18A821207DB1208521265
:0E0773000808AA82C002120869D002C0021251
:0E07810007C0D00290000AC00212055DD0022F
:03078F008A822239
:0E07920090000112055DD29190000112055DEC
:0307A000C29122E1
:0D07A300C291D29290000112055DD291909A
:0E07B000000112055DC29290000112055DC2AB
:0207BE00912286
:0E07C000C29190000112055DC29290000112DC
:0D07CE00055DD29190000112055DD29222CE
:0807DB00E58290001EF07A0097
:0307E300BA080051
:0E07E600501D90001EE0FB339292C002C00333
:0E07F400120792D003D002EB2BFB90001EF0F8
:030802000A80DE8B
:03080500D292226A
:0908080090001FE4F0D2927A0086
:03081100BA080022
:0E0814005035900001C00212055DD002D29155
:0E082200900001C00212055DD00290001FE0A0
:0E08300025E0FB90001FF090001FE0FBE4A20B
:0D083E009233FC90001F4BF0C2910A80C65F
:07084B0090001FE0F582227E
:0E085200D292D29190000112055DA292C29145
:010860002275
:08086100C292120792D292220A
:08086900D292120792D29122F3
:0E087100C293900014120590900097E0FAA335
:0D087F00E0FB8A828B837430F0900006123B
:0E088C000590900097E0FAA3E0FB8A828B8330
:0E089A007430F0900005120590900097E0FA7F
:0E08A800A3E0FB8A828B837430F012099A90D1
:0E08B6000097E0FAA3E0FB8A828B837438F08F
:0E08C40012099A900097E0FAA3E0FB8A828B5B
:0E08D200837408F012099A900097E0FAA3E0F0
:0E08E000FB8A828B83740CF012099A900097A9
:0D08EE00E0FAA3E0FB8A828B837406F0120F
:0E08FB00099A900097E0FAA3E0FB8A828B83B3
:040909007401F02263
:0E090D00E582900020F0D29390000112059038
:0E091B00900097E0FAA3E0FB900020E0FC8A39
:07092900828B83F002099AA2
:0E093000E582900021F0C29390000112059024
:0E093E00900097E0FAA3E0FB900021E0FC8A15
:07094C00828B83F002099A7F
:0E095300D293900001120590900099E0FAA353
:0D096100E0FB8A828B83E0FA900022F01206
:09096E00099A900022E0F58222B2
:0E097700E582900023F0C293900001120590DB
:0E098500900097E0FAA3E0FB900023E0FC8ACC
:07099300828B83F002099A38
:0E099A00C293900099E0FAA3E0FB8A828B835F
:0C09A800E0FA900024F09000011205908D
:0E09B400900024E0FA30E714900099E0FAA3D6
:0E09C200E0FB8A828B83E0FA900024F080E450
:0309D000C29022B0
:0E09D300AAF0AB83E582900025F0A3EBF0A321
:0E09E100EAF0900025E0FAA3E0FBA3E0FC7D25
:0309EF00007E0087
:0E09F200ED2AFFEE3BF88C018F82888389F09E
:0E0A000012181EFF60208F82C002C003C004C7
:0E0A0E00C005C00612090DD006D005D004D0D8
:0A0A1C0003D0020DBD00CF0E80CC08
:010A260022AD
:0E0A2700E582900029F0900029E0FABA011350
:080A3500900028E0FABA11005C
:0B0A3D005009747F2AFAF58202097745
:0E0A4800900029E0FABA0213900028E0FABAF2
:020A560011008D
:0B0A5800500974BF2AFAF582020977EA
:0E0A6300900029E0FABA0313900028E0FABAD6
:020A7100110072
:0B0A73005009748F2AFAF582020977FF
:0E0A7E00900029E0FABA0413900028E0FABABA
:020A8C00110057
:0B0A8E00500974CF2AFAF582020977A4
:090A990090183E75F0800209D3AB
:0E0AA200E58290002DF090002DE0FAC2D5758F
:0A0AB000F010EA30E704B2D5F404B8
:060ABA008430D502F404B3
:0E0AC000FBA2D595E0FC8B828C83C002C003A4
:0E0ACE00C004120515AD82D004D003D00290F2
:0E0ADC000033EDF0EA3395E0FDECC454F0CBAE
:0E0AEA00C4CB6BCB54F0CB6BFCEAC39BFAED94
:0E0AF8009CFD8A828D83120515AA829000341F
:0C0B0600EAF0900035E4F07444C0E074A4
:0A0B120018C0E01215DA15811581F4
:0E0B1C00900038E4F0A3F090002E75F0001267
:090B2A0014AD90002E75F00012CC
:0E0B3300137AAA82AB838A048B05C3EC940468
:0E0B4100ED9400500B9000387401F0E4A3F026
:020B4F0080170D
:0A0B5100C002C003746AC0E074180B
:0D0B5B00C0E01215DA15811581D003D0021B
:0D0B6800900038E0FCA3E0FD4C60A90A906D
:0B0B750000287401F08A82120A279009
:0E0B8000002AE0FAA3E0FBA3E0FC8A828B834C
:0C0B8E008CF01209D375823A12090D9008
:080B9A00003375F0000209D3DD
:06183E004572726F72009A
:0E1844000A0A0D20456E74657220526F7720DF
:0E1852006E756D626572206265747765656EF5
:0A186000203020746F20333A20007E
:0E186A000A0A0D20456E7465722076616C6965
:0E1878006420726F77206E756D62657220625B
:0E18860065747765656D203020616E642033D7
:031894003A2000F7
:021DC10000A080
:021DC30000C05E
:03000000020003F8
:03005C00020BA2F2
:050BA200120BAE80FE05
:070BA700438EC09000002204
:0C0BAE00D29012087112136175820012BF
:090BBA0009777582861209779013
:090BC300189775F0801209D39017
:0C0BCC0000287406F0758202120A2790BF
:090BD800189A75F0801209D390FF
:0C0BE10000287406F0758203120A2790A9
:090BED0018A075F0801209D37400
:080BF600A6C0E07418C0E01273
:060BFE0015DA15811581D6
:0E0C04003098FD121357AA82C002121345D079
:060C120002E4BA31010406
:0C0C1800FB601AC002C0037440C0E0740E
:0C0C240019C0E01215DA15811581D0030B
:050C3000D002020CDD02
:0C0C3500BA321AC002C0037463C0E0743D
:0C0C410019C0E01215DA15811581D003EE
:050C4D00D002020CDDE5
:0C0C5200BA331AC002C0037486C0E074FC
:0C0C5E0019C0E01215DA15811581D003D1
:050C6A00D002020CDDC8
:0C0C6F00BA3419C002C00374A8C0E074BD
:0C0C7B0019C0E01215DA15811581D003B4
:040C8700D0028052C5
:0C0C8B00BA3519C002C00374C8C0E07480
:0C0C970019C0E01215DA15811581D00398
:040CA300D0028036C5
:0C0CA700BA3619C002C00374EFC0E0743C
:0C0CB30019C0E01215DA15811581D0037C
:040CBF00D002801AC5
:0C0CC300BA3717C002C003741BC0E074F5
:0C0CCF001AC0E01215DA15811581D0035F
:020CDB00D00245
:080CDD00EB700DBA3202800831
:050CE500BA3302800398
:030CEA00020E7483
:0A0CED00C002C0037447C0E0741A8F
:0D0CF700C0E01215DA15811581D003D0027E
:0E0D040090004EE4F0A3F090003A75F000C0AD
:0E0D120002C0031214ADD003D00290003A7557
:0E0D2000F000C002C00312005FAC82AD83D0B1
:0D0D2E0003D0028C068D0774F82F400B9047
:0A0D3B00004E7401F0E4A3F0801FE5
:0C0D4500C002C003C004C0057483C0E0FD
:0C0D5100741AC0E01215DA15811581D06B
:070D5D0005D004D003D00211
:0E0D640090004EE0FEA3E0FF4E60958C068DE1
:0A0D7200078F08750900EB700302FB
:020D7C000E1651
:0A0D7E00C004C00574C3C0E0741A7D
:0D0D8800C0E01215DA15811581D005D004E8
:0E0D950090004EE4F0A3F090004475F000C012
:0E0DA30004C0051214ADD005D00490004475B4
:0E0DB100F000C004C0051202F3AB82A883D08C
:0D0DBF0005D0048B01880674FF2E400B90B8
:0A0DCC00004E7401F0E4A3F0801F54
:0C0DD600C003C004C005C00074F9C0E0F8
:0C0DE200741AC0E01215DA15811581D0DA
:070DEE0000D005D004D00382
:0E0DF50090004EE0F9A3E0FE4960958C06AF39
:070E030008900019EBF090CC
:0A0E0A00001AEFF08E821206E902D2
:020E14000E9539
:0C0E1600BA32368C038D0690001CE508F3
:0E0E2200F08B82C004C005120727AB82D005FA
:0D0E3000D0047E00C003C006C004C00574DD
:080E3D0047C0E0741BC0E01285
:0A0E450015DAE58124FAF5818046F4
:0C0E4F00BA334390001CE508F08C8212BE
:080E5B000727AB8290002A7406
:0A0E63003AF0A37400F0A37400F04D
:070E6D008B82120AA2802112
:0B0E7400BA34087582011209308016A4
:080E7F00BA3505120EA7800E22
:080E8700BA360512112C800699
:060E8F00BA3703121297AE
:090E95007457C0E0741BC0E012A8
:090E9E0015DA15811581020C041E
:070EA700900079E4F0A3F0D4
:090EAE0074F3C0E0741BC0E012F3
:060EB70015DA158115811A
:0E0EBD00900077E4F0A3F090005075F0001262
:090ECB0014AD90005075F0001206
:0E0ED400005FAA82AB83900075EAF0A3EBF0FA
:0E0EE2008A048B0574F82D400B900077740184
:060EF000F0E4A3F08017FE
:0A0EF600C002C0037435C0E0741C94
:0D0F0000C0E01215DA15811581D003D00272
:0E0F0D00900077E0FCA3E0FD4C60A5C002C0A0
:0A0F1B0003747BC0E0741CC0E012F8
:0A0F250015DA15811581D003D00202
:0E0F2F00900077E4F0A3F090005A75F000C037
:0E0F3D0002C0031214ADD003D00290005A750A
:0E0F4B00F000C002C00312005FAC82AD83D084
:0D0F590003D0028C068D0774F82F400B901A
:0A0F660000777401F0E4A3F0801F8F
:0C0F7000C002C003C004C00574BBC0E098
:0C0F7C00741CC0E01215DA15811581D03C
:070F880005D004D003D002E4
:0E0F8F00900077E0FEA3E0FF4E6095ECC39A61
:0E0F9D00FCED9BFD74012CFEE43DFFC002C084
:0C0FAB0003C004C005C006C00774FFC0EE
:0C0FB700E0741CC0E01215DAE58124FC97
:0E0FC300F581D005D004D003D0028C068D0736
:0D0FD100EF30E71FC002C003C004C005746C
:080FDE0014C0E0741DC0E01214
:0E0FE60015DA15811581D005D004D003D00294
:0B0FF4008C068D07EF30E703020EAE05
:040FFF007E007F00F1
:08100300C3EC9EED9F50012299
:08100B00EE540F60030210B364
:0E101300C004C005C002C003C004C005C00672
:0B102100C007C002C0037468C0E07488
:0C102C001DC0E01215DAE58124FCF581FE
:0E103800D007D006D005D004D003D00274102B
:0D1046002AFAE43BFB900079E4F0A3F0905F
:0A1053000075E0F8A3E0F9890A75C2
:08105D000B008804900012E56D
:0C1065000AF09000137410F0E4A3F09067
:0710710000157464F0A37484
:0C10780000F0A3E4F08C82C002C003C0B2
:0E10840004C005C006C007C000C0011205F977
:0E109200D001D000D007D006D005D004D00386
:0E10A000D002900075740128F0E439A3F0D05E
:0510AE0005D0048013D1
:0E10B300900075E0F8A3E0F990007574012834
:0510C100F0E439A3F08A
:0E10C600C004C005900079E0F8A3E0F9E8242A
:0A10D40064F582E93400F583E0FCC6
:0E10DE007D00C002C003C004C005C006C007EC
:0C10EC00C000C001C004C0057470C0E06A
:0C10F800741DC0E01215DAE58124FCF53F
:0E11040081D001D000D007D006D005D004D095
:0E11120003D002900079740128F0E439A3F0B4
:051120000EBE00010FEE
:07112500D005D00402100305
:0B112C007582801209307474C0E074FA
:0C1137001DC0E01215DA158115817A0048
:041143007B007C00B1
:0E114700C3EB9440EC6480948040030211E9F5
:0E11550090008A7410F0E4A3F08B828C83C0AB
:0E11630002C003C004121702E5828583F0D09B
:0E11710004D003D00245F070330AC002C00360
:0A117F00C004748FC0E0741DC0E0CE
:0E1189001215DA15811581D004D003D0029022
:0E11970000287401F08A82C002C003C0041256
:0811A5000A27D004D003D00298
:0E11AD00C002C003C004120953AD82D004D0AA
:0E11BB0003D0028D82C002C003C0041213458F
:0E11C900D004D003D00290000AC002C003C0C0
:0E11D70004120590D004D003D0020BBB00011F
:0111E5000CFD
:0311E600021147AC
:0D11E9009000287401F0758201120A27742D
:0811F60094C0E0741DC0E0127A
:0A11FE0015DA158115817A007B00D7
:0C120800C3EA9450EB6480948040012203
:0E12140090008A7410F0E4A3F08A828B83C0ED
:0E12220002C003121702E5828583F0D003D0CC
:0E1230000245F0701DC002C003C002C003746E
:08123E00ADC0E0741DC0E01218
:0C12460015DAE58124FCF581D003D0020C
:0E125200C002C003120953AC82D003D002ECDC
:0D1260003395E0FDC002C003C004C005745A
:08126D00B5C0E0741DC0E012E1
:0D12750015DAE58124FCF581D003D002904C
:0E128200000AC002C003120590D003D0020A79
:04129000BA00010B94
:031294000212083B
:0E12970075820A1213457582401209307A00E2
:0212A5007B00CC
:0C12A700C3EA9440EB6480948040012274
:0E12B30090008A7410F0E4A3F08A828B83C04E
:0E12C10002C003121702E5828583F0D003D02D
:0E12CF000245F0701DC002C003C002C00374CF
:0812DD00ADC0E0741DC0E01279
:0C12E50015DAE58124FCF581D003D0026D
:0E12F100C002C003120953AC82D003D00275B4
:0E12FF008209C002C003C004121345D004D0FF
:0E130D0003D0027D00C002C003C004C00574FE
:08131B00BAC0E0741DC0E0122D
:0D13230015DAE58124FCF581D003D002909D
:0E133000000AC002C003120590D003D0020ACA
:04133E00BA00010BE5
:031342000212A7ED
:031897004869009D
:06189A0048656C6C6F0054
:0618A000576F726C64003A
:0E18A6000A0D09090909092A2A2A2A2A2A2ACA
:0E18B4002A20436F6E74726F6C20436F6D6D4F
:0E18C200616E6473202A2A2A2A2A2A2A2A0AF8
:0E18D0000D09312E205772697465204279741B
:0E18DE0065200A0D09322E20526561642042F9
:0E18EC00797465200A0D09332E204C434420E8
:0E18FA00446973706C61790A0D09342E204325
:0E1908006C656172204C43440A0D09352E2097
:0E1916004865782044756D700A0D09362E2044
:0E192400444452414D2044756D700A0D093740
:0E1932002E20434752414D2044756D70090030
:0E1940000A0A0D0909202A2A2A2A2A2A20200A
:0E194E00577269746520436F6D6D616E642081
:07195C00202A2A2A2A2A0092
:0E1963000A0A0D0909202A2A2A2A2A2A2020E7
:0E1971005265616420436F6D6D616E642020CD
:07197F002A2A2A2A2A2A0065
:0E1986000A0A0D0909202A2A2A2A2A2A2020C4
:0E1994004C434420444953504C415920202AD2
:0619A2002A2A2A2A2A006D
:0E19A8000A0A0D0909202A2A2A2A2A2A2020A2
:0E19B600436C656172204C434420202A2A2A8B
:0419C4002A2A2A00A1
:0E19C8000A0A0D0909202A2A2A2A2A2A202082
:0E19D6004865782044756D7020436F6D6D611B
:0B19E4006E6420202A2A2A2A2A2A00EA
:0E19EF000A0A0D0909202A2A2A2A2A2A20205B
:0E19FD00444452414D2044756D7020436F6D7F
:0E1A0B006D616E6420202A2A2A2A2A2A0A0ADD
:021A19000D00BE
:0E1A1B000A0A0D0909202A2A2A2A2A2A20202E
:0E1A2900434752414D2044756D7020436F6D50
:0E1A37006D616E6420202A2A2A2A2A2A0A0AB1
:021A45000D0092
:0E1A47000A0A0D20456E7465722041646472B7
:0E1A550065737320696E2048657820696E20E5
:0E1A630048484820666F726D61742062657499
:0E1A71007765656E2030303020746F20374668
:041A7F00463A2000C3
:0E1A83000A0A0D202A2D4552524F522D2A09D3
:0E1A910020506C6561736520456E746572208F
:0E1A9F0076616C696420416464726573732023
:0E1AAD006265747765656D2030303020616EA3
:081ABB0064203746463A200082
:0E1AC3000A0A0D20456E74657220446174613C
:0E1AD10020696E2048657820696E2048482004
:0E1ADF00666F726D6174206265747765656E66
:0C1AED0020303020746F2046463A200064
:0E1AF9000A0A0D202A2D4552524F522D2A095D
:0E1B070020506C6561736520456E7465722018
:0E1B150076616C6964206461746120696E20E1
:0E1B230048657820696E20484820666F726D14
:0E1B31006174206265747765656E2030302027
:081B3F00746F2046463A2000B5
:0E1B47000A0A0D0909092578203A2025782080
:021B55000A0084
:0E1B57000A0A0A0D09090909092A2A2A2A2A56
:0E1B65002A2A2A20436F6E74726F6C20436F21
:0E1B73006D6D616E6473202A2A2A2A2A2A2A9E
:0E1B81002A0A0D09312E205772697465204220
:0E1B8F00797465200A0D09322E2052656164BA
:0E1B9D002042797465200A0D09332E204C4336
:0E1BAB004420446973706C61790A0D09342E70
:0E1BB90020436C656172204C43440A0D0935CF
:0E1BC7002E204865782044756D700A0D093691
:0E1BD5002E20444452414D2044756D700A0D7F
:0E1BE30009372E20434752414D2044756D7046
:021BF1000900E9
:0E1BF3000A0A0D20456E7465722053746172EB
:0E1C010074204164647265737320696E20481C
:0E1C0F00657820696E2048484820666F726D27
:0E1C1D006174206265747765656E203030302A
:0A1C2B0020746F203746463A20006F
:0E1C35000A0A0D202A2D4552524F522D2A091F
:0E1C430020506C6561736520456E74657220DB
:0E1C510076616C696420737461727420416462
:0E1C5F006472657373206265747765656D202D
:0E1C6D0030303020616E64203746463A200049
:0E1C7B000A0A0D20456E74657220456E6420C5
:0E1C89004164647265737320696E204865784B
:0E1C970020696E2048484820666F726D6174A7
:0E1CA500206265747765656E203030302074E3
:081CB3006F203746463A20007D
:0E1CBB000A0A0D202A2D4552524F522D2A0999
:0E1CC90020506C6561736520456E7465722055
:0E1CD70076616C696420656E642041646472FD
:0E1CE500657373206265747765656D2030301D
:0C1CF3003020616E64203746463A200025
:0E1CFF000A0D09546F74616C2042797465738C
:071D0D003A2025640A0D00D5
:0E1D14000A0D202D4552524F522D20456E646F
:0E1D2200206164647265737320736D616C6C74
:0E1D30006572207468616E207468652073749B
:0E1D3E0061727420616464726573730A0D2013
:0E1D4C00456E7465722056616C696420616496
:0E1D5A0064726573732072616E67650A0D0016
:081D68000A0A0D25783A090072
:041D700025780900C9
:0E1D74000A0D09094173636969205265707296
:0D1D82006573656E746174696F6E0A0D0003
:051D8F000A0D09090026
:0E1D94000A0D09094865782052657072657362
:0B1DA200656E746174696F6E0A0D00BD
:081DAD000A0A0D3078257800C8
:051DB500092025780063
:031DBA0025780089
:021DC50000A07C
:021DC70000C05A
:06134500E58290007BF040
:0C134B003099FD90007BE0F599C29922DA
:0513570010980280FB6C
:05135C00AA998A82221B
:0E13610075C800759B00858787758DFD758B9F
:0B136F000043884043985275892022FB
:06003200E478FFF6D8FDA2
:08001000790CE94400601B7A41
:0500180001901DBD7800
:03001D009375A038
:0A00200000E493F2A308B800020503
:08002A00A0D9F4DAF275A0FF81
:0E137A00AAF0AB83E58290007CF0A3EBF0A319
:0E138800EAF07A007B0090007CE0FCA3E0FD20
:03139600A3E0FED3
:0E1399008C828D838EF012181EFF6039C37493
:0E13A700B98FF063F08095F04007EF648094FA
:0313B500B050260F
:0E13B8008C828D838EF012181EFFBF2D0280D6
:0113C600170F
:0513C700BF2B028012A3
:0513CC000CBC00010D46
:0D13D10090007CECF0A3EDF0A3EEF080BBEB
:0E13DE0090007CECF0A3EDF0A3EEF08C828D7D
:0C13EC00838EF012181EFFE4BF2D0104D8
:0813F800F888017003BF2B0E01
:0E14000090007C74012CF0E43DA3F0A3EEF00C
:0B140E0090007CE0FCA3E0FDA3E0FEEA
:0E1419008C828D838EF012181EFF6068C3EF68
:0E142700648094B0406074B98FF063F08095DB
:0E143500F04055C001900088740AF0E4A3F066
:0E1443008A828B83C004C005C006C007C001AA
:081451001216E285820C85836E
:0C1459000DD001D007D006D005D004EF64
:0E1465003395E0F8EF24D0FFE834FFF8EF25D0
:0A1473000CFAE8350DFB0CBC00017B
:01147D000D61
:0E147E0090007CECF0A3EDF0A3EEF0D0018026
:01148C008CD3
:0E148D0090007CECF0A3EDF0A3EEF0E9600916
:09149B00C3E49AFCE49BFD80040B
:0414A4008A048B0526
:0514A8008C828D8322FF
:0E14AD00AAF0AB83E58290007FF0A3EBF0A3E2
:0E14BB00EAF090007FE0FAA3E0FBA3E0FC90D3
:0E14C9000082EAF0A3EBF0A3ECF0900085E4C3
:0314D700F0A3F08F
:0A14DA00121357AA82BA0802800D0F
:0514E400BA0A02806756
:0514E900BA0D02806253
:0314EE0002158361
:0E14F100900085E0FBA3E0FC4B60DE758208F6
:0E14FF00C003C004121345D004D00375822030
:0E150D00C003C004121345D004D00375820839
:0E151B00C003C004121345D004D00390008218
:0D152900E0FDA3E0FEA3E0FF1DBDFF011EDD
:0E153600900082EDF0A3EEF0A3EFF01BBBFFE0
:02154400011C88
:0A154600900085EBF0A3ECF0808A22
:0D15500075820D12134575820A1213459025
:0E155D000082E0FBA3E0FCA3E0FD8B828C8308
:0E156B008DF0E41215C190007FE0FBA3E0FCC0
:0A157900A3E0FD8B828C838DF0222D
:0E158300900082E0FBA3E0FCA3E0FD8B828CD5
:0E159100838DF0EA1215C190008274012BF0D8
:0E159F00E43CA3F0A3EDF0900085E0FBA3E098
:0E15AD00FC90008574012BF0E43CA3F08A82D0
:0615BB001213450214DAD0
:0E15C10020F71030F6118883A88220F507F677
:0515CF00A883758300F4
:0115D40022F4
:0315D500F280F7AA
:0215D800F022FF
:0515DA00C00E85810E2A
:0B15DF00E50E24FDF8868318868218B4
:0E15EA00E493A324DB600C242560051216C7D1
:0215F80080F081
:0315FA000216DFF7
:0915FD00D2D5E493A3C083C0829F
:03160600B47314A6
:0916090086F01886831886821809
:0B16120012181E6053A31216C780F5CB
:0A161D00B46307E6181216C78043F5
:0E162700B46417E630E74618E6F42401F6082E
:0C163500E6F43400F6742D1216C7803362
:0A164100B4782D868318868218E421
:0B164B001216B8E5831216B7E58312F3
:0A16560016B8E5821216B7E58212FD
:0A16600016B830D50574301216C715
:07166A00D082D0830215EAD3
:03167100B475F657
:06167400E6FA18E6F91881
:0D167A007C107D271216A2FF7CE87D031274
:0E16870016A2C4F5837C647D001216A2428375
:0D169500E975F00A84C445F0F582EF80A9E4
:0216A2007B00CB
:0E16A4000BC3E99CF9EA9DFA50F61BE92CF9FC
:0516B200EA3DFAEB2205
:0116B700C46E
:0716B800540F700320D51F41
:0816BF00C2D52490D43440D4BC
:0E16C700C083C082C0F0F582E8C0E012134577
:0916D500D0E0F8D0F0D082D083FF
:0116DE0022E9
:0316DF00D00E2208
:0E16E200AA83AB828BF0900088E0A4F8A9F0F8
:0E16F0008AF0E0A429F98BF0A3E0A429F58389
:0416FE00888222229A
:0E170200AA83E58290008CF0A3EAF090008CA0
:0E171000E0FAA3E0FB30E709C3E49AFCE49B97
:03171E00FD800447
:041721008A048B05A6
:0E1725008C028D0390008AE0FCA3E0FD30E70B
:0A17330009C3E49CFEE49DFF80045E
:04173D008C068D0782
:0D17410090008EEEF0A3EFF08A828B8312F1
:0E174E001770AA82AB8390008CE0FCA3E0FD34
:0E175C0030E70CC3E49AFCE49BFD8C828D8385
:01176A00225C
:05176B008A828B83223D
:0E177000AA83E582900090F0A3EAF090009228
:0C177E00E4F0900090E0FAA3E0FB7C0097
:0E178A0090008EE0FDA3E0FE235401FF7037B7
:0E179800EECD25E0CD33FE90008EEDF0A3EEF9
:0E17A600F090008EE0FDA3E0FEC3EA9DEB9EF6
:0E17B4005011EEC313CD13CDFE90008EEDF05C
:0517C200A3EEF0800819
:0817C7000C900092ECF080BBD5
:0517CF00900092E0FA19
:0E17D400900090E0FBA3E0FC90008EE0FDA3EF
:0E17E200E0FEC3EB9DEC9E400B900090EBC32D
:0617F0009DF0EC9EA3F049
:0E17F60090008EE0FBA3E0FCC313CB13CBFCF2
:0E18040090008EEBF0A3ECF08A031AEB70C29A
:0C181200900090E0FAA3E08A82F58322A7
:080038007800E84400600A7939
:030040000075A0A8
:0600430000E4F309D8FC03
:080049007893E84400600C7993
:0B00510001900000E4F0A3D8FCD9FAF5
:0300030075810EF6
:0A00060012183AE5826003020BA213
:0E181E0020F71430F6148883A88220F507E620
:06182C00A8837583002271
:03183200E280F75A
:03183500E4932217
:02183800E022AC
:04183A007582002291
:00000001FF
