:0E005F00AAF0AB83E582900000F0A3EBF0A3C3
:0E006D00EAF0900000E0FAA3E0FBA3E0FC74D0
:0E007B00032AFDE43BFE8C078D828E838FF0FE
:0A008900121787FD6004900834226E
:0E0093008A828B838CF0121787FDC3648094E1
:0E00A100B0403374B78DF063F08095F04028C6
:0E00AF00ED3395E0FEED24D0FDEE34FF8D061E
:0E00BD007D00900003EDF0A3EEF090000074C3
:0C00CB00012AF0E43BA3F0A3ECF0800459
:0400D7009008372234
:0E00DB00900000E0FAA3E0FBA3E0FC8A828B19
:0E00E900838CF0121787FDC3648094B04048EA
:0E00F70074B98DF063F08095F0403DED3395C7
:0E010500E0FEED24D0FDEE34FFFEC454F0CD3C
:0E011300C4CD6DCD54F0CD6DFE900003E0FF25
:0E012100A3E0F8900003ED2FF0EE38A3F0906D
:0E012F00000074012AF0E43BA3F0A3ECF00200
:02013D00020AB4
:0E013F00900000E0FAA3E0FBA3E0FC8A828BB4
:0E014D00838CF0121787FDC3648094E1404854
:0E015B0074E68DF063F08095F0403DED339535
:0E016900E0FEED24A9FDEE34FFFEC454F0CDFF
:0E017700C4CD6DCD54F0CD6DFE900003E0FFC1
:0E018500A3E0F8900003ED2FF0EE38A3F09009
:0E019300000074012AF0E43BA3F0A3ECF0029C
:0201A100020A50
:0E01A300900000E0FAA3E0FBA3E0FC8A828B50
:0E01B100838CF0121787FDC3648094C1404711
:0E01BF0074C68DF063F08095F0403CED3395F2
:0E01CD00E0FEED24C9FDEE34FFFEC454F0CD7B
:0E01DB00C4CD6DCD54F0CD6DFE900003E0FF5D
:0E01E900A3E0F8900003ED2FF0EE38A3F090A5
:0E01F700000074012AF0E43BA3F0A3ECF080BA
:0102050004F4
:040206009008352205
:0E020A00900000E0FAA3E0FBA3E0FC8A828BE8
:0E021800838CF0121787FAC3648094B0402DD7
:0E02260074B98AF063F08095F04022EA3395B7
:0E023400E0FBEA24D0FAEB34FFFB900003E07D
:0E024200FCA3E0FD900003EA2CF0EB3DA3F0DE
:030250000202E7C0
:0E025300900000E0FAA3E0FBA3E0FC8A828B9F
:0E026100838CF0121787FAC3648094E1402C5E
:0E026F0074E68AF063F08095F04021EA339542
:0E027D00E0FBEA24A9FAEB34FFFB900003E05B
:0E028B00FCA3E0FD900003EA2CF0EB3DA3F095
:02029900804C97
:0E029B00900000E0FAA3E0FBA3E0FC8A828B57
:0E02A900838CF0121787FAC3648094C1402C36
:0E02B70074C68AF063F08095F04021EA33951A
:0E02C500E0FBEA24C9FAEB34FFFB900003E0F3
:0E02D300FCA3E0FD900003EA2CF0EB3DA3F04D
:0202E100800497
:0402E3009008362227
:0C02E700900003E0FAA3E08A82F5832275
:0E02F300AAF0AB83E582900005F0A3EBF0A328
:0E030100EAF0900005E0FAA3E0FBA3E0FC7434
:0E030F00022AFDE43BFE8C078D828E838FF068
:0A031D00121787FD60049001022210
:0E0327008A828B838CF0121787FDC36480944A
:0E033500B0403E74B98DF063F08095F0403317
:0E034300ED3395E0FEED24D0FDEE34FFFEC458
:0D03510054F0CDC4CD6DCD54F0CD6DFE90B7
:0E035E000008EDF0A3EEF090000574012AF007
:0A036C00E43BA3F0A3ECF002042C24
:0E037600900005E0FAA3E0FBA3E0FC8A828B76
:0E038400838CF0121787FDC3648094E1403D26
:0E03920074E68DF063F08095F04032ED339507
:0E03A000E0FEED24A9FDEE34FFFEC454F0CDC6
:0E03AE00C4CD6DCD54F0CD6DFE900008EDF085
:0E03BC00A3EEF090000574012AF0E43BA3F0DC
:0503CA00A3ECF0805DD2
:0E03CF00900005E0FAA3E0FBA3E0FC8A828B1D
:0E03DD00838CF0121787FDC3648094C1403DED
:0E03EB0074C68DF063F08095F04032ED3395CE
:0E03F900E0FEED24C9FDEE34FFFEC454F0CD4D
:0E040700C4CD6DCD54F0CD6DFE900008EDF02B
:0E041500A3EEF090000574012AF0E43BA3F082
:05042300A3ECF08004D1
:04042800900101221C
:0E042C00900005E0FAA3E0FBA3E0FC8A828BBF
:0E043A00838CF0121787FAC3648094B0402DB3
:0E04480074B98AF063F08095F04022EA339593
:0E045600E0FBEA24D0FAEB34FFFB900008E054
:0E046400FCA3E0FD900008EA2CF0EB3DA3F0B5
:0304720002050977
:0E047500900005E0FAA3E0FBA3E0FC8A828B76
:0E048300838CF0121787FAC3648094E1402C3A
:0E04910074E68AF063F08095F04021EA33951E
:0E049F00E0FBEA24A9FAEB34FFFB900008E032
:0E04AD00FCA3E0FD900008EA2CF0EB3DA3F06C
:0204BB00804C73
:0E04BD00900005E0FAA3E0FBA3E0FC8A828B2E
:0E04CB00838CF0121787FAC3648094C1402C12
:0E04D90074C68AF063F08095F04021EA3395F6
:0E04E700E0FBEA24C9FAEB34FFFB900008E0CA
:0E04F500FCA3E0FD900008EA2CF0EB3DA3F024
:02050300800472
:04050500900101223E
:0C050900900008E0FAA3E08A82F583224B
:021D260000A01B
:021D280000C0F9
:0E051500AA83E58290000AF0A3EAF090000AA3
:05052300E0FAA3E0FB7B
:08052800BA0005BB0002800FC0
:050530001ABAFF011BD7
:0A05350090000AEAF0A3EBF080E961
:09053F0090000AEAF0A3EBF0229F
:0E054800AA83E58290000CF0A3EAF090000C6C
:05055600E0FAA3E0FB48
:08055B00BA0005BB0002801D7F
:0E056300900070C002C003120515D003D00234
:050571001ABAFF011B96
:0A05760090000CEAF0A3EBF080DB2C
:0905800090000CEAF0A3EBF0225C
:0B058900E58290000EF090000EE0FAFA
:05059400BA0002801214
:0E0599009003E8C002120548D0021A90000E2E
:0405A700EAF080E90D
:0605AB0090000EEAF022B0
:0A05B100E582900015F012075B9040
:0E05BB00000FE025E0FA74A04AFBF582C002B2
:0D05C900120793D002C00212080AD002905F
:0E05D6000015E0FBF582C002120793D002C0B0
:0E05E4000212080AD002C00212075BD00243C6
:0B05F20002A18A8212079312080A90EF
:0E05FD000010E0FAA3E0FB900012E0FCA3E087
:08060B00FDA3E0FE7F00780072
:0E061300C3EF9AE864808BF063F08095F0509E
:0E06210056C002C003C004C005C006C007C01A
:0E062F00001207C0A982D000D007D006D00567
:0E063D00D004D003D0028C828D838EF0E9129F
:0E064B00152AA3AC82AD83C002C003C004C058
:0E06590005C006C007C00012082ED000D00752
:0E066700D006D005D004D003D0020FBF009EF5
:0306750008809B5F
:0E067800EA2CFAEB3DFB8E07C002C003C00760
:0E0686001207C0AC82D007D003D0028A828B4C
:0B069400838FF0EC12152A12083602CA
:02069F000778DA
:0A06A100E582900018F012075B904C
:0E06AB000017E025E0FA4302A08A82120793AE
:0B06B90012080A900018E0FAF5821207
:0606C400079312080A90E2
:0A06CA000016E0FAF5821207931201
:0906D400080A12077890000502E3
:0206DD000548CE
:0A06DF00E58290001AF012075B900C
:0E06E9000019E025E0FA74A04AFBF582C00279
:0D06F700120793D002C00212080AD0029030
:0E070400001AE0FBF582C002120793D002C07B
:0E0712000212080AD002C00212075BD0024396
:0B07200002A18A8212079312080A123D
:0E072B0007C0AA82C002120836D002C0021215
:0E0739000778D00290000AC002120515D00207
:030747008A822281
:0E074A00900001120515D291900001120515C4
:03075800C2912229
:0D075B00C291D292900001120515D291902A
:0E0768000001120515C292900001120515C283
:020776009122CE
:0E077800C291900001120515C292900001126C
:0D0786000515D291900001120515D29222A6
:08079300E58290001BF07A00E2
:03079B00BA080099
:0E079E00501D90001BE0FB339292C002C0037E
:0E07AC0012074AD003D002EB2BFB90001BF08B
:0307BA000A80DED4
:0307BD00D29222B3
:0907C00090001CE4F0D2927A00D2
:0307C900BA08006B
:0E07CC005035900001C002120515D002D291E6
:0E07DA00900001C002120515D00290001CE034
:0E07E80025E0FB90001CF090001CE0FBE4A25A
:0D07F6009233FC90001C4BF0C2910A80C6AB
:0708030090001CE0F58222C9
:08080A0090001D7401F0D29270
:0D08120090001DE0FA6014D29190000112D8
:0E081F00051590001DE4A29233F0C29180E511
:01082D0022A8
:08082E00C29212074AD2922285
:08083600D29212074AD291226E
:0E083E00C293900014120548900090E0FAA3B7
:0D084C00E0FB8A828B837430F0900006126E
:0E0859000548900090E0FAA3E0FB8A828B83B2
:0E0867007430F0900005120548900090E0FA01
:0E087500A3E0FB8A828B837430F01209679037
:0E0883000090E0FAA3E0FB8A828B837438F0C9
:0E089100120967900090E0FAA3E0FB8A828BC8
:0E089F00837408F0120967900090E0FAA3E05D
:0E08AD00FB8A828B83740CF012096790009016
:0D08BB00E0FAA3E0FB8A828B837406F01242
:0E08C8000967900090E0FAA3E0FB8A828B8320
:0408D6007401F02297
:0E08DA00E58290001EF0D293900001120548B6
:0E08E800900090E0FAA3E0FB90001EE0FC8A76
:0708F600828B83F002096709
:0E08FD00E58290001FF0C293900001120548A2
:0E090B00900090E0FAA3E0FB90001FE0FC8A51
:07091900828B83F0020967E5
:0E092000D293900001120548900092E0FAA3D5
:0D092E00E0FB8A828B83E0FA900020F0123B
:09093B000967900020E0F582221A
:0E094400E582900021F0C29390000112054858
:0E095200900090E0FAA3E0FB900021E0FC8A08
:07096000828B83F00209679E
:0E096700C293900092E0FAA3E0FB8A828B8399
:0C097500E0FA900022F09000011205480A
:0E098100900022E0FA30E714900092E0FAA312
:0E098F00E0FB8A828B83E0FA900022F080E485
:03099D00C29022E3
:0E09A000AAF0AB83E582900023F0A3EBF0A356
:0E09AE00EAF0900023E0FAA3E0FBA3E0FC7D5A
:0309BC00007E00BA
:0E09BF00ED2AFFEE3BF88C018F82888389F0D1
:0E09CD00121787FF60208F82C002C003C00493
:0E09DB00C005C0061208DAD006D005D004D040
:0A09E90003D0020DBD00CF0E80CC3C
:0109F30022E1
:0E09F400E582900027F0900027E0FABA011388
:080A0200900026E0FABA110091
:0B0A0A005009747F2AFAF582020944AB
:0E0A1500900027E0FABA0213900026E0FABA29
:020A23001100C0
:0B0A2500500974BF2AFAF58202094450
:0E0A3000900027E0FABA0313900026E0FABA0D
:020A3E001100A5
:0B0A40005009748F2AFAF58202094465
:0E0A4B00900027E0FABA0413900026E0FABAF1
:020A590011008A
:0B0A5B00500974CF2AFAF5820209440A
:090A66009017A775F0800209A0A9
:0B0A6F00E58290002BF074ADC0E07435
:0A0A7A0017C0E01215431581158125
:0E0A8400900031E4F0A3F090002C75F0001209
:090A9200141690002C75F00012FE
:0E0A9B0012E3AA82AB838A048B05C3EC940499
:0E0AA900ED9400500B9000317401F0E4A3F0C6
:020AB7008017A6
:0A0AB900C002C00374D3C0E074173C
:0D0AC300C0E012154315811581D003D0024B
:0D0AD000900031E0FCA3E0FD4C60A90A900D
:0B0ADD0000267401F08A821209F490D8
:0E0AE8000028E0FAA3E0FBA3E0FC8A828B83E7
:0C0AF6008CF01209A075823A1208DA9008
:090B0200002BE0FAF5820208DA8A
:0617A7004572726F720032
:0E17AD000A0A0D20456E74657220526F772077
:0E17BB006E756D626572206265747765656E8D
:0A17C900203020746F20333A200016
:0E17D3000A0A0D20456E7465722076616C69FD
:0E17E1006420726F77206E756D6265722062F3
:0E17EF0065747765656D203020616E6420336F
:0317FD003A20008F
:021D2A0000A017
:021D2C0000C0F5
:03000000020003F8
:03005C00020B0B89
:050B0B00120B1780FE33
:070B1000438EC0900000229B
:0C0B1700D29012083E1212CA7582001221
:090B230009447582861209449010
:090B2C00180075F0801209A09078
:0C0B350000267406F07582021209F4908C
:090B4100180375F0801209A09060
:0C0B4A0000267406F07582031209F49076
:090B5600180975F0801209A07461
:080B5F000FC0E07418C0E012A1
:060B670015431581158104
:0E0B6D003098FD1212C0AA82C0021212AED041
:060B7B0002E4BA3101049E
:0C0B8100FB601AC002C00374A9C0E0743D
:0C0B8D0018C0E012154315811581D0033B
:050B9900D002020C4631
:0C0B9E00BA321AC002C00374CCC0E0746C
:0C0BAA0018C0E012154315811581D0031E
:050BB600D002020C4614
:0C0BBB00BA331AC002C00374EFC0E0742B
:0C0BC70018C0E012154315811581D00301
:050BD300D002020C46F7
:0C0BD800BA3419C002C0037411C0E074EC
:0C0BE40019C0E012154315811581D003E3
:040BF000D00280525D
:0C0BF400BA3519C002C0037431C0E074AF
:0C0C000019C0E012154315811581D003C6
:040C0C00D00280365C
:0C0C1000BA3619C002C0037458C0E0746A
:0C0C1C0019C0E012154315811581D003AA
:040C2800D002801A5C
:0C0C2C00BA3717C002C0037484C0E07423
:0C0C380019C0E012154315811581D0038E
:020C4400D002DC
:080C4600EB700DBA32028008C8
:050C4E00BA330280032F
:030C5300020DDDB2
:0A0C5600C002C00374B0C0E07419BE
:0D0C6000C0E012154315811581D003D002AC
:0E0C6D00900047E4F0A3F090003375F000C053
:0E0C7B0002C003121416D003D002900033758D
:0E0C8900F000C002C00312005FAC82AD83D049
:0D0C970003D0028C068D0774F82F400B90DF
:0A0CA40000477401F0E4A3F0801F84
:0C0CAE00C002C003C004C00574ECC0E02C
:0C0CBA007419C0E012154315811581D09B
:070CC60005D004D003D002A9
:0E0CCD00900047E0FEA3E0FF4E60958C068D80
:0A0CDB00078F08750900EB70030293
:020CE5000D7F81
:0A0CE700C004C005742CC0E0741AAC
:0D0CF100C0E012154315811581D005D00417
:0E0CFE00900047E4F0A3F090003D75F000C0B8
:0E0D0C0004C005121416D005D00490003D75E9
:0E0D1A00F000C004C0051202F3AB82A883D023
:0D0D280005D0048B01880674FF2E400B904F
:0A0D350000477401F0E4A3F0801FF2
:0C0D3F00C003C004C005C0007462C0E026
:0C0D4B00741AC0E012154315811581D008
:070D570000D005D004D00319
:0E0D5E00900047E0F9A3E0FE4960958C06AFD7
:070D6C0008900016EBF09067
:0A0D73000017EFF08E821206A102B5
:020D7D000DFE69
:0C0D7F00BA32368C038D06900019E5088E
:0E0D8B00F08B82C004C0051206DFAB82D005DB
:0D0D9900D0047E00C003C006C004C0057475
:080DA600B0C0E0741AC0E012B5
:0A0DAE001543E58124FAF581804623
:0C0DB800BA3343900019E508F08C821259
:080DC40006DFAB8290002874E9
:0A0DCC0033F0A37400F0A37400F0EC
:070DD6008B82120A6F8021DD
:0B0DDD00BA34087582011208FD801670
:080DE800BA3505120E10800E51
:080DF000BA36051210958006C9
:060DF800BA3703121200DD
:090DFE0074C0C0E0741AC0E012D8
:090E0700154315811581020B6DE4
:070E1000900072E4F0A3F072
:090E1700745CC0E0741BC0E01221
:060E200015431581158148
:0E0E2600900070E4F0A3F090004975F0001207
:090E3400141690004975F000123B
:0E0E3D00005FAA82AB8390006EEAF0A3EBF098
:0E0E4B008A048B0574F82D400B900070740122
:060E5900F0E4A3F0801795
:0A0E5F00C002C003749EC0E0741BC3
:0D0E6900C0E012154315811581D003D002A1
:0E0E7600900070E0FCA3E0FD4C60A5C002C03F
:0A0E84000374E4C0E0741BC0E01228
:0A0E8E00154315811581D003D00231
:0E0E9800900070E4F0A3F090005375F000C0DD
:0E0EA60002C003121416D003D0029000537540
:0E0EB400F000C002C00312005FAC82AD83D01C
:0D0EC20003D0028C068D0774F82F400B90B2
:0A0ECF0000707401F0E4A3F0801F2E
:0C0ED900C002C003C004C0057424C0E0C7
:0C0EE500741CC0E012154315811581D06B
:070EF10005D004D003D0027C
:0E0EF800900070E0FEA3E0FF4E6095ECC39A00
:0E0F0600FCED9BFD74012CFEE43DFFC002C01B
:0C0F140003C004C005C006C0077468C01C
:0C0F2000E0741CC0E0121543E58124FCC5
:0E0F2C00F581D005D004D003D0028C068D07CD
:0D0F3A00EF30E71FC002C003C004C0057403
:080F47007DC0E0741CC0E01243
:0E0F4F00154315811581D005D004D003D002C2
:0B0F5D008C068D07EF30E703020E1733
:040F68007E007F0088
:080F6C00C3EC9EED9F50012231
:080F7400EE540F600302101C93
:0E0F7C00C004C005C002C003C004C005C0060A
:0B0F8A00C007C002C00374D1C0E074B7
:0C0F95001CC0E0121543E58124FCF5812E
:0E0FA100D007D006D005D004D003D0027410C3
:0D0FAF002AFAE43BFB900072E4F0A3F090FE
:0A0FBC00006EE0F8A3E0F9890A7561
:080FC6000B00880490000FE508
:0C0FCE000AF09000107410F0E4A3F09002
:070FDA000012745DF0A37426
:0C0FE10000F0A3E4F08C82C002C003C04A
:0E0FED0004C005C006C007C000C0011205B157
:0E0FFB00D001D000D007D006D005D004D0031E
:0E100900D00290006E740128F0E439A3F0D0FC
:0510170005D004801368
:0E101C0090006EE0F8A3E0F990006E740128D9
:05102A00F0E439A3F021
:0E102F00C004C005900072E0F8A3E0F9E824C8
:0A103D005DF582E93400F583E0FC64
:0E1047007D00C002C003C004C005C006C00783
:0C105500C000C001C004C00574D9C0E098
:0C106100741CC0E0121543E58124FCF56E
:0E106D0081D001D000D007D006D005D004D02D
:0E107B0003D002900072740128F0E439A3F053
:051089000EBE00010F86
:07108E00D005D004020F6C35
:0B1095007582801208FD74DDC0E0745D
:0C10A0001CC0E0121543158115817A0078
:0410AC007B007C0049
:0E10B000C3EB9440EC64809480400302115224
:0E10BE009000837410F0E4A3F08B828C83C04A
:0E10CC0002C003C00412166BE5828583F0D0CB
:0E10DA0004D003D00245F070330AC002C003F8
:0A10E800C00474F8C0E0741CC0E0FE
:0E10F20012154315811581D004D003D0029051
:0E11000000267401F08A82C002C003C00412EF
:08110E0009F4D004D003D00263
:0E111600C002C003C004120920AD82D004D074
:0E11240003D0028D82C002C003C0041212AEBE
:0E113200D004D003D00290000AC002C003C057
:0E11400004120548D004D003D0020BBB0001FE
:01114E000C94
:03114F000210B0DB
:0D1152009000267401F07582011209F474FA
:08115F00FDC0E0741CC0E012A9
:0A1167001543158115817A007B0005
:0C117100C3EA9450EB648094804001229B
:0E117D009000837410F0E4A3F08A828B83C08C
:0E118B0002C00312166BE5828583F0D003D0FC
:0E1199000245F0701DC002C003C002C0037406
:0811A70016C0E0741DC0E01247
:0C11AF001543E58124FCF581D003D0023B
:0E11BB00C002C003120920AC82D003D002ECA7
:0D11C9003395E0FDC002C003C004C00574F2
:0811D6001EC0E0741DC0E01210
:0D11DE001543E58124FCF581D003D002907B
:0E11EB00000AC002C003120548D003D0020A59
:0411F900BA00010B2C
:0311FD000211716B
:0E12000075820A1212AE7582401208FD7A0045
:02120E007B0063
:0C121000C3EA9440EB648094804001220B
:0E121C009000837410F0E4A3F08A828B83C0EC
:0E122A0002C00312166BE5828583F0D003D05C
:0E1238000245F0701DC002C003C002C0037466
:0812460016C0E0741DC0E012A7
:0C124E001543E58124FCF581D003D0029B
:0E125A00C002C003120920AC82D003D002757E
:0E1268008209C002C003C0041212AED004D02E
:0E12760003D0027D00C002C003C004C0057496
:0812840023C0E0741DC0E0125C
:0D128C001543E58124FCF581D003D00290CC
:0E129900000AC002C003120548D003D0020AAA
:0412A700BA00010B7D
:0312AB000212101C
:0318000048690034
:0618030048656C6C6F00EB
:06180900576F726C6400D1
:0E180F000A0D09090909092A2A2A2A2A2A2A61
:0E181D002A20436F6E74726F6C20436F6D6DE6
:0E182B00616E6473202A2A2A2A2A2A2A2A0A8F
:0E1839000D09312E20577269746520427974B2
:0E18470065200A0D09322E2052656164204290
:0E185500797465200A0D09332E204C4344207F
:0E186300446973706C61790A0D09342E2043BC
:0E1871006C656172204C43440A0D09352E202F
:0E187F004865782044756D700A0D09362E20DC
:0E188D00444452414D2044756D700A0D0937D8
:0E189B002E20434752414D2044756D700900C8
:0E18A9000A0A0D0909202A2A2A2A2A2A2020A2
:0E18B700577269746520436F6D6D616E642019
:0718C500202A2A2A2A2A002A
:0E18CC000A0A0D0909202A2A2A2A2A2A20207F
:0E18DA005265616420436F6D6D616E64202065
:0718E8002A2A2A2A2A2A00FD
:0E18EF000A0A0D0909202A2A2A2A2A2A20205C
:0E18FD004C434420444953504C415920202A6A
:06190B002A2A2A2A2A0004
:0E1911000A0A0D0909202A2A2A2A2A2A202039
:0E191F00436C656172204C434420202A2A2A22
:04192D002A2A2A0038
:0E1931000A0A0D0909202A2A2A2A2A2A202019
:0E193F004865782044756D7020436F6D6D61B2
:0B194D006E6420202A2A2A2A2A2A0081
:0E1958000A0A0D0909202A2A2A2A2A2A2020F2
:0E196600444452414D2044756D7020436F6D16
:0E1974006D616E6420202A2A2A2A2A2A0A0A75
:021982000D0056
:0E1984000A0A0D0909202A2A2A2A2A2A2020C6
:0E199200434752414D2044756D7020436F6DE8
:0E19A0006D616E6420202A2A2A2A2A2A0A0A49
:0219AE000D002A
:0E19B0000A0A0D20456E74657220416464724F
:0E19BE0065737320696E2048657820696E207D
:0E19CC0048484820666F726D61742062657431
:0E19DA007765656E2030303020746F20374600
:0419E800463A20005B
:0E19EC000A0A0D202A2D4552524F522D2A096B
:0E19FA0020506C6561736520456E7465722027
:0E1A080076616C6964204164647265737320BA
:0E1A16006265747765656D2030303020616E3A
:081A240064203746463A200019
:0E1A2C000A0A0D20456E7465722044617461D3
:0E1A3A0020696E2048657820696E204848209B
:0E1A4800666F726D6174206265747765656EFD
:0C1A560020303020746F2046463A2000FB
:0E1A62000A0A0D202A2D4552524F522D2A09F4
:0E1A700020506C6561736520456E74657220B0
:0E1A7E0076616C6964206461746120696E2079
:0E1A8C0048657820696E20484820666F726DAC
:0E1A9A006174206265747765656E20303020BF
:081AA800746F2046463A20004D
:0E1AB0000A0A0D0909092578203A2025782018
:021ABE000A001C
:0E1AC0000A0A0A0D09090909092A2A2A2A2AEE
:0E1ACE002A2A2A20436F6E74726F6C20436FB9
:0E1ADC006D6D616E6473202A2A2A2A2A2A2A36
:0E1AEA002A0A0D09312E2057726974652042B8
:0E1AF800797465200A0D09322E205265616452
:0E1B06002042797465200A0D09332E204C43CD
:0E1B14004420446973706C61790A0D09342E07
:0E1B220020436C656172204C43440A0D093566
:0E1B30002E204865782044756D700A0D093628
:0E1B3E002E20444452414D2044756D700A0D16
:0E1B4C0009372E20434752414D2044756D70DD
:021B5A00090080
:0E1B5C000A0A0D20456E746572205374617282
:0E1B6A0074204164647265737320696E2048B4
:0E1B7800657820696E2048484820666F726DBF
:0E1B86006174206265747765656E20303030C2
:0A1B940020746F203746463A200007
:0E1B9E000A0A0D202A2D4552524F522D2A09B7
:0E1BAC0020506C6561736520456E7465722073
:0E1BBA0076616C6964207374617274204164FA
:0E1BC8006472657373206265747765656D20C5
:0E1BD60030303020616E64203746463A2000E1
:0E1BE4000A0A0D20456E74657220456E64205D
:0E1BF2004164647265737320696E20486578E3
:0E1C000020696E2048484820666F726D61743E
:0E1C0E00206265747765656E2030303020747A
:081C1C006F203746463A200014
:0E1C24000A0A0D202A2D4552524F522D2A0930
:0E1C320020506C6561736520456E74657220EC
:0E1C400076616C696420656E64204164647294
:0E1C4E00657373206265747765656D203030B4
:0C1C5C003020616E64203746463A2000BC
:0E1C68000A0D09546F74616C20427974657323
:071C76003A2025640A0D006D
:0E1C7D000A0D202D4552524F522D20456E6407
:0E1C8B00206164647265737320736D616C6C0C
:0E1C99006572207468616E2074686520737433
:0E1CA70061727420616464726573730A0D20AB
:0E1CB500456E7465722056616C69642061642E
:0E1CC30064726573732072616E67650A0D00AE
:081CD1000A0A0D25783A09000A
:041CD9002578090061
:0E1CDD000A0D0909417363696920526570722E
:0D1CEB006573656E746174696F6E0A0D009B
:051CF8000A0D090900BE
:0E1CFD000A0D090948657820526570726573FA
:0B1D0B00656E746174696F6E0A0D0054
:081D16000A0A0D30782578005F
:051D1E000920257800FA
:031D230025780020
:021D2E0000A013
:021D300000C0F1
:0612AE00E582900074F0DF
:0C12B4003099FD900074E0F599C2992279
:0512C00010980280FB04
:0512C500AA998A8222B3
:0E12CA0075C800759B00858787758DFD758B37
:0B12D800004388404398527589202293
:06003200E478FFF6D8FDA2
:08001000790CE94400601B7A41
:0500180001901D267897
:03001D008C75A03F
:0A00200000E493F2A308B800020503
:08002A00A0D9F4DAF275A0FF81
:0E12E300AAF0AB83E582900075F0A3EBF0A3B8
:0E12F100EAF07A007B00900075E0FCA3E0FDBF
:0312FF00A3E0FE6B
:0E1302008C828D838EF0121787FF6039C374C2
:0E131000B98FF063F08095F04007EF64809491
:03131E00B05026A6
:0E1321008C828D838EF0121787FFBF2D028005
:01132F0017A6
:05133000BF2B0280123A
:051335000CBC00010DDD
:0D133A00900075ECF0A3EDF0A3EEF080BB89
:0E134700900075ECF0A3EDF0A3EEF08C828D1B
:0C135500838EF0121787FFE4BF2D010407
:08136100F888017003BF2B0E98
:0E13690090007574012CF0E43DA3F0A3EEF0AB
:0B137700900075E0FCA3E0FDA3E0FE89
:0E1382008C828D838EF0121787FF6068C3EF98
:0E139000648094B0406074B98FF063F0809573
:0E139E00F04055C001900081740AF0E4A3F005
:0E13AC008A828B83C004C005C006C007C00142
:0813BA0012164B85820C85839D
:0C13C2000DD001D007D006D005D004EFFC
:0E13CE003395E0F8EF24D0FFE834FFF8EF2568
:0A13DC000CFAE8350DFB0CBC000113
:0113E6000DF9
:0E13E700900075ECF0A3EDF0A3EEF0D00180C5
:0113F5008C6B
:0E13F600900075ECF0A3EDF0A3EEF0E96009B5
:09140400C3E49AFCE49BFD8004A2
:04140D008A048B05BD
:051411008C828D832296
:0E141600AAF0AB83E582900078F0A3EBF0A380
:0E142400EAF0900078E0FAA3E0FBA3E0FC9071
:0E143200007BEAF0A3EBF0A3ECF090007EE468
:03144000F0A3F026
:0A1443001212C0AA82BA0802800D3E
:05144D00BA0A028067ED
:05145200BA0D028062EA
:031457000214EC90
:0E145A0090007EE0FBA3E0FC4B60DE75820894
:0E146800C003C0041212AED004D0037582205F
:0E147600C003C0041212AED004D00375820869
:0E148400C003C0041212AED004D00390007B4F
:0D149200E0FDA3E0FEA3E0FF1DBDFF011E75
:0E149F0090007BEDF0A3EEF0A3EFF01BBBFF7F
:0214AD00011C20
:0A14AF0090007EEBF0A3ECF0808AC1
:0D14B90075820D1212AE75820A1212AE90ED
:0E14C600007BE0FBA3E0FCA3E0FD8B828C83A7
:0E14D4008DF0E412152A900078E0FBA3E0FCF6
:0A14E200A3E0FD8B828C838DF022C5
:0E14EC0090007BE0FBA3E0FCA3E0FD8B828C74
:0E14FA00838DF0EA12152A90007B74012BF00E
:0E150800E43CA3F0A3EDF090007EE0FBA3E036
:0E151600FC90007E74012BF0E43CA3F08A826E
:061524001212AE02144396
:0E152A0020F71030F6118883A88220F507F60E
:05153800A8837583008B
:01153D00228B
:03153E00F280F741
:02154100F02296
:05154300C00E85810EC1
:0B154800E50E24FDF88683188682184B
:0E155300E493A324DB600C24256005121630FF
:0215610080F018
:0315630002164825
:09156600D2D5E493A3C083C08236
:03156F00B473143E
:0915720086F018868318868218A1
:0B157B001217876053A312163080F592
:0A158600B46307E618121630804324
:0E159000B46417E630E74618E6F42401F608C6
:0C159E00E6F43400F6742D121630803391
:0A15AA00B4782D868318868218E4B9
:0B15B400121621E583121620E58312B9
:0A15BF001621E582121620E58212C3
:0A15C900162130D5057430121630DB
:0715D300D082D08302155302
:0315DA00B475F6EF
:0615DD00E6FA18E6F91819
:0D15E3007C107D2712160BFF7CE87D0312A3
:0E15F000160BC4F5837C647D0012160B42833B
:0D15FE00E975F00A84C445F0F582EF80A97C
:02160B007B0062
:0E160D000BC3E99CF9EA9DFA50F61BE92CF993
:05161B00EA3DFAEB229C
:01162000C405
:07162100540F700320D51FD8
:08162800C2D52490D43440D453
:0E163000C083C082C0F0F582E8C0E01212AEA6
:09163E00D0E0F8D0F0D082D08396
:011647002280
:03164800D00E229F
:0E164B00AA83AB828BF0900081E0A4F8A9F096
:0E1659008AF0E0A429F98BF0A3E0A429F58320
:041667008882222231
:0E166B00AA83E582900085F0A3EAF090008546
:0E167900E0FAA3E0FB30E709C3E49AFCE49B2F
:03168700FD8004DF
:04168A008A048B053E
:0E168E008C028D03900083E0FCA3E0FD30E7AA
:0A169C0009C3E49CFEE49DFF8004F6
:0416A6008C068D071A
:0D16AA00900087EEF0A3EFF08A828B831290
:0E16B70016D9AA82AB83900085E0FCA3E0FD6B
:0E16C50030E70CC3E49AFCE49BFD8C828D831D
:0116D30022F4
:0516D4008A828B8322D5
:0E16D900AA83E582900089F0A3EAF090008BCE
:0C16E700E4F0900089E0FAA3E0FB7C0036
:0E16F300900087E0FDA3E0FE235401FF703756
:0E170100EECD25E0CD33FE900087EDF0A3EE97
:0E170F00F0900087E0FDA3E0FEC3EA9DEB9E94
:0E171D005011EEC313CD13CDFE900087EDF0FA
:05172B00A3EEF08008B0
:081730000C90008BECF080BB73
:0517380090008BE0FAB7
:0E173D00900089E0FBA3E0FC900087E0FDA394
:0E174B00E0FEC3EB9DEC9E400B900089EBC3CB
:061759009DF0EC9EA3F0E0
:0E175F00900087E0FBA3E0FCC313CB13CBFC90
:0E176D00900087EBF0A3ECF08A031AEB70C239
:0C177B00900089E0FAA3E08A82F5832246
:080038007800E84400600A7939
:030040000075A0A8
:0600430000E4F309D8FC03
:08004900788CE84400600C799A
:0B00510001900000E4F0A3D8FCD9FAF5
:0300030075810EF6
:0A0006001217A3E5826003020B0B42
:0E17870020F71430F6148883A88220F507E6B8
:06179500A8837583002209
:03179B00E280F7F2
:03179E00E49322AF
:0217A100E02244
:0417A3007582002229
:00000001FF
