:0E005F00AA83E582900000F0A3EAF090000072
:05006D00E0FAA3E0FB36
:08007200BA0005BB0002800F7B
:05007A001ABAFF011B92
:0A007F00900000EAF0A3EBF080E926
:09008900900000EAF0A3EBF02264
:0E009200AA83E582900002F0A3EAF09000023B
:0500A000E0FAA3E0FB03
:0800A500BA0005BB0002801D3A
:0E00AD00900070C002C00312005FD003D002AA
:0500BB001ABAFF011B51
:0A00C000900002EAF0A3EBF080DBF1
:0900CA00900002EAF0A3EBF02221
:0B00D300E582900004F0900004E0FAC9
:0500DE00BA00028012CF
:0E00E3009003E8C002120092D0021A900004AE
:0400F100EAF080E9C8
:0600F500900004EAF02275
:0A00FB00E582900007F012030F9059
:0E0105000006E025E0FA4302A08A82120347BA
:0B0113001203BE900007E0FAF5821214
:06011E0003471203BE902E
:0A0124000005E0FAF582120347120D
:09012E0003BE12032C900005022F
:02013700009234
:0A013900E582900009F012030F9018
:0E0143000008E025E0FA74A04AFBF582C00235
:0D015100120347D002C0021203BED002907C
:0E015E000009E0FBF582C002120347D002C088
:0E016C00021203BED002C00212030FD00243E3
:0B017A0002A18A821203471203BE128A
:0E0185000374AA82C0021203C6D002C0021286
:0E019300032CD00290000AC00212005FD002BE
:0301A1008A82222D
:0C01A400E58290000FF090000EE0FA9051
:0E01B000000FE0FB90000AE0FCA3E0FDA3E0DE
:0601BE00FE90000DE0FFC1
:0501C400BF0002803FB6
:0E01C9008C828D838EF0121707F8A3AC82ADE6
:0E01D70083900005E8F0900006EAF08B82C0ED
:0E01E50002C003C004C005C006C0071200FB24
:0E01F300D007D006D005D004D003D0020B9068
:07020100000FEBF01F80BCB1
:0602080090000FEBF02254
:0A020E00E582900016F012030F9035
:0E0218000010E025E0FA74A04AFBF582C00257
:0D022600120347D002C0021203BED00290A6
:0E0233000016E0FBF582C002120347D002C0A5
:0E024100021203BED002C00212030FD002430D
:0B024F0002A18A821203471203BE9036
:0E025A000011E0FAA3E0FB900013E0FCA3E02B
:08026800FDA3E0FE7F00780019
:0E027000C3EF9AE864808BF063F08095F05045
:0E027E0056C002C003C004C005C006C007C0C1
:0E028C0000120374A982D000D007D006D0055E
:0E029A00D004D003D0028C828D838EF0E91246
:0E02A80014AAA3AC82AD83C002C003C004C080
:0E02B60005C006C007C0001203BED000D0076E
:0E02C400D006D005D004D003D0020FBF009E9C
:0302D20008809B06
:0E02D500EA2CFAEB3DFB8E07C002C003C00707
:0E02E300120374AC82D007D003D0028A828B43
:0B02F100838FF0EC1214AA1203C60267
:0202FC00032CD1
:0E02FE0090000112005FD29190000112005F8B
:03030C00C2912279
:0D030F00C291D29290000112005FD2919035
:0E031C00000112005FC29290000112005FC249
:02032A0091221E
:0E032C00C29190000112005FC2929000011277
:0D033A00005FD29190000112005FD292226C
:08034700E582900017F07A0036
:03034F00BA0800E9
:0E035200501D900017E0FB339292C002C003D2
:0E0360001202FED003D002EB2BFB900017F030
:03036E000A80DE24
:03037100D2922203
:09037400900018E4F0D2927A0026
:03037D00BA0800BB
:0E0380005035900001C00212005FD002D291F1
:0E038E00900001C00212005FD002900018E043
:0E039C0025E0FB900018F0900018E0FBE4A2B2
:0D03AA009233FC9000184BF0C2910A80C6FF
:0703B700900018E0F582221E
:0803BE00C2921202FED292224B
:0803C600D2921202FED2912234
:0E03CE00C2939000C812060C9000A8E0FAA39B
:0D03DC00E0FB8A828B837430F090003C12AD
:0E03E900060C9000A8E0FAA3E0FB8A828B834A
:0E03F7007430F090000512060C9000A8E0FA99
:0E040500A3E0FB8A828B837430F01205049012
:0E04130000A8E0FAA3E0FB8A828B837438F025
:0A04210090000112060C1205049071
:0E042B0000A8E0FAA3E0FB8A828B837408F03D
:0E0439001205049000A8E0FAA3E0FB8A828B73
:0E04470083740CF01205049000A8E0FAA3E004
:0E045500FB8A828B837406F01205049000A8C7
:0D046300E0FAA3E0FB8A828B837401F09025
:05047000000102060C72
:0E047500E582900019F0D29390000112060C5F
:0E0483009000A8E0FAA3E0FB900019E0FC8ACC
:07049100828B83F0020504D9
:0E049800E58290001AF0C29390000112060C4B
:0E04A6009000A8E0FAA3E0FB90001AE0FC8AA8
:0904B400828B83F0D29002050452
:0E04BD00D29390000112060C9000AAE0FAA360
:0D04CB00E0FB8A828B83E0FA90001BF012A8
:0904D800050490001BE0F58222EE
:0E04E100E58290001CF0C29390000112060C00
:0E04EF009000A8E0FAA3E0FB90001CE0FC8A5D
:0704FD00828B83F00205046D
:0E050400C2939000AAE0FAA3E0FB8A828B83E8
:0C051200E0FA90001DF090000112060CB1
:0E051E0090001DE0FA30E7149000AAE0FAA366
:0E052C00E0FB8A828B83E0FA90001DF080E4F1
:03053A00C290224A
:0E053D00AAF0AB83E58290001EF0A3EBF0A3C2
:0E054B00EAF090001EE0FAA3E0FBA3E0FC7DC6
:03055900007E0021
:0E055C00ED2AFFEE3BF88C018F82888389F038
:0E056A00121707FF60208F82C002C003C0047A
:0E057800C005C006120475D006D005D004D010
:0A05860003D0020DBD00CF0E80CCA3
:010590002248
:0E059100E582900022F0900022E0FABA0113F9
:08059F00900021E0FABA1100FE
:0B05A7005009747F2AFAF5820204E17B
:0E05B200900022E0FABA0213900021E0FABA9B
:0205C000110028
:0B05C200500974BF2AFAF5820204E120
:0E05CD00900022E0FABA0313900021E0FABA7F
:0205DB0011000D
:0B05DD005009748F2AFAF5820204E135
:0E05E800900022E0FABA0413900021E0FABA63
:0205F6001100F2
:0B05F800500974CF2AFAF5820204E1DA
:0906030090172375F08002053DFB
:0E060C00AA83E582900023F0A3EAF090002379
:09061A00E0FAA3E0FB7C007D0086
:0E062300C3EC9AED64808BF063F08095F0508C
:05063100147E647F004F
:050636001EBEFF011FC4
:0B063B00EE4F70F70CBC00E00D80DDFE
:010646002291
:061723004572726F7200B6
:021A410000A003
:021A430000C0E1
:03000000020003F8
:03005C0002064752
:0506470012065380FEC5
:07064C00438EC09000002264
:0C065300D2901203CE12094975820012E9
:09065F0004E17582851204E190AA
:09066800172975F08012053D9080
:0C06710000217403F075820412059190C2
:09067D00172C75F08012053D7484
:0806860038C0E07417C0E01257
:06068E0014C31581158163
:0E0694003098FD12093FAA82C00212092DD033
:0606A20002E4BA3101047C
:0C06A800FB601AC002C00374B6C0E0740E
:0C06B40017C0E01214C315811581D0039B
:0506C000D00202073327
:0C06C500BA3219C002C00374CAC0E0744D
:0C06D10017C0E01214C315811581D0037E
:0406DD00D002805275
:0C06E100BA3319C002C00374DDC0E0741D
:0C06ED0017C0E01214C315811581D00362
:0406F900D002803675
:0C06FD00BA3419C002C00374EFC0E074EE
:0C07090017C0E01214C315811581D00345
:04071500D002801A74
:0C071900BA3517C002C00374FFC0E074C2
:0C07250017C0E01214C315811581D00329
:02073100D002F4
:08073300EB700DBA32028008E0
:05073B00BA3302800347
:030740000208FAB2
:0A074300C002C0037416C0E0741871
:0D074D00C0E01214C315811581D003D00245
:0E075A00900043E4F0A3F090002F75F000C073
:0E07680002C003121396D003D00290002F752A
:0E077600F000C002C003120CB6AC82AD83D0FE
:0E07840003D002C002C003C004C005C004C000
:0A079200057452C0E07418C0E012B4
:0E079C0014C3E58124FCF581D005D004D00300
:0E07AA00D0028C068D0774F82F400B90004390
:0807B8007401F0E4A3F0801FBE
:0C07C000C002C003C004C005745EC0E0AD
:0C07CC007418C0E01214C315811581D010
:0707D80005D004D003D0029C
:0E07DF00900043E0FEA3E0FF4E700302075AB5
:0A07ED008C068D078F08750900EBDC
:0507F7007003020894EC
:0A07FC00C004C0057492C0E0741838
:0D080600C0E01214C315811581D005D00487
:0E081300900043E4F0A3F090003975F000C0AF
:0E08210004C005121396D005D004900039755E
:0E082F00F000C004C005120F4AAB82A883D0AF
:0D083D0005D0048B01880674FF2E400B903F
:0A084A0000437401F0E4A3F0801FE6
:0C085400C003C004C005C00074C8C0E0B0
:0C0860007418C0E01214C315811581D07B
:07086C0000D005D004D00309
:0E087300900043E0F9A3E0FE4960958C06AFCB
:0708810008900005EBF09068
:0A0888000006EFF08E821200FB0262
:02089200091B40
:0C089400BA32368C038D06900008E5088F
:0E08A000F08B82C004C005120139AB82D00576
:0D08AE00D0047E00C003C006C004C0057465
:0808BB0003C0E07419C0E01253
:0A08C30014C3E58124FAF581804E8C
:0C08CD00BA334B900008E508F08C821252
:0A08D9000139AB82900025E0FC908D
:0708E3000046F0900047748D
:0A08EA002FF0A37400F0A3E4F08BDC
:0608F4008212096280215E
:0B08FA00BA34087582011204988016C1
:08090500BA3505120A09800E43
:08090D00BA360512116C8006D8
:06091500BA3703121218AC
:09091B007438C0E07417C0E0124A
:0909240014C3158115810206942B
:06092D00E582900045F098
:0C0933003099FD900045E0F599C2992232
:05093F0010980280FB8E
:05094400AA998A82223D
:0E09490075C800759B00858787758DFD758BC1
:0B09570000438840439852758920221D
:0B096200E58290004AF0740EC0E074C3
:0A096D0019C0E01214C315811581B2
:0E097700900050E4F0A3F090004B75F00012D9
:09098500139690004B75F000126E
:0E098E001263AA82AB838A048B05C3EC940427
:0E099C00ED9400500B9000507401F0E4A3F0B5
:0209AA008017B4
:0A09AC00C002C0037434C0E07419E7
:0D09B600C0E01214C315811581D003D002DA
:0D09C300900050E0FCA3E0FD4C60A90A90FC
:0B09D00000217401F08A821205919052
:0B09DB000046E0FA1A8A8212047590B0
:0E09E6000047E0FAA3E0FBA3E0FC8A828B83CB
:0C09F4008CF012053D75823A12047590DB
:090A0000004AE0FAF582020475D7
:070A0900900085E4F0A3F06A
:090A10007461C0E07419C0E01229
:060A190014C315811581D4
:0E0A1F00900083E4F0A3F090005C75F00012EC
:090A2D00139690005C75F00012B4
:0E0A36000CB6AA82AB83900081EAF0A3EBF02D
:0E0A44008A048B0574F82D400B90008374011A
:060A5200F0E4A3F08017A0
:0A0A5800C002C003745EC0E0741811
:0D0A6200C0E01214C315811581D003D0022D
:0E0A6F00900083E0FCA3E0FD4C60A5C002C037
:0A0A7D000374A3C0E07419C0E01276
:0A0A870014C315811581D003D002BD
:0E0A9100900083E4F0A3F090006675F000C0C2
:0E0A9F0002C003121396D003D00290006675B9
:0E0AAD00F000C002C003120CB6AC82AD83D0C4
:0D0ABB0003D0028C068D0774F82F400B90BD
:0A0AC80000837401F0E4A3F0801F26
:0C0AD200C002C003C004C005745EC0E098
:0C0ADE007418C0E01214C315811581D0FB
:070AEA0005D004D003D00287
:0E0AF100900083E0FEA3E0FF4E6095ECC39AF8
:0E0AFF00FCED9BFDC002C003C004C005C00496
:0A0B0D00C00574E3C0E07419C0E0F5
:0E0B17001214C3E58124FCF581D005D004D072
:0E0B250003D0028C068D07EF30E71FC002C020
:0A0B330003C004C00574F8C0E074AC
:0C0B3D0019C0E01214C315811581D00509
:060B4900D004D003D0022D
:0E0B4F008C068D07C3E49E74808FF063F080E7
:070B5D0095F04003020A10AD
:0D0B6400C002C003C004C005C004C0057479
:080B71001FC0E0741AC0E0127D
:0E0B790014C3E58124FCF581D005D004D0031F
:060B8700D0027E007F0099
:080B8D00C3EC9EED9F50012214
:080B9500EE540F6003020C3D59
:0E0B9D00C004C005C002C003C004C005C006ED
:0B0BAB00C007C002C0037433C0E07438
:0C0BB6001AC0E01214C3E58124FCF58194
:0E0BC200D007D006D005D004D003D0027410A6
:0D0BD0002AFAE43BFB900085E4F0A3F090CE
:0A0BDD000081E0F8A3E0F9890A7531
:080BE7000B008804900010E5EA
:0C0BEF000AF09000117410F0E4A3F090E4
:070BFB0000137470F0A374F5
:0C0C020000F0A3E4F08C82C002C003C02C
:0E0C0E0004C005C006C007C000C00112020EDF
:0E0C1C00D001D000D007D006D005D004D00300
:0E0C2A00D002900081740128F0E439A3F0D0CC
:050C380005D00480134B
:0E0C3D00900081E0F8A3E0F990008174012896
:050C4B00F0E439A3F004
:0E0C5000C004C005900085E0F8A3E0F9E82498
:0A0C5E0070F582E93400F583E0FC34
:0E0C68007D00C002C003C004C005C006C00766
:0C0C7600C000C001C004C005743AC0E01A
:0C0C8200741AC0E01214C3E58124FCF5D4
:0E0C8E0081D001D000D007D006D005D004D010
:0E0C9C0003D002900085740128F0E439A3F023
:050CAA000EBE00010F69
:070CAF00D005D004020B8DFB
:0E0CB600AAF0AB83E582900087F0A3EBF0A3D9
:0E0CC400EAF0900087E0FAA3E0FBA3E0FC74E6
:0E0CD200032AFDE43BFE8C078D828E838FF09B
:0A0CE000121707FD6004900834228B
:0E0CEA008A828B838CF0121707FDC3648094FE
:0E0CF800B0403374B78DF063F08095F0402863
:0E0D0600ED3395E0FEED24D0FDEE34FF8D06BA
:0E0D14007D0090008AEDF0A3EEF09000877451
:0C0D2200012AF0E43BA3F0A3ECF08004F5
:040D2E0090083722D0
:0E0D3200900087E0FAA3E0FBA3E0FC8A828B2E
:0E0D4000838CF0121707FDC3648094B0404806
:0E0D4E0074B98DF063F08095F0403DED339563
:0E0D5C00E0FEED24D0FDEE34FFFEC454F0CDD9
:0E0D6A00C4CD6DCD54F0CD6DFE90008AE0FF3B
:0E0D7800A3E0F890008AED2FF0EE38A3F09083
:0E0D8600008774012AF0E43BA3F0A3ECF00216
:020D94000E61EE
:0E0D9600900087E0FAA3E0FBA3E0FC8A828BCA
:0E0DA400838CF0121707FDC3648094E1404871
:0E0DB20074E68DF063F08095F0403DED3395D2
:0E0DC000E0FEED24A9FDEE34FFFEC454F0CD9C
:0E0DCE00C4CD6DCD54F0CD6DFE90008AE0FFD7
:0E0DDC00A3E0F890008AED2FF0EE38A3F0901F
:0E0DEA00008774012AF0E43BA3F0A3ECF002B2
:020DF8000E618A
:0E0DFA00900087E0FAA3E0FBA3E0FC8A828B66
:0E0E0800838CF0121707FDC3648094C140472D
:0E0E160074C68DF063F08095F0403CED33958E
:0E0E2400E0FEED24C9FDEE34FFFEC454F0CD17
:0E0E3200C4CD6DCD54F0CD6DFE90008AE0FF72
:0E0E4000A3E0F890008AED2FF0EE38A3F090BA
:0E0E4E00008774012AF0E43BA3F0A3ECF080CF
:010E5C000491
:040E5D0090083522A2
:0E0E6100900087E0FAA3E0FBA3E0FC8A828BFE
:0E0E6F00838CF0121707FAC3648094B0402DF4
:0E0E7D0074B98AF063F08095F04022EA339554
:0E0E8B00E0FBEA24D0FAEB34FFFB90008AE093
:0E0E9900FCA3E0FD90008AEA2CF0EB3DA3F0F4
:030EA700020F3EF9
:0E0EAA00900087E0FAA3E0FBA3E0FC8A828BB5
:0E0EB800838CF0121707FAC3648094E1402C7B
:0E0EC60074E68AF063F08095F04021EA3395DF
:0E0ED400E0FBEA24A9FAEB34FFFB90008AE071
:0E0EE200FCA3E0FD90008AEA2CF0EB3DA3F0AB
:020EF000804C34
:0E0EF200900087E0FAA3E0FBA3E0FC8A828B6D
:0E0F0000838CF0121707FAC3648094C1402C52
:0E0F0E0074C68AF063F08095F04021EA3395B6
:0E0F1C00E0FBEA24C9FAEB34FFFB90008AE008
:0E0F2A00FCA3E0FD90008AEA2CF0EB3DA3F062
:020F3800800433
:040F3A0090083622C3
:0C0F3E0090008AE0FAA3E08A82F583228A
:0E0F4A00AAF0AB83E58290008CF0A3EBF0A33D
:0E0F5800EAF090008CE0FAA3E0FBA3E0FC744A
:0E0F6600022AFDE43BFE8C078D828E838FF005
:0A0F7400121707FD6004900102222D
:0E0F7E008A828B838CF0121707FDC364809467
:0E0F8C00B0403E74B98DF063F08095F04033B4
:0E0F9A00ED3395E0FEED24D0FDEE34FFFEC4F5
:0D0FA80054F0CDC4CD6DCD54F0CD6DFE9054
:0E0FB500008FEDF0A3EEF090008C74012AF096
:0A0FC300E43BA3F0A3ECF00210835E
:0E0FCD0090008CE0FAA3E0FBA3E0FC8A828B8C
:0E0FDB00838CF0121707FDC3648094E1403D43
:0E0FE90074E68DF063F08095F04032ED3395A4
:0E0FF700E0FEED24A9FDEE34FFFEC454F0CD63
:0E100500C4CD6DCD54F0CD6DFE90008FEDF09A
:0E101300A3EEF090008C74012AF0E43BA3F0F1
:05102100A3ECF0805D6E
:0E10260090008CE0FAA3E0FBA3E0FC8A828B32
:0E103400838CF0121707FDC3648094C1403D09
:0E10420074C68DF063F08095F04032ED33956A
:0E105000E0FEED24C9FDEE34FFFEC454F0CDE9
:0E105E00C4CD6DCD54F0CD6DFE90008FEDF041
:0E106C00A3EEF090008C74012AF0E43BA3F098
:05107A00A3ECF080046E
:04107F0090010122B9
:0E10830090008CE0FAA3E0FBA3E0FC8A828BD5
:0E109100838CF0121707FAC3648094B0402DD0
:0E109F0074B98AF063F08095F04022EA339530
:0E10AD00E0FBEA24D0FAEB34FFFB90008FE06A
:0E10BB00FCA3E0FD90008FEA2CF0EB3DA3F0CB
:0310C900021160B1
:0E10CC0090008CE0FAA3E0FBA3E0FC8A828B8C
:0E10DA00838CF0121707FAC3648094E1402C57
:0E10E80074E68AF063F08095F04021EA3395BB
:0E10F600E0FBEA24A9FAEB34FFFB90008FE048
:0E110400FCA3E0FD90008FEA2CF0EB3DA3F081
:02111200804C0F
:0E11140090008CE0FAA3E0FBA3E0FC8A828B43
:0E112200838CF0121707FAC3648094C1402C2E
:0E11300074C68AF063F08095F04021EA339592
:0E113E00E0FBEA24C9FAEB34FFFB90008FE0DF
:0E114C00FCA3E0FD90008FEA2CF0EB3DA3F039
:02115A0080040F
:04115C0090010122DB
:0C11600090008FE0FAA3E08A82F5832261
:0C116C007582801204987A007B007C00E1
:0C117800C3EB9440EC64809480400122A2
:0E11840090009F7410F0E4A3F08B828C83C067
:0E11920002C003C0041215EBE5828583F0D085
:0E11A00004D003D00245F070330AC002C00331
:0A11AE00C004743EC0E0741AC0E0F3
:0E11B8001214C315811581D004D003D002900B
:0E11C60000217401F08A82C002C003C004122E
:0811D4000591D004D003D00204
:0E11DC00C002C003C0041204BDAD82D004D016
:0E11EA0003D0028D82C002C003C00412092D82
:0E11F800D004D003D00290000AC002C003C091
:0E12060004120092D004D003D0020BBB0001F2
:011214000CCD
:031215000211784B
:0E12180075820A12092D7582401204987A2000
:021226007B004B
:0E122800C002C0031204BDAC82D003D0027518
:0E1236008209C002C003C00412092DD004D0EA
:0E12440003D0028C82C002C00312092DD00319
:07125200D0021ABAFF011BD4
:0A125900EA4B70CB90000A020092ED
:031729004869000C
:0C172C0048656C6C6F20576F726C640095
:0E1738000A0D436F6E74726F6C20436F6D6DFF
:0E174600616E64733A200A0D312E20577269CD
:0E17540074652042797465200A0D322E2052F1
:0E1762006561642042797465200A0D332E20E3
:0E1770004C434420446973706C61790A0D3457
:0E177E002E20436C656172204C43440A0D35E9
:0E178C002E204865782044756D700A0D362EAB
:0E179A0020444452414D2044756D700A0D37B5
:0E17A8002E20434752414D2044756D700900BC
:0E17B6000A0A0D090920577269746520436FF5
:0617C4006D6D616E640012
:0E17CA000A0A0D0909205265616420436F6D03
:0517D8006D616E64006C
:0E17DD000A0A0D0909204C4344204449535088
:0417EB004C41590014
:0E17EF000A0A0D090920436C656172204C4303
:0217FD004400A6
:0E17FF000A0A0D0909204865782044756D70AE
:09180D0020436F6D6D616E6400F3
:0E1816000A0A0D20456E7465722041646472EA
:0E18240065737320696E2048657820696E2018
:0E18320048484820666F726D617420626574CC
:0E1840007765656E2030303020746F2037469B
:04184E00463A2000F6
:0C185200416464726573733A20256400E1
:0E185E000A0A0D456E7465722076616C69642D
:0E186C00206E756D6265722041646472657352
:0E187A0073206265747765656D203030302014
:0A188800616E64203746463A2000E6
:0E1892000A0A0D20456E74657220446174616F
:0E18A00020696E2048657820696E2048482037
:0E18AE00666F726D6174206265747765656E99
:0C18BC0020303020746F2046463A200097
:0E18C8000A0A0D456E7465722076616C6964C3
:0E18D600206461746120696E20486578206985
:0E18E4006E20484820666F726D617420626548
:0E18F200747765656E20303020746F20464696
:031900003A20008A
:0B1903000A0A0D25783A2578200A001A
:0E190E000A0A0D20456E74657220526F772014
:0E191C006E756D626572206265747765656E2A
:0A192A00203020746F20333A2000B3
:0E1934000A0A0D20456E7465722076616C699A
:0E1942006420726F77206E756D626572206290
:0E19500065747765656D203020616E6420330C
:03195E003A20002C
:0E1961000A0A0D20456E74657220537461727F
:0E196F0074204164647265737320696E2048B1
:0E197D00657820696E2048484820666F726DBC
:0E198B006174206265747765656E20303030BF
:0A19990020746F203746463A200004
:0E19A3000A0A0D20456E74657220456E6420A0
:0E19B1004164647265737320696E2048657826
:0E19BF0020696E2048484820666F726D617482
:0E19CD00206265747765656E203030302074BE
:0819DB006F203746463A200058
:0E19E3000A0D09546F74616C204279746573AB
:0719F1003A2025640A0D00F5
:0E19F800456E64206164647265737320736DC4
:0E1A0600616C6C6572207468616E207374618F
:0B1A14007274206164647265737300DB
:0E1A1F004E756D626572204F662062797465A7
:061A2D00733A202564005D
:071A33000A0D25783A0900B5
:041A3A002578090002
:031A3E000A0D008E
:021A450000A0FF
:021A470000C0DD
:06003200E478FFF6D8FDA2
:080010007908E94400601B7A45
:0500180001901A41787F
:03001D00A875A023
:0A00200000E493F2A308B800020503
:08002A00A0D9F4DAF275A0FF81
:0E126300AAF0AB83E582900091F0A3EBF0A31C
:0E127100EAF07A007B00900091E0FCA3E0FD23
:03127F00A3E0FEEB
:0E1282008C828D838EF0121707FF6039C374C3
:0E129000B98FF063F08095F04007EF64809412
:03129E00B0502627
:0E12A1008C828D838EF0121707FFBF2D028006
:0112AF001727
:0512B000BF2B028012BB
:0512B5000CBC00010D5E
:0D12BA00900091ECF0A3EDF0A3EEF080BBEE
:0E12C700900091ECF0A3EDF0A3EEF08C828D80
:0C12D500838EF0121707FFE4BF2D010408
:0812E100F888017003BF2B0E19
:0E12E90090009174012CF0E43DA3F0A3EEF010
:0B12F700900091E0FCA3E0FDA3E0FEEE
:0E1302008C828D838EF0121707FF6068C3EF98
:0E131000648094B0406074B98FF063F08095F3
:0E131E00F04055C00190009D740AF0E4A3F069
:0E132C008A828B83C004C005C006C007C001C2
:08133A001215CB85820C85839E
:0C1342000DD001D007D006D005D004EF7C
:0E134E003395E0F8EF24D0FFE834FFF8EF25E8
:0A135C000CFAE8350DFB0CBC000193
:011366000D79
:0E136700900091ECF0A3EDF0A3EEF0D0018029
:011375008CEB
:0E137600900091ECF0A3EDF0A3EEF0E9600919
:09138400C3E49AFCE49BFD800423
:04138D008A048B053E
:051391008C828D832217
:0E139600AAF0AB83E582900094F0A3EBF0A3E5
:0E13A400EAF0900094E0FAA3E0FBA3E0FC90D6
:0E13B2000097EAF0A3EBF0A3ECF090009AE4B1
:0313C000F0A3F0A7
:0A13C30012093FAA82BA0802800D49
:0513CD00BA0A0280676E
:0513D200BA0D0280626B
:0313D70002146C91
:0E13DA0090009AE0FBA3E0FC4B60DE758208F9
:0E13E800C003C00412092DD004D0037582206A
:0E13F600C003C00412092DD004D00375820874
:0E140400C003C00412092DD004D0039000973D
:0D141200E0FDA3E0FEA3E0FF1DBDFF011EF5
:0E141F00900097EDF0A3EEF0A3EFF01BBBFFE3
:02142D00011CA0
:0A142F0090009AEBF0A3ECF0808A25
:0D14390075820D12092D75820A12092D9081
:0E1446000097E0FBA3E0FCA3E0FD8B828C830B
:0E1454008DF0E41214AA900094E0FBA3E0FCDB
:0A146200A3E0FD8B828C838DF02245
:0E146C00900097E0FBA3E0FCA3E0FD8B828CD8
:0E147A00838DF0EA1214AA90009774012BF0F3
:0E148800E43CA3F0A3EDF090009AE0FBA3E09B
:0E149600FC90009A74012BF0E43CA3F08A82D3
:0614A40012092D0213C322
:0E14AA0020F71030F6118883A88220F507F68F
:0514B800A8837583000C
:0114BD00220C
:0314BE00F280F7C2
:0214C100F02217
:0514C300C00E85810E42
:0B14C800E50E24FDF8868318868218CC
:0E14D300E493A324DB600C242560051215B001
:0214E10080F099
:0314E3000215C827
:0914E600D2D5E493A3C083C082B7
:0314EF00B47314BF
:0914F20086F01886831886821822
:0B14FB001217076053A31215B080F514
:0A150600B46307E6181215B0804325
:0E151000B46417E630E74618E6F42401F60846
:0C151E00E6F43400F6742D1215B0803392
:0A152A00B4782D868318868218E439
:0B1534001215A1E5831215A0E583123B
:0A153F0015A1E5821215A0E5821245
:0A15490015A130D50574301215B05D
:07155300D082D0830214D303
:03155A00B475F66F
:06155D00E6FA18E6F91899
:0D1563007C107D2712158BFF7CE87D0312A4
:0E157000158BC4F5837C647D0012158B4283BD
:0D157E00E975F00A84C445F0F582EF80A9FC
:02158B007B00E3
:0E158D000BC3E99CF9EA9DFA50F61BE92CF914
:05159B00EA3DFAEB221D
:0115A000C486
:0715A100540F700320D51F59
:0815A800C2D52490D43440D4D4
:0E15B000C083C082C0F0F582E8C0E012092DB1
:0915BE00D0E0F8D0F0D082D08317
:0115C7002201
:0315C800D00E2220
:0E15CB00AA83AB828BF090009DE0A4F8A9F0FB
:0E15D9008AF0E0A429F98BF0A3E0A429F583A1
:0415E70088822222B2
:0E15EB00AA83E5829000A1F0A3EAF09000A18F
:0E15F900E0FAA3E0FB30E709C3E49AFCE49BB0
:03160700FD80045F
:04160A008A048B05BE
:0E160E008C028D0390009FE0FCA3E0FD30E70E
:0A161C0009C3E49CFEE49DFF800476
:041626008C068D079A
:0D162A009000A3EEF0A3EFF08A828B8312F4
:0E1637001659AA82AB839000A1E0FCA3E0FD4F
:0E16450030E70CC3E49AFCE49BFD8C828D839D
:011653002274
:051654008A828B832255
:0E165900AA83E5829000A5F0A3EAF09000A716
:0C166700E4F09000A5E0FAA3E0FB7C009A
:0E1673009000A3E0FDA3E0FE235401FF7037BA
:0E168100EECD25E0CD33FE9000A3EDF0A3EEFC
:0E168F00F09000A3E0FDA3E0FEC3EA9DEB9EF9
:0E169D005011EEC313CD13CDFE9000A3EDF05F
:0516AB00A3EEF0800831
:0816B0000C9000A7ECF080BBD8
:0516B8009000A7E0FA1C
:0E16BD009000A5E0FBA3E0FC9000A3E0FDA3DD
:0E16CB00E0FEC3EB9DEC9E400B9000A5EBC330
:0616D9009DF0EC9EA3F061
:0E16DF009000A3E0FBA3E0FCC313CB13CBFCF5
:0E16ED009000A3EBF0A3ECF08A031AEB70C29E
:0C16FB009000A5E0FAA3E08A82F58322AB
:080038007800E84400600A7939
:030040000075A0A8
:0600430000E4F309D8FC03
:0800490078A8E84400600C797E
:0B00510001900000E4F0A3D8FCD9FAF5
:0300030075810EF6
:0A00060012064CE582600302064773
:0E17070020F71430F6148883A88220F507E638
:06171500A8837583002289
:03171B00E280F772
:03171E00E493222F
:02172100E022C4
:00000001FF
