:0E006A00AAF0AB83E582900000F0A3EBF0A3B8
:0E007800EAF0900000E0FAA3E0FBA3E0FC74C5
:0E008600032AFDE43BFE8C078D828E838FF0F3
:0A009400123BE3FD600490083422E3
:0E009E008A828B838CF0123BE3FDC364809456
:0E00AC00B0403374B78DF063F08095F04028BB
:0E00BA00ED3395E0FEED24D0FDEE34FF8D0613
:0E00C8007D00900003EDF0A3EEF090000074B8
:0C00D600012AF0E43BA3F0A3ECF080044E
:0400E2009008372229
:0E00E600900000E0FAA3E0FBA3E0FC8A828B0E
:0E00F400838CF0123BE3FDC3648094B040485F
:0E01020074B98DF063F08095F0403DED3395BB
:0E011000E0FEED24D0FDEE34FFFEC454F0CD31
:0E011E00C4CD6DCD54F0CD6DFE900003E0FF1A
:0E012C00A3E0F8900003ED2FF0EE38A3F09062
:0E013A00000074012AF0E43BA3F0A3ECF002F5
:0201480002159E
:0E014A00900000E0FAA3E0FBA3E0FC8A828BA9
:0E015800838CF0123BE3FDC3648094E14048C9
:0E01660074E68DF063F08095F0403DED33952A
:0E017400E0FEED24A9FDEE34FFFEC454F0CDF4
:0E018200C4CD6DCD54F0CD6DFE900003E0FFB6
:0E019000A3E0F8900003ED2FF0EE38A3F090FE
:0E019E00000074012AF0E43BA3F0A3ECF00291
:0201AC0002153A
:0E01AE00900000E0FAA3E0FBA3E0FC8A828B45
:0E01BC00838CF0123BE3FDC3648094C1404786
:0E01CA0074C68DF063F08095F0403CED3395E7
:0E01D800E0FEED24C9FDEE34FFFEC454F0CD70
:0E01E600C4CD6DCD54F0CD6DFE900003E0FF52
:0E01F400A3E0F8900003ED2FF0EE38A3F0909A
:0E020200000074012AF0E43BA3F0A3ECF080AE
:0102100004E9
:0402110090083522FA
:0E021500900000E0FAA3E0FBA3E0FC8A828BDD
:0E022300838CF0123BE3FAC3648094B0402D4C
:0E02310074B98AF063F08095F04022EA3395AC
:0E023F00E0FBEA24D0FAEB34FFFB900003E072
:0E024D00FCA3E0FD900003EA2CF0EB3DA3F0D3
:03025B000202F2AA
:0E025E00900000E0FAA3E0FBA3E0FC8A828B94
:0E026C00838CF0123BE3FAC3648094E1402CD3
:0E027A0074E68AF063F08095F04021EA339537
:0E028800E0FBEA24A9FAEB34FFFB900003E050
:0E029600FCA3E0FD900003EA2CF0EB3DA3F08A
:0202A400804C8C
:0E02A600900000E0FAA3E0FBA3E0FC8A828B4C
:0E02B400838CF0123BE3FAC3648094C1402CAB
:0E02C20074C68AF063F08095F04021EA33950F
:0E02D000E0FBEA24C9FAEB34FFFB900003E0E8
:0E02DE00FCA3E0FD900003EA2CF0EB3DA3F042
:0202EC0080048C
:0402EE00900836221C
:0C02F200900003E0FAA3E08A82F583226A
:0E02FE00AAF0AB83E582900005F0A3EBF0A31D
:0E030C00EAF0900005E0FAA3E0FBA3E0FC7429
:0E031A00022AFDE43BFE8C078D828E838FF05D
:0A032800123BE3FD60049001022285
:0E0332008A828B838CF0123BE3FDC3648094BF
:0E034000B0403E74B98DF063F08095F040330C
:0E034E00ED3395E0FEED24D0FDEE34FFFEC44D
:0D035C0054F0CDC4CD6DCD54F0CD6DFE90AC
:0E0369000008EDF0A3EEF090000574012AF0FC
:0A037700E43BA3F0A3ECF00204370E
:0E038100900005E0FAA3E0FBA3E0FC8A828B6B
:0E038F00838CF0123BE3FDC3648094E1403D9B
:0E039D0074E68DF063F08095F04032ED3395FC
:0E03AB00E0FEED24A9FDEE34FFFEC454F0CDBB
:0E03B900C4CD6DCD54F0CD6DFE900008EDF07A
:0E03C700A3EEF090000574012AF0E43BA3F0D1
:0503D500A3ECF0805DC7
:0E03DA00900005E0FAA3E0FBA3E0FC8A828B12
:0E03E800838CF0123BE3FDC3648094C1403D62
:0E03F60074C68DF063F08095F04032ED3395C3
:0E040400E0FEED24C9FDEE34FFFEC454F0CD41
:0E041200C4CD6DCD54F0CD6DFE900008EDF020
:0E042000A3EEF090000574012AF0E43BA3F077
:05042E00A3ECF08004C6
:040433009001012211
:0E043700900005E0FAA3E0FBA3E0FC8A828BB4
:0E044500838CF0123BE3FAC3648094B0402D28
:0E04530074B98AF063F08095F04022EA339588
:0E046100E0FBEA24D0FAEB34FFFB900008E049
:0E046F00FCA3E0FD900008EA2CF0EB3DA3F0AA
:03047D0002051461
:0E048000900005E0FAA3E0FBA3E0FC8A828B6B
:0E048E00838CF0123BE3FAC3648094E1402CAF
:0E049C0074E68AF063F08095F04021EA339513
:0E04AA00E0FBEA24A9FAEB34FFFB900008E027
:0E04B800FCA3E0FD900008EA2CF0EB3DA3F061
:0204C600804C68
:0E04C800900005E0FAA3E0FBA3E0FC8A828B23
:0E04D600838CF0123BE3FAC3648094C1402C87
:0E04E40074C68AF063F08095F04021EA3395EB
:0E04F200E0FBEA24C9FAEB34FFFB900008E0BF
:0E050000FCA3E0FD900008EA2CF0EB3DA3F018
:02050E00800467
:040510009001012233
:0C051400900008E0FAA3E08A82F5832240
:0E052000AA83E58290000AF0A3EAF090000A98
:0E052E00E0FAA3E0FBC3EA940AEB6480948039
:0E053C00503890000C7430F08A048B057E302D
:04054A007F007800B6
:0E054E00C3EF940AE864809480505CECB5071B
:0D055C000CEDB5000890000CE0F9F58222CE
:0D0569000E90000CEEF00FBF00DB0880D8F4
:0E057600C3EA9410EB64809480503490000C23
:090584007441F07C417D0A7E0007
:0E058D00C3ED9410EE64809480501DEAB50515
:0D059B000CEBB5060890000CE0FFF5822285
:0D05A8000C90000CECF00DBD00DB0E80D8B7
:0105B5002223
:0E05B600E58290000DF090000EE4F07A087BD4
:0105C4000036
:0C05C50090000EE025E0FC90000EF0908D
:0E05D100000DE0FC74015CFD90000EE0FE4D9C
:0E05DF00F0ECC313FC90000DF01ABAFF011BE4
:0B05ED00EA4B70D490000EE0F5822273
:0E05F800438901758C90758A0075B80243A87E
:0506060083438811226E
:0A060B0090000FE4F0900010F09052
:040615000011F022BE
:05061900D310AF01C386
:0E061E00C0D043A70775A61E75A6E190000F79
:0E062C00E0FA90000F74012AF090000FE0FA3F
:0E063A00BA0A1190000FE4F0900010E0FA9060
:06064800001074012AF00D
:0E064E0090000FE0FA3395E0FB8A828B831256
:0A065C000520AA82900012EAF09037
:0C066600006F7410F075820412153690BD
:0A0672000012E0FAF582121449901C
:0D067C000010E0FABA3C11900010E4F0907C
:0B0689000011E0FA90001174012AF04B
:0E069400900010E0FAC2D575F00AEA30E704D3
:0406A200B2D5F404D5
:0606A6008430D502F404CB
:0E06AC00FAA2D595E0FB900016EAF0A3EBF061
:0E06BA008A828B83120520AA82900012EAF039
:0E06C800900010E0FA3395E0FB900016E0FC85
:0E06D600A3E0FD9000E6740AF0E4A3F08C822D
:0E06E4008D83C002C003122FD1AC82AD83D033
:0E06F20003D002900016EAC39CF0EB9DA3F02B
:0D070000900016E0FAA3E0FB8A828B8312C2
:0A070D000520AA82900013EAF09084
:0E0717000014E4F090006F740DF0758204126F
:09072500153690001275F0001267
:0B072E0014E2900011E0FABA3C0590C4
:040739000011E4F0D7
:0E073D00900011E0FAC2D575F00AEA30E70428
:04074B00B2D5F4042B
:06074F008430D502F40421
:0E075500FAA2D595E0FB900016EAF0A3EBF0B7
:0E0763008A828B83120520AA82900012EAF08F
:0E077100900011E0FA3395E0FB900016E0FCDA
:0E077F00A3E0FD9000E6740AF0E4A3F08C8283
:0E078D008D83C002C003122FD1AC82AD83D089
:0E079B0003D002900016EAC39CF0EB9DA3F081
:0D07A900900016E0FAA3E0FB8A828B831219
:0A07B6000520AA82900013EAF090DB
:0E07C0000014E4F090006F740AF075820412C9
:0907CE00153690001275F00012BE
:0707D70014E2D0D092AF2222
:0507DE00D310AF01C3C0
:0E07E300C0D0AA83E58290001FF0A3EAF09038
:0E07F100001FE0FAA3E0FB8A828B8312052032
:0E07FF00AA82900021EAF090001DE0FAA3E02B
:0E080D00FB74012AFB90006F7410F08B82C008
:0E081B0002C003121536D003D002900021E077
:0E082900FCF582C002C003121449D003D002B5
:0E083700900018E0FCA3E0FD9000D4740AF0DD
:0E084500E4A3F08C828D83C002C003C004C007
:0E08530005122BCEAE82AF83D005D004D003A9
:0E086100D0028E828F83C002C003C004C00587
:0E086F00C006C007120520A882D007D006D010
:0D087D0005D004D003D002900021E8F090D7
:0E088A0000E6740AF0E4A3F08E828F83C002B1
:0E089800C003C004C005122FD1AE82AF83D0C2
:0E08A60005D004D003D002ECC39EFCED9FFDF4
:0E08B4008C828D83C002C003120520AC82D05E
:0E08C20003D002900022ECF0900023E4F090AE
:0E08D000006F740DF08B82C002C0031215364B
:0E08DE00D003D00290002175F000C002C003CC
:0E08EC001214E2D003D00290001AE0FCA3E048
:0E08FA00FD9000D4740AF0E4A3F08C828D838C
:0E090800C002C003C004C005122BCEAE82AFE9
:0E09160083D005D004D003D0028E828F83C020
:0E09240002C003C004C005C006C007120520B3
:0E093200A882D007D006D005D004D003D00292
:0E094000900021E8F09000E6740AF0E4A3F0C5
:0D094E008E828F83C002C003C004C005125A
:0E095B002FD1AE82AF83D005D004D003D002DE
:0E096900ECC39EFCED9FFD8C828D83C002C00E
:0E09770003120520AC82D003D002900022ECC7
:0E098500F0900023E4F090006F740AF08B8273
:0E099300C002121536D00290002175F000C08F
:0E09A100021214E2D00290001CE0FB70150A56
:0C09AF0090006F7401F08A8212153690DF
:0809BB00418A75F0801214E27C
:0509C300D0D092AF222C
:0A418A002A416C61726D2A202000AA
:0509C800D310AF01C3D4
:0C09CD00C0D07582801214687494C0E0E1
:0C09D9007441C0E0122EC9158115817A0E
:0509E500007B007C0016
:0E09EA00C3EB9440EC648094804003020A7AD0
:0E09F8009000F07410F0E4A3F08B828C83C0AA
:0E0A060002C003C004123103E5828583F0D0E4
:0E0A140004D003D00245F070330AC002C003C4
:0A0A2200C00474AFC0E07441C0E0EE
:0E0A2C00122EC915811581D004D003D002907E
:0E0A3A00006F7401F08A82C002C003C0041273
:080A48001536D004D003D002E2
:0E0A5000C002C003C004121487AD82D004D0CF
:0E0A5E0003D0028D82C002C003C004122B859B
:0B0A6C00D004D003D0020BBB00010C33
:030A77000209EA87
:0D0A7A0090006F7401F07582011215367442
:080A8700B4C0E07441C0E012AC
:0A0A8F002EC9158115817A007B0045
:0E0A9900C3EA9450EB6480948050759000F096
:0E0AA7007410F0E4A3F08A828B83C002C003B7
:0E0AB500123103E5828583F0D003D00245F0B4
:0C0AC300701DC002C003C002C00374CD4F
:0C0ACF00C0E07441C0E0122EC9E5812493
:070ADB00FCF581D003D002FD
:0E0AE200C002C003121487AC82D003D002EC15
:0D0AF0003395E0FDC002C003C004C00574D2
:080AFD00D5C0E07441C0E01215
:0E0B05002EC9E58124FCF581D003D0020ABA86
:030B130000010BD3
:030B1600020A9937
:050B1900D0D092AF22D4
:050B1E00D310AF01C37C
:0E0B2300C0D075820A122B85758240121468AC
:040B31007A007B00CB
:0E0B3500C3EA9440EB648094804003020BC737
:0E0B43009000F07408F0E4A3F08A828B83C067
:0E0B510002C003123103E5828583F0D003D089
:0E0B5F000245F0701DC002C003C002C0037446
:080B6D00CDC0E07441C0E012AC
:0C0B75002EC9E58124FCF581D003D002DC
:0E0B8100C002C003121487AC82D003D00275EC
:0E0B8F008209C002C003C004122B85D004D01E
:0E0B9D0003D0027D00C002C003C004C0057476
:080BAB00DAC0E07441C0E01261
:0E0BB3002EC9E58124FCF581D003D0020ABAD8
:030BC10000010B25
:030BC400020B35EC
:050BC700D0D092AF2226
:070BCC00900046E4F0A3F0E5
:090BD30074DDC0E07441C0E012C1
:060BDC002EC915811581F0
:0E0BE200900044E4F0A3F090002875F000129B
:090BF0002D9C90002875F0001204
:0E0BF900006AAA82AB83900042EAF0A3EBF000
:0E0C07008A048B0574F82D400B900044740194
:060C1500F0E4A3F08017DB
:0A0C1B00C002C003741FC0E0744261
:0D0C2500C0E0122EC915811581D003D00248
:0E0C3200900044E0FCA3E0FD4C60A5C002C0B1
:0A0C4000037465C0E07442C0E012C6
:0A0C4A002EC915811581D003D002D8
:0E0C5400900044E4F0A3F090002D75F000C075
:0E0C620002C003122D9CD003D00290002D750D
:0E0C7000F000C002C00312006AAC82AD83D057
:0D0C7E0003D0028C068D0774F82F400B90F8
:0A0C8B0000447401F0E4A3F0801FA0
:0C0C9500C002C003C004C00574A5C0E08C
:0C0CA1007442C0E0122EC915811581D0EC
:070CAD0005D004D003D002C2
:0E0CB400900044E0FEA3E0FF4E6095ECC39A72
:0E0CC200FCED9BFD74012CFEE43DFFC002C062
:0C0CD00003C004C005C006C00774E9C0E2
:0C0CDC00E07442C0E0122EC9E58124FC47
:0E0CE800F581D005D004D003D0028C068D0714
:0D0CF600EF30E71FC002C003C004C005744A
:080D0300FEC0E07442C0E012E2
:0E0D0B002EC915811581D005D004D003D00269
:0B0D19008C068D07EF30E703020BD3C0
:040D24007E007F00CE
:080D2800C3EC9EED9F50012277
:080D3000EE540F6003020DD820
:0E0D3800C004C005C002C003C004C005C00650
:0B0D4600C007C002C0037452C0E0747C
:0C0D510043C0E0122EC9E58124FCF581AE
:0E0D5D00D007D006D005D004D003D002741009
:0D0D6B002AFAE43BFB900046E4F0A3F09070
:0A0D78000042E0F8A3E0F9890875D5
:080D82000900880490004DE512
:0C0D8A0008F090004E7410F0E4A3F0900C
:070D960000507432F0A37459
:0C0D9D0000F0A3E4F08C82C002C003C090
:0E0DA90004C005C006C007C000C001120EED58
:0E0DB700D001D000D007D006D005D004D00364
:0E0DC500D002900042740128F0E439A3F0D06F
:050DD30005D0048013AF
:0E0DD800900042E0F8A3E0F990004274012878
:050DE600F0E439A3F068
:0E0DEB00C004C005900046E0F8A3E0F9E8243B
:0A0DF90032F582E93400F583E0FCD6
:0E0E03007D00C002C003C004C005C006C007C9
:0C0E1100C000C001C004C005745AC0E05D
:0C0E1D007443C0E0122EC9E58124FCF5EE
:0E0E290081D001D000D007D006D005D004D073
:0E0E370003D002900046740128F0E439A3F0C5
:050E45000EBE00010FCC
:070E4A00D005D004020D28C1
:0E4194000A0D09094173636969205265707252
:0D41A2006573656E746174696F6E0A0D00BF
:0541AF000A0D090900E2
:0E41B4000A0D0909486578205265707265731E
:0B41C200656E746174696F6E0A0D0079
:0841CD000A0A0D307825780084
:0541D50009202578001F
:0341DA0025780045
:0E41DD000A0A0D20456E7465722053746172DB
:0E41EB0074204164647265737320696E20480D
:0E41F900657820696E2048484820666F726D18
:0E4207006174206265747765656E203030301A
:0A42150020746F203746463A20005F
:0E421F000A0A0D202A2D4552524F522D2A090F
:0E422D0020506C6561736520456E74657220CB
:0E423B0076616C696420737461727420416452
:0E4249006472657373206265747765656D201D
:0E42570030303020616E64203746463A200039
:0E4265000A0A0D20456E74657220456E6420B5
:0E4273004164647265737320696E204865783B
:0E42810020696E2048484820666F726D617497
:0E428F00206265747765656E203030302074D3
:08429D006F203746463A20006D
:0E42A5000A0A0D202A2D4552524F522D2A0989
:0E42B30020506C6561736520456E7465722045
:0E42C10076616C696420656E642041646472ED
:0E42CF00657373206265747765656D2030300D
:0C42DD003020616E64203746463A200015
:0E42E9000A0D09546F74616C2042797465737C
:0742F7003A2025640A0D00C6
:0E42FE000A0D202D4552524F522D20456E6460
:0E430C00206164647265737320736D616C6C64
:0E431A006572207468616E207468652073748B
:0E43280061727420616464726573730A0D2003
:0E433600456E7465722056616C696420616486
:0E43440064726573732072616E67650A0D0006
:084352000A0A0D25783A090062
:04435A0025780900B9
:0E0E5100AA83E582900048F0A3EAF0900048E2
:050E5F00E0FAA3E0FB36
:080E6400BA0005BB0002800F7B
:050E6C001ABAFF011B92
:0A0E7100900048EAF0A3EBF080E9DE
:090E7B00900048EAF0A3EBF0221C
:0E0E8400AA83E58290004AF0A3EAF090004AAB
:050E9200E0FAA3E0FB03
:080E9700BA0005BB0002801D3A
:0E0E9F00900070C002C003120E51D003D002AA
:050EAD001ABAFF011B51
:0A0EB20090004AEAF0A3EBF080DBA9
:090EBC0090004AEAF0A3EBF022D9
:0B0EC500E58290004CF090004CE0FA39
:050ED000BA00028012CF
:0E0ED5009003E8C002120E84D0021A90004C66
:040EE300EAF080E9C8
:060EE70090004CEAF0222D
:0A0EED00E582900053F01210B99056
:0E0EF700004DE025E0FA74A04AFBF582C0022F
:0D0F05001210F1D002C002121168D002904B
:0E0F12000053E0FBF582C0021210F1D002C0C5
:0E0F200002121168D002C0021210B9D00243B2
:0B0F2E0002A18A821210F112116890DB
:0E0F3900004EE0FAA3E0FB900050E0FCA3E0C5
:080F4700FDA3E0FE7F0078002D
:0E0F4F00C3EF9AE864808BF063F08095F05059
:0E0F5D0056C002C003C004C005C006C007C0D5
:0E0F6B000012111EA982D000D007D006D005BA
:0E0F7900D004D003D0028C828D838EF0E9125A
:0E0F87002EB0A3AC82AD83C002C003C004C074
:0E0F950005C006C007C000121177D000D007BB
:0E0FA300D006D005D004D003D0020FBF009EB0
:030FB10008809B1A
:0E0FB400EA2CFAEB3DFB8E07C002C003C0071B
:0E0FC20012111EAC82D007D003D0028A828B9F
:0B0FD000838FF0EC122EB012117F0294
:020FDB0010D62E
:0A0FDD00E582900056F01210B99062
:0E0FE7000055E025E0FA4302A08A821210F1C4
:0B0FF500121168900056E0FAF582121D
:0610000010F112116890CE
:0A1006000054E0FAF5821210F11216
:0910100011681210D690000502CF
:021019000E8443
:0A101B00E582900058F01210B99021
:0E1025000057E025E0FA74A04AFBF582C002F5
:0D1033001210F1D002C002121168D002901C
:0E1040000058E0FBF582C0021210F1D002C091
:0E104E0002121168D002C0021210B9D0024383
:0B105C0002A18A821210F1121168122A
:0E106700111EAA82C00212117FD002C0021216
:0E10750010D6D00290000AC002120E51D00216
:031083008A82223C
:051086001210B97A0010
:03108B00BA09009F
:0E108E00500CD292C0021210A8D0020A80EFBD
:0A109C001210B91210D690000502E0
:0210A6000E84B6
:0E10A800900001120E51D291900001120E51D3
:0310B600C29122C2
:0D10B900C291D292900001120E51D291907E
:0E10C6000001120E51C292900001120E51C292
:0210D400912267
:0E10D600C291900001120E51C29290000112C0
:0D10E4000E51D291900001120E51D29222B5
:0810F100E582900059F07A003D
:0310F900BA080032
:0E10FC00501D900059E0FB339292C002C003D9
:0E110A001210A8D003D002EB2BFB900059F07E
:031118000A80DE6C
:03111B00D292224B
:09111E0090005AE4F0D2927A002C
:03112700BA080003
:0E112A005035900001C002120E51D002D29139
:0E113800900001C002120E51D00290005AE049
:0E11460025E0FB90005AF090005AE0FBE4A276
:0D1154009233FC90005A4BF0C2910A80C605
:0711610090005AE0F5822224
:0E116800D292D291900001120E51A292C29129
:011176002256
:08117700C2921210A8D29222CC
:08117F00D2921210A8D29122B5
:0D118700E58290005EF01210B975827012C2
:0611940010F11211689039
:0A119A00005EE0FAF5821210F11277
:0911A40011681210D6900005023A
:0211AD000E84AE
:0A11AF001210B97582711210F112CE
:0A11B900116812111EAA82C0021272
:0E11C3001177D002C0021210D6D00290000A9E
:0A11D100C002120E51D0028A8222E1
:0511DB00D310AF01C3B9
:0E11E000C0D0AA83E58290005FF0A3EAF090F1
:0E11EE00005FE0FAA3E0FB8A828B83C002C0A0
:0E11FC0003120520AC82D003D00290006F7465
:0E120A0007F0758204C002C003C0041215363E
:0D121800D004D003D0028C82C002C00312AB
:0E1225001449D003D002EBC454F0CAC4CA6A04
:0E123300CA54F0CA6AFB90005FEAF0A3EBF029
:0E12410090005FE0FAA3E0FB90005F740F4A9C
:0E124F00F0A3EBF090005FE0FAA3E0FB8A82D0
:08125D00121187D0D092AF22DC
:09126500745EC0E07443C0E012A5
:06126E002EC91581158157
:0A12740090006175F000122D9C90AF
:0E127E00006175F000122C69AA82AB838A040D
:0E128C008B05C374079CE49D5017C002C0037D
:09129A007483C0E07443C0E0124B
:0A12A3002EC915811581D003D00279
:0E12AD008A048B05C374079CE49D40BBC002FD
:0A12BB00C00374BAC0E07443C0E041
:0B12C500122EC915811581D003D00244
:0E12D00090006175F000C002C003122D9CD08A
:0E12DE0003D00290006175F000C002C0031240
:0E12EC002C69AC82AD83D003D0028C068D0736
:0E12FA00C374019EE49F501FC002C003C004D5
:0A130800C00574EDC0E07443C0E0BE
:0E131200122EC915811581D005D004D003D04C
:0113200002CA
:0E1321008C068D07C374019EE49F40A3C0029A
:0C132F00C003C004C0051211AF85820A83
:0E133B00D005D004D003D002EC4D70718A07AB
:0E1349008B008F828883123278AF82A883A92E
:0E135700F0FE9000E8EFF0A3E8F0A3E9F0A3A9
:0E136500EEF0900000E4F5F07440122FF1AEAF
:0E13730082AF83A8F0F9C006C007C000C00119
:0E13810090000075F07F7443122BC3AE82AF54
:0E138F0083A8F0F9E58124FCF5818E828F831E
:0C139D0088F0E9123284AE82AF83A80A07
:0E13A9007900E85206E95207900064EEF080E9
:0113B7002213
:0A13B8008AF005F0AA04AB058006D8
:0613C200EA2AFAEB33FBFE
:0C13C800D5F0F7AE0A7C00EE4202EC42C9
:0613D40003900064EAF042
:0E13DA00900064E0FAF582121187900005027F
:0213E8000E51A4
:0E435E000A0A0D092053656C656374207069AE
:0E436C006E206E756D6265722066726F6D2038
:09437A003020746F20373A200056
:0E4383000A0A0D202A2D4552524F522D2A0AA9
:0E4391000D0920456E74657220612076616C06
:0E439F006964206E756D6265722062657477C8
:0D43AD0065656E203020746F20373A2000C7
:0E43BA000A0A0D092053656C6563742044697E
:0E43C80072656374696F6E206F662070696E97
:0E43D6003A2020302E4F7574707574202031FF
:0943E4002E20496E707574090069
:0E43ED000A0A0D202A2D4552524F522D2A0A3F
:0E43FB000D0920456E74657220612076616C9C
:0E4409006964206E756D62657220626574775D
:0D44170065656E2030206F7220313A200064
:0E13EA00C293900014120E8490A0007430F094
:0D13F800900006120E8490A0007430F0905A
:0E1405000005120E8490A0007430F01214BD89
:0E14130090A0007438F01214BD90A000740870
:0E142100F01214BD90A000740CF01214BD90D7
:0E142F00A0007406F01214BD90A0007401F02D
:0C143D0090006F7401F0758201021536FA
:0E144900E582900068F0D293900001120E84AC
:0E1457007A007BA0900068E0FC8A828B83F014
:031465000214BDB1
:0E146800E582900069F0C293900001120E849C
:0E1476007A007BA0900069E0FC8A828B83F0F4
:031484000214BD92
:0E148700D293900001120E8490C000E0FAC0D3
:09149500021214BDD0028A822269
:0E149E00E58290006AF0C293900001120E8465
:0E14AC007A007BA090006AE0FC8A828B83F0BD
:0314BA000214BD5C
:0E14BD00C29390C000E0FA90006BF090000126
:0314CB00120E847A
:0E14CE0090006BE0FA30E70B90C000E0FA905F
:0514DC00006BF080ED43
:0114E10022E8
:0E14E200AAF0AB83E58290006CF0A3EBF0A3C0
:0E14F000EAF090006CE0FAA3E0FBA3E0FC7DC4
:0314FE00007E006D
:0E150100ED2AFFEE3BF88C018F82888389F083
:0E150F00123BE3FF60208F82C002C003C004C5
:0E151D00C005C006121449D006D005D004D077
:0A152B0003D0020DBD00CF0E80CCEE
:011535002293
:0E153600E582900070F0900070E0FABA0113A8
:0815440090006FE0FABA1100FB
:0B154C005009747F2AFAF58202149EF9
:0E155700900070E0FABA021390006FE0FABA4A
:02156500110073
:0B156700500974BF2AFAF58202149E9E
:0E157200900070E0FABA031390006FE0FABA2E
:02158000110058
:0B1582005009748F2AFAF58202149EB3
:0E158D00900070E0FABA041390006FE0FABA12
:02159B0011003D
:0B159D00500974CF2AFAF58202149E58
:0915A80090442475F0800214E265
:0E15B100E582900074F0900074E0FAC4540FCC
:0E15BF00FB7C008B828C83C002C003C0041230
:0E15CD000520AD82D004D003D00290007AED4C
:0E15DB00F07D00ECC454F0CBC4CB6BCB54F0CD
:0E15E900CB6BFCEAC39BFAED9CFD8A828D83DE
:0B15F700120520AA8290007BEAF09011
:09160200007CE4F0742AC0E074DD
:0A160B0044C0E0122EC915811581BC
:0E16150090007FE4F0A3F090007575F00012D5
:091623002D9C90007575F0001279
:0E162C002C69AA82AB838A048B05C3EC94045C
:0E163A00ED9400500B90007F7401F0E4A3F0DB
:02164800801709
:0A164A00C002C0037450C0E07444F5
:0D165400C0E0122EC915811581D003D0020F
:0D16610090007FE0FCA3E0FD4C60A90A9022
:0B166E00006F7401F08A8212153690A4
:0E1679000071E0FAA3E0FBA3E0FC8A828B8301
:0C1687008CF01214E275823A12144990A3
:08169300007A75F0000214E278
:05169B00D310AF01C3F4
:0E16A000C0D0E582900084F0900084E0FAC48F
:0E16AE000354F8FA900084F0900084E0FA43B0
:0E16BC0002408A82121468900081E0FAA3E0D6
:0616CA00FBA3E0FC7D0023
:0E16D000C3ED64809488502AED2AFEE43BFFAF
:0E16DE008C008E828F8388F0123BE3FEF58233
:0E16EC00C002C003C004C005121449D005D0CE
:0816FA0004D003D0020D80CEE4
:05170200D0D092AF22DF
:05170700D310AF01C387
:0E170C00C0D09000857404F09000867404F044
:0D171A009000877403F09000887401F09037
:0C17270000897401F090008C7402F090B6
:0C173300008D7403F090008E7405F0909F
:0E173F00008F7404F09000907405F075820124
:0A174D001214689000937402F090EB
:0C17570000947401F07582061218619075
:0E17630000937403F09000947404F0758200FB
:0A1771001218619000937403F090C9
:0C177B0000947401F07582001218619057
:0E17870000937402F09000947406F0758200D6
:0A1795001218619000937402F090A6
:0C179F0000947404F0758206121861902A
:0E17AB0000937404F09000947401F0758201B4
:0717B9001218617A007B00A9
:0D17C000C3EA9405EB648094805037EA245E
:0A17CD0085F582EB3400F583E0FCA3
:0A17D700EA248CF582EB3400F58360
:0E17E100E0FD900093ECF0900094EDF0758226
:0E17EF0002C002C003121861D003D0020ABA71
:0517FD0000C10B80BEDD
:0E1802009000937404F09000947404F07582CA
:0B181000031218619000937403F09025
:0C181B0000947406F075820312186190AE
:0E18270000937401F09000947406F075820432
:0A1835001218619000937403F09004
:0C183F0000947403F0758205121861908B
:0E184B0000937401F09000947403F075820510
:08185900121861D0D092AF22F9
:05186100D310AF01C32C
:0E186600C0D0E582900095F043A70775A61E3E
:0E18740075A6E1900093E0FA900094E0FB90DE
:09188200006FF08A821215369005
:0E188B000095E0FAF582121449D0D092AF22F7
:064424004572726F720088
:0E442A000A0A0D20456E74657220526F7720CD
:0E4438006E756D626572206265747765656EE3
:0A444600203020746F20333A20006C
:0E4450000A0A0D20456E7465722076616C6953
:0E445E006420726F77206E756D626572206249
:0E446C0065747765656D203020616E642033C5
:03447A003A2000E5
:0600000002000E0228863A
:03000B00022900C7
:03006700021899E3
:051899001218A880FEFA
:0A189E00438E0C758FFB90000022B2
:0D18A8009000B97430F09000BA7431F090E7
:0918B50000BB7432F01213EA12B8
:0818BE002BAA1205F8C29012DA
:0C18C600108690006F7401F0758204120F
:0918D200153690447D75F080127A
:0C18DB0014E290006F740FF0758204128C
:0918E700153675822E1214499089
:0E18F000006F740CF075820412153675823A82
:0D18FE001214497582011211877A007B00D7
:0E190B00C3EA9403EB6480948040030219FA4F
:0E191900C2AF900018E4F0A3F090001AE4F0C2
:0E192700A3F090001C7402F090001DEAF0A3E3
:0E193500EBF0900000C002C0031207DED003EA
:0E194300D0028A040C90006F7401F08C82C0F8
:0E19510002C003C004121536D004D003D00229
:0D195F0090448575F080C002C003C00412E2
:0C196C0014E2D004D003D002EA24B9F544
:0C19780082EB3400F583E0FDF582C00234
:0E198400C003C004121449D004D003D0029056
:0E199200448B75F080C002C003C0041214E242
:0E19A000D004D003D00290006F740CF08C8243
:0E19AE00C002C003C004121536D004D003D00E
:0E19BC000275823AC002C003C004121449D062
:0E19CA0004D003D00290006F740FF08C82C026
:0E19D80002C003121536D003D00275822EC055
:0E19E60002C003121449D003D002D2AF0ABAD5
:0319F40000010BE4
:0319F70002190BC7
:0919FA00748EC0E07444C0E012D8
:0B1A03002EC9158115817448C0E074E5
:0B1A0E0045C0E0122EC915811581743F
:081A19000CC0E07446C0E012AD
:0B1A21002EC9158115817492C0E0747D
:0B1A2C0046C0E0122EC9158115817420
:081A370005C0E07447C0E01295
:061A3F002EC9158115817E
:061A450020980302287442
:0E1A4B00122B97AA82C002122B85D002E4BA99
:031A590031010454
:0C1A5C00FB601AC002C0037460C0E0749C
:0C1A680047C0E0122EC915811581D00383
:051A7400D002021D314B
:0E1A7900BA322B900128E0FCA3E0FDC3EC94F0
:0C1A870002ED9400501AC002C0037480ED
:0C1A9300C0E07447C0E0122EC915811598
:081A9F0081D003D002021D31C9
:0E1AA700BA332B900128E0FCA3E0FDC3EC94C1
:0C1AB50002ED9400501AC002C00374A49B
:0C1AC100C0E07447C0E0122EC91581156A
:081ACD0081D003D002021D319B
:0E1AD500BA342B900128E0FCA3E0FDC3EC9492
:0C1AE30002ED9400501AC002C00374C64B
:0C1AEF00C0E07447C0E0122EC91581153C
:081AFB0081D003D002021D316D
:0E1B0300BA352B900128E0FCA3E0FDC3EC9462
:0C1B110002ED9400501AC002C00374EEF4
:0C1B1D00C0E07447C0E0122EC91581150D
:081B290081D003D002021D313E
:0E1B3100BA362B900128E0FCA3E0FDC3EC9433
:0C1B3F0002ED9400501AC002C0037411A3
:0C1B4B00C0E07448C0E0122EC9158115DE
:081B570081D003D002021D3110
:0E1B5F00BA372B900128E0FCA3E0FDC3EC9404
:0C1B6D0002ED9400501AC002C003743551
:0C1B7900C0E07448C0E0122EC9158115B0
:081B850081D003D002021D31E2
:0E1B8D00BA782B900128E0FCA3E0FDC3EC9495
:0C1B9B0002ED9400501AC002C003745CFC
:0C1BA700C0E07448C0E0122EC915811582
:081BB30081D003D002021D31B4
:0E1BBB00BA692B900128E0FCA3E0FDC3EC9476
:0C1BC90002ED9400501AC002C0037480AA
:0C1BD500C0E07448C0E0122EC915811554
:081BE10081D003D002021D3186
:0E1BE900BA732B900128E0FCA3E0FDC3EC943E
:0C1BF70002ED9400501AC002C00374A854
:0C1C0300C0E07448C0E0122EC915811525
:081C0F0081D003D002021D3157
:0E1C1700BA772B900128E0FCA3E0FDC3EC940B
:0C1C250002ED9400501AC002C00374D4F9
:0C1C3100C0E07448C0E0122EC9158115F7
:081C3D0081D003D002021D3129
:0E1C4500BA722B900128E0FCA3E0FDC3EC94E2
:0C1C530002ED9400501AC002C00374F7A8
:0C1C5F00C0E07448C0E0122EC9158115C9
:081C6B0081D003D002021D31FB
:0E1C7300BA632B900128E0FCA3E0FDC3EC94C3
:0C1C810002ED9400501AC002C003741958
:0C1C8D00C0E07449C0E0122EC91581159A
:081C990081D003D002021D31CD
:0E1CA100BA642A900128E0FCA3E0FDC3EC9495
:0C1CAF0002ED94005019C002C003743A0A
:0C1CBB00C0E07449C0E0122EC91581156C
:071CC70081D003D00280630D
:0E1CCE00BA682A900128E0FCA3E0FDC3EC9464
:0C1CDC0002ED94005019C002C003745BBC
:0C1CE800C0E07449C0E0122EC91581153F
:071CF40081D003D00280360D
:0C1CFB00BA6C19C002C003747AC0E07417
:0C1D070049C0E0122EC915811581D003DF
:041D1300D002801A60
:0C1D1700BA7117C002C003749CC0E074D5
:0C1D230049C0E0122EC915811581D003C3
:021D2F00D002E0
:081D3100EB6005C2AF0225D0F2
:0B1D3900BA320820AF05D2AF0225D05F
:0E1D4400BA331343A70775A61E75A6E1C002A9
:081D520012060BD0020225D09D
:051D5A00BA3402800311
:031D5F000220B6A9
:0A1D6200C00274BCC0E07449C0E088
:091D6C00122EC915811581D00267
:0E1D75009000B075F000C002122D9CD00290BC
:0E1D830000B075F000C002122C69AB82AC8378
:0E1D9100D002C374029B74808CF063F08095C6
:0E1D9F00F0E433FD601FC002C003C004C005A5
:091DAD0074E7C0E07449C0E012C3
:0E1DB6002EC915811581D005D004D003D002AE
:0E1DC400ED70AEC002C003C004C003C00474C2
:081DD2001CC0E0744AC0E012DD
:0E1DDA002EC9E58124FCF581D004D003D0028F
:0C1DE8008B05ECCD25E0CD33FEED24A8EA
:061DF400F50BEE3400F5D2
:011DFA000CDC
:0E1DFB00C0029000B075F000C002C003C0042A
:0E1E0900C005C006122D9CD006D005D004D016
:0A1E170003D002ED24A8F9EE340018
:0E1E2100FA9000B075F000C002C003C004C00B
:0E1E2F0005C006C001122C69AF82A883D00145
:0E1E3D00D006D005D004D003D00289828A835B
:0A1E4B00EFF0A3E8F0850B82850C90
:0E1E550083E0FAA3E0FFC3743B9AE49FE433FA
:0E1E6300D0026023C002C003C004C005C00648
:091E7100744DC0E0744AC0E01297
:0E1E7A002EC915811581D006D005D004D003E5
:021E8800D00286
:0A1E8A00ED24A8F582EE3400F58384
:0E1E9400E0FFA3E0F8C3743B9FE49850030204
:021EA2001DFB26
:0E1EA400C002C003C004C005C006C003C004D5
:091EB2007483C0E0744AC0E01220
:0E1EBB002EC9E58124FCF581D006D005D004A7
:0A1EC900D003D002ED24A2F50DEEC7
:061ED3003400F50EED24C1
:051ED900A2F50BEE3440
:031EDE0000F50C00
:0E1EE100C0029000B075F000C002C003C00443
:0E1EEF00C005C006122D9CD006D005D004D030
:0A1EFD0003D002ED24A2F9EE340038
:0E1F0700FA9000B075F000C002C003C004C024
:0E1F150005C006C001122C69AF82A883D0015E
:0E1F2300D006D005D004D003D00289828A8374
:0A1F3100EFF0A3E8F0850B82850CA9
:0E1F3B0083E0FAA3E0FFC3743B9AE49FE43313
:0E1F4900D0026023C002C003C004C005C00661
:091F5700744DC0E0744AC0E012B0
:0E1F60002EC915811581D006D005D004D003FE
:021F6E00D0029F
:0A1F7000850D82850E83E0FFA3E0DB
:0C1F7A00F8C3743B9FE4985003021EE182
:0E1F8600C002C003C004C005C006C003C004F2
:091F940074B4C0E0744AC0E0120C
:0E1F9D002EC9E58124FCF581D006D005D004C4
:0A1FAB00D003D002ED249CF50BEEEC
:061FB5003400F50CED24E0
:051FBB009CF50DEE3461
:031FC00000F50E1B
:0E1FC300C0029000B475F000C002C003C0045C
:0E1FD100C005C006122D9CD006D005D004D04D
:0A1FDF0003D002ED249CF9EE34005B
:0E1FE900FA9000B475F000C002C003C004C03E
:0E1FF70005C006C001122C69AF82A883D0017C
:0E200500D006D005D004D003D00289828A8391
:0A201300EFF0A3E8F0850D82850EC2
:0E201D0083E0FAA3E0FFC374099AE49FE43362
:0E202B00D0026023C002C003C004C005C0067E
:0920390074E4C0E0744AC0E01236
:0E2042002EC915811581D006D005D004D0031B
:02205000D002BC
:0A205200850B82850C83E0FFA3E0FC
:0C205C00F8C374099FE4985003021FC3EE
:0A206800C002ED24A2F582EE340060
:0C207200F583E0F9A3E0FAED24A8F58264
:0B207E00EE3400F583E0FDA3E0FE90CF
:0E2089000018E9F0A3EAF090001AEDF0A3EEC3
:0E209700F090001C7402F090001DEBF0A3EC22
:0E20A500F08F828883C0021207DED002D002C4
:0320B3000225D033
:0520B600BA35028003B1
:0320BB000221649B
:0A20BE00C0027419C0E0744BC0E0CA
:0E20C800122EC915811581D0029000B075F05E
:0E20D60000C002122D9CD0029000B075F000E8
:0E20E400C002122C69AB82AC83D002C2AF8B5B
:0E20F200050D90006F7401F08D82C002C003D6
:0E210000C004121536D004D003D002904485DE
:0E210E0075F080C002C003C0041214E2D004B9
:0B211C00D003D002EB24B9F582EC34B4
:0C21270000F583E0FDF582C002C003C09B
:0E21330004121449D004D003D002904B44751E
:0E214100F080C002C003C0041214E2D004D02B
:0A214F0003D002EB2499F582EC3472
:0B21590000F5837401F0D2AF0225D026
:05216400BA3602800301
:0321690002226AE5
:0A216C00C0027447C0E0744BC0E0ED
:0E217600122EC915811581D0029000B075F0AF
:0E21840000C002122D9CD0029000B075F00039
:0E219200C002122C69AB82AC83D002C2AF8BAC
:0E21A000050D90006F7401F08D82C002C00327
:0E21AE00C004C005121536D005D004D003D0F1
:0E21BC0002904B7275F080C002C003C004C0D8
:0E21CA00051214E2D005D004D003D002C002EA
:0B21D800C003C004C005747BC0E074AD
:0C21E3004BC0E0122EC915811581D005FB
:0E21EF00D004D003D0029001F4C002C003C09F
:0E21FD0004C005120E84D005D004D003D00219
:0A220B00EB2499F582EC3400F58312
:0E221500E4F090006F7401F08D82C002C003EF
:0E222300C004121536D004D003D002904485BA
:0E22310075F080C002C003C0041214E2D00495
:0B223F00D003D002EB24B9F582EC3490
:0C224A0000F583E0FBF582C0021214498D
:0E225600D00290448B75F080C0021214E2D0CA
:0622640002D2AF0225D0FA
:05226A00BA37028003F9
:03226F000225271E
:0A227200C002748FC0E0744BC0E09E
:09227C00122EC915811581D00252
:0E2285009000B075F000C002122D9CD00290A7
:0E22930000B075F000C002122C69AB82AC8363
:0E22A100D002C374079B74808CF063F08095AC
:0E22AF00F0E433FD601FC002C003C004C00590
:0922BD0074BCC0E0744BC0E012D7
:0E22C6002EC915811581D005D004D003D00299
:0C22D400ED70AEC002C00374F1C0E074F5
:0C22E0004BC0E0122EC915811581D003FF
:0622EC00D0027C007D0021
:0E22F200C3EC9408ED64809480400302250D37
:0D230000C002C003C004C005C004C00574C5
:08230D002BC0E0744CC0E0128B
:0E2315002EC9E58124FCF581D005D004D0034B
:02232300D002E6
:0E2325009000B075F000C002C003C004C005F7
:0E233300122D9CD005D004D003D0029000B033
:0E23410075F000C002C003C004C0051202FE09
:0E234F00AE82AF83D005D004D003D002C37499
:0E235D001F9E74808FF063F08095F0E433F8DB
:0E236B00602BC002C003C004C005C006C0073E
:0A237900C0007448C0E0744CC0E0DE
:0E238300122EC915811581D000D007D006D0CA
:0723910005D004D003D002C7
:06239800E86003022325AA
:0A239E00EC24C3F582ED3400F58352
:0A23A800EEF0EC24CBFFED3400F85A
:0E23B2008E82C002C003C004C005C007C00078
:0E23C0001205B6AE82D000D007D005D004D0F2
:0E23CE0003D0028F828883EEF0C002C003C0ED
:0A23DC0004C0057492C0E0744CC008
:0E23E600E0122EC915811581D005D004D00358
:0A23F400D0028C068D0778007900F6
:0E23FE00C3EE98EF648089F063F08095F05094
:04240C00030225039F
:0E241000C002C003C006C007C000C001C0006B
:0A241E00C00174A3C0E0744CC0E0DC
:0E242800122EC9E58124FCF581D001D000D030
:0C24360007D006D003D002E824CBFCE95C
:082442003400FD750B03E4F505
:01244A000C85
:0A244B00C3E50B9408E50C648094CF
:062455008040030224FB9D
:0C245B00C0038C828D83E0FB850BF00534
:04246700F0EB800214
:02246B00C31399
:0E246D00D5F0FB5401D003603EC002C003C096
:0E247B0004C005C006C007C000C00174FFC049
:0A248900E0E4C0E074B0C0E0744C61
:0E249300C0E07480C0E012332AE58124FBF51E
:0E24A10081D001D000D007D006D005D004D0E5
:0524AF0003D002803C97
:0E24B400C002C003C004C005C006C007C000BF
:0C24C200C001745FC0E0E4C0E074B0C072
:0C24CE00E0744CC0E07480C0E012332ABF
:0E24DA00E58124FBF581D001D000D007D006AB
:0824E800D005D004D003D0029E
:0724F000050BE4B50B02052A
:0124F7000CD8
:0324F80002244B70
:0524FB0008B800010912
:032500000223FEB5
:0A25030074012EFCE43FFD0222F2F9
:08250D0090008174C3F0A37477
:0B25150000F0A37400F08B82C00212E3
:07252000169BD0020225D03A
:05252700BA3802800338
:03252C000225ABDA
:0A252F00C00274B3C0E0744CC0E0B9
:09253900122EC915811581D00292
:0E2542009000B075F000C002122D9CD00290E7
:0E25500000B075F000C002122C69AB82AC83A3
:0E255E00D002C374079B74808CF063F08095EC
:0E256C00F0E433FD601FC002C003C004C005D0
:09257A0074BCC0E0744BC0E01217
:0E2583002EC915811581D005D004D003D002D9
:0E259100ED70AE9000937402F090009474030D
:0C259F00F08B82C002121861D00280256F
:0E25AB00BA710C758201C002121468D0028051
:0125B900160B
:0C25BA00BA6309C002120B1ED002800A96
:0A25C600BA6407C0021209C8D0026F
:0525D000E4BA770104EC
:0825D500FB700DBA72028008D0
:0525DD00BA6C0280034E
:0325E20002279A33
:0A25E500C002C00374EBC0E0744CA8
:0D25EF00C0E0122EC915811581D003D00265
:0E25FC009000C1E4F0A3F09000BC75F000C0A8
:0E260A0002C003122D9CD003D0029000BC75BC
:0E261800F000C002C00312006AAC82AD83D095
:0D26260003D0028C068D0774F82F400B9036
:0A26330000C17401F0E4A3F0801F61
:0C263D00C002C003C004C0057427C0E048
:0C264900744DC0E0122EC915811581D01F
:0726550005D004D003D00200
:0E265C009000C1E0FEA3E0FF4E60958C068D5D
:0A266A00078F0D750E00EB700302E0
:02267400272518
:0B267600C002C004C0057467C0E0741F
:0C2681004DC0E0122EC915811581D00556
:04268D00D004D002A3
:0E2691009000C1E4F0A3F09000B475F000C01A
:0E269F0002C004C005122D9CD005D004D0024C
:0D26AD009000B475F000C002C004C005121A
:0E26BA0002FEAB82A883D005D004D0028B01B3
:0E26C800880674FF2E400B9000C17401F0E4F0
:0426D600A3F08023CA
:0C26DA00C002C003C004C005C000749D15
:0C26E600C0E0744DC0E0122EC915811533
:0B26F20081D000D005D004D003D0023E
:0E26FD009000C1E0F9A3E0FE497003022691AF
:0A270B008C06AF0D900054EBF09027
:0E2715000055EFF08E82C002120FDDD00202DE
:02272300281478
:0C272500BA723F8C038D06900057E50D42
:0E273100F08B82C002C004C00512101BAB82E8
:0E273F00D005D004D0027E00C002C003C00648
:0A274D00C004C00574EBC0E0744D39
:0E275700C0E0122EC9E58124FAF581D00202FD
:02276500281436
:05276700BA6C028003C2
:03276C000228142C
:0B276F00900057E50DF08C82C00212B4
:0A277A00101BAB82D00290007174B6
:0A278400BCF0A37400F0A37400F091
:0C278E008B82C0021215B1D00202281488
:0D279A00BA680AC002120BCCD0020228144B
:0E27A700BA78139000AEE4F0A3F0900000C0EA
:0827B500021211DBD002805773
:0C27BD00BA6909C002121265D002804BFC
:0E27C900BA7326C0021211AFAB82D0027C00A0
:0B27D700C002C003C00474FBC0E0742B
:0C27E2004DC0E0122EC9E58124FCF581F9
:0427EE00D002802273
:0C27F200BA3909C002121707D002801685
:0A27FE00BA79137433C0E0744EC0C2
:0A280800E0122EC915811581C2AF40
:0228120080FE46
:0A281400BA6D4B748EC0E07444C02E
:0C281E00E0122EC915811581744BC0E03A
:0C282A00744EC0E0122EC9158115817497
:082836000CC0E07446C0E01282
:0B283E002EC9158115817492C0E07452
:0B28490046C0E0122EC91581158174F5
:0828540005C0E07447C0E0126A
:06285C002EC91581158153
:092862007400C0E0744FC0E012E4
:09286B002EC915811581021A45E0
:0628740030AF03021A451B
:0C287A0043A70775A61E75A6E1021A45CB
:0E288600C0E0C0F0C082C083C002C003C00426
:0E289400C005C006C007C000C001C0D075D08E
:0E28A200009000AEE0FAA3E0FB9000AE7401DF
:0E28B0002AF0E43BA3F09000AEE0FAA3E0FBB8
:0D28BE00BA200ABB00079000AEE4F0A3F0C2
:0E28CB009000AEE0FAA3E0FBEA20E00EEBC3C3
:0C28D90013CA13CAFB8A828B831211DB26
:0E28E500D0D0D001D000D007D006D005D0044E
:0D28F300D003D002D083D082D0F0D0E032EC
:0E290000C0E0C0F0C082C083C002C003C004AB
:0E290E00C005C006C007C000C001C0D075D013
:0E291C0000900127E0FA90012774012AF09044
:0E292A000099E0FA3395E0FB90009AE0FC3350
:0E29380095E0FDEC2AFAED3BFB90009BE0FCE5
:0E2946003395E0FD900128EC2AF0ED3BA3F064
:0A295400900127E0FABA02028003A6
:03295E00022B3217
:0C296100120619900127E4F07A007B00B8
:0E296D00C3EA9403EB648094804003022B3293
:0A297B00EA2499F582EB3400F5839D
:07298500E0FCBC010280032D
:03298C00022B2AF1
:0C298F008A04EBCC25E0CC33FDEC249C4A
:0C299B00FEED3400FF8E828F83E0F8A375
:0E29A700E0F94870368E828F837409F0A3E445
:0A29B500F0EC24A2FEED3400FF8ECA
:0E29BF00828F83E0F8A3E0F948601018B8FF9B
:0229CD000119EE
:0B29CF008E828F83E8F0A3E9F08008FF
:0829DA008E828F83E4F0A3F06C
:0A29E200EC24A2FEED3400FF8E820B
:0E29EC008F83E0F8A3E0F948705E8E828F833F
:0C29FA00743BF0A3E4F0EC24A8F8ED34EA
:0A2A060000F988828983E0F50FA330
:062A1000E0F510E50F45A2
:0A2A160010601DC002C003E50F248C
:0C2A2000FFFAE51034FFFB88828983EA8E
:0A2A2C00F0A3EBF0D003D002801EEF
:0C2A360088828983E4F0A3F0EC249CF576
:0C2A420082ED3400F583E4F0A3F08E82F6
:062A4E008F83E4F0A3F009
:0A2A5400EC24A8F582ED3400F583B0
:0C2A5E00E0FEA3E0FF4E7030EC249CF57D
:0C2A6A0082ED3400F583E0FEA3E0FF4E97
:0A2A7600701EEC24A2F582ED34007E
:0C2A8000F583E0FEA3E0FF4E700CEA249A
:0A2A8C0099F582EB3400F583E4F0C5
:0A2A9600EC249CF582ED3400F5837A
:0C2AA000E0FEA3E0FFEC24A2F582ED3480
:092AAC0000F583E0F50FA3E0F54D
:082AB50010EC24A8F582ED34B9
:092ABD0000F583E0F511A3E0F53A
:082AC60012EA2499F582EB34B9
:092ACE0000F583E0F8900018E522
:072AD7000FF0A3E510F090E1
:072ADE00001AE511F0A3E569
:082AE50012F090001CE8F090D3
:0E2AED00001DEAF0A3EBF08E828F83C002C0C2
:0E2AFB0003C004C0051207DED005D004D003CE
:0A2B0900D002EC249CFCED3400FD2A
:0E2B13008C828D83E0FEA3E0FF1EBEFF011F3B
:092B21008C828D83EEF0A3EFF02D
:052B2A000ABA00010BD6
:032B2F0002296D0B
:0E2B3200900128E0FAA3E0FBBA030BBB0008F9
:082B4000758CBF758A758022B7
:0E2B4800BA020BBB0008758CB5758A008014AC
:0E2B5600BA010BBB0008758C90758A008006D2
:062B6400758C6F758A00FC
:0E2B6A00D0D0D001D000D007D006D005D004C6
:0D2B7800D003D002D083D082D0F0D0E03264
:08447D00436F756E742D3000D1
:0644850054696D65720030
:03448B002D4400BD
:0E448E000A0A0D09090909092A2A2A2A2A2AD6
:0E449C002A2A20436C6F636B20436F6E74728C
:0E44AA006F6C20436F6D6D616E6473202A2A63
:0E44B8002A2A2A2A2A2A0A0A0D09312E2053FE
:0E44C600746F7020436C6F636B200909090945
:0E44D4000909322E2052657374617274204300
:0E44E2006C6F636B20090909332E205265733D
:0E44F000657420436C6F636B0A0D09342E2037
:0E44FE0053656C65637420436F756E742D44B6
:0E450C006F776E2054696D657220616E6420B9
:0E451A0056616C756520090909352E2054691B
:0E4528006D657220456E61626C65200909099F
:0E453600362E2054696D6572204469736162EF
:044544006C65200082
:0E4548000A0A0A0D09090909092A2A2A2A2A3B
:0E4556002A2A2A204C434420436F6D6D616E6B
:0E4564006473202A2A2A2A2A2A2A2A0A0A0DE1
:0E45720009372E20437265617465204375730E
:0E458000746F6D204368617261637465720927
:0E458E000909382E20446973706C617920434E
:0E459C007573746F6D2043686172616374659E
:0E45AA00720909092763272E20434752414D0D
:0E45B8002044756D700909092764272E2044E0
:0E45C6004452414D2044756D700A0D09276C5A
:0E45D400272E454550524F4D20436F6E7465A3
:0E45E2006E74206F6E204C4344204469737049
:0E45F0006C617909092771272E20436C6561E3
:0E45FE0072204C434420446973706C61790054
:0E460C000A0A0A0D09090909092A2A2A2A2A76
:0E461A002A2A2A20494F20457870616E646577
:0E4628007220436F6E74726F6C20436F6D6D65
:0E463600616E6473202A2A2A2A2A2A2A2A0A56
:0E4644000A0D092778272E2052657365742011
:0E465200436F756E746572090909092769279F
:0E4660002E20436F6E66696775726520494FA4
:0E466E002050696E73090909092773272E2051
:0E467C00537461747573206F6620494F5F455B
:08468A007870616E6465720036
:0E4692000A0A0A0D09090909092A2A2A2A2AF0
:0E46A0002A2A2A20454550524F4D20436F6E66
:0E46AE0074726F6C20436F6D6D616E647320CB
:0E46BC002A2A2A2A2A2A2A2A200A0A0D09272F
:0E46CA0077272E20454550524F4D20577269DC
:0E46D8007465200909092772272E20454550D8
:0E46E600524F4D2052656164200909090927D1
:0E46F40068272E204845582044756D70090A2D
:034702000D09009E
:0E4705000A0A0D09090909092A2A2A2A2A2A5C
:0E4713002A2A2044656D6F20436F6D6D616E24
:0E4721006473202A2A2A2A2A2A2A2A200A0A0F
:0E472F000D092779272E205761746368646F87
:0E473D00672044656D6F200909092739272E72
:0E474B00204C4F474F204372656174696F6EBA
:074759002044656D6F200094
:0E4760000A0A0D0909202A2A2A2A2A2A2020BC
:0E476E0053746F7020436C6F636B20202A2AF7
:04477C002A2A2A00BB
:0E4780000A0A0D0909202A2A2A2A2A2A20209C
:0E478E005265737461727420436C6F636B200C
:08479C00202A2A2A2A2A2A00F9
:0E47A4000A0A0D0909202A2A2A2A2A2A202078
:0E47B200526573657420436C6F636B20202A80
:0647C0002A2A2A2A2A0021
:0E47C6000A0A0D0909202A2A2A2A2A2A202056
:0E47D4004C6F616420436F756E7465722056E1
:0C47E200616C7565202A2A2A2A2A2A0008
:0E47EE000A0A0D0909202A2A2A2A2A2A20202E
:0E47FC0054696D657220456E61626C65202007
:07480A002A2A2A2A2A2A00AB
:0E4811000A0A0D0909202A2A2A2A2A2A20200A
:0E481F0054696D65722044697361626C652096
:08482D00202A2A2A2A2A2A0067
:0E4835000A0A0D0909202A2A2A2A2A2A2020E6
:0E484300437573746F6D204368617261637416
:0B485100657220202A2A2A2A2A2A0049
:0E485C000A0A0D0909202A2A2A2A2A2A2020BF
:0E486A00526573657420436F756E746572201D
:08487800202A2A2A2A2A2A001C
:0E4880000A0A0D0909202A2A2A2A2A2A20209B
:0E488E00436F6E66696775726520494F205052
:0C489C00696E7320202A2A2A2A2A2A008A
:0E48A8000A0A0D0909202A2A2A2A2A2A202073
:0E48B600537461747573206F6620494F20455E
:0E48C4007870616E64657220202A2A2A2A2AE2
:0248D2002A00BA
:0E48D4000A0A0D0909202A2A2A2A2A2A202047
:0E48E200454550524F4D205772697465202095
:0748F0002A2A2A2A2A2A00C5
:0E48F7000A0A0D0909202A2A2A2A2A2A202024
:0E490500454550524F4D205265616420202AD6
:064913002A2A2A2A2A00CC
:0E4919000A0A0D0909202A2A2A2A2A2A202001
:0E492700434752414D2044756D7020202A2ACE
:054935002A2A2A2A00D5
:0E493A000A0A0D0909202A2A2A2A2A2A2020E0
:0E494800444452414D2044756D7020202A2AAF
:054956002A2A2A2A00B4
:0E495B000A0A0D0909202A2A2A2A2A2A2020BF
:0E4969004865782044756D7020202A2A2A2A7D
:034977002A2A00E9
:0E497A000A0A0D0909202A2A2A2A2A2A2020A0
:0E4988004C434420444953504C415920202AAE
:064996002A2A2A2A2A0049
:0E499C000A0A0D0909202A2A2A2A2A2A20207E
:0E49AA00436C656172204C434420202A2A2A67
:0449B8002A2A2A007D
:0E49BC000A0A0D092053656C65637420746946
:0E49CA006D6572206E756D6265722062657497
:0E49D8007765656E203020746F20323A20091A
:0149E60000D0
:0E49E7000A0A0D202A2D4552524F522D2A0A3F
:0E49F5000D0920456E74657220612076616C9C
:0E4A03006964206E756D62657220626574775D
:0B4A110065656E203020746F203200BD
:0E4A1C000A0A0D456E746572206D696E757420
:0E4A2A00657320666F722074696D65722025B9
:0E4A380064206265747765656E203020746FAF
:074A46002035393A20090078
:0E4A4D000A0A0D202A2D4552524F522D2A0AD8
:0E4A5B000D0920456E74657220612076616C35
:0E4A69006964206E756D6265722062657477F7
:0C4A770065656E203020746F203539001A
:0E4A83000A0A0D456E746572207365636F6ECE
:0E4A9100647320666F722074696D6572202553
:0E4A9F0064206265747765656E203120746F47
:074AAD002035393A20090011
:0E4AB4000A0A0D456E746572206D696C697397
:0E4AC200656320666F722074696D6572202531
:0E4AD00064206265747765656E203020746F17
:064ADE0020393A20090016
:0E4AE4000A0A0D202A2D4552524F522D2A0A41
:0E4AF2000D0920456E74657220612076616C9E
:0E4B00006964206E756D62657220626574775F
:0B4B0E0065656E203020746F203900B8
:0E4B19000A0A0D0957686963682074696D65A2
:0E4B27007220746F20656E61626C652062659D
:0E4B3500747765656E203020746F20323A0967
:014B43000071
:034B44002D4500FC
:0E4B47000A0A0D57686963682074696D65720B
:0E4B550020746F2044697361626C6520626594
:0E4B6300747765656E203020746F20323A0939
:014B71000043
:094B720044697361626C65640022
:0E4B7B000A0A09092044697361626C696E6759
:064B89002E2E2E0A0D0085
:0E4B8F000A0A0D092053656C656374204368A3
:0E4B9D006172616374657220636F64652062EB
:0E4BAB0065747765656E203020746F20373A90
:034BB900200900D0
:0E4BBC000A0A0D202A2D4552524F522D2A0A68
:0E4BCA000D0920456E74657220612076616CC5
:0E4BD8006964206E756D626572206265747787
:0B4BE60065656E203020746F203700E2
:0E4BF1000A0A0D0920456E74657220706978FD
:0E4BFF00656C206D617020696E20484558205D
:0E4C0D00696E20484820666F726D61742066E3
:0E4C1B00726F6D20303020746F2031463A20C9
:024C2900090080
:0E4C2B000A0D09204461746120696E20726FC9
:0E4C390077206E756D6265722025643A200941
:014C4700006C
:0E4C48000A0A0D202A2D4552524F522D2A0ADB
:0E4C56000D0920456E74657220612076616C38
:0E4C6400696420484558206E756D62657220A7
:0E4C72006265747765656E20303020746F20A7
:0E4C8000314620696E20484820666F726D61D3
:044C8E00743A09006B
:0E4C92000A0D0909202020202020093132338C
:034CA000343500A8
:0D4CA3000A0D0909524F572025643A0900F7
:034CB00025630079
:0E4CB3000A0A0D092053656C6563742043687E
:0E4CC1006172616374657220636F64652062C6
:0E4CCF0065747765656E203020746F20372085
:0E4CDD00746F20646973706C61793A2009006D
:0E4CEB000A0A0D20456E7465722041646472E1
:0E4CF90065737320696E2048657820696E200F
:0E4D070048484820666F726D617420626574C2
:0E4D15007765656E2030303020746F20374691
:044D2300463A2000EC
:0E4D27000A0A0D202A2D4552524F522D2A09FC
:0E4D350020506C6561736520456E74657220B8
:0E4D430076616C69642041646472657373204C
:0E4D51006265747765656D2030303020616ECC
:084D5F0064203746463A2000AB
:0E4D67000A0A0D20456E746572204461746165
:0E4D750020696E2048657820696E204848202D
:0E4D8300666F726D6174206265747765656E8F
:0C4D910020303020746F2046463A20008D
:0E4D9D000A0A0D202A2D4552524F522D2A0986
:0E4DAB0020506C6561736520456E7465722042
:0E4DB90076616C6964206461746120696E200B
:0E4DC70048657820696E20484820666F726D3E
:0E4DD5006174206265747765656E2030302051
:084DE300746F2046463A2000DF
:0E4DEB000A0A0D0909092578203A20257820AA
:024DF9000A00AE
:0E4DFB000A0A0D092043757272656E7420530A
:0E4E09007461747573206F66207468652049AB
:0E4E17004F5F457870616E6465722070696E41
:0E4E2500732069733A20307825780A0A0D0050
:0E4E33000A0A0A0D5761746368646F672052A3
:0A4E4100455345542044656D6F0091
:0E4E4B000A0A0A0D09090909092A2A2A2A2A2F
:0E4E59002A2A2A204C434420436F6D6D616E5F
:0E4E67006473202A2A2A2A2A2A2A2A0A0A0DD5
:0E4E750009372E204372656174652043757302
:0E4E8300746F6D20436861726163746572091B
:0E4E91000909382E20446973706C6179204342
:0E4E9F007573746F6D20436861726163746592
:0E4EAD00720909092763272E20434752414D01
:0E4EBB002044756D700909092764272E2044D4
:0E4EC9004452414D2044756D700A0D09276C4E
:0E4ED700272E204C434420446973706C61798F
:0E4EE500090909092771272E20436C656172A7
:0D4EF300204C434420446973706C617900C9
:0E4F00000A0A0D0920507265737320276D2771
:0E4F0E0020746F2073656520746865204D6502
:0E4F1C006E7520616761696E206F72205072A1
:0E4F2A0065737320436F6D6D616E64204B657F
:044F3800793A0900B9
:014FBF0000F1
:024FC0000000EF
:062B8500E5829000D3F090
:0C2B8B003099FD9000D3E0F599C299222A
:052B970010980280FB14
:0E2B9C0043A70775A61E75A6E1AA998A822294
:0E2BAA0075C800759B00438780758DFF758B85
:0B2BB80000438840439852758920229A
:0B2BC300A8811818C6B2E7C602321F36
:0E2BCE00AA83E5829000D6F0A3EAF09000D82A
:0E2BDC00E4F0A3F09000D4E0FAA3E0FB7C103C
:0C2BEA009000D6E0FDA3E0FE339200EE68
:0E2BF600CD25E0CD33FE9000D6EDF0A3EEF03D
:0E2C04009000D8E0FDA3E0FECD25E0CD33FE2C
:0C2C12009000D8EDF0A3EEF0300012901E
:0E2C1E0000D8E0FDA3E0FE9000D874014DF058
:032C2C00A3EEF024
:0E2C2F009000D8E0FDA3E0FEC3ED9AEE9B40BE
:0D2C3D001D9000D8EDC39AF0EE9BA3F0901F
:0E2C4A0000D6E0FDA3E0FE9000D674014DF030
:032C5800A3EEF0F8
:0E2C5B00DC8D9000D6E0FAA3E08A82F5832299
:06003D00E478FFF6D8FD97
:08001B007903E94400601B7A3F
:0500230001904FBF78C1
:030028002775A099
:0A002B0001E493F2A308B8000205F7
:08003500A0D9F4DAF275A0FF76
:0E2C6900AAF0AB83E5829000DAF0A3EBF0A3B3
:0E2C7700EAF07A007B009000DAE0FCA3E0FDBA
:032C8500A3E0FECB
:0E2C88008C828D838EF0123BE3FF6039C374A3
:0E2C9600B98FF063F08095F04007EF648094F2
:032CA400B0502607
:0E2CA7008C828D838EF0123BE3FFBF2D0280E6
:012CB5001707
:052CB600BF2B0280129B
:052CBB000CBC00010D3E
:0D2CC0009000DAECF0A3EDF0A3EEF080BB85
:0E2CCD009000DAECF0A3EDF0A3EEF08C828D17
:0C2CDB00838EF0123BE3FFE4BF2D0104E8
:082CE700F888017003BF2B0EF9
:0E2CEF009000DA74012CF0E43DA3F0A3EEF0A7
:0B2CFD009000DAE0FCA3E0FDA3E0FE85
:0E2D08008C828D838EF0123BE3FF6068C3EF78
:0E2D1600648094B0406074B98FF063F08095D3
:0E2D2400F04055C0019000E6740AF0E4A3F000
:0E2D32008A828B83C004C005C006C007C001A2
:082D4000122FD1858213858357
:0C2D480014D001D007D006D005D004EF55
:0E2D54003395E0F8EF24D0FFE834FFF8EF25C8
:0A2D620013FAE83514FB0CBC000165
:012D6C000D59
:0E2D6D009000DAECF0A3EDF0A3EEF0D00180C0
:012D7B008CCB
:0E2D7C009000DAECF0A3EDF0A3EEF0E96009B0
:092D8A00C3E49AFCE49BFD800403
:042D93008A048B051E
:052D97008C828D8322F7
:0E2D9C00AAF0AB83E5829000DDF0A3EBF0A37C
:0E2DAA00EAF09000DDE0FAA3E0FBA3E0FC906D
:0E2DB80000E0EAF0A3EBF0A3ECF09000E3E4FF
:032DC600F0A3F087
:0A2DC900122B97AA82BA0802800DAF
:052DD300BA0A0280674E
:052DD800BA0D0280624B
:032DDD00022E7251
:0E2DE0009000E3E0FBA3E0FC4B60DE75820890
:0E2DEE00C003C004122B85D004D003758220D0
:0E2DFC00C003C004122B85D004D003758208DA
:0E2E0A00C003C004122B85D004D0039000E05A
:0D2E1800E0FDA3E0FEA3E0FF1DBDFF011ED5
:0E2E25009000E0EDF0A3EEF0A3EFF01BBBFF7A
:022E3300011C80
:0A2E35009000E3EBF0A3ECF0808ABC
:0D2E3F0075820D122B8575820A122B85906D
:0E2E4C0000E0E0FBA3E0FCA3E0FD8B828C83A2
:0E2E5A008DF0E4122EB09000DDE0FBA3E0FC52
:0A2E6800A3E0FD8B828C838DF02225
:0E2E72009000E0E0FBA3E0FCA3E0FD8B828C6F
:0E2E8000838DF0EA122EB09000E074012BF06A
:0E2E8E00E43CA3F0A3EDF09000E3E0FBA3E032
:0E2E9C00FC9000E374012BF0E43CA3F08A826A
:062EAA00122B85022DC968
:0E2EB00020F71030F6118883A88220F507F66F
:052EBE00A883758300EC
:012EC30022EC
:032EC400F280F7A2
:022EC700F022F7
:052EC900C0198581190C
:0B2ECE00E51924FDF8868318868218A1
:0E2ED900E493A324DB600C24256005122FB6C1
:022EE70080F079
:032EE900022FCEE7
:092EEC00D2D5E493A3C083C08297
:032EF500B473149F
:092EF80086F01886831886821802
:0B2F0100123BE36053A3122FB680F5D3
:0A2F0C00B46307E618122FB68043E5
:0E2F1600B46417E630E74618E6F42401F60826
:0C2F2400E6F43400F6742D122FB6803352
:0A2F3000B4782D868318868218E419
:0B2F3A00122FA7E583122FA6E58312DB
:0A2F45002FA7E582122FA6E58212E5
:0A2F4F002FA730D5057430122FB6FD
:072F5900D082D083022ED9C3
:032F6000B475F64F
:062F6300E6FA18E6F91879
:0D2F69007C107D27122F91FF7CE87D031264
:0E2F76002F91C4F5837C647D00122F9142835D
:0D2F8400E975F00A84C445F0F582EF80A9DC
:022F91007B00C3
:0E2F93000BC3E99CF9EA9DFA50F61BE92CF9F4
:052FA100EA3DFAEB22FD
:012FA600C466
:072FA700540F700320D51F39
:082FAE00C2D52490D43440D4B4
:0E2FB600C083C082C0F0F582E8C0E0122B8517
:092FC400D0E0F8D0F0D082D083F7
:012FCD0022E1
:032FCE00D01922F5
:0E2FD100AA83AB828BF09000E6E0A4F8A9F092
:0E2FDF008AF0E0A429F98BF0A3E0A429F58381
:042FED008882222292
:0E2FF100AA82AB83ACF0FD9000ECEAF0A3EBFB
:0E2FFF00F0A3ECF0A3EDF09000E8E0FAA3E000
:0E300D00FBA3E0FCA3E0FDEA4B4C4D700990E4
:08301B00000075F080743F22F3
:0E302300C002C003C004C005E4C0E0C0E074F9
:0E30310080C0E0743FC0E08A828B838CF0ED9B
:0E303F00123E51AE82E58124FCF581D005D011
:0E304D0004D003D002EE60159000ECE0FEA36C
:0E305B00E0FFA3E0F8A3E0F98E828F8388F0F7
:013069002244
:09306A009000ECE0F515A3E0F57F
:0830730016A3E0F517A3E0F538
:0C307B0018C002C003C004C005E4C0E09F
:0A308700C0E0C0E0C0E085158285BE
:0630910016838517F0E52F
:0C30970018123E62AE82E58124FCF58137
:0E30A300D005D004D003D002EE7007900000DC
:0430B100E4F5F02230
:0730B5008515828516838555
:0A30BC0017F0E518C002C003C004BD
:0E30C600C005123CE3AE82AF83A8F0F9D0053E
:0E30D400D004D003D002C002C003C004C00567
:0E30E2008E828F8388F0E9123C12AA82AB83A3
:0E30F000ACF0FDE58124FCF5818A828B838C97
:0530FE00F0ED023E921E
:0E310300AA83E5829000F2F0A3EAF09000F2B9
:0E311100E0FAA3E0FB30E709C3E49AFCE49B7C
:03311F00FD80042C
:043122008A048B058B
:0E3126008C028D039000F0E0FCA3E0FD30E78A
:0A31340009C3E49CFEE49DFF800443
:04313E008C068D0767
:0D3142009000F4EEF0A3EFF08A828B831270
:0E314F003171AA82AB839000F2E0FCA3E0FD98
:0E315D0030E70CC3E49AFCE49BFD8C828D836A
:01316B002241
:05316C008A828B832222
:0E317100AA83E5829000F6F0A3EAF09000F841
:0C317F00E4F09000F6E0FAA3E0FB7C0016
:0E318B009000F4E0FDA3E0FE235401FF703736
:0E319900EECD25E0CD33FE9000F4EDF0A3EE78
:0E31A700F09000F4E0FDA3E0FEC3EA9DEB9E75
:0E31B5005011EEC313CD13CDFE9000F4EDF0DB
:0531C300A3EEF08008FE
:0831C8000C9000F8ECF080BB54
:0531D0009000F8E0FA98
:0E31D5009000F6E0FBA3E0FC9000F4E0FDA308
:0E31E300E0FEC3EB9DEC9E400B9000F6EBC3AC
:0631F1009DF0EC9EA3F02E
:0E31F7009000F4E0FBA3E0FCC313CB13CBFC71
:0E3205009000F4EBF0A3ECF08A031AEB70C219
:0C3213009000F6E0FAA3E08A82F5832226
:03321F00123CB5A9
:093222007900E583B58202800DFC
:05322B005003123B7688
:08323000E583C39582123DE520
:08323800E5D0C465D020E117C8
:0E324000EA2DFAEB3EFBEC3FFC500974011244
:06324E003DE5EC4480FCAC
:0332540002328FB4
:0E325700C3EA9DFAEB9EFBEC9FFC500FC3E414
:0D32650099F9E49AFAE49BFBE49CFCB2D1D9
:06327200123E2802328F1B
:080043007800E84400600A792E
:03004B000075A09D
:06004E0000E4F309D8FCF8
:080054007827E84401600C79F3
:0B005C0002900000E4F0A3D8FCD9FAE9
:0C327800E4AC83AB82FAF9748E023C08CF
:0B3284007F8E124029F58385F0822226
:06328F00B98003EA13B34D
:0E3295004010EA2401FAE43BFBE43CFC500448
:0432A3007C800582A4
:0932A700BC000EBB000BBA0008CC
:0832B000E4F5F0F583F582223C
:0E32B800A2D1E582138CF092F78B838A8222DA
:0D32C600E4F583F58275F080F4A2D11322A7
:0B32D300E4F583F58275F0C0747F22E3
:0832DE00C019858119AA8212B2
:0532E6002B85D0192228
:0E32EB00AAF0AB83E5829000FAF0A3EBF0A30B
:0E32F900EAF09000FAE0FAA3E0FBA3E0FC90FC
:0E33070000F9E0FD90010DE4F0A3F0A3F090BA
:0E3315000110EAF0A3EBF0A3ECF0900113ED31
:07332300F09032DE0234439A
:06332A00C019858119E5C0
:0C3330001924FBFA90010DE4F0A3F0A3B7
:0C333C00F0E51924FBF8900110E6F00801
:0D334800A3E6F008A3E6F0900113EAF09070
:0A33550032DE123443AA82AB83D0AB
:02335F00192231
:0C336100E582900109F0900109E0FA906B
:0E336D0000FFE0C0E0A3E0C0E0A3E0C0E07419
:08337B008FC0E07433C0E09044
:0C33830000FDE0C0E0A3E0C0E08A822270
:0E338F00158115811581900107E0FAA3E0FB7E
:0C339D0090010774012AF0E43BA3F02229
:0E33A900E58290010AF090010AE0FA74302AE1
:0C33B700FA24C6500A74072AFA300103F9
:0333C300430220A2
:0533C6008A8202336160
:0E33CB00E58290010BF090010BE0FAC4540F64
:0E33D900FBF582C0021233A9D00253020F8A04
:0433E700820233A982
:0E33EB00E58290010CF0900102E0FAA3E0FBF5
:0E33F900A3E0FCA3E0FD900106E0FE90010CB5
:04340700E0FF78204A
:0E340B00EE2EFEED235401F94206EA2AFAEBFA
:0E34190033FBEC33FCED33FDC3EE9F4007EEBA
:06342700C39FFE430201F9
:0E342D00D8DC900102EAF0A3EBF0A3ECF0A3D0
:08343B00EDF0900106EEF02215
:0E344300AA83E582900114F0A3EAF090011430
:0E345100E0FAA3E0FB9000FDEAF0A3EBF090A0
:0E345F00010DE0FAA3E0FBA3E0FC9000FFEA01
:0E346D00F0A3EBF0A3ECF0900107E4F0A3F065
:0E347B00900110E0FAA3E0FBA3E0FC8A828B34
:0E348900838CF0123BE3FD90011074012AF0D9
:0D349700E43BA3F0A3ECF0ED7003023B6AF0
:0534A400BD25028003BC
:0334A900023B6281
:0534AC00C202C203C2D0
:0434B10004C205C28A
:0434B50006C207C282
:0434B90008C20990AC
:0934BD000116E4F0900117F090F3
:0E34C600011874FFF0900110E0FAA3E0FBA3E0
:0234D400E0FC1A
:0E34D6008A828B838CF0123BE3FEA3AA82ABAA
:0D34E40083900110EAF0A3EBF0A3ECF09050
:0D34F100011AEEF0BE25088E821233610232
:0234FE00347B1D
:053500008E07BF300042
:0E35050040498E07EF24C64042900118E0FFB7
:0E351300BFFF29C002C003C004900117E0FAF8
:0E35210075F00AA4FAEE24D09001172AF0905B
:0D352F000117E0FAD004D003D002709BD247
:03353C0003809772
:0E353F00EF75F00AA4FFEE24D09001182FF0D3
:03354D000234D66F
:0E35500090011AE0FEBE2E08900118E4F00271
:02355E0034D661
:0E3560008E82C002C003C004C006124097E570
:0C356E008224FF9201D006D004D003D0CC
:0B357A000230010790011A74DF5EF0C0
:0A35850090011AE0FEBE20028055FE
:05358F00BE2B02804B81
:05359400BE2D02804184
:05359900BE4202804B60
:05359E00BE4302805055
:0635A300BE44030237D70D
:0635A900BE46030237F9E3
:0635AF00BE49030237D7FC
:0535B500BE4C02803451
:0635BA00BE4F030237E1E1
:0635C000BE500302373982
:0535C600BE530280422B
:0635CB00BE55030237E9C2
:0635D100BE58030237F1B1
:0335D7000237FDBB
:0535DA00D2020234D60C
:0535DF00D2040234D605
:0535E400D2050234D6FF
:0535E900D2070234D6F8
:0535EE00D2080234D6F2
:0E35F300900113E0FA24FEF8900113F0860216
:0C360100088603188A821233610238091F
:0E360D00900113E0FA24FDF8900113F08602FC
:0E361B000886030886041818900102EAF0A33E
:0E362900EBF0A3ECF0900102E0FAA3E0FBA3AB
:0E363700E0FC8A828B838CF0123B90AA82AB5F
:0E36450083900118E0FBBBFF05900118EAF02E
:0C365300200238900117E0FBC3EA9B50F6
:0D365F002E900117EBC39AF0900117E0FBCD
:0D366C008B041B900117EBF0BC00028010D6
:0E367900758220C002C003123361D003D0025C
:0236870080E3DE
:05368900900117EBF0B9
:05368E00900118E0FDB1
:0E369300C002900102E0FCA3E0FFA3E0FA8C6D
:0E36A100828F838AF0123BE3D00260538D04C7
:0E36AF001DC374808CF063F08095F05044C011
:0A36BD0002900102E0F51AA3E0F507
:0836C7001BA3E0F51C740125B2
:0736CF001AFBE4351BFAAC05
:0C36D6001C900102EBF0A3EAF0A3ECF062
:0736E200851A82851B838518
:0C36E9001CF0123BE3FAF582C002C005A1
:0B36F500123361D005D002D002809398
:063700002002030238095B
:0D370600900117E0FBC3EA9B400302380965
:0C371300900117EBC39AF0900117E0FA48
:0E371F008A031A900117EAF0BB000302380477
:0C372D00758220C002123361D00280E6D9
:0E373900900113E0FB24FDF8900113F08603CD
:0E3747000886040886071818900102EBF0A30C
:0E375500ECF0A3EFF0900104E0FB247F50089D
:0837630090011A7443F080206C
:0D376B00EB249F500890011A7450F0801359
:0D377800EB24BF500890011A7449F0800640
:0637850090011A7458F0D7
:0E378B0090011AE0FBF582C003123361D003F7
:0E37990075823AC003123361D003758230C0CE
:0E37A70003123361D003758278C003123361C0
:0737B500D003BB4902800FA5
:0537BC00BB5002800A71
:0A37C100900103E0FBF5821233CB08
:0C37CB00900102E0FBF5821233CB80324B
:0A37D700D206900116740AF0802853
:0837E1009001167408F080202D
:0837E900900116740AF080182B
:0837F1009001167410F0801025
:0437F900D209800C65
:0737FD008E8212336180058A
:05380400900117EAF03D
:0C38090030096B900113E0FA24FCF890E9
:0E3815000113F0860208860308860408860662
:0E382300181818900102EAF0A3EBF0A3ECF0E5
:0B383100A3EEF0900102743CF0A374C1
:06383C004FF0A37480F0C0
:0E384200900102E0FBA3E0FCA3E0FD74012B6B
:0E385000FEE43CFF8D02900102EEF0A3EFF0CB
:0E385E00A3EAF08B828C838DF0123BE3FA70AC
:04386C000302347BA4
:073870008A8212336180CB54
:0B387700900116E0FABA000302347B57
:083882009001217420F0A374F1
:06388A0001F030074C9034
:0E3890000113E0FA14F8900113F08602EA33F7
:0E389E0095E0FBFCFE900102EAF0A3EBF0A324
:0B38AC00ECF0A3EEF0300603023951EF
:0E38B700900102E0FAA3E0FBA3E0FCA3E0FE18
:0E38C5007B007C007E00900102EAF0A3EBF095
:0838D300A3ECF0A3EEF08076F7
:0C38DB0030082A900113E0FA24FCF89059
:0E38E7000113F0860208860308860408860690
:0E38F500181818900102EAF0A3EBF0A3ECF013
:05390300A3EEF0804975
:0E390800900113E0FA24FEF8900113F08602FD
:0E39160008860318EB3395E0FCFE900102EAF0
:0C392400F0A3EBF0A3ECF0A3EEF0200603
:0E39300020900102E0FAA3E0FBA3E0FCA3E07C
:0E393E00FE7C007E00900102EAF0A3EBF0A3F5
:05394C00ECF0A3EEF019
:0C39510030063E900102E0FAA3E0FBA368
:0E395D00E0FCA3E0FE30E72B900102E0FAA3AD
:0E396B00E0FBA3E0FCA3E0FEC3E49AFAE49BB9
:0E397900FBE49CFCE49EFE900102EAF0A3EB4E
:09398700F0A3ECF0A3EEF08002C5
:02399000C2066D
:08399200D20A900116E0FC7559
:03399A001D207578
:04399D001E017D008A
:0E39A100900106E4F08C82C004C0051233EBE6
:0C39AF00D005D004200A32C004900106AC
:0A39BB00E0FFC4FF851D82851E8316
:0A39C500E0FA4207851D82851E838B
:0A39CF00EFF0151D74FFB51D021581
:0139D9001ECF
:0839DA00900121E51DF0A3E5B9
:0639E2001EF0D004800C71
:0939E800900106E0FF851D8285B7
:0339F1001E83F042
:0939F4000D900119EDF0B20A90EA
:0E39FD000102E0FFA3E0FAA3E0FEA3E0FBEF6F
:0C3A0B004A4E4B7091900121E51DF0A384
:093A1700E51EF0900119EDF0909C
:0C3A20000117E0FA70069001177401F025
:0A3A2C0020032720022474012DFA64
:053A3600900117E0FB08
:0D3A3B00C3EA9B5011758220C002C0031227
:093A48003361D003D0021B80EAB7
:053A5100900117EBF0ED
:0A3A560030061275822D12336190C4
:0B3A60000117E0FA14900117F0802F0E
:0C3A6B00900119E0FA6028300412758206
:0B3A77002B123361900117E0FA14904D
:053A82000117F08013A4
:0A3A870030051075822012336190A3
:093A91000117E0FA14900117F08E
:093A9A0020022F900119E0FA90BE
:043AA3000117E0FB2C
:0E3AA7008B041B900117EBF0C3EA9C503630E5
:063AB50003047C308002D6
:023ABB007C206D
:0E3ABD008C82C002C003123361D003D002809D
:013ACB00DB1F
:0E3ACC00900117E0FA900119E0FCC39A50092E
:093ADA00900117EAC39CF0800C76
:073AE300900117E4F08005DB
:053AEA00900117EBF054
:0D3AEF00900121E0FAA3E0FB900119E0FC3A
:0A3AFC008C061CEE6040B20A200A9E
:063B0600150ABA00010BD4
:0E3B0C008A828B83E0FEC4540FFE900106F007
:023B1A00800E1B
:0E3B1C008A828B83E0FE53060F900106EEF0C6
:0E3B2A00900106E0FEF582C002C003C0041246
:0A3B380033A9D004D003D00280BAF4
:063B420020020302347BA7
:053B4800900117E0FAF6
:093B4D008A031AEB700302347BB9
:0C3B5600758220C002123361D00280EBA7
:083B62008D8212336102347BF5
:0C3B6A00900107E0FAA3E08A82F58322B4
:0B4F3C003C4E4F20464C4F41543E00BD
:0E3B7600E582C583F582A2D133A2D592D11388
:0C3B840092D5ECCFFCEBCEFBEACDFA2290
:0E3B9000AAF0AB83E582900123F0A3EBF0A333
:0E3B9E00EAF07A007B00900123E0FCA3E0FD3A
:033BAC00A3E0FE95
:0E3BAF008C828D838EF0123BE3FFA3AC82ADBF
:0E3BBD0083900123ECF0A3EDF0A3EEF0EF6097
:083BCB00070ABA00DF0B80DCE1
:0E3BD300900123ECF0A3EDF0A3EEF08A828BBC
:023BE10083223D
:03000E0075812ACF
:0A00110012189EE5826003021899A0
:0E3BE30020F71430F6148883A88220F507E638
:063BF100A8837583002289
:033BF700E280F772
:033BFA00E493222F
:023BFD00E022C4
:093BFF00FCABF0AA83A982749EBC
:023C0800C2D127
:083C0A00F582123E2802328F00
:063C1200123CB5BC0003EA
:033C18000232B0C5
:083C1B00EF60FA30D502B2D1CE
:083C2300E583B4FF030232C681
:083C2B00E582B4FF030232C67A
:0B3C3300258340072482400B0232B0C2
:083C3E0024831450030232C676
:0E3C4600F582EA8DF0A4A8F0EA8EF0A428F82A
:0E3C5400E435F0F9EB8DF0A428E935F0F9E441
:0E3C620033CA8FF0A429F9EA35F0FAEBF88E98
:0E3C7000F0A429F9EA35F0FAE433FBEC8DF00C
:0E3C7E00A429F9EA35F0FAE43BFBE88FF0A444
:0E3C8C002AFAEB35F0FBE433CCFD8EF0A42ACF
:0E3C9A00FAEB35F0FBE43CFCED8FF0A42BFBC5
:0A3CA800EC35F0FC20E703123E2883
:033CB20002328F4C
:0D3CB500AA82AB83A2F73392D16002D2F74E
:0E3CC200F582ACF0E58124F9F8E6FD08E6FE97
:0E3CD0000886F008E6A2F73392D56002D2F71C
:053CDE00F583AFF022A8
:033CE30012401577
:063CE60030D1030232D3CD
:083CEC00BC0005D2D10232C672
:0C3CF400C08274037900123DE5E4F52263
:053D0000F523F524F598
:053D050025904F47F876
:0E3D0A008C078B068A0589F0E8123DA4E92596
:0E3D1800F0EA3DEB3EEC3F54E07028E925F068
:0D3D2600F9EA3DFAEB3EFBEC3FFCE493258F
:073D330022F5227401933513
:073D3A0023F5237402933509
:073D410024F52474039335FF
:033D480025F52539
:0B3D4B00A3A3A3A308B81EB7AC25ABD0
:043D560024AA23A9CF
:0C3D5A0022758281D2D1123E28D0E0B444
:053D66007E030232A7FC
:023D6B00400610
:063D6D002482C2D580058E
:053D7300F4247FD2D50D
:0E3D7800F8123B76741888F0A4F9AAF074B122
:0E3D860088F0A4FBACF0747288F0A42AFAE571
:0D3D9400F03BFBE43CFC758286123E2802E9
:033DA100322222A9
:0E3DA40024F850228DF0AD06AE077F0024F803
:0E3DB20050168DF0AD067E0024F8500C8DF0FA
:0A3DC0007D0024F8500475F0002285
:073DCA0024086016C000F898
:0E3DD100C3EF13FFEE13FEED13FDE5F013F547
:053DDF00F0D8EFD00058
:013DE40022BC
:0E4F4700FF422E16F691F90CF2FD2307EEE064
:0E4F5500C4030CA3F001D814FC00A3027F00DB
:0E4F630055C03F000BF01F0001FC0F0000FFC7
:0E4F71000700C0FF0300F0FF0100FCFF00007E
:0E4F7F00FF7F00000040000000200000001036
:0E4F8D00000000080000000400000002000008
:0E4F9B00000100008000000040000000200027
:0E4FA9000000100000000800000004000000DE
:084FB7000200000001000000EF
:093DE5006040F82582500274FFD1
:0E3DEE00F582E824F8501ECCCBCAF9E4CC24B0
:0E3DFC00F85014CBCAF9E4CB24F8500BCAF9E6
:093E0A00E4CA24F85003790022F7
:053E130024086010F816
:0E3E1800C3EC13FCEB13FBEA13FAE913F9D821
:013E2600F1AA
:013E27002278
:023E280078041C
:0E3E2A00EC700DC9CACBFCE58224F8F582D8F5
:023E3800F12275
:023E3A007820EE
:0E3E3C0020E7111582C3E933F9EA33FAEB33BC
:063E4A00FBEC33FCD8EC98
:013E5000224F
:0E3E5100FFA881181812406C12404EE964015F
:033E5F00F58222C7
:0E3E6200FFA881181812406CD2D133E6400739
:073E700030E70B758201220F
:073E770020E706758200221E
:023E7E00C2D1AF
:093E800012404EE97003F58222A4
:043E890030D101B380
:053E8D00E433F5822280
:0C3E9200A2E7920BC2E7F8A2F7332499D4
:0B3E9E00400990000075F080743F2286
:0C3EA900752A00E58224E8E583348DE5ED
:093EB500F034CEE834C0E85055A9
:083EBE0085822685832785F02B
:0A3EC60028F529783BC00078AAC057
:0E3ED0000078B8C000783FC000123C12158187
:0C3EDE00158115811581124177E582F5F0
:083EEA002A248050030232C6B5
:0D3EF200780079807A317BBF123FC685824F
:063EFF002685832785F0F3
:0A3F050028F529788379807A5E7B25
:043F0F0039123FC65E
:0E3F1300A2F733D2F7A982AA83ABF07C00B4E8
:043F21007902800F92
:093F250040072487123FFE8006CC
:063F2E00F4247A123DE5C7
:063F3400E4F526F527F577
:053F3A0028752920900C
:033F3F004F47F8F1
:0E3F4200E493F5F0A3E493FDA3E493FEA3E45F
:0E3F500093FFA3C3E995F0EA9DEB9EEC9F4022
:0E3F5E0030C3E995F0F9EA9DFAEB9EFBEC9F6B
:073F6C00FC8526F0AD27AE35
:053F730028AF29E8124F
:073F78003DA4E52625F0F54C
:053F7F0026E5273DF5D9
:053F840027E5283EF5D1
:053F890028E5293FF5C9
:013F8E002909
:093F8F0008B81BAFAC29AB28AA4D
:043F980027A926121D
:093F9C003E28747F252AF58212EB
:0C3FA500328F300B1BC082C083C0F0C004
:0E3FB100E090000075F080743F1240B415815E
:063FBF001581158115813A
:013FC50022D9
:0C3FC600C000C001C002C003852A8212A6
:0E3FD200417F123C121581158115811581C0A9
:0B3FE00082C083C0F0C0E0852682850F
:063FEB0027838528F0E5A4
:0C3FF1002912321F1581158115811581E0
:013FFD0022A1
:053FFE006014C000F892
:0E400300C3E933F9EA33FAEB33FBEC33FCD8B4
:03401100F1D000EB
:014014002289
:0D401500AA82AB83A2F73392D16002D2F7EA
:05402200F582ACF02264
:024027007F9E7A
:0940290012401530D1030232B03F
:0E403200C3EF9582500974FFF5F0F583F58217
:01404000225D
:054041007900123DE5CD
:0840460089828A838BF0EC22D1
:0E404E007901AA82E68F82B5821318E6B5F0DA
:0E405C000E18E6B5830918E68A82B58202794D
:01406A000055
:01406B002232
:0E406C00B4800FE5F0700AE5837006E58270FF
:03407A00027F00C2
:01407D00EF53
:0E407E00B6801518B6001018B6000B18B60064
:07408C000608080876002277
:014093000824
:014094000823
:014095000822
:014096002207
:0E409700E582900126F0900126E0FABA610061
:0B40A5004009EA2485400475820122D6
:0440B00075820022F3
:0840B400123CB530D502B2D177
:0940BC00BF0009BC00030232D36D
:0340C5000232C6FE
:0640C800BC00030232B04F
:0D40CE00E583B4FF0BE582B4FF030232D39B
:0340DB000232B0FE
:0840DE00E582B4FF030232C6C3
:0C40E600C395835007247F400B0232B0CA
:0840F20024801450030232C6C1
:0E40FA00F582C3ED9AEE9BEF9C40111582C338
:0E410800EA33F9EB33FAEC33FBE433FC8005C9
:05411600E4CCCBCAF966
:05411B00C08275F019DF
:0E412000C3E99DEA9EEB9FEC9400D5F002806F
:01412E002D63
:0E412F00400EE99DF9EA9EFAEB9FFBEC94002E
:02413D00FCC3C1
:0E413F00B3E833F8E58233F582E58333F58388
:0E414D00C3E933F9EA33FAEB33FBEC33FC80C1
:01415B00C49F
:0E415C00B3E4F938FAE43582FBE43583FCD095
:07416A0082500405827C80F5
:06417100123E280232A7F5
:084177007F86124029F5822227
:0B417F00E4AC82FBFAF97486023C08F5
:00000001FF
