:0E006A00AAF0AB83E582900000F0A3EBF0A3B8
:0E007800EAF0900000E0FAA3E0FBA3E0FC74C5
:0E008600032AFDE43BFE8C078D828E838FF0F3
:0A009400124346FD60049008342278
:0E009E008A828B838CF0124346FDC3648094EB
:0E00AC00B0403374B78DF063F08095F04028BB
:0E00BA00ED3395E0FEED24D0FDEE34FF8D0613
:0E00C8007D00900003EDF0A3EEF090000074B8
:0C00D600012AF0E43BA3F0A3ECF080044E
:0400E2009008372229
:0E00E600900000E0FAA3E0FBA3E0FC8A828B0E
:0E00F400838CF0124346FDC3648094B04048F4
:0E01020074B98DF063F08095F0403DED3395BB
:0E011000E0FEED24D0FDEE34FFFEC454F0CD31
:0E011E00C4CD6DCD54F0CD6DFE900003E0FF1A
:0E012C00A3E0F8900003ED2FF0EE38A3F09062
:0E013A00000074012AF0E43BA3F0A3ECF002F5
:0201480002159E
:0E014A00900000E0FAA3E0FBA3E0FC8A828BA9
:0E015800838CF0124346FDC3648094E140485E
:0E01660074E68DF063F08095F0403DED33952A
:0E017400E0FEED24A9FDEE34FFFEC454F0CDF4
:0E018200C4CD6DCD54F0CD6DFE900003E0FFB6
:0E019000A3E0F8900003ED2FF0EE38A3F090FE
:0E019E00000074012AF0E43BA3F0A3ECF00291
:0201AC0002153A
:0E01AE00900000E0FAA3E0FBA3E0FC8A828B45
:0E01BC00838CF0124346FDC3648094C140471B
:0E01CA0074C68DF063F08095F0403CED3395E7
:0E01D800E0FEED24C9FDEE34FFFEC454F0CD70
:0E01E600C4CD6DCD54F0CD6DFE900003E0FF52
:0E01F400A3E0F8900003ED2FF0EE38A3F0909A
:0E020200000074012AF0E43BA3F0A3ECF080AE
:0102100004E9
:0402110090083522FA
:0E021500900000E0FAA3E0FBA3E0FC8A828BDD
:0E022300838CF0124346FAC3648094B0402DE1
:0E02310074B98AF063F08095F04022EA3395AC
:0E023F00E0FBEA24D0FAEB34FFFB900003E072
:0E024D00FCA3E0FD900003EA2CF0EB3DA3F0D3
:03025B000202F2AA
:0E025E00900000E0FAA3E0FBA3E0FC8A828B94
:0E026C00838CF0124346FAC3648094E1402C68
:0E027A0074E68AF063F08095F04021EA339537
:0E028800E0FBEA24A9FAEB34FFFB900003E050
:0E029600FCA3E0FD900003EA2CF0EB3DA3F08A
:0202A400804C8C
:0E02A600900000E0FAA3E0FBA3E0FC8A828B4C
:0E02B400838CF0124346FAC3648094C1402C40
:0E02C20074C68AF063F08095F04021EA33950F
:0E02D000E0FBEA24C9FAEB34FFFB900003E0E8
:0E02DE00FCA3E0FD900003EA2CF0EB3DA3F042
:0202EC0080048C
:0402EE00900836221C
:0C02F200900003E0FAA3E08A82F583226A
:0E02FE00AAF0AB83E582900005F0A3EBF0A31D
:0E030C00EAF0900005E0FAA3E0FBA3E0FC7429
:0E031A00022AFDE43BFE8C078D828E838FF05D
:0A032800124346FD6004900102221A
:0E0332008A828B838CF0124346FDC364809454
:0E034000B0403E74B98DF063F08095F040330C
:0E034E00ED3395E0FEED24D0FDEE34FFFEC44D
:0D035C0054F0CDC4CD6DCD54F0CD6DFE90AC
:0E0369000008EDF0A3EEF090000574012AF0FC
:0A037700E43BA3F0A3ECF00204370E
:0E038100900005E0FAA3E0FBA3E0FC8A828B6B
:0E038F00838CF0124346FDC3648094E1403D30
:0E039D0074E68DF063F08095F04032ED3395FC
:0E03AB00E0FEED24A9FDEE34FFFEC454F0CDBB
:0E03B900C4CD6DCD54F0CD6DFE900008EDF07A
:0E03C700A3EEF090000574012AF0E43BA3F0D1
:0503D500A3ECF0805DC7
:0E03DA00900005E0FAA3E0FBA3E0FC8A828B12
:0E03E800838CF0124346FDC3648094C1403DF7
:0E03F60074C68DF063F08095F04032ED3395C3
:0E040400E0FEED24C9FDEE34FFFEC454F0CD41
:0E041200C4CD6DCD54F0CD6DFE900008EDF020
:0E042000A3EEF090000574012AF0E43BA3F077
:05042E00A3ECF08004C6
:040433009001012211
:0E043700900005E0FAA3E0FBA3E0FC8A828BB4
:0E044500838CF0124346FAC3648094B0402DBD
:0E04530074B98AF063F08095F04022EA339588
:0E046100E0FBEA24D0FAEB34FFFB900008E049
:0E046F00FCA3E0FD900008EA2CF0EB3DA3F0AA
:03047D0002051461
:0E048000900005E0FAA3E0FBA3E0FC8A828B6B
:0E048E00838CF0124346FAC3648094E1402C44
:0E049C0074E68AF063F08095F04021EA339513
:0E04AA00E0FBEA24A9FAEB34FFFB900008E027
:0E04B800FCA3E0FD900008EA2CF0EB3DA3F061
:0204C600804C68
:0E04C800900005E0FAA3E0FBA3E0FC8A828B23
:0E04D600838CF0124346FAC3648094C1402C1C
:0E04E40074C68AF063F08095F04021EA3395EB
:0E04F200E0FBEA24C9FAEB34FFFB900008E0BF
:0E050000FCA3E0FD900008EA2CF0EB3DA3F018
:02050E00800467
:040510009001012233
:0C051400900008E0FAA3E08A82F5832240
:0E052000AA83E58290000AF0A3EAF090000A98
:0E052E00E0FAA3E0FBC3EA940AEB6480948039
:0E053C00503890000C7430F08A048B057E302D
:04054A007F007800B6
:0E054E00C3EF940AE864809480505CECB5071B
:0D055C000CEDB5000890000CE0F9F58222CE
:0D0569000E90000CEEF00FBF00DB0880D8F4
:0E057600C3EA9410EB64809480503490000C23
:090584007441F07C417D0A7E0007
:0E058D00C3ED9410EE64809480501DEAB50515
:0D059B000CEBB5060890000CE0FFF5822285
:0D05A8000C90000CECF00DBD00DB0E80D8B7
:0105B5002223
:0E05B600E58290000DF090000EE4F07A087BD4
:0105C4000036
:0C05C50090000EE025E0FC90000EF0908D
:0E05D100000DE0FC74015CFD90000EE0FE4D9C
:0E05DF00F0ECC313FC90000DF01ABAFF011BE4
:0B05ED00EA4B70D490000EE0F5822273
:0E05F800438901758C90758A0075B80243A87E
:0506060083438811226E
:0A060B0090000FE4F0900010F09052
:040615000011F022BE
:05061900D310AF01C386
:0E061E00C0D090000FE0FA90000F74012AF097
:0E062C0090000FE0FABA0A1190000FE4F0906F
:0B063A000010E0FA90001074012AF09C
:0E06450090000FE0FA3395E0FB8A828B83125F
:0A0653000520AA82900012EAF09040
:0C065D0000897410F0758204121AE490F9
:0A0669000012E0FAF5821219609009
:0D0673000010E0FABA3C11900010E4F09085
:0B0680000011E0FA90001174012AF054
:0E068B00900010E0FAC2D575F00AEA30E704DC
:04069900B2D5F404DE
:06069D008430D502F404D4
:0E06A300FAA2D595E0FB900016EAF0A3EBF06A
:0E06B1008A828B83120520AA82900012EAF042
:0E06BF00900010E0FA3395E0FB900016E0FC8E
:0E06CD00A3E0FD900117740AF0E4A3F08C8204
:0E06DB008D83C002C0031236BCAC82AD83D04A
:0E06E90003D002900016EAC39CF0EB9DA3F034
:0D06F700900016E0FAA3E0FB8A828B8312CC
:0A0704000520AA82900013EAF0908D
:0E070E000014E4F0900089740DF0758204125E
:09071C001AE490001275F00012BD
:0B07250019FF900011E0FABA3C0590AB
:040730000011E4F0E0
:0E073400900011E0FAC2D575F00AEA30E70431
:04074200B2D5F40434
:060746008430D502F4042A
:0E074C00FAA2D595E0FB900016EAF0A3EBF0C0
:0E075A008A828B83120520AA82900012EAF098
:0E076800900011E0FA3395E0FB900016E0FCE3
:0E077600A3E0FD900117740AF0E4A3F08C825A
:0E0784008D83C002C0031236BCAC82AD83D0A0
:0E07920003D002900016EAC39CF0EB9DA3F08A
:0D07A000900016E0FAA3E0FB8A828B831222
:0A07AD000520AA82900013EAF090E4
:0E07B7000014E4F0900089740AF075820412B8
:0907C5001AE490001275F0001214
:0707CE0019FFD0D092AF2209
:0507D500D310AF01C3C9
:0E07DA00C0D0AA83E58290001FF0A3EAF09041
:0E07E800001FE0FAA3E0FB8A828B831205203B
:0E07F600AA82900021EAF090001DE0FAA3E034
:0E080400FB74012AFB9000897410F08B82C0F7
:0E08120002C003121AE4D003D002900021E0CD
:0E082000FCF582C002C003121960D003D002A2
:0E082E00900018E0FCA3E0FD900105740AF0B4
:0E083C00E4A3F08C828D83C002C003C004C010
:0E084A00051232B9AE82AF83D005D004D003C0
:0E085800D0028E828F83C002C003C004C00590
:0E086600C006C007120520A882D007D006D019
:0D08740005D004D003D002900021E8F090E0
:0E0881000117740AF0E4A3F08E828F83C00288
:0E088F00C003C004C0051236BCAE82AF83D0D9
:0E089D0005D004D003D002ECC39EFCED9FFDFD
:0E08AB008C828D83C002C003120520AC82D067
:0E08B90003D002900022ECF0900023E4F090B7
:0E08C7000089740DF08B82C002C003121AE487
:0E08D500D003D00290002175F000C002C003D5
:0E08E3001219FFD003D00290001AE0FCA3E02F
:0E08F100FD900105740AF0E4A3F08C828D8363
:0E08FF00C002C003C004C0051232B9AE82AF01
:0E090D0083D005D004D003D0028E828F83C029
:0E091B0002C003C004C005C006C007120520BC
:0E092900A882D007D006D005D004D003D0029B
:0E093700900021E8F0900117740AF0E4A3F09C
:0D0945008E828F83C002C003C004C0051263
:0E09520036BCAE82AF83D005D004D003D002F5
:0E096000ECC39EFCED9FFD8C828D83C002C017
:0E096E0003120520AC82D003D002900022ECD0
:0E097C00F0900023E4F0900089740AF08B8262
:0E098A00C002121AE4D00290002175F000C0E5
:0E099800021219FFD00290001CE0FB70150A3D
:0C09A6009000897401F08A82121AE4901B
:0809B20048ED75F0801219FFF9
:0509BA00D0D092AF2235
:0A48ED002A416C61726D2A20200040
:0509BF00D310AF01C3DD
:0C09C400C0D075828012197F74F7C0E06B
:0C09D0007448C0E01235B4158115817A1E
:0509DC00007B007C001F
:0E09E100C3EB9440EC648094804003020A71E2
:0E09EF009001217410F0E4A3F08B828C83C081
:0E09FD0002C003C0041237EEE5828583F0D0FD
:0E0A0B0004D003D00245F070330AC002C003CD
:0A0A1900C0047412C0E07449C0E08C
:0E0A23001235B415811581D004D003D0029095
:0E0A310000897401F08A82C002C003C0041262
:080A3F001AE4D004D003D00238
:0E0A4700C002C003C00412199EAD82D004D0BC
:0E0A550003D0028D82C002C003C004123279A9
:0B0A6300D004D003D0020BBB00010C3C
:030A6E000209E199
:0D0A71009000897401F0758201121AE4747E
:080A7E0017C0E07449C0E0124A
:0A0A860035B4158115817A007B005C
:0E0A9000C3EA9450EB6480948050759001216D
:0E0A9E007410F0E4A3F08A828B83C002C003C0
:0E0AAC001237EEE5828583F0D003D00245F0CC
:0C0ABA00701DC002C003C002C0037430F5
:0C0AC600C0E07449C0E01235B4E58124A2
:070AD200FCF581D003D00206
:0E0AD900C002C00312199EAC82D003D002EC02
:0D0AE7003395E0FDC002C003C004C00574DB
:080AF40038C0E07449C0E012B3
:0E0AFC0035B4E58124FCF581D003D0020ABA9E
:030B0A0000010BDC
:030B0D00020A9049
:050B1000D0D092AF22DD
:050B1500D310AF01C385
:0E0B1A00C0D075820A12327975824012197F9E
:040B28007A007B00D4
:0E0B2C00C3EA9440EB648094804003020BBE49
:0E0B3A009001217408F0E4A3F08A828B83C03E
:0E0B480002C0031237EEE5828583F0D003D0A1
:0E0B56000245F0701DC002C003C002C003744F
:080B640030C0E07449C0E0124A
:0C0B6C0035B4E58124FCF581D003D002F3
:0E0B7800C002C00312199EAC82D003D00275D9
:0E0B86008209C002C003C004123279D004D02C
:0E0B940003D0027D00C002C003C004C005747F
:080BA2003DC0E07449C0E012FF
:0E0BAA0035B4E58124FCF581D003D0020ABAEF
:030BB80000010B2E
:030BBB00020B2CFE
:050BBE00D0D092AF222F
:070BC300900046E4F0A3F0EE
:090BCA007440C0E07449C0E0125F
:060BD30035B41581158107
:0E0BD900900044E4F0A3F090002875F00012A4
:090BE700348790002875F000121B
:0E0BF000006AAA82AB83900042EAF0A3EBF009
:0E0BFE008A048B0574F82D400B90004474019E
:060C0C00F0E4A3F08017E4
:0A0C1200C002C0037482C0E0744900
:0D0C1C00C0E01235B415811581D003D0025F
:0E0C2900900044E0FCA3E0FD4C60A5C002C0BA
:0A0C37000374C8C0E07449C0E01265
:0A0C410035B415811581D003D002EF
:0E0C4B00900044E4F0A3F090002D75F000C07E
:0E0C590002C003123487D003D00290002D7524
:0E0C6700F000C002C00312006AAC82AD83D060
:0D0C750003D0028C068D0774F82F400B9001
:0A0C820000447401F0E4A3F0801FA9
:0C0C8C00C002C003C004C0057408C0E032
:0C0C9800744AC0E01235B415811581D0FB
:070CA40005D004D003D002CB
:0E0CAB00900044E0FEA3E0FF4E6095ECC39A7B
:0E0CB900FCED9BFD74012CFEE43DFFC002C06B
:0C0CC70003C004C005C006C007744CC088
:0C0CD300E0744AC0E01235B4E58124FC56
:0E0CDF00F581D005D004D003D0028C068D071D
:0D0CED00EF30E71FC002C003C004C0057453
:080CFA0061C0E0744AC0E01281
:0E0D020035B415811581D005D004D003D00280
:0B0D10008C068D07EF30E703020BCAD2
:040D1B007E007F00D7
:080D1F00C3EC9EED9F50012280
:080D2700EE540F6003020DCF32
:0E0D2F00C004C005C002C003C004C005C00659
:0B0D3D00C007C002C00374B5C0E07422
:0C0D48004AC0E01235B4E58124FCF581BE
:0E0D5400D007D006D005D004D003D002741012
:0D0D62002AFAE43BFB900046E4F0A3F09079
:0A0D6F000042E0F8A3E0F9890875DE
:080D790009008804900050E518
:0C0D810008F09000517410F0E4A3F09012
:070D8D0000537432F0A3745F
:0C0D940000F0A3E4F08C82C002C003C099
:0E0DA00004C005C006C007C000C001120EE46A
:0E0DAE00D001D000D007D006D005D004D0036D
:0E0DBC00D002900042740128F0E439A3F0D078
:050DCA0005D0048013B8
:0E0DCF00900042E0F8A3E0F990004274012881
:050DDD00F0E439A3F071
:0E0DE200C004C005900046E0F8A3E0F9E82444
:0A0DF00032F582E93400F583E0FCDF
:0E0DFA007D00C002C003C004C005C006C007D3
:0C0E0800C000C001C004C00574BDC0E003
:0C0E1400744AC0E01235B4E58124FCF5FE
:0E0E200081D001D000D007D006D005D004D07C
:0E0E2E0003D002900046740128F0E439A3F0CE
:050E3C000EBE00010FD5
:070E4100D005D004020D1FD3
:0E48F7000A0D090941736369692052657072E8
:0D4905006573656E746174696F6E0A0D0054
:054912000A0D09090077
:0E4917000A0D090948657820526570726573B3
:0B492500656E746174696F6E0A0D000E
:084930000A0A0D307825780019
:054938000920257800B4
:03493D00257800DA
:0E4940000A0A0D20456E746572205374617270
:0E494E0074204164647265737320696E2048A2
:0E495C00657820696E2048484820666F726DAD
:0E496A006174206265747765656E20303030B0
:0A49780020746F203746463A2000F5
:0E4982000A0A0D202A2D4552524F522D2A09A5
:0E49900020506C6561736520456E7465722061
:0E499E0076616C6964207374617274204164E8
:0E49AC006472657373206265747765656D20B3
:0E49BA0030303020616E64203746463A2000CF
:0E49C8000A0A0D20456E74657220456E64204B
:0E49D6004164647265737320696E20486578D1
:0E49E40020696E2048484820666F726D61742D
:0E49F200206265747765656E20303030207469
:084A00006F203746463A200002
:0E4A08000A0A0D202A2D4552524F522D2A091E
:0E4A160020506C6561736520456E74657220DA
:0E4A240076616C696420656E64204164647282
:0E4A3200657373206265747765656D203030A2
:0C4A40003020616E64203746463A2000AA
:0E4A4C000A0D09546F74616C20427974657311
:074A5A003A2025640A0D005B
:0E4A61000A0D202D4552524F522D20456E64F5
:0E4A6F00206164647265737320736D616C6CFA
:0E4A7D006572207468616E2074686520737421
:0E4A8B0061727420616464726573730A0D2099
:0E4A9900456E7465722056616C69642061641C
:0E4AA70064726573732072616E67650A0D009C
:084AB5000A0A0D25783A0900F8
:044ABD00257809004F
:0E0E4800AA83E582900048F0A3EAF0900048EB
:050E5600E0FAA3E0FB3F
:080E5B00BA0005BB0002800F84
:050E63001ABAFF011B9B
:0A0E6800900048EAF0A3EBF080E9E7
:090E7200900048EAF0A3EBF02225
:0E0E7B00AA83E58290004AF0A3EAF090004AB4
:050E8900E0FAA3E0FB0C
:080E8E00BA0005BB0002801D43
:0E0E9600900070C002C003120E48D003D002BC
:050EA4001ABAFF011B5A
:0A0EA90090004AEAF0A3EBF080DBB2
:090EB30090004AEAF0A3EBF022E2
:0B0EBC00E58290004CF090004CE0FA42
:050EC700BA00028012D8
:0E0ECC009003E8C002120E7BD0021A90004C78
:040EDA00EAF080E9D1
:060EDE0090004CEAF02236
:0A0EE400E582900056F01215CB9045
:0E0EEE000050E025E0FA74A04AFBF582C00235
:0D0EFC00121603D002C00212167AD0029026
:0E0F09000056E0FBF582C002121603D002C0B3
:0E0F17000212167AD002C0021215CBD002438D
:0B0F250002A18A8212160312167A90B5
:0E0F30000051E0FAA3E0FB900053E0FCA3E0C8
:080F3E00FDA3E0FE7F00780036
:0E0F4600C3EF9AE864808BF063F08095F05062
:0E0F540056C002C003C004C005C006C007C0DE
:0E0F620000121630A982D000D007D006D005AC
:0E0F7000D004D003D0028C828D838EF0E91263
:0E0F7E00359BA3AC82AD83C002C003C004C08B
:0E0F8C0005C006C007C00012168ED000D007A8
:0E0F9A00D006D005D004D003D0020FBF009EB9
:030FA80008809B23
:0E0FAB00EA2CFAEB3DFB8E07C002C003C00724
:0E0FB900121630AC82D007D003D0028A828B91
:0B0FC700838FF0EC12359B121696028F
:020FD20015E820
:050FD400D310AF01C3C2
:0C0FD900C0D0E58290005DF01215CB90B6
:0E0FE5000057E0FA25E0FB4303A08B82C00218
:0D0FF300121603D002C00212167AD002902E
:0E100000005DE0FBF582C002121603D002C0B4
:0B100E000212167AD00290005BE0F5A1
:061019000AA3E0F50B90B4
:0E101F000058E0FDA3E0FEA3E0FF780079009A
:0C102D00C00288028903C3EA950AEB9513
:0C1039000BE433D002604E8D828E838F5A
:0E104500F0124346FBA3AD82AE838B82C00245
:0E105300C005C006C007C000C001121603D0C1
:0E10610001D000D007D006D005D002C002C0DA
:0E106F0005C006C007C000C00112167AD001ED
:0E107D00D000D007D006D005D00208B800A2DF
:03108B0009809F3A
:0E108E00C0021215E8D0028A8212158ED0D050
:03109C0092AF22EE
:0A109F00E582900060F01215CB907E
:0E10A900005FE0FA25E0FB4303A08B82C0024B
:0D10B700121603D002C00212167AD0029069
:0E10C4000060E0FBF582C002121603D002C0ED
:0E10D2000212167AD00290005EE0FBF582C09A
:0E10E00002121603D002C00212167AD002C00D
:0B10EE00021215E8D0028A8202158E63
:0A10F900E582900062F01215CB9022
:0E1103000061E025E0FA74A04AFBF582C0020C
:0D111100121603D002C00212167AD002900E
:0E111E000062E0FBF582C002121603D002C090
:0E112C000212167AD002C0021215CBD0024376
:0B113A0002A18A8212160312167A121C
:0E1145001630AA82C002121696D002C0021204
:0E11530015E8D00290000AC002120E48D00229
:031161008A82225D
:051164001215CB7A001A
:03116900BA0900C0
:0E116C00500CD292C0021215BAD0020A80EFC7
:0A117A001215CB1215E890000502D3
:021184000E7BE0
:0911860074C1C0E0744AC0E0121B
:06118F0035B41581158145
:0A11950090006375F000123487909B
:0D119F00006375F00012006AAA82AB839015
:0E11AC00006BEAF0A3EBF08A048B05C374FF1E
:0C11BA009C74079D5017C002C003740312
:0C11C600C0E0744BC0E01235B415811578
:0511D20081D003D002F2
:0E11D7008A048B05C374FF9C74079D40B1C051
:0A11E50002C0037449C0E0744BC05F
:0C11EF00E01235B415811581D003D00248
:0E11FB0090006375F000C002C003123487D06C
:0E12090003D00290006375F000C002C0031213
:0E121700006AAC82AD83D003D0028C068D0736
:0E122500C374FF9E74079F501FC002C003C019
:0A12330004C0057489C0E0744BC0CC
:0E123D00E01235B415811581D005D004D00320
:02124B00D002CF
:0E124D008C068D07C374FF9E74079F40A1ECB2
:0E125B00C39AFEED9BFF74012EF8E43FF9C02C
:0E12690002C003C004C005C006C007C000C01C
:0A1277000174CDC0E0744BC0E0121A
:0E12810035B4E58124FCF581D007D006D005F8
:0E128F00D004D003D0028E008F01E930E72793
:0D129D00C002C003C004C005C006C0077435
:0812AA00E2C0E0744BC0E01249
:0E12B20035B415811581D007D006D005D004C3
:0412C000D003D00285
:0712C400EF30E70302118681
:0C12CB00C002C003C004C0057436C0E0BF
:0C12D700744CC0E01235B415811581D0B4
:0712E30005D004D003D00286
:0E12EA0090006875F000C002C003C004C0058B
:0E12F800123487D005D004D003D002900068D5
:0E13060075F000C002C003C004C0051202FE54
:0E131400AE82AF83D005D004D003D0028E008D
:0E1322008F01C374FF98E4995027C002C003E6
:0C133000C004C005C006C0077456C0E031
:0C133C00744CC0E01235B415811581D04E
:0B13480007D006D005D004D003D0026F
:0D1353008E008F01C374FF98E499500302CF
:0213600012EA8F
:0E136200C006C007B296740F5AF879007410D6
:0E137000C398F8E499F988068907C3E49E74CF
:0E137E00808FF063F08095F0E433D007D00646
:0E138C006072C006C00788068907C3EE941081
:0E139A00EF64809480E433D007D0066059C021
:0813A80004C0058A0C8B0D85C1
:0313B0000C0EAD73
:0C13B3000D7C0090006DEDF08E048F05A5
:0E13BF0090006EECF090006FE8F0A3E9F0856E
:0C13CD000E82C002C003C004C005C006B0
:0E13D900C007C000C0011214EED001D000D039
:0E13E70007D006D005D004D003D00290006BD2
:0B13F500E82AF0E93BA3F0D005D0048B
:0E14000090006BE0FAA3E0FBECC39AF8ED9BC2
:0E140E00F990012A7410F0E4A3F0888289831B
:0D141C00C002C003C004C005C006C0071216
:0E1429003963A882A983D007D006D005D0046D
:0B143700D003D002E84960668E0C8FE5
:011442000D9C
:0C144300E8496056C006C0078A0E8B07FF
:0B144F007E0090006DEFF090006EE555
:0C145A000CF090006F7410F0E4A3F0851B
:0C1466000E82C002C003C004C005C00616
:0E147200C007C000C0011214EED001D000D09F
:0E14800007D006D005D004D003D00274102A85
:09148E00FAE43BFB18B8FF011958
:06149700D007D00680A67C
:08149D0090006BEAF0A3EBF0F4
:0E14A50090006BE0FAA3E0FBECC39AFCED9B19
:0E14B300FD8C008D01C3E89410E964809480E4
:0E14C10050288C008D01E920E7208A008B0264
:0D14CF007B0090006DEAF090006EEEF09052
:0D14DC00006F74012CF0E43DA3F088821233
:0214E90014EEFF
:0314EB00B2962294
:0A14EE00E582900071F01215CB901A
:0E14F800006DE0FA25E0FB4303A08B82C002EA
:0D150600121603D002C00212167AD0029015
:0E1513000071E0FBF582C002121603D002C088
:0C1521000212167AD00290006EE0FB90DF
:0B152D00006FE0FCA3E0FD7E007F00EB
:0E1538008E008F01C3E89CE99D503F8B82C05E
:0E15460002C003C004C005C006C00712160391
:0E155400D007D006D005D004D003D002C002CC
:0E156200C003C004C005C006C00712167AD030
:0E15700007D006D005D004D003D0020EBE0076
:04157E00B90F80B66B
:0C158200C0021215E8D0028A8202158E09
:0E158E00E582900072F0900072E025E0FA43D2
:02159C0002A0AB
:0E159E00C0021215CBD0028A82C002121603C0
:0E15AC00D002C00212167AE582D00270E5224B
:0E4AC1000A0A0D20456E7465722053746172EE
:0E4ACF0074204164647265737320696E204820
:0E4ADD00657820696E2048484820666F726D2B
:0E4AEB006174206265747765656E203030302E
:0A4AF90020746F203746463A200073
:0E4B03000A0A0D202A2D4552524F522D2A0922
:0E4B110020506C6561736520456E74657220DE
:0E4B1F0076616C696420737461727420416465
:0E4B2D006472657373206265747765656D2030
:0E4B3B0030303020616E64203746463A20004C
:0E4B49000A0A0D20456E74657220456E6420C8
:0E4B57004164647265737320696E204865784E
:0E4B650020696E2048484820666F726D6174AA
:0E4B7300206265747765656E203030302074E6
:084B81006F203746463A200080
:0E4B89000A0A0D202A2D4552524F522D2A099C
:0E4B970020506C6561736520456E7465722058
:0E4BA50076616C696420656E64204164647200
:0E4BB300657373206265747765656D20303020
:0C4BC1003020616E64203746463A200028
:0E4BCD000A0D09546F74616C2042797465738F
:074BDB003A2025640A0D00D9
:0E4BE2000A0D202D4552524F522D20456E6473
:0E4BF000206164647265737320736D616C6C78
:0E4BFE006572207468616E207468652073749F
:0E4C0C0061727420616464726573730A0D2016
:0E4C1A00456E7465722056616C696420616499
:0E4C280064726573732072616E67650A0D0019
:0E4C36000A0A0D20456E746572204461746197
:0E4C440020666F7220426C6F636B2046696CB5
:044C52006C3A200098
:0E4C56000A0A0D202A2D4552524F522D2A09CE
:0E4C640020506C6561736520456E746572208A
:0E4C720076616C69642044617461206265742F
:0E4C80007765656E20303020746F2046463A0E
:024C8E00200004
:0E15BA00900001120E48D291900001120E48CE
:0315C800C29122AB
:0D15CB00C291D292900001120E48D2919070
:0E15D8000001120E48C292900001120E48C28D
:0215E600912250
:0E15E800C291900001120E48C29290000112B2
:0D15F6000E48D291900001120E48D29222B0
:08160300E582900073F07A000B
:03160B00BA08001A
:0E160E00501D900073E0FB339292C002C003A7
:0E161C001215BAD003D002EB2BFB900073F036
:03162A000A80DE55
:03162D00D2922234
:09163000900074E4F0D2927A00FB
:03163900BA0800EC
:0E163C005035900001C002120E48D002D2912B
:0E164A00900001C002120E48D002900074E021
:0E16580025E0FB900074F0900074E0FBE4A22B
:0D1666009233FC9000744BF0C2910A80C6D4
:07167300900074E0F58222F3
:0E167A00D292D291900001120E48E4A2923357
:06168800FAC2918A8222E1
:08168E00C2921215BAD2922299
:08169600D2921215BAD2912282
:0D169E00E582900078F01215CB7582701275
:0616AB00160312167A90EE
:0A16B1000078E0FAF5821216031229
:0916BB00167A1215E890000502F0
:0216C4000E7B9B
:0A16C6001215CB7582711216031283
:0A16D000167A121630AA82C0021228
:0E16DA00168ED002C0021215E8D00290000A4F
:0A16E800C002120E48D0028A8222CE
:0516F200D310AF01C39D
:0E16F700C0D0AA83E582900079F0A3EAF090BB
:0E1705000079E0FAA3E0FB8A828B83C002C069
:0E17130003120520AC82D003D002900089742E
:0E17210007F0758204C002C003C004121AE46F
:0D172F00D004D003D0028C82C002C003128F
:0E173C001960D003D002EBC454F0CAC4CA6ACC
:0E174A00CA54F0CA6AFB900079EAF0A3EBF0F3
:0E175800900079E0FAA3E0FB900079740F4A4C
:0E176600F0A3EBF0900079E0FAA3E0FB8A829A
:0817740012169ED0D092AF22A4
:09177C007490C0E0744CC0E0124E
:0617850035B41581158149
:0A178B0090007B75F0001234879087
:0E179500007B75F000123354AA82AB838A04E5
:0E17A3008B05C374079CE49D5017C002C00361
:0917B10074B5C0E0744CC0E012F4
:0A17BA0035B415811581D003D0026B
:0E17C4008A048B05C374079CE49D40BBC002E1
:0A17D200C00374ECC0E0744CC0E0EA
:0B17DC001235B415811581D003D00236
:0E17E70090007B75F000C002C003123487D062
:0E17F50003D00290007B75F000C002C003120A
:0E1803003354AC82AD83D003D0028C068D0727
:0E181100C374019EE49F501FC002C003C004B8
:0A181F00C005741FC0E0744DC0E066
:0E1829001235B415811581D005D004D003D03E
:0118370002AE
:0E1838008C068D07C374019EE49F40A3C0027E
:0C184600C003C004C0051216C685820F46
:0E185200D005D004D003D002EC4D70718A078F
:0E1860008B008F8288831239DBAF82A883A9A8
:0E186E00F0FE900119EFF0A3E8F0A3E9F0A35B
:0E187C00EEF0900000E4F5F074401236DCAEA1
:0E188A0082AF83A8F0F9C006C007C000C001FD
:0E18980090000075F07F74431232AEAE82AF46
:0E18A60083A8F0F9E58124FCF5818E828F8302
:0C18B40088F0E91239E7AE82AF83A80F7C
:0E18C0007900E85206E9520790007EEEF080B3
:0118CE0022F7
:0A18CF008AF005F0AA04AB058006BC
:0618D900EA2AFAEB33FBE2
:0C18DF00D5F0F7AE0F7C00EE4202EC42A8
:0618EB000390007EEAF00C
:0E18F10090007EE0FAF58212169E900005022D
:0218FF000E4891
:0E4C90000A0A0D092053656C65637420706973
:0E4C9E006E206E756D6265722066726F6D20FD
:094CAC003020746F20373A20001B
:0E4CB5000A0A0D202A2D4552524F522D2A0A6E
:0E4CC3000D0920456E74657220612076616CCB
:0E4CD1006964206E756D62657220626574778D
:0D4CDF0065656E203020746F20373A20008C
:0E4CEC000A0A0D092053656C65637420446943
:0E4CFA0072656374696F6E206F662070696E5C
:0E4D08003A2020302E4F7574707574202031C3
:094D16002E20496E70757409002D
:0E4D1F000A0A0D202A2D4552524F522D2A0A03
:0E4D2D000D0920456E74657220612076616C60
:0E4D3B006964206E756D626572206265747722
:0D4D490065656E2030206F7220313A200029
:0E190100C293900014120E7B90A0007430F080
:0D190F00900006120E7B90A0007430F09046
:0E191C000005120E7B90A0007430F01219D45A
:0E192A0090A0007438F01219D490A000740838
:0E193800F01219D490A000740CF01219D49083
:0E194600A0007406F01219D490A0007401F0F5
:0C1954009000897401F0758201021AE411
:0E196000E582900082F0D293900001120E7B7F
:0E196E007A007BA0900082E0FC8A828B83F0DE
:03197C000219D479
:0E197F00E582900083F0C293900001120E7B6F
:0E198D007A007BA0900083E0FC8A828B83F0BE
:03199B000219D45A
:0E199E00D293900001120E7B90C000E0FAC0C0
:0919AC00021219D4D0028A822231
:0E19B500E582900084F0C293900001120E7B38
:0E19C3007A007BA0900084E0FC8A828B83F087
:0319D1000219D424
:0E19D400C29390C000E0FA900085F0900001F0
:0319E200120E7B67
:0E19E500900085E0FA30E70B90C000E0FA9029
:0519F3000085F080ED0D
:0719F800900085E0F582225A
:0E19FF00AAF0AB83E582900086F0A3EBF0A384
:0E1A0D00EAF0900086E0FAA3E0FBA3E0FC7D87
:031A1B00007E004A
:0E1A1E00ED2AFFEE3BF88C018F82888389F061
:081A2C00124346FFBF00012236
:0D1A34008F82C002C003C004C005C00612AE
:0E1A41001960D006D005D004D003D0020DBD30
:031A4F0000010E85
:0E1A5200C002C003C004C005C0061219D4AF04
:0E1A600082D006D005D004D003D002BF1024DF
:0E1A6E009000897401F0758202C002C003C0AE
:0E1A7C0004C005C006C007121AE4D007D00649
:081A8A00D005D004D003D00206
:0E1A9200BF50249000897401F0758203C002D9
:0E1AA000C003C004C005C006C007121AE4D07F
:0B1AAE0007D006D005D004D003D00202
:051AB900BF40028003A4
:031ABE00021A1EEB
:0E1AC1009000897401F0758204C002C003C059
:0E1ACF0004C005C006121AE4D006D005D004EB
:071ADD00D003D002021A1E23
:0E1AE400E58290008AF090008AE0FABA0113C1
:081AF200900089E0FABA11002E
:0B1AFA005009747F2AFAF5820219B52A
:0E1B050090008AE0FABA0213900089E0FABA62
:021B13001100BF
:0B1B1500500974BF2AFAF5820219B5CE
:0E1B200090008AE0FABA0313900089E0FABA46
:021B2E001100A4
:0B1B30005009748F2AFAF5820219B5E3
:0E1B3B0090008AE0FABA0413900089E0FABA2A
:021B4900110089
:0B1B4B00500974CF2AFAF5820219B588
:091B5600904D5675F0800219FF54
:0E1B5F00E58290008EF090008EE0FAC4540FE4
:0E1B6D00FB7C008B828C83C002C003C004127C
:0E1B7B000520AD82D004D003D002900094ED7E
:0E1B8900F07D00ECC454F0CBC4CB6BCB54F019
:0E1B9700CB6BFCEAC39BFAED9CFD8A828D832A
:0B1BA500120520AA82900095EAF09043
:091BB0000096E4F0745CC0E074DE
:0A1BB9004DC0E01235B4158115810E
:0E1BC300900099E4F0A3F090008F75F00012EE
:091BD100348790008F75F00012BA
:0E1BDA003354AA82AB838A048B05C3EC9404B7
:0E1BE800ED9400500B9000997401F0E4A3F00E
:021BF600801756
:0A1BF800C002C0037482C0E0744D07
:0D1C0200C0E01235B415811581D003D00269
:0D1C0F00900099E0FCA3E0FD4C60A90A9054
:0B1C1C0000897401F08A82121AE49023
:0E1C2700008BE0FAA3E0FBA3E0FC8A828B8333
:0C1C35008CF01219FF75823A12196090B1
:081C4100009475F0000219FF88
:051C4900D310AF01C340
:0E1C4E00C0D0E58290009EF090009EE0FAC4A7
:0E1C5C000354F8FA90009EF090009EE0FA43C8
:0E1C6A0002408A8212197F90009BE0FAA3E0EC
:061C7800FBA3E0FC7D006F
:0E1C7E00C3ED64809488502AED2AFEE43BFFFB
:0E1C8C008C008E828F8388F0124346FEF58214
:0E1C9A00C002C003C004C005121960D005D0FE
:081CA80004D003D0020D80CE30
:051CB000D0D092AF222C
:051CB500D310AF01C3D4
:0E1CBA00C0D090009F7404F09000A07404F05D
:0D1CC8009000A17403F09000A27401F09050
:0C1CD50000A37401F09000A67402F090CF
:0C1CE10000A77403F09000A87405F090B8
:0E1CED0000A97404F09000AA7405F07582013D
:0A1CFB0012197F9000AD7402F09002
:0C1D050000AE7401F0758206121E0F90F3
:0E1D110000AD7403F09000AE7404F075820013
:0A1D1F00121E0F9000AD7403F09047
:0C1D290000AE7401F0758200121E0F90D5
:0E1D350000AD7402F09000AE7406F0758200EE
:0A1D4300121E0F9000AD7402F09024
:0C1D4D0000AE7404F0758206121E0F90A8
:0E1D590000AD7404F09000AE7401F0758201CC
:071D6700121E0F7A007B0041
:0D1D6E00C3EA9405EB648094805037EA24AA
:0A1D7B009FF582EB3400F583E0FCD5
:0A1D8500EA24A6F582EB3400F58392
:0E1D8F00E0FD9000ADECF09000AEEDF075823E
:0E1D9D0002C002C003121E0FD003D0020ABA09
:051DAB0000C10B80BE29
:0E1DB0009000AD7404F09000AE7404F07582E3
:0B1DBE0003121E0F9000AD7403F090A4
:0C1DC90000AE7406F0758203121E0F902D
:0E1DD50000AD7401F09000AE7406F07582044B
:0A1DE300121E0F9000AD7403F09083
:0C1DED0000AE7403F0758205121E0F900A
:0E1DF90000AD7401F09000AE7403F075820529
:081E0700121E0FD0D092AF2291
:051E0F00D310AF01C378
:0E1E1400C0D0E5829000AFF09000ADE0FA90F3
:0B1E220000AEE0FB900089F08A821205
:0A1E2D001AE49000AFE0FAF582120B
:071E37001960D0D092AF2228
:064D56004572726F72004D
:0E4D5C000A0A0D20456E74657220526F772092
:0E4D6A006E756D626572206265747765656EA8
:0A4D7800203020746F20333A200031
:0E4D82000A0A0D20456E7465722076616C6918
:0E4D90006420726F77206E756D62657220620E
:0E4D9E0065747765656D203020616E6420338A
:034DAC003A2000AA
:0600000002000E022E2595
:03000B00022E9F23
:03006700021E3E38
:051E3E00121E4D80FEA4
:0A1E4300438E0C758FFB9000002207
:0D1E4D009000D37430F09000D47431F09008
:091E5A0000D57432F012190112D6
:081E630032951205F8C290123D
:0C1E6B0011649000897401F0758204126B
:091E77001AE4904DAF75F08012E1
:0C1E800019FF900089740FF075820412A5
:091E8C001AE475822E121960900F
:0E1E95000089740CF0758204121AE475823A0A
:0D1EA30012196075820112169E7A007B00F4
:0E1EB000C3EA9403EB648094804003021F9FFA
:0E1EBE00C2AF900018E4F0A3F090001AE4F018
:0E1ECC00A3F090001C7402F090001DEAF0A339
:0E1EDA00EBF0900000C002C0031207D5D00349
:0E1EE800D0028A040C9000897401F08C82C034
:0E1EF60002C003C004121AE4D004D003D002CC
:0D1F0400904DB775F080C002C003C00412FC
:0C1F110019FFD004D003D002EA24D3F55D
:0C1F1D0082EB3400F583E0FDF582C00289
:0E1F2900C003C004121960D004D003D002908F
:0E1F37004DBD75F080C002C003C0041219FF3A
:0E1F4500D004D003D002900089740CF08C827E
:0E1F5300C002C003C004121AE4D004D003D0B0
:0E1F61000275823AC002C003C004121960D09B
:0E1F6F0004D003D002900089740FF08C82C061
:0E1F7D0002C003121AE4D003D00275822EC0F7
:0E1F8B0002C003121960D003D002D2AF0ABA0E
:031F990000010B39
:031F9C00021EB072
:091F9F0074C0C0E0744DC0E012F2
:0B1FA80035B415811581747AC0E07417
:0B1FB3004EC0E01235B415811581749A
:081FBE003EC0E0744FC0E012C8
:0B1FC60035B41581158174C4C0E074AF
:0B1FD1004FC0E01235B415811581747B
:081FDC0037C0E07450C0E012B0
:061FE40035B415811581E2
:0E1FEA003098FD12328BAA82C002123279D0DA
:061FF80002E4BA3101040D
:0C1FFE00FB601AC002C00374C5C0E07490
:0C200A0050C0E01235B415811581D003E0
:05201600D0020222D3FC
:0E201B00BA322B90015DE0FCA3E0FDC3EC9413
:0C20290002ED9400501AC002C00374E5E0
:0C203500C0E07450C0E01235B4158115F5
:0820410081D003D0020222D37A
:0E204900BA332B90015DE0FCA3E0FDC3EC94E4
:0C20570002ED9400501AC002C00374098E
:0C206300C0E07451C0E01235B4158115C6
:08206F0081D003D0020222D34C
:0E207700BA342B90015DE0FCA3E0FDC3EC94B5
:0C20850002ED9400501AC002C003742B3E
:0C209100C0E07451C0E01235B415811598
:08209D0081D003D0020222D31E
:0E20A500BA352B90015DE0FCA3E0FDC3EC9486
:0C20B30002ED9400501AC002C0037453E8
:0C20BF00C0E07451C0E01235B41581156A
:0820CB0081D003D0020222D3F0
:0E20D300BA362B90015DE0FCA3E0FDC3EC9457
:0C20E10002ED9400501AC002C003747697
:0C20ED00C0E07451C0E01235B41581153C
:0820F90081D003D0020222D3C2
:0E210100BA372B90015DE0FCA3E0FDC3EC9427
:0C210F0002ED9400501AC002C003749A44
:0C211B00C0E07451C0E01235B41581150D
:0821270081D003D0020222D393
:0E212F00BA782B90015DE0FCA3E0FDC3EC94B8
:0C213D0002ED9400501AC002C00374C1EF
:0C214900C0E07451C0E01235B4158115DF
:0821550081D003D0020222D365
:0E215D00BA692B90015DE0FCA3E0FDC3EC9499
:0C216B0002ED9400501AC002C00374E59D
:0C217700C0E07451C0E01235B4158115B1
:0821830081D003D0020222D337
:0E218B00BA732B90015DE0FCA3E0FDC3EC9461
:0C21990002ED9400501AC002C003740D47
:0C21A500C0E07452C0E01235B415811582
:0821B10081D003D0020222D309
:0E21B900BA772B90015DE0FCA3E0FDC3EC942F
:0C21C70002ED9400501AC002C0037439ED
:0C21D300C0E07452C0E01235B415811554
:0821DF0081D003D0020222D3DB
:0E21E700BA722B90015DE0FCA3E0FDC3EC9406
:0C21F50002ED9400501AC002C003745C9C
:0C220100C0E07452C0E01235B415811525
:08220D0081D003D0020222D3AC
:0E221500BA632B90015DE0FCA3E0FDC3EC94E6
:0C22230002ED9400501AC002C003747E4B
:0C222F00C0E07452C0E01235B4158115F7
:08223B0081D003D0020222D37E
:0E224300BA642A90015DE0FCA3E0FDC3EC94B8
:0C22510002ED94005019C002C003749FFD
:0C225D00C0E07452C0E01235B4158115C9
:0722690081D003D002806365
:0E227000BA682A90015DE0FCA3E0FDC3EC9487
:0C227E0002ED94005019C002C00374C0AF
:0C228A00C0E07452C0E01235B41581159C
:0722960081D003D002803665
:0C229D00BA6C19C002C00374DFC0E0740A
:0C22A90052C0E01235B415811581D0033D
:0422B500D002801AB9
:0C22B900BA7117C002C0037401C0E074C9
:0C22C50053C0E01235B415811581D00320
:0222D100D00239
:0822D300EB6005C2AF022B69AC
:0B22DB00BA320820AF05D2AF022B6919
:0D22E600BA330AC00212060BD002022B69A7
:0522F300BA3402800373
:0322F80002264F6C
:0A22FB00C0027421C0E07453C0E07B
:092305001235B415811581D002D6
:0E230E009000CA75F000C002123487D0029011
:0E231C0000CA75F000C002123354AB82AC83CD
:0E232A00D002C374029B74808CF063F0809527
:0E233800F0E433FD601FC002C003C004C00506
:09234600744CC0E07453C0E012B5
:0E234F0035B415811581D005D004D003D0021D
:0E235D00ED70AEC002C003C004C003C0047423
:08236B0081C0E07453C0E012D0
:0E23730035B4E58124FCF581D004D003D002FE
:0C2381008B05ECCD25E0CD33FEED24C231
:06238D00F510EE3400F52E
:012393001138
:0E239400C0029000CA75F000C002C003C00471
:0E23A200C005C006123487D006D005D004D086
:0A23B00003D002ED24C2F9EE340060
:0E23BA00FA9000CA75F000C002C003C004C053
:0E23C80005C006C001123354AF82A883D001B5
:0E23D600D006D005D004D003D00289828A83BD
:0A23E400EFF0A3E8F08510828511E8
:0E23EE0083E0FAA3E0FFC3743B9AE49FE4335C
:0E23FC00D0026023C002C003C004C005C006AA
:09240A0074B2C0E07453C0E0128A
:0E24130035B415811581D006D005D004D00354
:02242100D002E7
:0A242300ED24C2F582EE3400F583CB
:0E242D00E0FFA3E0F8C3743B9FE49850030265
:02243B002394E8
:0E243D00C002C003C004C005C006C003C00436
:09244B0074E8C0E07453C0E01213
:0E24540035B4E58124FCF581D006D005D00416
:0A246200D003D002ED24BCF512EE09
:06246C003400F513ED241D
:05247200BCF510EE3482
:0324770000F5115C
:0E247A00C0029000CA75F000C002C003C0048A
:0E248800C005C006123487D006D005D004D09F
:0A24960003D002ED24BCF9EE34007F
:0E24A000FA9000CA75F000C002C003C004C06C
:0E24AE0005C006C001123354AF82A883D001CE
:0E24BC00D006D005D004D003D00289828A83D6
:0A24CA00EFF0A3E8F0851082851101
:0E24D40083E0FAA3E0FFC3743B9AE49FE43375
:0E24E200D0026023C002C003C004C005C006C3
:0924F00074B2C0E07453C0E012A4
:0E24F90035B415811581D006D005D004D0036E
:02250700D00200
:0A250900851282851383E0FFA3E032
:0C251300F8C3743B9FE498500302247A44
:0E251F00C002C003C004C005C006C003C00453
:09252D007419C0E07454C0E012FE
:0E25360035B4E58124FCF581D006D005D00433
:0A254400D003D002ED24B6F510EE2E
:06254E003400F511ED243C
:05255400B6F512EE34A3
:0325590000F51377
:0E255C00C0029000CE75F000C002C003C004A3
:0E256A00C005C006123487D006D005D004D0BC
:0A25780003D002ED24B6F9EE3400A2
:0E258200FA9000CE75F000C002C003C004C085
:0E25900005C006C001123354AF82A883D001EB
:0E259E00D006D005D004D003D00289828A83F3
:0A25AC00EFF0A3E8F085128285131A
:0E25B60083E0FAA3E0FFC374099AE49FE433C4
:0E25C400D0026023C002C003C004C005C006E0
:0925D2007449C0E07454C0E01229
:0E25DB0035B415811581D006D005D004D0038B
:0225E900D0021E
:0A25EB00851082851183E0FFA3E054
:0C25F500F8C374099FE498500302255CB1
:0A260100C002ED24BCF582EE3400A7
:0C260B00F583E0F9A3E0FAED24C2F582AB
:0B261700EE3400F583E0FDA3E0FE9030
:0E2622000018E9F0A3EAF090001AEDF0A3EE24
:0E263000F090001C7402F090001DEBF0A3EC83
:0E263E00F08F828883C0021207D5D002D0022E
:03264C00022B69F5
:05264F00BA3502800312
:032654000226FD5E
:0A265700C002747EC0E07454C0E0BD
:0E2661001235B415811581D0029000CA75F0B3
:0E266F0000C002123487D0029000CA75F0003D
:0E267D00C002123354AB82AC83D002C2AF8BCA
:0E268B00050D9000897401F08D82C002C0031D
:0E269900C004121AE4D004D003D002904DB752
:0E26A70075F080C002C003C0041219FFD004F9
:0B26B500D003D002EB24D3F582EC34FC
:0C26C00000F583E0FDF582C002C003C0FD
:0E26CC0004121960D004D003D0029054A975F6
:0E26DA00F080C002C003C0041219FFD004D06B
:0A26E80003D002EB24B3F582EC34BA
:0B26F20000F5837401F0D2AF022B69E9
:0526FD00BA3602800363
:03270200022803A7
:0A270500C00274ACC0E07454C0E0E0
:0E270F001235B415811581D0029000CA75F004
:0E271D0000C002123487D0029000CA75F0008E
:0E272B00C002123354AB82AC83D002C2AF8B1B
:0E273900050D9000897401F08D82C002C0036E
:0E274700C004C005121AE4D005D004D003D09F
:0E275500029054D775F080C002C003C004C0CB
:0E276300051219FFD005D004D003D002C00229
:0B277100C003C004C00574E0C0E074A9
:0C277C0054C0E01235B415811581D00561
:0E278800D004D003D0029001F4C002C003C000
:0E27960004C005120E7BD005D004D003D00283
:0A27A400EB24B3F582EC3400F5835A
:0E27AE00E4F09000897401F08D82C002C00337
:0E27BC00C004121AE4D004D003D002904DB72E
:0E27CA0075F080C002C003C0041219FFD004D5
:0B27D800D003D002EB24D3F582EC34D8
:0C27E30000F583E0FBF582C002121960D3
:0E27EF00D002904DBD75F080C0021219FFD0CF
:0627FD0002D2AF022B69BD
:05280300BA370280035A
:03280800022AC0E1
:0A280B00C00274F4C0E07454C0E091
:092815001235B415811581D002C1
:0E281E009000CA75F000C002123487D00290FC
:0E282C0000CA75F000C002123354AB82AC83B8
:0E283A00D002C374079B74808CF063F080950D
:0E284800F0E433FD601FC002C003C004C005F1
:092856007421C0E07455C0E012C9
:0E285F0035B415811581D005D004D003D00208
:0C286D00ED70AEC002C0037456C0E074F1
:0C28790055C0E01235B415811581D00364
:06288500D0027C007D0082
:0E288B00C3EC9408ED648094804003022AA6FA
:0D289900C002C003C004C005C004C0057427
:0828A60090C0E07455C0E0127F
:0E28AE0035B4E58124FCF581D005D004D003BB
:0228BC00D00248
:0E28BE009000CA75F000C002C003C004C0053F
:0E28CC00123487D005D004D003D0029000CA89
:0E28DA0075F000C002C003C004C0051202FE6B
:0E28E800AE82AF83D005D004D003D002C374FB
:0E28F6001F9E74808FF063F08095F0E433F83D
:0E290400602BC002C003C004C005C006C0079F
:0A291200C00074ADC0E07455C0E0D1
:0E291C001235B415811581D000D007D006D039
:07292A0005D004D003D00228
:06293100E860030228BE6D
:0A293700EC24DDF582ED3400F58399
:0A294100EEF0EC24E5FFED3400F8A1
:0E294B008E82C002C003C004C005C007C000D9
:0E2959001205B6AE82D000D007D005D004D053
:0E29670003D0028F828883EEF0C002C003C04E
:0A29750004C00574F7C0E07455C0FB
:0E297F00E01235B415811581D005D004D003C7
:0A298D00D0028C068D077800790057
:0E299700C3EE98EF648089F063F08095F050F5
:0429A50003022A9C63
:0E29A900C002C003C006C007C000C001C000CD
:0A29B700C0017408C0E07456C0E0CF
:0E29C1001235B4E58124FCF581D001D000D0A0
:0C29CF0007D006D003D002E824E5FCE9A4
:0829DB003400FD751003E4F562
:0129E30011E2
:0A29E400C3E5109408E51164809427
:0629EE00804003022A9460
:0C29F400C0038C828D83E0FB8510F00591
:042A0000F0EB800275
:022A0400C313FA
:0E2A0600D5F0FB5401D003603EC002C003C0F7
:0E2A140004C005C006C007C000C00174FFC0AA
:0A2A2200E0E4C0E07415C0E0745653
:0E2A2C00C0E07480C0E0123A8DE58124FBF515
:0E2A3A0081D001D000D007D006D005D004D046
:052A480003D002803CF8
:0E2A4D00C002C003C004C005C006C007C00020
:0C2A5B00C001745FC0E0E4C0E07415C06E
:0C2A6700E07456C0E07480C0E0123A8DAC
:0E2A7300E58124FBF581D001D000D007D0060C
:082A8100D005D004D003D002FF
:072A89000510E4B510020581
:012A90001134
:032A91000229E433
:052A940008B800010973
:032A990002299778
:0A2A9C0074012EFCE43FFD02288BBC
:082AA60090009B74DDF0A374A5
:0B2AAE0000F0A37400F08B82C0021245
:072AB9001C49D002022B6949
:052AC000BA380280039A
:032AC500022B449D
:0A2AC800C0027418C0E07456C0E0AC
:092AD2001235B415811581D00202
:0E2ADB009000CA75F000C002123487D002903D
:0E2AE90000CA75F000C002123354AB82AC83F9
:0E2AF700D002C374079B74808CF063F080954E
:0E2B0500F0E433FD601FC002C003C004C00531
:092B13007421C0E07455C0E01209
:0E2B1C0035B415811581D005D004D003D00248
:0E2B2A00ED70AE9000AD7402F09000AE74033A
:0C2B3800F08B82C002121E0FD00280251C
:0E2B4400BA710C758201C00212197FD0028096
:012B5200166C
:0C2B5300BA6309C002120B15D002800A00
:0A2B5F00BA6407C0021209BFD002D9
:052B6900E4BA7701044D
:082B6E00FB700DBA7202800831
:052B7600BA6C028003AF
:032B7B00022D33F5
:0A2B7E00C002C0037450C0E074569A
:0D2B8800C0E01235B415811581D003D002D4
:0E2B95009000DBE4F0A3F09000D675F000C0D5
:0E2BA30002C003123487D003D0029000D67512
:0E2BB100F000C002C00312006AAC82AD83D0F7
:0D2BBF0003D0028C068D0774F82F400B9098
:0A2BCC0000DB7401F0E4A3F0801FA9
:0C2BD600C002C003C004C005748CC0E045
:0C2BE2007456C0E01235B415811581D086
:072BEE0005D004D003D00262
:0E2BF5009000DBE0FEA3E0FF4E60958C068DA5
:0A2C0300078F12751300EB70030237
:022C0D002CBEDB
:0B2C0F00C002C004C00574CCC0E0741B
:0C2C1A0056C0E01235B415811581D005BC
:042C2600D004D00204
:0E2C2A009000DBE4F0A3F09000CE75F000C047
:0E2C380002C004C005123487D005D004D002BB
:0D2C46009000CE75F000C002C004C0051261
:0E2C530002FEAB82A883D005D004D0028B0114
:0E2C6100880674FF2E400B9000DB7401F0E437
:042C6F00A3F080232B
:0C2C7300C002C003C004C005C000740211
:0C2C7F00C0E07457C0E01235B415811598
:0B2C8B0081D000D005D004D003D0029F
:0E2C96009000DBE0F9A3E0FE497003022C2A57
:0A2CA4008C06AF1290005EEBF0907A
:0E2CAE00005FEFF08E82C00212109FD0020273
:022CBC002DC524
:0C2CBE00BA723F8C038D06900061E51295
:0E2CCA00F08B82C002C004C0051210F9AB826C
:0E2CD800D005D004D0027E00C002C003C006AA
:0A2CE600C004C0057450C0E074572C
:0E2CF000C0E01235B4E58124FAF581D002026D
:022CFE002DC5E2
:052D0000BA6C02800323
:032D0500022DC5D7
:0B2D0800900061E512F08C82C0021206
:0A2D130010F9AB82D00290008B741F
:0A2D1D00D6F0A37400F0A37400F0D8
:0C2D27008B82C002121B5FD002022DC57F
:0D2D3300BA680AC002120BC3D002022DC5FF
:0E2D4000BA78149000C8E4F0A3F0900000C030
:092D4E00021216F2D002022DC59A
:0D2D5700BA690AC00212177CD002022DC515
:0E2D6400BA7326C0021216C6AB82D0027C00E3
:0B2D7200C002C003C0047460C0E07425
:0C2D7D0057C0E01235B4E58124FCF5815C
:042D8900D0028038BC
:0C2D8D00BA3909C002121CB5D002802C1B
:0A2D9900BA79137498C0E07457C0B3
:0A2DA300E01235B415811581C2AFAE
:022DAD0080FEA6
:0C2DAF00BA7409C002123124D002800A5C
:0A2DBB00BA6207C002121186D002AE
:0A2DC500BA6D4B74C0C0E0744DC03D
:0C2DCF00E01235B41581158174B0C0E02D
:0C2DDB007457C0E01235B41581158174E6
:082DE7003EC0E0744FC0E01291
:0B2DEF0035B41581158174C4C0E07478
:0B2DFA004FC0E01235B4158115817444
:082E050037C0E07450C0E01278
:062E0D0035B415811581AA
:092E13007465C0E07458C0E012BF
:092E1C0035B415811581021FEA8D
:0E2E2500C0E0C0F0C082C083C002C003C00481
:0E2E3300C005C006C007C000C001C0D075D0E9
:0E2E4100009000C8E0FAA3E0FB9000C8740106
:0E2E4F002AF0E43BA3F09000C8E0FAA3E0FBF9
:0D2E5D00BA100ABB00079000C8E4F0A3F013
:0E2E6A009000C8E0FAA3E0FBEA20E00EEBC304
:0C2E780013CA13CAFB8A828B831216F265
:0E2E8400D0D0D001D000D007D006D005D004A9
:0D2E9200D003D002D083D082D0F0D0E03247
:0E2E9F00C0E0C0F0C082C083C002C003C00407
:0E2EAD00C005C006C007C000C001C0D075D06F
:0E2EBB000090015CE0FA90015C74012AF09036
:0E2EC90000B3E0FA3395E0FB9000B4E0FC3378
:0E2ED70095E0FDEC2AFAED3BFB9000B5E0FC27
:0E2EE5003395E0FD90015DEC2AF0ED3BA3F08B
:0A2EF30090015CE0FABA02028003CD
:032EFD000230D1CF
:0C2F000012061990015CE4F07A007B00DE
:0E2F0C00C3EA9403EB6480948040030230D14A
:0A2F1A00EA24B3F582EB3400F583DE
:072F2400E0FCBC0102800388
:032F2B000230C9A8
:0C2F2E008A04EBCC25E0CC33FDEC24B68B
:0C2F3A00FEED3400FF8E828F83E0F8A3D0
:0E2F4600E0F94870368E828F837409F0A3E4A0
:0A2F5400F0EC24BCFEED3400FF8E0B
:0E2F5E00828F83E0F8A3E0F948601018B8FFF6
:022F6C00011949
:0B2F6E008E828F83E8F0A3E9F080085A
:082F79008E828F83E4F0A3F0C7
:0A2F8100EC24BCFEED3400FF8E824C
:0E2F8B008F83E0F8A3E0F948705E8E828F839A
:0C2F9900743BF0A3E4F0EC24C2F8ED342B
:0A2FA50000F988828983E0F514A387
:062FAF00E0F515E51445F4
:0A2FB50015601DC002C003E51424DE
:0C2FBF00FFFAE51534FFFB88828983EAE5
:0A2FCB00F0A3EBF0D003D002801E4B
:0C2FD50088828983E4F0A3F0EC24B6F5B8
:0C2FE10082ED3400F583E4F0A3F08E8252
:062FED008F83E4F0A3F065
:0A2FF300EC24C2F582ED3400F583F2
:0C2FFD00E0FEA3E0FF4E7030EC24B6F5BF
:0C30090082ED3400F583E0FEA3E0FF4EF2
:0A301500701EEC24BCF582ED3400BF
:0C301F00F583E0FEA3E0FF4E700CEA24F5
:0A302B00B3F582EB3400F583E4F006
:0A303500EC24B6F582ED3400F583BB
:0C303F00E0FEA3E0FFEC24BCF582ED34C1
:09304B0000F583E0F514A3E0F5A3
:0830540015EC24C2F582ED34F5
:09305C0000F583E0F516A3E0F590
:0830650017EA24B3F582EB34F5
:09306D0000F583E0F8900018E57D
:0730760014F0A3E515F09032
:07307D00001AE516F0A3E5BF
:0830840017F090001CE8F09029
:0E308C00001DEAF0A3EBF08E828F83C002C01D
:0E309A0003C004C0051207D5D005D004D00332
:0A30A800D002EC24B6FCED3400FD6C
:0E30B2008C828D83E0FEA3E0FF1EBEFF011F97
:0930C0008C828D83EEF0A3EFF089
:0530C9000ABA00010B32
:0330CE00022F0CC2
:0E30D10090015DE0FAA3E0FBBA030BBB000820
:0830DF00758CBF758A75802213
:0E30E700BA020BBB0008758CB5758A00801408
:0E30F500BA010BBB0008758C90758A0080062E
:06310300758C6F758A0057
:0E310900D0D0D001D000D007D006D005D00421
:0D311700D003D002D083D082D0F0D0E032BF
:084DAF00436F756E742D300096
:064DB70054696D657200F5
:034DBD002D440082
:0E4DC0000A0A0D09090909092A2A2A2A2A2A9B
:0E4DCE002A2A20436C6F636B20436F6E747251
:0E4DDC006F6C20436F6D6D616E6473202A2A28
:0E4DEA002A2A2A2A2A2A0A0A0D09312E2053C3
:0E4DF800746F7020436C6F636B20090909090A
:0E4E06000909322E20526573746172742043C4
:0E4E14006C6F636B20090909332E2052657301
:0E4E2200657420436C6F636B0A0D09342E20FB
:0E4E300053656C65637420436F756E742D447A
:0E4E3E006F776E2054696D657220616E64207E
:0E4E4C0056616C756520090909352E205469E0
:0E4E5A006D657220456E61626C652009090964
:0E4E6800362E2054696D6572204469736162B4
:044E76006C65200047
:0E4E7A000A0A0A0D09090909092A2A2A2A2A00
:0E4E88002A2A2A204C434420436F6D6D616E30
:0E4E96006473202A2A2A2A2A2A2A2A0A0A0DA6
:0E4EA40009372E2043726561746520437573D3
:0E4EB200746F6D2043686172616374657209EC
:0E4EC0000909382E20446973706C6179204313
:0E4ECE007573746F6D20436861726163746563
:0E4EDC00720909092763272E20434752414DD2
:0E4EEA002044756D700909092764272E2044A5
:0E4EF8004452414D2044756D700A0D09276C1F
:0E4F0600272E454550524F4D20436F6E746567
:0E4F14006E74206F6E204C434420446973700D
:0E4F22006C617909092771272E20436C6561A7
:0E4F300072204C434420446973706C61790018
:0E4F3E000A0A0A0D09090909092A2A2A2A2A3B
:0E4F4C002A2A2A20494F20457870616E64653C
:0E4F5A007220436F6E74726F6C20436F6D6D2A
:0E4F6800616E6473202A2A2A2A2A2A2A2A0A1B
:0E4F76000A0D092778272E20526573657420D6
:0E4F8400436F756E7465720909090927692764
:0E4F92002E20436F6E66696775726520494F69
:0E4FA0002050696E73090909092773272E2016
:0E4FAE00537461747573206F6620494F5F4520
:084FBC007870616E64657200FB
:0E4FC4000A0A0A0D09090909092A2A2A2A2AB5
:0E4FD2002A2A2A20454550524F4D20436F6E2B
:0E4FE00074726F6C20436F6D6D616E64732090
:0E4FEE002A2A2A2A2A2A2A2A200A0A0D0927F4
:0E4FFC0077272E20454550524F4D20577269A1
:0E500A007465200909092772272E204545509C
:0E501800524F4D205265616420090909092795
:0E50260068272E204845582044756D70090AF1
:035034000D090063
:0E5037000A0A0D09090909092A2A2A2A2A2A21
:0E5045002A2A2044656D6F20436F6D6D616EE9
:0E5053006473202A2A2A2A2A2A2A2A200A0AD4
:0E5061000D092779272E205761746368646F4C
:0E506F00672044656D6F200909092739272E37
:0E507D00204C4F474F204372656174696F6E7F
:0E508B002044656D6F200909092774274545EB
:0E50990050524F4D2054696D65204D65617376
:0E50A7007572650A0D092762272E20454550B7
:0E50B500524F4D20426C6F636B2046696C6C4D
:0250C3002000CB
:0E50C5000A0A0D0909202A2A2A2A2A2A20204E
:0E50D30053746F7020436C6F636B20202A2A89
:0450E1002A2A2A004D
:0E50E5000A0A0D0909202A2A2A2A2A2A20202E
:0E50F3005265737461727420436C6F636B209E
:08510100202A2A2A2A2A2A008A
:0E5109000A0A0D0909202A2A2A2A2A2A202009
:0E511700526573657420436C6F636B20202A11
:065125002A2A2A2A2A00B2
:0E512B000A0A0D0909202A2A2A2A2A2A2020E7
:0E5139004C6F616420436F756E746572205672
:0C514700616C7565202A2A2A2A2A2A0099
:0E5153000A0A0D0909202A2A2A2A2A2A2020BF
:0E51610054696D657220456E61626C65202098
:07516F002A2A2A2A2A2A003D
:0E5176000A0A0D0909202A2A2A2A2A2A20209C
:0E51840054696D65722044697361626C652028
:08519200202A2A2A2A2A2A00F9
:0E519A000A0A0D0909202A2A2A2A2A2A202078
:0E51A800437573746F6D2043686172616374A8
:0B51B600657220202A2A2A2A2A2A00DB
:0E51C1000A0A0D0909202A2A2A2A2A2A202051
:0E51CF00526573657420436F756E74657220AF
:0851DD00202A2A2A2A2A2A00AE
:0E51E5000A0A0D0909202A2A2A2A2A2A20202D
:0E51F300436F6E66696775726520494F2050E4
:0C520100696E7320202A2A2A2A2A2A001B
:0E520D000A0A0D0909202A2A2A2A2A2A202004
:0E521B00537461747573206F6620494F2045EF
:0E5229007870616E64657220202A2A2A2A2A73
:025237002A004B
:0E5239000A0A0D0909202A2A2A2A2A2A2020D8
:0E524700454550524F4D205772697465202026
:075255002A2A2A2A2A2A0056
:0E525C000A0A0D0909202A2A2A2A2A2A2020B5
:0E526A00454550524F4D205265616420202A68
:065278002A2A2A2A2A005E
:0E527E000A0A0D0909202A2A2A2A2A2A202093
:0E528C00434752414D2044756D7020202A2A60
:05529A002A2A2A2A0067
:0E529F000A0A0D0909202A2A2A2A2A2A202072
:0E52AD00444452414D2044756D7020202A2A41
:0552BB002A2A2A2A0046
:0E52C0000A0A0D0909202A2A2A2A2A2A202051
:0E52CE004865782044756D7020202A2A2A2A0F
:0352DC002A2A007B
:0E52DF000A0A0D0909202A2A2A2A2A2A202032
:0E52ED004C434420444953504C415920202A40
:0652FB002A2A2A2A2A00DB
:0E5301000A0A0D0909202A2A2A2A2A2A20200F
:0E530F00436C656172204C434420202A2A2AF8
:04531D002A2A2A000E
:0E5321000A0A0D092053656C656374207469D7
:0E532F006D6572206E756D6265722062657428
:0E533D007765656E203020746F20323A2009AB
:01534B000061
:0E534C000A0A0D202A2D4552524F522D2A0AD0
:0E535A000D0920456E74657220612076616C2D
:0E5368006964206E756D6265722062657477EF
:0B53760065656E203020746F2032004F
:0E5381000A0A0D456E746572206D696E7574B2
:0E538F00657320666F722074696D657220254B
:0E539D0064206265747765656E203020746F41
:0753AB002035393A2009000A
:0E53B2000A0A0D202A2D4552524F522D2A0A6A
:0E53C0000D0920456E74657220612076616CC7
:0E53CE006964206E756D626572206265747789
:0C53DC0065656E203020746F20353900AC
:0E53E8000A0A0D456E746572207365636F6E60
:0E53F600647320666F722074696D65722025E5
:0E54040064206265747765656E203120746FD8
:075412002035393A200900A2
:0E5419000A0A0D456E746572206D696C697328
:0E542700656320666F722074696D65722025C2
:0E54350064206265747765656E203020746FA8
:0654430020393A200900A7
:0E5449000A0A0D202A2D4552524F522D2A0AD2
:0E5457000D0920456E74657220612076616C2F
:0E5465006964206E756D6265722062657477F1
:0B54730065656E203020746F2039004A
:0E547E000A0A0D0957686963682074696D6534
:0E548C007220746F20656E61626C652062652F
:0E549A00747765656E203020746F20323A09F9
:0154A8000003
:0354A9002D45008E
:0E54AC000A0A0D57686963682074696D65729D
:0E54BA0020746F2044697361626C6520626526
:0E54C800747765656E203020746F20323A09CB
:0154D60000D5
:0954D70044697361626C656400B4
:0E54E0000A0A09092044697361626C696E67EB
:0654EE002E2E2E0A0D0017
:0E54F4000A0A0D092053656C65637420436835
:0E5502006172616374657220636F646520627C
:0E55100065747765656E203020746F20373A21
:03551E0020090061
:0E5521000A0A0D202A2D4552524F522D2A0AF9
:0E552F000D0920456E74657220612076616C56
:0E553D006964206E756D626572206265747718
:0B554B0065656E203020746F20370073
:0E5556000A0A0D0920456E746572207069788E
:0E556400656C206D617020696E2048455820EE
:0E557200696E20484820666F726D6174206675
:0E558000726F6D20303020746F2031463A205B
:02558E00090012
:0E5590000A0D09204461746120696E20726F5B
:0E559E0077206E756D6265722025643A2009D3
:0155AC0000FE
:0E55AD000A0A0D202A2D4552524F522D2A0A6D
:0E55BB000D0920456E74657220612076616CCA
:0E55C900696420484558206E756D6265722039
:0E55D7006265747765656E20303020746F2039
:0E55E500314620696E20484820666F726D6165
:0455F300743A0900FD
:0E55F7000A0D0909202020202020093132331E
:0356050034350039
:0D5608000A0D0909524F572025643A090088
:035615002563000A
:0E5618000A0A0D092053656C6563742043680F
:0E5626006172616374657220636F6465206257
:0E56340065747765656E203020746F20372016
:0E564200746F20646973706C61793A200900FE
:0E5650000A0A0D20456E746572204164647272
:0E565E0065737320696E2048657820696E20A0
:0E566C0048484820666F726D61742062657454
:0E567A007765656E2030303020746F20374623
:04568800463A20007E
:0E568C000A0A0D202A2D4552524F522D2A098E
:0E569A0020506C6561736520456E746572204A
:0E56A80076616C6964204164647265737320DE
:0E56B6006265747765656D2030303020616E5E
:0856C40064203746463A20003D
:0E56CC000A0A0D20456E7465722044617461F7
:0E56DA0020696E2048657820696E20484820BF
:0E56E800666F726D6174206265747765656E21
:0C56F60020303020746F2046463A20001F
:0E5702000A0A0D202A2D4552524F522D2A0917
:0E57100020506C6561736520456E74657220D3
:0E571E0076616C6964206461746120696E209C
:0E572C0048657820696E20484820666F726DCF
:0E573A006174206265747765656E20303020E2
:08574800746F2046463A200070
:0E5750000A0A0D0909092578203A202578203B
:02575E000A003F
:0E5760000A0A0D092043757272656E7420539B
:0E576E007461747573206F662074686520493D
:0E577C004F5F457870616E6465722070696ED3
:0E578A00732069733A20307825780A0A0D00E2
:0E5798000A0A0A0D5761746368646F67205235
:0A57A600455345542044656D6F0023
:0E57B0000A0A0A0D09090909092A2A2A2A2AC1
:0E57BE002A2A2A204C434420436F6D6D616EF1
:0E57CC006473202A2A2A2A2A2A2A2A0A0A0D67
:0E57DA0009372E204372656174652043757394
:0E57E800746F6D2043686172616374657209AD
:0E57F6000909382E20446973706C61792043D4
:0E5804007573746F6D20436861726163746523
:0E581200720909092763272E20434752414D92
:0E5820002044756D700909092764272E204465
:0E582E004452414D2044756D700A0D09276CDF
:0E583C00272E204C434420446973706C617920
:0E584A00090909092771272E20436C65617238
:0D585800204C434420446973706C6179005A
:0E5865000A0A0D0920507265737320276D2703
:0E58730020746F2073656520746865204D6594
:0E5881006E7520616761696E206F7220507233
:0E588F0065737320436F6D6D616E64204B6511
:04589D00793A09004B
:015975000031
:0259760000002F
:0D3124009000F07441F09000F17442F090C2
:0C31310000F27443F09000F37444F0903E
:0C313D0000F47445F09000F57446F0902A
:0C31490000F67447F09000F77448F09016
:0C31550000F87449F09000F9744AF09002
:0C31610000FA744BF09000FB744CF090EE
:0C316D0000FC744DF09000FD744EF090DA
:0C31790000FE744FF09000FF7450F074E2
:08318500A1C0E07458C0E01283
:0E318D0035B415811581B2947A007B007CE880
:02319B007D03B2
:0E319D008A0690012AE4F0A37401F08A828B66
:0E31AB0083C002C003C004C005C00612396311
:0E31B900AF82A883D006D005D004D003D00288
:0E31C70090005E74AAF090005FEFF08E82C060
:0E31D50002C003C004C00512109FD005D00434
:0931E300D003D0020ABA00010B6E
:0531EC001CBCFF011DE9
:0E31F100EC4D70A8B294900005C002C003120D
:0C31FF000E7BD003D002B2957C3E7D0018
:0E320B008A0690012AE4F0A37401F08A828BF7
:0E32190083C002C003C004C005C006123963A2
:0E322700AF82A883D006D005D004D003D00219
:09323500900057EFF0900058746E
:0A323E00F0F0A37400F0A37400F098
:0E32480090005B7410F0E4A3F08E82C002C010
:0E32560003C004C005120FD4D005D004D0036D
:0E326400D00274102AFAE43BFB1CBCFF011DD3
:07327200EC4D7095B29522AE
:0E58A1000A0A0D54696D696E672070726F6699
:0E58AF00696C696E67206F662074686520451D
:0E58BD004550524F4D2C200A0D50315F3420C3
:0E58CB00666F72206279746520777269746569
:0E58D9000A0D50315F3520666F7220706167D6
:0B58E700652077726974650A0A0D00E5
:06327900E582900104F063
:0C327F003099FD900104E0F599C29922FD
:05328B0010980280FB19
:05329000AA998A8222C8
:0E32950075C800759B00438780758DFF758B93
:0B32A3000043884043985275892022A8
:0B32AE00A8811818C6B2E7C602390A52
:0E32B900AA83E582900107F0A3EAF0900109D4
:0E32C700E4F0A3F0900105E0FAA3E0FB7C1018
:0C32D500900107E0FDA3E0FE339200EE44
:0E32E100CD25E0CD33FE900107EDF0A3EEF019
:0E32EF00900109E0FDA3E0FECD25E0CD33FE09
:0C32FD00900109EDF0A3EEF030001290FB
:0E3309000109E0FDA3E0FE90010974014DF002
:03331700A3EEF032
:0E331A00900109E0FDA3E0FEC3ED9AEE9B409A
:0D3328001D900109EDC39AF0EE9BA3F090FB
:0E3335000107E0FDA3E0FE90010774014DF0DA
:03334300A3EEF006
:0E334600DC8D900107E0FAA3E08A82F5832275
:06003D00E478FFF6D8FD97
:08001B007903E94400601B7A3F
:05002300019059757801
:030028005C75A064
:0A002B0001E493F2A308B8000205F7
:08003500A0D9F4DAF275A0FF76
:0E335400AAF0AB83E58290010BF0A3EBF0A38F
:0E336200EAF07A007B0090010BE0FCA3E0FD96
:03337000A3E0FED9
:0E3373008C828D838EF0124346FF6039C37446
:0E338100B98FF063F08095F04007EF64809400
:03338F00B0502615
:0E3392008C828D838EF0124346FFBF2D028089
:0133A0001715
:0533A100BF2B028012A9
:0533A6000CBC00010D4C
:0D33AB0090010BECF0A3EDF0A3EEF080BB61
:0E33B80090010BECF0A3EDF0A3EEF08C828DF3
:0C33C600838EF0124346FFE4BF2D01048B
:0833D200F888017003BF2B0E07
:0E33DA0090010B74012CF0E43DA3F0A3EEF083
:0B33E80090010BE0FCA3E0FDA3E0FE61
:0E33F3008C828D838EF0124346FF6068C3EF1C
:0E340100648094B0406074B98FF063F08095E1
:0E340F00F04055C001900117740AF0E4A3F0DC
:0E341D008A828B83C004C005C006C007C001B0
:08342B001236BC85821885836E
:0C34330019D001D007D006D005D004EF5E
:0E343F003395E0F8EF24D0FFE834FFF8EF25D6
:0A344D0018FAE83519FB0CBC000169
:013457000D67
:0E34580090010BECF0A3EDF0A3EEF0D001809C
:013466008CD9
:0E34670090010BECF0A3EDF0A3EEF0E960098C
:09347500C3E49AFCE49BFD800411
:04347E008A048B052C
:053482008C828D832205
:0E348700AAF0AB83E58290010EF0A3EBF0A358
:0E349500EAF090010EE0FAA3E0FBA3E0FC9049
:0E34A3000111EAF0A3EBF0A3ECF0900114E4A9
:0334B100F0A3F095
:0A34B40012328BAA82BA0802800DC2
:0534BE00BA0A0280675C
:0534C300BA0D02806259
:0334C80002355D6D
:0E34CB00900114E0FBA3E0FC4B60DE7582086C
:0E34D900C003C004123279D004D003758220E3
:0E34E700C003C004123279D004D003758208ED
:0E34F500C003C004123279D004D0039001113C
:0D350300E0FDA3E0FEA3E0FF1DBDFF011EE3
:0E351000900111EDF0A3EEF0A3EFF01BBBFF56
:02351E00011C8E
:0A352000900114EBF0A3ECF0808A98
:0D352A0075820D12327975820A1232799085
:0E3537000111E0FBA3E0FCA3E0FD8B828C837E
:0E3545008DF0E412359B90010EE0FBA3E0FC3C
:0A355300A3E0FD8B828C838DF02233
:0E355D00900111E0FBA3E0FCA3E0FD8B828C4B
:0E356B00838DF0EA12359B90011174012BF054
:0E357900E43CA3F0A3EDF0900114E0FBA3E00E
:0E358700FC90011474012BF0E43CA3F08A8246
:063595001232790234B489
:0E359B0020F71030F6118883A88220F507F67D
:0535A900A883758300FA
:0135AE0022FA
:0335AF00F280F7B0
:0235B200F02205
:0535B400C01E85811E10
:0B35B900E51E24FDF8868318868218AA
:0E35C400E493A324DB600C242560051236A1DD
:0235D20080F087
:0335D4000236B903
:0935D700D2D5E493A3C083C082A5
:0335E000B47314AD
:0935E30086F01886831886821810
:0B35EC001243466053A31236A180F585
:0A35F700B46307E6181236A1804302
:0E360100B46417E630E74618E6F42401F60834
:0C360F00E6F43400F6742D1236A180336E
:0A361B00B4782D868318868218E427
:0B362500123692E583123691E5831205
:0A3630003692E582123691E582120F
:0A363A00369230D50574301236A127
:07364400D082D0830235C4DF
:03364B00B475F65D
:06364E00E6FA18E6F91887
:0D3654007C107D2712367CFF7CE87D031280
:0E366100367CC4F5837C647D0012367C428387
:0D366F00E975F00A84C445F0F582EF80A9EA
:02367C007B00D1
:0E367E000BC3E99CF9EA9DFA50F61BE92CF902
:05368C00EA3DFAEB220B
:01369100C474
:07369200540F700320D51F47
:08369900C2D52490D43440D4C2
:0E36A100C083C082C0F0F582E8C0E01232792A
:0936AF00D0E0F8D0F0D082D08305
:0136B80022EF
:0336B900D01E22FE
:0E36BC00AA83AB828BF0900117E0A4F8A9F06E
:0E36CA008AF0E0A429F98BF0A3E0A429F5838F
:0436D80088822222A0
:0E36DC00AA82AB83ACF0FD90011DEAF0A3EBD7
:0E36EA00F0A3ECF0A3EDF0900119E0FAA3E0DC
:0E36F800FBA3E0FCA3E0FDEA4B4C4D700990F3
:08370600000075F080743F2201
:0E370E00C002C003C004C005E4C0E0C0E07407
:0E371C0080C0E0743FC0E08A828B838CF0EDA9
:0E372A001245B4AE82E58124FCF581D005D0B5
:0E37380004D003D002EE601590011DE0FEA348
:0E374600E0FFA3E0F8A3E0F98E828F8388F005
:013754002252
:0937550090011DE0F51AA3E0F556
:08375E001BA3E0F51CA3E0F53C
:0C3766001DC002C003C004C005E4C0E0A8
:0A377200C0E0C0E0C0E0851A8285C7
:06377C001B83851CF0E533
:0C3782001D1245C5AE82E58124FCF581D6
:0E378E00D005D004D003D002EE7007900000EA
:04379C00E4F5F0223E
:0737A000851A82851B838559
:0A37A7001CF0E51DC002C003C004C1
:0E37B100C005124446AE82AF83A8F0F9D005E1
:0E37BF00D004D003D002C002C003C004C00575
:0E37CD008E828F8388F0E9124375AA82AB8347
:0E37DB00ACF0FDE58124FCF5818A828B838CA5
:0537E900F0ED0245F5C2
:0E37EE00AA83E582900123F0A3EAF090012364
:0E37FC00E0FAA3E0FB30E709C3E49AFCE49B8B
:03380A00FD80043A
:04380D008A048B0599
:0E3811008C028D03900121E0FCA3E0FD30E766
:0A381F0009C3E49CFEE49DFF800451
:043829008C068D0775
:0D382D00900125EEF0A3EFF08A828B83124C
:0E383A00385CAA82AB83900123E0FCA3E0FD82
:0E38480030E70CC3E49AFCE49BFD8C828D8378
:01385600224F
:053857008A828B832230
:0E385C00AA83E582900127F0A3EAF0900129EB
:0C386A00E4F0900127E0FAA3E0FB7C00F2
:0E387600900125E0FDA3E0FE235401FF703712
:0E388400EECD25E0CD33FE900125EDF0A3EE54
:0E389200F0900125E0FDA3E0FEC3EA9DEB9E51
:0E38A0005011EEC313CD13CDFE900125EDF0B7
:0538AE00A3EEF080080C
:0838B3000C900129ECF080BB30
:0538BB00900129E0FA74
:0E38C000900127E0FBA3E0FC900125E0FDA3B2
:0E38CE00E0FEC3EB9DEC9E400B900127EBC388
:0638DC009DF0EC9EA3F03C
:0E38E200900125E0FBA3E0FCC313CB13CBFC4D
:0E38F000900125EBF0A3ECF08A031AEB70C2F6
:0C38FE00900127E0FAA3E08A82F5832203
:03390A001244184C
:09390D007900E583B58202800D0A
:0539160050031242D92C
:08391B00E583C39582124548C3
:08392300E5D0C465D020E117D6
:0E392B00EA2DFAEB3EFBEC3FFC500974011252
:063939004548EC4480FC4F
:03393F000239F258
:0E394200C3EA9DFAEB9EFBEC9FFC500FC3E422
:0D39500099F9E49AFAE49BFBE49CFCB2D1E7
:06395D0012458B0239F255
:080043007800E84400600A792E
:03004B000075A09D
:06004E0000E4F309D8FCF8
:08005400785CE84401600C79BE
:0B005C0002900000E4F0A3D8FCD9FAE9
:0E396300AA83E58290012CF0A3EAF090012CDB
:0E397100E0FAA3E0FB30E709C3E49AFCE49B14
:03397F00FD8004C4
:043982008A048B0523
:0E3986008C028D0390012AE0FCA3E0FD33E4E7
:0D39940033FE6009C3E49CFFE49DF880044D
:0439A1008C078D0002
:0E39A500900105EFF0A3E8F08A828B83C00644
:0E39B3001232B9AA82AB83D00690012CE0FC40
:0E39C100A3E0FD33E4336E600CC3E49AFCE433
:0739CF009BFD8C828D832219
:0539D6008A828B8322B0
:0C39DB00E4AC83AB82FAF9748E02436BFB
:0B39E7007F8E12478CF58385F0822252
:0639F200B98003EA13B3E3
:0E39F8004010EA2401FAE43BFBE43CFC5004DE
:043A06007C80058239
:093A0A00BC000EBB000BBA000861
:083A1300E4F5F0F583F58222D1
:0E3A1B00A2D1E582138CF092F78B838A82226F
:0D3A2900E4F583F58275F080F4A2D113223C
:0B3A3600E4F583F58275F0C0747F2278
:083A4100C01E85811EAA82123D
:053A49003279D01E22BD
:0E3A4E00AAF0AB83E58290012FF0A3EBF0A36A
:0E3A5C00EAF090012FE0FAA3E0FBA3E0FC905B
:0E3A6A00012EE0FD900142E4F0A3F0A3F090E5
:0E3A78000145EAF0A3EBF0A3ECF0900148ED5D
:073A8600F0903A41023BA65B
:063A8D00C01E85811EE54C
:0C3A93001E24FBFA900142E4F0A3F0A313
:0C3A9F00F0E51E24FBF8900145E6F0085D
:0D3AAB00A3E6F008A3E6F0900148EAF090D1
:0A3AB8003A41123BA6AA82AB83D06C
:023AC2001E22C2
:0C3AC400E58290013EF090013EE0FA9097
:0E3AD0000134E0C0E0A3E0C0E0A3E0C0E07479
:083ADE00F2C0E0743AC0E09070
:0C3AE6000132E0C0E0A3E0C0E08A8222D0
:0E3AF20015811581158190013CE0FAA3E0FBDF
:0C3B000090013C74012AF0E43BA3F02289
:0E3B0C00E58290013FF090013FE0FA74302A0C
:0C3B1A00FA24C6500A74072AFA3001038E
:033B260043022037
:053B29008A82023AC48B
:0E3B2E00E582900140F0900140E0FAC4540F8F
:0E3B3C00FBF582C002123B0CD00253020F8A2E
:043B4A0082023B0CAC
:0E3B4E00E582900141F0900137E0FAA3E0FB20
:0E3B5C00A3E0FCA3E0FD90013BE0FE900141E0
:043B6A00E0FF7820E0
:0E3B6E00EE2EFEED235401F94206EA2AFAEB90
:0E3B7C0033FBEC33FCED33FDC3EE9F4007EE50
:063B8A00C39FFE4302018F
:0E3B9000D8DC900137EAF0A3EBF0A3ECF0A331
:083B9E00EDF090013BEEF02276
:0E3BA600AA83E582900149F0A3EAF09001495C
:0E3BB400E0FAA3E0FB900132EAF0A3EBF09000
:0E3BC2000142E0FAA3E0FBA3E0FC900134EA2C
:0E3BD000F0A3EBF0A3ECF090013CE4F0A3F0C6
:0E3BDE00900145E0FAA3E0FBA3E0FC8A828B95
:0E3BEC00838CF0124346FD90014574012AF0CF
:0D3BFA00E43BA3F0A3ECF0ED70030242CD1C
:053C0700BD2502800351
:033C0C000242C5AC
:053C0F00C202C203C265
:043C140004C205C21F
:043C180006C207C217
:043C1C0008C2099041
:093C2000014BE4F090014CF0901E
:0E3C2900014D74FFF0900145E0FAA3E0FBA30B
:023C3700E0FCAF
:0E3C39008A828B838CF0124346FEA3AA82ABD4
:0D3C470083900145EAF0A3EBF0A3ECF090B0
:0D3C5400014FEEF0BE25088E82123AC40228
:023C61003BDE48
:053C63008E07BF3000D8
:0E3C680040498E07EF24C6404290014DE0FF18
:0E3C7600BFFF29C002C003C00490014CE0FA59
:0E3C840075F00AA4FAEE24D090014C2AF090BC
:0D3C9200014CE0FAD004D003D002709BD2A8
:033C9F0003809708
:0E3CA200EF75F00AA4FFEE24D090014D2FF034
:033CB000023C399A
:0E3CB30090014FE0FEBE2E0890014DE4F0029D
:023CC1003C398C
:0E3CC3008E82C002C003C004C0061247FAE59C
:0C3CD1008224FF9201D006D004D003D062
:0B3CDD000230010790014F74DF5EF021
:0A3CE80090014FE0FEBE200280555F
:053CF200BE2B02804B17
:053CF700BE2D0280411A
:053CFC00BE4202804BF6
:053D0100BE43028050EA
:063D0600BE4403023F3A37
:063D0C00BE4603023F5C0D
:063D1200BE4903023F3A26
:053D1800BE4C028034E6
:063D1D00BE4F03023F440B
:063D2300BE5003023E9CAD
:053D2900BE53028042C0
:063D2E00BE5503023F4CEC
:063D3400BE5803023F54DB
:033D3A00023F60E5
:053D3D00D202023C3936
:053D4200D204023C392F
:053D4700D205023C3929
:053D4C00D207023C3922
:053D5100D208023C391C
:0E3D5600900148E0FA24FEF8900148F0860241
:0C3D6400088603188A82123AC4023F6CE1
:0E3D7000900148E0FA24FDF8900148F0860228
:0E3D7E000886030886041818900137EAF0A39F
:0E3D8C00EBF0A3ECF0900137E0FAA3E0FBA30C
:0E3D9A00E0FC8A828B838CF01242F3AA82AB8B
:0E3DA8008390014DE0FBBBFF0590014DEAF05A
:0C3DB60020023890014CE0FBC3EA9B5057
:0D3DC2002E90014CEBC39AF090014CE0FBF9
:0D3DCF008B041B90014CEBF0BC0002801037
:0E3DDC00758220C002C003123AC4D003D00288
:023DEA0080E374
:053DEC0090014CEBF01A
:053DF10090014DE0FD12
:0E3DF600C002900137E0FCA3E0FFA3E0FA8CCE
:0E3E0400828F838AF0124346D00260538D04F1
:0E3E12001DC374808CF063F08095F05044C0A6
:0A3E200002900137E0F522A3E0F55F
:083E2A0023A3E0F52474012537
:073E320022FBE43523FAAC8A
:0C3E390024900137EBF0A3EAF0A3ECF0BA
:073E4500852282852383859D
:0C3E4C0024F0124346FAF582C002C005C3
:0B3E5800123AC4D005D002D0028093C3
:063E6300200203023F6C87
:0D3E690090014CE0FBC3EA9B4003023F6C5C
:0C3E760090014CEBC39AF090014CE0FA74
:0E3E82008A031A90014CEAF0BB0003023F676E
:0C3E9000758220C002123AC4D00280E605
:0E3E9C00900148E0FB24FDF8900148F08603F9
:0E3EAA000886040886071818900137EBF0A36D
:0E3EB800ECF0A3EFF0900139E0FB247F5008FE
:083EC60090014F7443F08020CD
:0D3ECE00EB249F500890014F7450F08013BA
:0D3EDB00EB24BF500890014F7449F08006A1
:063EE80090014F7458F038
:0E3EEE0090014FE0FBF582C003123AC4D003EE
:0E3EFC0075823AC003123AC4D003758230C0FA
:0E3F0A0003123AC4D003758278C003123AC481
:073F1800D003BB4902800F3A
:053F1F00BB5002800A06
:0A3F2400900138E0FBF582123B2EFD
:0C3F2E00900137E0FBF582123B2E803240
:0A3F3A00D20690014B740AF08028B3
:083F440090014B7408F080208D
:083F4C0090014B740AF080188B
:083F540090014B7410F0801085
:043F5C00D209800CFA
:073F60008E82123AC48005B5
:053F670090014CEAF09E
:0C3F6C0030096B900148E0FA24FCF8904A
:0E3F78000148F08602088603088604088606C3
:0E3F8600181818900137EAF0A3EBF0A3ECF046
:0B3F9400A3EEF090013774F2F0A3746C
:063F9F0058F0A37480F04D
:0E3FA500900137E0FBA3E0FCA3E0FD74012BCC
:0E3FB300FEE43CFF8D02900137EEF0A3EFF02C
:0E3FC100A3EAF08B828C838DF0124346FA70D7
:043FCF0003023BDED0
:073FD3008A82123AC480CB80
:0B3FDA0090014BE0FABA0003023BDE4E
:083FE5009001567455F0A3741D
:063FED0001F030074C90CA
:0E3FF3000148E0FA14F8900148F08602EA3323
:0E40010095E0FBFCFE900137EAF0A3EBF0A384
:0B400F00ECF0A3EEF03006030240B41A
:0E401A00900137E0FAA3E0FBA3E0FCA3E0FE78
:0E4028007B007C007E00900137EAF0A3EBF0F5
:08403600A3ECF0A3EEF080768C
:0C403E0030082A900148E0FA24FCF890B9
:0E404A000148F08602088603088604088606F0
:0E405800181818900137EAF0A3EBF0A3ECF073
:05406600A3EEF080490B
:0E406B00900148E0FA24FEF8900148F0860229
:0E40790008860318EB3395E0FCFE900137EA51
:0C408700F0A3EBF0A3ECF0A3EEF0200699
:0E40930020900137E0FAA3E0FBA3E0FCA3E0DD
:0E40A100FE7C007E00900137EAF0A3EBF0A356
:0540AF00ECF0A3EEF0AF
:0C40B40030063E900137E0FAA3E0FBA3C9
:0E40C000E0FCA3E0FE30E72B900137E0FAA30E
:0E40CE00E0FBA3E0FCA3E0FEC3E49AFAE49B4F
:0E40DC00FBE49CFCE49EFE900137EAF0A3EBAF
:0940EA00F0A3ECF0A3EEF080025B
:0240F300C20603
