:10005F00AAF0AB83E582900000F0A3EBF0A3EAF0E7
:10006F00900000E0FAA3E0FBA3E0FC74032AFDE498
:10007F003BFE8C078D828E838FF01216F6FD600487
:10008F00900834228A828B838CF01216F6FDC3649B
:10009F008094B0403374B78DF063F08095F04028B2
:1000AF00ED3395E0FEED24D0FDEE34FF8D067D009F
:1000BF00900003EDF0A3EEF090000074012AF0E43D
:1000CF003BA3F0A3ECF0800490083722900000E0EF
:1000DF00FAA3E0FBA3E0FC8A828B838CF01216F666
:1000EF00FDC3648094B0404874B98DF063F080957F
:1000FF00F0403DED3395E0FEED24D0FDEE34FFFEF4
:10010F00C454F0CDC4CD6DCD54F0CD6DFE90000331
:10011F00E0FFA3E0F8900003ED2FF0EE38A3F0908E
:10012F00000074012AF0E43BA3F0A3ECF002020AF2
:10013F00900000E0FAA3E0FBA3E0FC8A828B838CA3
:10014F00F01216F6FDC3648094E1404874E68DF01A
:10015F0063F08095F0403DED3395E0FEED24A9FD71
:10016F00EE34FFFEC454F0CDC4CD6DCD54F0CD6D43
:10017F00FE900003E0FFA3E0F8900003ED2FF0EEF8
:10018F0038A3F090000074012AF0E43BA3F0A3EC35
:10019F00F002020A900000E0FAA3E0FBA3E0FC8A61
:1001AF00828B838CF01216F6FDC3648094C1404796
:1001BF0074C68DF063F08095F0403CED3395E0FE12
:1001CF00ED24C9FDEE34FFFEC454F0CDC4CD6DCD8A
:1001DF0054F0CD6DFE900003E0FFA3E0F890000314
:1001EF00ED2FF0EE38A3F090000074012AF0E43BFD
:1001FF00A3F0A3ECF0800490083522900000E0FA01
:10020F00A3E0FBA3E0FC8A828B838CF01216F6FA34
:10021F00C3648094B0402D74B98AF063F08095F078
:10022F004022EA3395E0FBEA24D0FAEB34FFFB904F
:10023F000003E0FCA3E0FD900003EA2CF0EB3DA3EC
:10024F00F00202E7900000E0FAA3E0FBA3E0FC8AD3
:10025F00828B838CF01216F6FAC3648094E1402CE3
:10026F0074E68AF063F08095F04021EA3395E0FB65
:10027F00EA24A9FAEB34FFFB900003E0FCA3E0FDB6
:10028F00900003EA2CF0EB3DA3F0804C900000E0CF
:10029F00FAA3E0FBA3E0FC8A828B838CF01216F6A4
:1002AF00FAC3648094C1402C74C68AF063F08095C1
:1002BF00F04021EA3395E0FBEA24C9FAEB34FFFB67
:1002CF00900003E0FCA3E0FD900003EA2CF0EB3D6F
:1002DF00A3F0800490083622900003E0FAA3E08A8E
:1002EF0082F58322AAF0AB83E582900005F0A3EBA1
:1002FF00F0A3EAF0900005E0FAA3E0FBA3E0FC74A2
:10030F00022AFDE43BFE8C078D828E838FF012163E
:10031F00F6FD6004900102228A828B838CF0121604
:10032F00F6FDC3648094B0403E74B98DF063F080E5
:10033F0095F04033ED3395E0FEED24D0FDEE34FF24
:10034F00FEC454F0CDC4CD6DCD54F0CD6DFE9000F4
:10035F0008EDF0A3EEF090000574012AF0E43BA342
:10036F00F0A3ECF002042C900005E0FAA3E0FBA34D
:10037F00E0FC8A828B838CF01216F6FDC3648094A6
:10038F00E1403D74E68DF063F08095F04032ED333F
:10039F0095E0FEED24A9FDEE34FFFEC454F0CDC46C
:1003AF00CD6DCD54F0CD6DFE900008EDF0A3EEF0C5
:1003BF0090000574012AF0E43BA3F0A3ECF0805DFC
:1003CF00900005E0FAA3E0FBA3E0FC8A828B838C0C
:1003DF00F01216F6FDC3648094C1403D74C68DF0D3
:1003EF0063F08095F04032ED3395E0FEED24C9FDCA
:1003FF00EE34FFFEC454F0CDC4CD6DCD54F0CD6DB1
:10040F00FE900008EDF0A3EEF090000574012AF0C5
:10041F00E43BA3F0A3ECF0800490010122900005CF
:10042F00E0FAA3E0FBA3E0FC8A828B838CF0121628
:10043F00F6FAC3648094B0402D74B98AF063F080EB
:10044F0095F04022EA3395E0FBEA24D0FAEB34FF33
:10045F00FB900008E0FCA3E0FD900008EA2CF0EB15
:10046F003DA3F0020509900005E0FAA3E0FBA3E02D
:10047F00FC8A828B838CF01216F6FAC3648094E1A7
:10048F00402C74E68AF063F08095F04021EA3395B2
:10049F00E0FBEA24A9FAEB34FFFB900008E0FCA391
:1004AF00E0FD900008EA2CF0EB3DA3F0804C9000AB
:1004BF0005E0FAA3E0FBA3E0FC8A828B838CF012A9
:1004CF0016F6FAC3648094C1402C74C68AF063F0A8
:1004DF008095F04021EA3395E0FBEA24C9FAEB342A
:1004EF00FFFB900008E0FCA3E0FD900008EA2CF071
:1004FF00EB3DA3F0800490010122900008E0FAA3E5
:06050F00E08A82F5832260
:041BA30000A000C0DE
:10051500AA83E58290000AF0A3EAF090000AE0FAC7
:10052500A3E0FBBA0005BB0002800F1ABAFF011B4E
:1005350090000AEAF0A3EBF080E990000AEAF0A344
:10054500EBF022AA83E58290000CF0A3EAF090007C
:100555000CE0FAA3E0FBBA0005BB0002801D900089
:1005650070C002C003120515D003D0021ABAFF01EC
:100575001B90000CEAF0A3EBF080DB90000CEAF096
:10058500A3EBF022E58290000EF090000EE0FABA9F
:10059500000280129003E8C002120548D0021A90AA
:1005A500000EEAF080E990000EEAF022E582900064
:1005B50011F01207C5900010E025E0FA4302A08A69
:1005C500821207FD120874900011E0FAF5821207F5
:1005D500FD12087490000FE0FAF5821207FD12086B
:1005E500741207E2900005020548E582900013F0B9
:1005F5001207C5900012E025E0FA74A04AFBF582C7
:10060500C0021207FDD002C002120874D002900089
:1006150013E0FBF582C0021207FDD002C0021208EA
:1006250074D002C0021207C5D0024302A18A821209
:1006350007FD12087412082AAA82C00212087CD08B
:1006450002C0021207E2D00290000AC0021205158C
:10065500D0028A8222E582900019F0900018E0FA13
:10066500900019E0FB900014E0FCA3E0FDA3E0FE80
:10067500900017E0FFBF0002803F8C828D838EF0D3
:100685001216F6F8A3AC82AD8390000FE8F0900047
:1006950010EAF08B82C002C003C004C005C006C0CA
:1006A500071205B1D007D006D005D004D003D0027B
:1006B5000B900019EBF01F80BC900019EBF022E5C0
:1006C50082900020F01207C590001AE025E0FA7428
:1006D500A04AFBF582C0021207FDD002C002120833
:1006E50074D002900020E0FBF582C0021207FDD015
:1006F50002C002120874D002C0021207C5D002431C
:1007050002A18A821207FD12087490001BE0FAA369
:10071500E0FB90001DE0FCA3E0FDA3E0FE7F007878
:1007250000C3EF9AE864808BF063F08095F0505633
:10073500C002C003C004C005C006C007C00012083F
:100745002AA982D000D007D006D005D004D003D086
:10075500028C828D838EF0E9121499A3AC82AD834D
:10076500C002C003C004C005C006C007C00012080F
:1007750074D000D007D006D005D004D003D0020F26
:10078500BF009E08809BEA2CFAEB3DFB8E07C0025A
:10079500C003C00712082AAC82D007D003D0028A52
:1007A500828B838FF0EC12149912087C0207E29079
:1007B5000001120515D291900001120515C2912272
:1007C500C291D292900001120515D29190000112AA
:1007D5000515C292900001120515C29122C2919091
:1007E5000001120515C292900001120515D29190D3
:1007F5000001120515D29222E582900021F07A00BF
:10080500BA0800501D900021E0FB339292C002C04F
:10081500031207B4D003D002EB2BFB900021F00AA2
:1008250080DED29222900022E4F0D2927A00BA08B9
:10083500005035900001C002120515D002D29190EA
:100845000001C002120515D002900022E025E0FB50
:10085500900022F0900022E0FBE4A29233FC90008D
:10086500224BF0C2910A80C6900022E0F58222C296
:10087500921207B4D29222D2921207B4D29122C216
:10088500939000C8120AC2900097E0FAA3E0FB8A91
:10089500828B837430F090003C120AC2900097E07E
:1008A500FAA3E0FB8A828B837430F0900005120A6C
:1008B500C2900097E0FAA3E0FB8A828B837430F044
:1008C5001209BA900097E0FAA3E0FB8A828B837441
:1008D50038F0900001120AC21209BA900097E0FAA6
:1008E500A3E0FB8A828B837408F01209BA90009703
:1008F500E0FAA3E0FB8A828B83740CF01209BA90AC
:100905000097E0FAA3E0FB8A828B837406F0120954
:10091500BA900097E0FAA3E0FB8A828B837401F01A
:10092500900001020AC2E582900023F0D293900064
:1009350001120AC2900097E0FAA3E0FB900023E0C1
:10094500FC8A828B83F00209BAE582900024F0C20A
:1009550093900001120AC2900097E0FAA3E0FB9081
:100965000024E0FC8A828B83F0D2900209BAD293EC
:10097500900001120AC2900099E0FAA3E0FB8A8276
:100985008B83E0FA900025F01209BA900025E0F576
:100995008222E582900026F0C293900001120AC2DD
:1009A500900097E0FAA3E0FB900026E0FC8A828B9A
:1009B50083F00209BAC293900099E0FAA3E0FB8A9A
:1009C500828B83E0FA900027F0900001120AC29012
:1009D5000027E0FA30E714900099E0FAA3E0FB8ADB
:1009E500828B83E0FA900027F080E4C29022AAF07F
:1009F500AB83E582900028F0A3EBF0A3EAF090002A
:100A050028E0FAA3E0FBA3E0FC7D007E00ED2AFFD1
:100A1500EE3BF88C018F82888389F01216F6FF6011
:100A2500208F82C002C003C004C005C00612092B76
:100A3500D006D005D004D003D0020DBD00CF0E8066
:100A4500CC22E58290002CF090002CE0FABA01133C
:100A550090002BE0FABA11005009747F2AFAF5824A
:100A650002099790002CE0FABA021390002BE0FAE5
:100A7500BA1100500974BF2AFAF58202099790004D
:100A85002CE0FABA031390002BE0FABA11005009D2
:100A9500748F2AFAF58202099790002CE0FABA04BD
:100AA5001390002BE0FABA1100500974CF2AFAF519
:100AB5008202099790171675F0800209F3AA83E55B
:100AC5008290002DF0A3EAF090002DE0FAA3E0FB60
:100AD5007C007D00C3EC9AED64808BF063F080951B
:100AE500F050147E647F001EBEFF011FEE4F70F7AD
:100AF5000CBC00E00D80DD22E582900032F0741C14
:100B0500C0E07417C0E01214B21581158190003849
:100B1500E4F0A3F090003375F000121385900033D4
:100B250075F000121252AA82AB838A048B05C3ECBE
:100B35009404ED9400500B9000387401F0E4A3F098
:100B45008017C002C0037442C0E07417C0E01214DD
:100B5500B215811581D003D002900038E0FCA3E0E6
:100B6500FD4C60A90A90002B7401F08A82120A4795
:100B750090002FE0FAA3E0FBA3E0FC8A828B838C34
:100B8500F01209F375823A12092B900032E0FAF55A
:040B95008202092BA4
:101716004572726F72000A0A0D20456E746572205A
:10172600526F77206E756D6265722062657477659B
:10173600656E203020746F20333A20000A0A0D208F
:10174600456E7465722076616C696420726F7720CD
:101756006E756D626572206265747765656D2030A1
:0917660020616E6420333A20007A
:041BA70000A000C0DA
:03000000020003F8
:03005C00020B99FB
:100B9900120BA580FE438EC090000022D29012084D
:100BA9008412123975820012099775828612099783
:100BB90090176F75F0801209F390002B7406F07589
:100BC9008202120A4790177275F0801209F3900099
:100BD9002B7406F0758203120A4790177875F08016
:100BE9001209F3747EC0E07417C0E01214B21581C3
:100BF90015813098FD12122FAA82C00212121DD03F
:100C090002E4BA310104FB601AC002C0037418C0BF
:100C1900E07418C0E01214B215811581D003D00216
:100C2900020CD4BA321AC002C003743BC0E0741873
:100C3900C0E01214B215811581D003D002020CD480
:100C4900BA331AC002C003745EC0E07418C0E0125F
:100C590014B215811581D003D002020CD4BA34190B
:100C6900C002C0037480C0E07418C0E01214B21549
:100C7900811581D003D0028052BA3519C002C00350
:100C890074A0C0E07418C0E01214B215811581D0A7
:100C990003D0028036BA3619C002C00374C7C0E057
:100CA9007418C0E01214B215811581D003D00280E6
:100CB9001ABA3717C002C00374F3C0E07418C0E051
:100CC9001214B215811581D003D002EB700DBA321E
:100CD900028008BA33028003020E6BC002C003749B
:100CE9001FC0E07419C0E01214B215811581D00338
:100CF900D00290004EE4F0A3F090003A75F000C0E5
:100D090002C003121385D003D00290003A75F00097
:100D1900C002C00312005FAC82AD83D003D0028C45
:100D2900068D0774F82F400B90004E7401F0E4A370
:100D3900F0801FC002C003C004C005745BC0E0742A
:100D490019C0E01214B215811581D005D004D00361
:100D5900D00290004EE0FEA3E0FF4E60958C068D18
:100D6900078F08750900EB7003020E0DC004C0055A
:100D79007490C0E07419C0E01214B215811581D0C5
:100D890005D00490004EE4F0A3F090004475F00003
:100D9900C004C005121385D005D00490004475F035
:100DA90000C004C0051202F3AB82A883D005D004A9
:100DB9008B01880674FF2E400B90004E7401F0E4FD
:100DC900A3F0801FC003C004C005C00074C6C0E002
:100DD9007419C0E01214B215811581D000D005D064
:100DE90004D00390004EE0F9A3E0FE4960958C061B
:100DF900AF0890000FEBF0900010EFF08E82120513
:100E0900B1020E8CBA32368C038D06900012E508B9
:100E1900F08B82C004C0051205EFAB82D005D00467
:100E29007E00C003C006C004C0057402C0E0741A85
:100E3900C0E01214B2E58124FAF5818046BA334341
:100E4900900012E508F08C821205EFAB8290002F1A
:100E5900743AF0A37400F0A37400F08B82120AFDB7
:100E69008021BA340875820112094E8016BA3505F7
:100E7900120E9E800EBA36051211268006BA370365
:100E89001211D2740DC0E0741AC0E01214B21581A7
:100E99001581020BFB900079E4F0A3F074A2C0E085
:100EA900741AC0E01214B215811581900077E4F02C
:100EB900A3F090005075F00012138590005075F062
:100EC9000012005FAA82AB83900075EAF0A3EBF0F1
:100ED9008A048B0574F82D400B9000777401F0E4B7
:100EE900A3F08017C002C00374E4C0E0741AC0E024
:100EF9001214B215811581D003D002900077E0FC5D
:100F0900A3E0FD4C60A5C002C0037418C0E0741BC7
:100F1900C0E01214B215811581D003D00290007778
:100F2900E4F0A3F090005A75F000C002C003121358
:100F390085D003D00290005A75F000C002C0031298
:100F4900005FAC82AD83D003D0028C068D0774F8A4
:100F59002F400B9000777401F0E4A3F0801FC002CA
:100F6900C003C004C00574E4C0E0741AC0E01214E0
:100F7900B215811581D005D004D003D00290007735
:100F8900E0FEA3E0FF4E6095ECC39AFCED9BFDC02B
:100F990002C003C004C005C004C0057458C0E07491
:100FA9001BC0E01214B2E58124FCF581D005D00400
:100FB900D003D0028C068D07EF30E71FC002C003B3
:100FC900C004C005746DC0E0741BC0E01214B215F2
:100FD900811581D005D004D003D0028C068D07C3BA
:100FE900E49E74808FF063F08095F04003020EA5B3
:100FF9007E007F00C3EC9EED9F500122EE540F60EE
:10100900030210ADC004C005C002C003C004C0057E
:10101900C006C007C002C0037494C0E0741BC0E0DE
:101029001214B2E58124FCF581D007D006D005D091
:1010390004D003D00274102AFAE43BFB900079E44F
:10104900F0A3F0900075E0F8A3E0F9890A750B00A8
:10105900880490001AE50AF090001B7410F0E4A3CC
:10106900F090001D7464F0A37400F0A3E4F08C8286
:10107900C002C003C004C005C006C007C000C0014B
:101089001206C4D001D000D007D006D005D004D0B4
:1010990003D002900075740128F0E439A3F0D0055B
:1010A900D0048013900075E0F8A3E0F990007574FE
:1010B9000128F0E439A3F0C004C005900079E0F8F4
:1010C900A3E0F9E82464F582E93400F583E0FC7DC6
:1010D90000C002C003C004C005C006C007C000C0EC
:1010E90001C004C005749CC0E0741BC0E01214B2B6
:1010F900E58124FCF581D001D000D007D006D005C8
:10110900D004D003D002900079740128F0E439A307
:10111900F00EBE00010FD005D004020FFD758280CC
:1011290012094E7A007B007C00C3EB9440EC64808A
:10113900948040012290008A7410F0E4A3F08B821D
:101149008C83C002C003C0041215DAE5828583F0DE
:10115900D004D003D00245F070330AC002C003C0E6
:101169000474A0C0E0741BC0E01214B2158115818B
:10117900D004D003D00290002B7401F08A82C002FF
:10118900C003C004120A47D004D003D002C002C071
:1011990003C004120973AD82D004D003D0028D823A
:1011A900C002C003C00412121DD004D003D00290A3
:1011B900000AC002C003C004120548D004D003D0FD
:1011C900020BBB00010C02113275820A12121D7545
:1011D900824012094E7A207B00C002C003120973B3
:1011E900AC82D003D002758209C002C003C00412C8
:1011F900121DD004D003D0028C82C002C003121287
:101209001DD003D0021ABAFF011BEA4B70CB900024
:041219000A02054878
:10176F0048690048656C6C6F00576F726C64000AB3
:10177F000D09090909092A2A2A2A2A2A2A2A20436D
:10178F006F6E74726F6C20436F6D6D616E6473203A
:10179F002A2A2A2A2A2A2A2A0A0D09312E20577282
:1017AF006974652042797465200A0D09322E205222
:1017BF006561642042797465200A0D09332E204C2F
:1017CF00434420446973706C61790A0D09342E20EB
:1017DF00436C656172204C43440A0D09352E204835
:1017EF0065782044756D700A0D09362E20444452D9
:1017FF00414D2044756D700A0D09372E2043475215
:10180F00414D2044756D7009000A0A0D0909202AFF
:10181F002A2A2A2A2A2020577269746520436F6D5D
:10182F006D616E6420202A2A2A2A2A000A0A0D09CD
:10183F0009202A2A2A2A2A2A202052656164204355
:10184F006F6D6D616E6420202A2A2A2A2A2A000AC7
:10185F000A0D0909202A2A2A2A2A2A20204C434421
:10186F0020444953504C415920202A2A2A2A2A2AF7
:10187F00000A0A0D0909202A2A2A2A2A2A20204387
:10188F006C656172204C434420202A2A2A2A2A2A76
:10189F00000A0A0D0909202A2A2A2A2A2A20204862
:1018AF0065782044756D7020436F6D6D616E642097
:1018BF00202A2A2A2A2A2A000A0A0D0909202A2A56
:1018CF002A2A2A2A2020444452414D2044756D7003
:1018DF0020436F6D6D616E6420202A2A2A2A2A2ADE
:1018EF000A0A0D000A0A0D0909202A2A2A2A2A2A79
:1018FF002020434752414D2044756D7020436F6D3A
:10190F006D616E6420202A2A2A2A2A2A0A0A0D00CB
:10191F000A0A0D20456E7465722041646472657306
:10192F007320696E2048657820696E2048484820EA
:10193F00666F726D6174206265747765656E2030B5
:10194F00303020746F203746463A20000A0A0D20A7
:10195F00456E7465722076616C6964206E756D6278
:10196F006572204164647265737320626574776574
:10197F00656D2030303020616E64203746463A2046
:10198F00000A0A0D20456E7465722044617461204F
:10199F00696E2048657820696E20484820666F720E
:1019AF006D6174206265747765656E2030302074C8
:1019BF006F2046463A20000A0A0D20456E74657264
:1019CF002076616C6964206461746120696E2048BF
:1019DF00657820696E20484820666F726D617420AB
:1019EF006265747765656E20303020746F204646CF
:1019FF003A20000A0A0D25783A2578200A000A0AAB
:101A0F000A0D09090909092A2A2A2A2A2A2A2A2013
:101A1F00436F6E74726F6C20436F6D6D616E647384
:101A2F00202A2A2A2A2A2A2A2A0A0D312E205772D8
:101A3F006974652042797465200A0D322E20526533
:101A4F0061642042797465200A0D332E204C434483
:101A5F0020446973706C61790A0D342E20436C65D4
:101A6F006172204C43440A0D352E2048657820447E
:101A7F00756D700A0D362E20444452414D20447529
:101A8F006D700A0D372E20434752414D2044756D1E
:101A9F007009000A0A0D20456E7465722053746137
:101AAF007274204164647265737320696E20486597
:101ABF007820696E2048484820666F726D617420E7
:101ACF006265747765656E2030303020746F203713
:101ADF0046463A20000A0A0D456E746572207661FB
:101AEF006C6964206E756D62657220416464726505
:101AFF007373206265747765656D203030302061B7
:101B0F006E64203746463A20000A0A0D20456E744F
:101B1F00657220456E642041646472657373206939
:101B2F006E2048657820696E2048484820666F729D
:101B3F006D6174206265747765656E20303030207A
:101B4F00746F203746463A20000A0D09546F7461AE
:101B5F006C2042797465733A2025640A0D00456E36
:101B6F0064206164647265737320736D616C6C655E
:101B7F0072207468616E2073746172742061646482
:101B8F0072657373000A0A0D25783A0900257809E2
:041B9F00000A0D002B
:041BAB0000A000C0D6
:10121D00E58290007BF03099FD90007BE0F599C25E
:10122D00992210980280FBAA998A822275C80075AE
:10123D009B00858787758DFD758B0043884043988E
:05124D0052758920220A
:06003200E478FFF6D8FDA2
:10001000790CE94400601B7A01901BA3789375A0CA
:1000200000E493F2A308B8000205A0D9F4DAF2754F
:02003000A0FF2F
:10125200AAF0AB83E58290007CF0A3EBF0A3EAF066
:101262007A007B0090007CE0FCA3E0FDA3E0FE8C12
:10127200828D838EF01216F6FF6039C374B98FF037
:1012820063F08095F04007EF648094B050268C8222
:101292008D838EF01216F6FFBF2D028017BF2B0230
:1012A20080120CBC00010D90007CECF0A3EDF0A3C9
:1012B200EEF080BB90007CECF0A3EDF0A3EEF08C9E
:1012C200828D838EF01216F6FFE4BF2D0104F8889A
:1012D200017003BF2B0E90007C74012CF0E43DA33F
:1012E200F0A3EEF090007CE0FCA3E0FDA3E0FE8C16
:1012F200828D838EF01216F6FF6068C3EF648094CD
:10130200B0406074B98FF063F08095F04055C00131
:10131200900088740AF0E4A3F08A828B83C004C030
:1013220005C006C007C0011215BA85820C85830D5F
:10133200D001D007D006D005D004EF3395E0F8EF06
:1013420024D0FFE834FFF8EF250CFAE8350DFB0C4A
:10135200BC00010D90007CECF0A3EDF0A3EEF0D008
:1013620001808C90007CECF0A3EDF0A3EEF0E9603C
:1013720009C3E49AFCE49BFD80048A048B058C82F9
:101382008D8322AAF0AB83E58290007FF0A3EBF07D
:10139200A3EAF090007FE0FAA3E0FBA3E0FC900058
:1013A20082EAF0A3EBF0A3ECF0900085E4F0A3F066
:1013B20012122FAA82BA0802800DBA0A028067BAF4
:1013C2000D02806202145B900085E0FBA3E0FC4BFF
:1013D20060DE758208C003C00412121DD004D0035F
:1013E200758220C003C00412121DD004D00375827E
:1013F20008C003C00412121DD004D003900082E082
:10140200FDA3E0FEA3E0FF1DBDFF011E900082EDE3
:10141200F0A3EEF0A3EFF01BBBFF011C900085EBE5
:10142200F0A3ECF0808A75820D12121D75820A12E9
:10143200121D900082E0FBA3E0FCA3E0FD8B828CF6
:10144200838DF0E412149990007FE0FBA3E0FCA3EB
:10145200E0FD8B828C838DF022900082E0FBA3E082
:10146200FCA3E0FD8B828C838DF0EA12149990002C
:101472008274012BF0E43CA3F0A3EDF0900085E030
:10148200FBA3E0FC90008574012BF0E43CA3F08AFE
:101492008212121D0213B220F71030F6118883A8AF
:1014A2008220F507F6A88375830022F280F7F022E6
:1014B200C00E85810EE50E24FDF8868318868218FB
:1014C200E493A324DB600C2425600512159F80F0B1
:1014D2000215B7D2D5E493A3C083C082B473148635
:1014E200F0188683188682181216F66053A3121516
:1014F2009F80F5B46307E61812159F8043B4641702
:10150200E630E74618E6F42401F608E6F43400F67D
:10151200742D12159F8033B4782D86831886821815
:10152200E4121590E58312158FE583121590E5827A
:1015320012158FE58212159030D505743012159F61
:10154200D082D0830214C2B475F6E6FA18E6F9180E
:101552007C107D2712157AFF7CE87D0312157AC470
:10156200F5837C647D0012157A4283E975F00A8462
:10157200C445F0F582EF80A97B000BC3E99CF9EA30
:101582009DFA50F61BE92CF9EA3DFAEB22C4540FFE
:10159200700320D51FC2D52490D43440D4C083C058
:1015A20082C0F0F582E8C0E012121DD0E0F8D0F05F
:1015B200D082D08322D00E22AA83AB828BF09000FD
:1015C20088E0A4F8A9F08AF0E0A429F98BF0A3E05E
:1015D200A429F58388822222AA83E58290008CF0D6
:1015E200A3EAF090008CE0FAA3E0FB30E709C3E441
:1015F2009AFCE49BFD80048A048B058C028D039087
:10160200008AE0FCA3E0FD30E709C3E49CFEE49D10
:10161200FF80048C068D0790008EEEF0A3EFF08A17
:10162200828B83121648AA82AB8390008CE0FCA3C3
:10163200E0FD30E70CC3E49AFCE49BFD8C828D83D1
:10164200228A828B8322AA83E582900090F0A3EA09
:10165200F0900092E4F0900090E0FAA3E0FB7C00AE
:1016620090008EE0FDA3E0FE235401FF7037EECD23
:1016720025E0CD33FE90008EEDF0A3EEF090008ECB
:10168200E0FDA3E0FEC3EA9DEB9E5011EEC313CD35
:1016920013CDFE90008EEDF0A3EEF080080C9000CA
:1016A20092ECF080BB900092E0FA900090E0FBA3F5
:1016B200E0FC90008EE0FDA3E0FEC3EB9DEC9E40BB
:1016C2000B900090EBC39DF0EC9EA3F090008EE097
:1016D200FBA3E0FCC313CB13CBFC90008EEBF0A377
:1016E200ECF08A031AEB70C2900090E0FAA3E08A51
:0416F20082F58322D8
:100038007800E84400600A790075A000E4F309D864
:10004800FC7893E84400600C7901900000E4F0A388
:04005800D8FCD9FAFD
:0D00030075810E121712E5826003020B9941
:1016F60020F71430F6148883A88220F507E6A8831D
:1017060075830022E280F7E49322E02275820022AC
:00000001FF
